
FreeRTOS_AMP_Test_CM7.elf:     file format elf32-littlearm

Sections:
Idx Name          Size      VMA       LMA       File off  Algn
  0 .isr_vector   00000298  08000000  08000000  00010000  2**0
                  CONTENTS, ALLOC, LOAD, READONLY, DATA
  1 .text         00002128  08000298  08000298  00010298  2**2
                  CONTENTS, ALLOC, LOAD, READONLY, CODE
  2 .rodata       00000010  080023c0  080023c0  000123c0  2**2
                  CONTENTS, ALLOC, LOAD, READONLY, DATA
  3 .ARM.extab    00000000  080023d0  080023d0  00020010  2**0
                  CONTENTS
  4 .ARM          00000000  080023d0  080023d0  00020010  2**0
                  CONTENTS
  5 .preinit_array 00000000  080023d0  080023d0  00020010  2**0
                  CONTENTS, ALLOC, LOAD, DATA
  6 .init_array   00000004  080023d0  080023d0  000123d0  2**2
                  CONTENTS, ALLOC, LOAD, DATA
  7 .fini_array   00000004  080023d4  080023d4  000123d4  2**2
                  CONTENTS, ALLOC, LOAD, DATA
  8 .data         00000010  24000000  080023d8  00020000  2**2
                  CONTENTS, ALLOC, LOAD, DATA
  9 .bss          0000006c  24000010  080023e8  00020010  2**2
                  ALLOC
 10 ._user_heap_stack 00000604  2400007c  080023e8  0002007c  2**0
                  ALLOC
 11 .ARM.attributes 0000002e  00000000  00000000  00020010  2**0
                  CONTENTS, READONLY
 12 .debug_info   0000de6c  00000000  00000000  0002003e  2**0
                  CONTENTS, READONLY, DEBUGGING, OCTETS
 13 .debug_abbrev 00001af2  00000000  00000000  0002deaa  2**0
                  CONTENTS, READONLY, DEBUGGING, OCTETS
 14 .debug_aranges 00000c50  00000000  00000000  0002f9a0  2**3
                  CONTENTS, READONLY, DEBUGGING, OCTETS
 15 .debug_ranges 00000b88  00000000  00000000  000305f0  2**3
                  CONTENTS, READONLY, DEBUGGING, OCTETS
 16 .debug_macro  00038835  00000000  00000000  00031178  2**0
                  CONTENTS, READONLY, DEBUGGING, OCTETS
 17 .debug_line   0000d666  00000000  00000000  000699ad  2**0
                  CONTENTS, READONLY, DEBUGGING, OCTETS
 18 .debug_str    0017b592  00000000  00000000  00077013  2**0
                  CONTENTS, READONLY, DEBUGGING, OCTETS
 19 .comment      00000050  00000000  00000000  001f25a5  2**0
                  CONTENTS, READONLY
 20 .debug_frame  0000331c  00000000  00000000  001f25f8  2**2
                  CONTENTS, READONLY, DEBUGGING, OCTETS

Disassembly of section .text:

08000298 <__do_global_dtors_aux>:
 8000298:	b510      	push	{r4, lr}
 800029a:	4c05      	ldr	r4, [pc, #20]	; (80002b0 <__do_global_dtors_aux+0x18>)
 800029c:	7823      	ldrb	r3, [r4, #0]
 800029e:	b933      	cbnz	r3, 80002ae <__do_global_dtors_aux+0x16>
 80002a0:	4b04      	ldr	r3, [pc, #16]	; (80002b4 <__do_global_dtors_aux+0x1c>)
 80002a2:	b113      	cbz	r3, 80002aa <__do_global_dtors_aux+0x12>
 80002a4:	4804      	ldr	r0, [pc, #16]	; (80002b8 <__do_global_dtors_aux+0x20>)
 80002a6:	f3af 8000 	nop.w
 80002aa:	2301      	movs	r3, #1
 80002ac:	7023      	strb	r3, [r4, #0]
 80002ae:	bd10      	pop	{r4, pc}
 80002b0:	24000010 	.word	0x24000010
 80002b4:	00000000 	.word	0x00000000
 80002b8:	080023a8 	.word	0x080023a8

080002bc <frame_dummy>:
 80002bc:	b508      	push	{r3, lr}
 80002be:	4b03      	ldr	r3, [pc, #12]	; (80002cc <frame_dummy+0x10>)
 80002c0:	b11b      	cbz	r3, 80002ca <frame_dummy+0xe>
 80002c2:	4903      	ldr	r1, [pc, #12]	; (80002d0 <frame_dummy+0x14>)
 80002c4:	4803      	ldr	r0, [pc, #12]	; (80002d4 <frame_dummy+0x18>)
 80002c6:	f3af 8000 	nop.w
 80002ca:	bd08      	pop	{r3, pc}
 80002cc:	00000000 	.word	0x00000000
 80002d0:	24000014 	.word	0x24000014
 80002d4:	080023a8 	.word	0x080023a8

080002d8 <SystemInit>:
  *         configuration.
  * @param  None
  * @retval None
  */
void SystemInit (void)
{
 80002d8:	b480      	push	{r7}
 80002da:	af00      	add	r7, sp, #0
  /* FPU settings ------------------------------------------------------------*/
  #if (__FPU_PRESENT == 1) && (__FPU_USED == 1)
    SCB->CPACR |= ((3UL << (10*2))|(3UL << (11*2)));  /* set CP10 and CP11 Full Access */
 80002dc:	4b3d      	ldr	r3, [pc, #244]	; (80003d4 <SystemInit+0xfc>)
 80002de:	f8d3 3088 	ldr.w	r3, [r3, #136]	; 0x88
 80002e2:	4a3c      	ldr	r2, [pc, #240]	; (80003d4 <SystemInit+0xfc>)
 80002e4:	f443 0370 	orr.w	r3, r3, #15728640	; 0xf00000
 80002e8:	f8c2 3088 	str.w	r3, [r2, #136]	; 0x88
  #endif

    /*SEVONPEND enabled so that an interrupt coming from the CPU(n) interrupt signal is
     detectable by the CPU after a WFI/WFE instruction.*/
 SCB->SCR |= SCB_SCR_SEVONPEND_Msk;
 80002ec:	4b39      	ldr	r3, [pc, #228]	; (80003d4 <SystemInit+0xfc>)
 80002ee:	691b      	ldr	r3, [r3, #16]
 80002f0:	4a38      	ldr	r2, [pc, #224]	; (80003d4 <SystemInit+0xfc>)
 80002f2:	f043 0310 	orr.w	r3, r3, #16
 80002f6:	6113      	str	r3, [r2, #16]

#if defined(CORE_CM7)
  /* Reset the RCC clock configuration to the default reset state ------------*/
   /* Increasing the CPU frequency */
  if(FLASH_LATENCY_DEFAULT  > (READ_BIT((FLASH->ACR), FLASH_ACR_LATENCY)))
 80002f8:	4b37      	ldr	r3, [pc, #220]	; (80003d8 <SystemInit+0x100>)
 80002fa:	681b      	ldr	r3, [r3, #0]
 80002fc:	f003 030f 	and.w	r3, r3, #15
 8000300:	2b06      	cmp	r3, #6
 8000302:	d807      	bhi.n	8000314 <SystemInit+0x3c>
  {
    /* Program the new number of wait states to the LATENCY bits in the FLASH_ACR register */
    MODIFY_REG(FLASH->ACR, FLASH_ACR_LATENCY, (uint32_t)(FLASH_LATENCY_DEFAULT));
 8000304:	4b34      	ldr	r3, [pc, #208]	; (80003d8 <SystemInit+0x100>)
 8000306:	681b      	ldr	r3, [r3, #0]
 8000308:	f023 030f 	bic.w	r3, r3, #15
 800030c:	4a32      	ldr	r2, [pc, #200]	; (80003d8 <SystemInit+0x100>)
 800030e:	f043 0307 	orr.w	r3, r3, #7
 8000312:	6013      	str	r3, [r2, #0]
  }

  /* Set HSION bit */
  RCC->CR |= RCC_CR_HSION;
 8000314:	4b31      	ldr	r3, [pc, #196]	; (80003dc <SystemInit+0x104>)
 8000316:	681b      	ldr	r3, [r3, #0]
 8000318:	4a30      	ldr	r2, [pc, #192]	; (80003dc <SystemInit+0x104>)
 800031a:	f043 0301 	orr.w	r3, r3, #1
 800031e:	6013      	str	r3, [r2, #0]

  /* Reset CFGR register */
  RCC->CFGR = 0x00000000;
 8000320:	4b2e      	ldr	r3, [pc, #184]	; (80003dc <SystemInit+0x104>)
 8000322:	2200      	movs	r2, #0
 8000324:	611a      	str	r2, [r3, #16]

  /* Reset HSEON, HSECSSON, CSION, HSI48ON, CSIKERON, PLL1ON, PLL2ON and PLL3ON bits */
  RCC->CR &= 0xEAF6ED7FU;
 8000326:	4b2d      	ldr	r3, [pc, #180]	; (80003dc <SystemInit+0x104>)
 8000328:	681a      	ldr	r2, [r3, #0]
 800032a:	492c      	ldr	r1, [pc, #176]	; (80003dc <SystemInit+0x104>)
 800032c:	4b2c      	ldr	r3, [pc, #176]	; (80003e0 <SystemInit+0x108>)
 800032e:	4013      	ands	r3, r2
 8000330:	600b      	str	r3, [r1, #0]

   /* Decreasing the number of wait states because of lower CPU frequency */
  if(FLASH_LATENCY_DEFAULT  < (READ_BIT((FLASH->ACR), FLASH_ACR_LATENCY)))
 8000332:	4b29      	ldr	r3, [pc, #164]	; (80003d8 <SystemInit+0x100>)
 8000334:	681b      	ldr	r3, [r3, #0]
 8000336:	f003 0308 	and.w	r3, r3, #8
 800033a:	2b00      	cmp	r3, #0
 800033c:	d007      	beq.n	800034e <SystemInit+0x76>
  {
    /* Program the new number of wait states to the LATENCY bits in the FLASH_ACR register */
    MODIFY_REG(FLASH->ACR, FLASH_ACR_LATENCY, (uint32_t)(FLASH_LATENCY_DEFAULT));
 800033e:	4b26      	ldr	r3, [pc, #152]	; (80003d8 <SystemInit+0x100>)
 8000340:	681b      	ldr	r3, [r3, #0]
 8000342:	f023 030f 	bic.w	r3, r3, #15
 8000346:	4a24      	ldr	r2, [pc, #144]	; (80003d8 <SystemInit+0x100>)
 8000348:	f043 0307 	orr.w	r3, r3, #7
 800034c:	6013      	str	r3, [r2, #0]
  }

  /* Reset D1CFGR register */
  RCC->D1CFGR = 0x00000000;
 800034e:	4b23      	ldr	r3, [pc, #140]	; (80003dc <SystemInit+0x104>)
 8000350:	2200      	movs	r2, #0
 8000352:	619a      	str	r2, [r3, #24]

  /* Reset D2CFGR register */
  RCC->D2CFGR = 0x00000000;
 8000354:	4b21      	ldr	r3, [pc, #132]	; (80003dc <SystemInit+0x104>)
 8000356:	2200      	movs	r2, #0
 8000358:	61da      	str	r2, [r3, #28]

  /* Reset D3CFGR register */
  RCC->D3CFGR = 0x00000000;
 800035a:	4b20      	ldr	r3, [pc, #128]	; (80003dc <SystemInit+0x104>)
 800035c:	2200      	movs	r2, #0
 800035e:	621a      	str	r2, [r3, #32]

  /* Reset PLLCKSELR register */
  RCC->PLLCKSELR = 0x02020200;
 8000360:	4b1e      	ldr	r3, [pc, #120]	; (80003dc <SystemInit+0x104>)
 8000362:	4a20      	ldr	r2, [pc, #128]	; (80003e4 <SystemInit+0x10c>)
 8000364:	629a      	str	r2, [r3, #40]	; 0x28

  /* Reset PLLCFGR register */
  RCC->PLLCFGR = 0x01FF0000;
 8000366:	4b1d      	ldr	r3, [pc, #116]	; (80003dc <SystemInit+0x104>)
 8000368:	4a1f      	ldr	r2, [pc, #124]	; (80003e8 <SystemInit+0x110>)
 800036a:	62da      	str	r2, [r3, #44]	; 0x2c
  /* Reset PLL1DIVR register */
  RCC->PLL1DIVR = 0x01010280;
 800036c:	4b1b      	ldr	r3, [pc, #108]	; (80003dc <SystemInit+0x104>)
 800036e:	4a1f      	ldr	r2, [pc, #124]	; (80003ec <SystemInit+0x114>)
 8000370:	631a      	str	r2, [r3, #48]	; 0x30
  /* Reset PLL1FRACR register */
  RCC->PLL1FRACR = 0x00000000;
 8000372:	4b1a      	ldr	r3, [pc, #104]	; (80003dc <SystemInit+0x104>)
 8000374:	2200      	movs	r2, #0
 8000376:	635a      	str	r2, [r3, #52]	; 0x34

  /* Reset PLL2DIVR register */
  RCC->PLL2DIVR = 0x01010280;
 8000378:	4b18      	ldr	r3, [pc, #96]	; (80003dc <SystemInit+0x104>)
 800037a:	4a1c      	ldr	r2, [pc, #112]	; (80003ec <SystemInit+0x114>)
 800037c:	639a      	str	r2, [r3, #56]	; 0x38

  /* Reset PLL2FRACR register */

  RCC->PLL2FRACR = 0x00000000;
 800037e:	4b17      	ldr	r3, [pc, #92]	; (80003dc <SystemInit+0x104>)
 8000380:	2200      	movs	r2, #0
 8000382:	63da      	str	r2, [r3, #60]	; 0x3c
  /* Reset PLL3DIVR register */
  RCC->PLL3DIVR = 0x01010280;
 8000384:	4b15      	ldr	r3, [pc, #84]	; (80003dc <SystemInit+0x104>)
 8000386:	4a19      	ldr	r2, [pc, #100]	; (80003ec <SystemInit+0x114>)
 8000388:	641a      	str	r2, [r3, #64]	; 0x40

  /* Reset PLL3FRACR register */
  RCC->PLL3FRACR = 0x00000000;
 800038a:	4b14      	ldr	r3, [pc, #80]	; (80003dc <SystemInit+0x104>)
 800038c:	2200      	movs	r2, #0
 800038e:	645a      	str	r2, [r3, #68]	; 0x44

  /* Reset HSEBYP bit */
  RCC->CR &= 0xFFFBFFFFU;
 8000390:	4b12      	ldr	r3, [pc, #72]	; (80003dc <SystemInit+0x104>)
 8000392:	681b      	ldr	r3, [r3, #0]
 8000394:	4a11      	ldr	r2, [pc, #68]	; (80003dc <SystemInit+0x104>)
 8000396:	f423 2380 	bic.w	r3, r3, #262144	; 0x40000
 800039a:	6013      	str	r3, [r2, #0]

  /* Disable all interrupts */
  RCC->CIER = 0x00000000;
 800039c:	4b0f      	ldr	r3, [pc, #60]	; (80003dc <SystemInit+0x104>)
 800039e:	2200      	movs	r2, #0
 80003a0:	661a      	str	r2, [r3, #96]	; 0x60

  /* Enable CortexM7 HSEM EXTI line (line 78)*/
  EXTI_D2->EMR3 |= 0x4000UL;
 80003a2:	4b13      	ldr	r3, [pc, #76]	; (80003f0 <SystemInit+0x118>)
 80003a4:	6a5b      	ldr	r3, [r3, #36]	; 0x24
 80003a6:	4a12      	ldr	r2, [pc, #72]	; (80003f0 <SystemInit+0x118>)
 80003a8:	f443 4380 	orr.w	r3, r3, #16384	; 0x4000
 80003ac:	6253      	str	r3, [r2, #36]	; 0x24

  if((DBGMCU->IDCODE & 0xFFFF0000U) < 0x20000000U)
 80003ae:	4b11      	ldr	r3, [pc, #68]	; (80003f4 <SystemInit+0x11c>)
 80003b0:	681a      	ldr	r2, [r3, #0]
 80003b2:	4b11      	ldr	r3, [pc, #68]	; (80003f8 <SystemInit+0x120>)
 80003b4:	4013      	ands	r3, r2
 80003b6:	f1b3 5f00 	cmp.w	r3, #536870912	; 0x20000000
 80003ba:	d202      	bcs.n	80003c2 <SystemInit+0xea>
  {
    /* if stm32h7 revY*/
    /* Change  the switch matrix read issuing capability to 1 for the AXI SRAM target (Target 7) */
    *((__IO uint32_t*)0x51008108) = 0x000000001U;
 80003bc:	4b0f      	ldr	r3, [pc, #60]	; (80003fc <SystemInit+0x124>)
 80003be:	2201      	movs	r2, #1
 80003c0:	601a      	str	r2, [r3, #0]
  /*
   * Disable the FMC bank1 (enabled after reset).
   * This, prevents CPU speculation access on this bank which blocks the use of FMC during
   * 24us. During this time the others FMC master (such as LTDC) cannot use it!
   */
  FMC_Bank1_R->BTCR[0] = 0x000030D2;
 80003c2:	4b0f      	ldr	r3, [pc, #60]	; (8000400 <SystemInit+0x128>)
 80003c4:	f243 02d2 	movw	r2, #12498	; 0x30d2
 80003c8:	601a      	str	r2, [r3, #0]
#endif /* USER_VECT_TAB_ADDRESS */

#else
#error Please #define CORE_CM4 or CORE_CM7
#endif /* CORE_CM4 */
}
 80003ca:	bf00      	nop
 80003cc:	46bd      	mov	sp, r7
 80003ce:	f85d 7b04 	ldr.w	r7, [sp], #4
 80003d2:	4770      	bx	lr
 80003d4:	e000ed00 	.word	0xe000ed00
 80003d8:	52002000 	.word	0x52002000
 80003dc:	58024400 	.word	0x58024400
 80003e0:	eaf6ed7f 	.word	0xeaf6ed7f
 80003e4:	02020200 	.word	0x02020200
 80003e8:	01ff0000 	.word	0x01ff0000
 80003ec:	01010280 	.word	0x01010280
 80003f0:	580000c0 	.word	0x580000c0
 80003f4:	5c001000 	.word	0x5c001000
 80003f8:	ffff0000 	.word	0xffff0000
 80003fc:	51008108 	.word	0x51008108
 8000400:	52004000 	.word	0x52004000

08000404 <main>:
/**
  * @brief  The application entry point.
  * @retval int
  */
int main(void)
{
 8000404:	b580      	push	{r7, lr}
 8000406:	b086      	sub	sp, #24
 8000408:	af00      	add	r7, sp, #0
  /* USER CODE BEGIN 1 */
	MPU_Config();
 800040a:	f000 f929 	bl	8000660 <MPU_Config>
/* USER CODE BEGIN Boot_Mode_Sequence_0 */
  int32_t timeout;
/* USER CODE END Boot_Mode_Sequence_0 */

  /* MPU Configuration--------------------------------------------------------*/
  MPU_Config();
 800040e:	f000 f927 	bl	8000660 <MPU_Config>
  \details Turns on I-Cache
  */
__STATIC_FORCEINLINE void SCB_EnableICache (void)
{
  #if defined (__ICACHE_PRESENT) && (__ICACHE_PRESENT == 1U)
    if (SCB->CCR & SCB_CCR_IC_Msk) return;  /* return if ICache is already enabled */
 8000412:	4b53      	ldr	r3, [pc, #332]	; (8000560 <main+0x15c>)
 8000414:	695b      	ldr	r3, [r3, #20]
 8000416:	f403 3300 	and.w	r3, r3, #131072	; 0x20000
 800041a:	2b00      	cmp	r3, #0
 800041c:	d11b      	bne.n	8000456 <main+0x52>
  \details Acts as a special kind of Data Memory Barrier.
           It completes when all explicit memory accesses before this instruction complete.
 */
__STATIC_FORCEINLINE void __DSB(void)
{
  __ASM volatile ("dsb 0xF":::"memory");
 800041e:	f3bf 8f4f 	dsb	sy
}
 8000422:	bf00      	nop
  __ASM volatile ("isb 0xF":::"memory");
 8000424:	f3bf 8f6f 	isb	sy
}
 8000428:	bf00      	nop

    __DSB();
    __ISB();
    SCB->ICIALLU = 0UL;                     /* invalidate I-Cache */
 800042a:	4b4d      	ldr	r3, [pc, #308]	; (8000560 <main+0x15c>)
 800042c:	2200      	movs	r2, #0
 800042e:	f8c3 2250 	str.w	r2, [r3, #592]	; 0x250
  __ASM volatile ("dsb 0xF":::"memory");
 8000432:	f3bf 8f4f 	dsb	sy
}
 8000436:	bf00      	nop
  __ASM volatile ("isb 0xF":::"memory");
 8000438:	f3bf 8f6f 	isb	sy
}
 800043c:	bf00      	nop
    __DSB();
    __ISB();
    SCB->CCR |=  (uint32_t)SCB_CCR_IC_Msk;  /* enable I-Cache */
 800043e:	4b48      	ldr	r3, [pc, #288]	; (8000560 <main+0x15c>)
 8000440:	695b      	ldr	r3, [r3, #20]
 8000442:	4a47      	ldr	r2, [pc, #284]	; (8000560 <main+0x15c>)
 8000444:	f443 3300 	orr.w	r3, r3, #131072	; 0x20000
 8000448:	6153      	str	r3, [r2, #20]
  __ASM volatile ("dsb 0xF":::"memory");
 800044a:	f3bf 8f4f 	dsb	sy
}
 800044e:	bf00      	nop
  __ASM volatile ("isb 0xF":::"memory");
 8000450:	f3bf 8f6f 	isb	sy
}
 8000454:	e000      	b.n	8000458 <main+0x54>
    if (SCB->CCR & SCB_CCR_IC_Msk) return;  /* return if ICache is already enabled */
 8000456:	bf00      	nop
  #if defined (__DCACHE_PRESENT) && (__DCACHE_PRESENT == 1U)
    uint32_t ccsidr;
    uint32_t sets;
    uint32_t ways;

    if (SCB->CCR & SCB_CCR_DC_Msk) return;  /* return if DCache is already enabled */
 8000458:	4b41      	ldr	r3, [pc, #260]	; (8000560 <main+0x15c>)
 800045a:	695b      	ldr	r3, [r3, #20]
 800045c:	f403 3380 	and.w	r3, r3, #65536	; 0x10000
 8000460:	2b00      	cmp	r3, #0
 8000462:	d138      	bne.n	80004d6 <main+0xd2>

    SCB->CSSELR = 0U;                       /* select Level 1 data cache */
 8000464:	4b3e      	ldr	r3, [pc, #248]	; (8000560 <main+0x15c>)
 8000466:	2200      	movs	r2, #0
 8000468:	f8c3 2084 	str.w	r2, [r3, #132]	; 0x84
  __ASM volatile ("dsb 0xF":::"memory");
 800046c:	f3bf 8f4f 	dsb	sy
}
 8000470:	bf00      	nop
    __DSB();

    ccsidr = SCB->CCSIDR;
 8000472:	4b3b      	ldr	r3, [pc, #236]	; (8000560 <main+0x15c>)
 8000474:	f8d3 3080 	ldr.w	r3, [r3, #128]	; 0x80
 8000478:	613b      	str	r3, [r7, #16]

                                            /* invalidate D-Cache */
    sets = (uint32_t)(CCSIDR_SETS(ccsidr));
 800047a:	693b      	ldr	r3, [r7, #16]
 800047c:	0b5b      	lsrs	r3, r3, #13
 800047e:	f3c3 030e 	ubfx	r3, r3, #0, #15
 8000482:	60fb      	str	r3, [r7, #12]
    do {
      ways = (uint32_t)(CCSIDR_WAYS(ccsidr));
 8000484:	693b      	ldr	r3, [r7, #16]
 8000486:	08db      	lsrs	r3, r3, #3
 8000488:	f3c3 0309 	ubfx	r3, r3, #0, #10
 800048c:	60bb      	str	r3, [r7, #8]
      do {
        SCB->DCISW = (((sets << SCB_DCISW_SET_Pos) & SCB_DCISW_SET_Msk) |
 800048e:	68fb      	ldr	r3, [r7, #12]
 8000490:	015a      	lsls	r2, r3, #5
 8000492:	f643 73e0 	movw	r3, #16352	; 0x3fe0
 8000496:	4013      	ands	r3, r2
                      ((ways << SCB_DCISW_WAY_Pos) & SCB_DCISW_WAY_Msk)  );
 8000498:	68ba      	ldr	r2, [r7, #8]
 800049a:	0792      	lsls	r2, r2, #30
        SCB->DCISW = (((sets << SCB_DCISW_SET_Pos) & SCB_DCISW_SET_Msk) |
 800049c:	4930      	ldr	r1, [pc, #192]	; (8000560 <main+0x15c>)
 800049e:	4313      	orrs	r3, r2
 80004a0:	f8c1 3260 	str.w	r3, [r1, #608]	; 0x260
        #if defined ( __CC_ARM )
          __schedule_barrier();
        #endif
      } while (ways-- != 0U);
 80004a4:	68bb      	ldr	r3, [r7, #8]
 80004a6:	1e5a      	subs	r2, r3, #1
 80004a8:	60ba      	str	r2, [r7, #8]
 80004aa:	2b00      	cmp	r3, #0
 80004ac:	d1ef      	bne.n	800048e <main+0x8a>
    } while(sets-- != 0U);
 80004ae:	68fb      	ldr	r3, [r7, #12]
 80004b0:	1e5a      	subs	r2, r3, #1
 80004b2:	60fa      	str	r2, [r7, #12]
 80004b4:	2b00      	cmp	r3, #0
 80004b6:	d1e5      	bne.n	8000484 <main+0x80>
  __ASM volatile ("dsb 0xF":::"memory");
 80004b8:	f3bf 8f4f 	dsb	sy
}
 80004bc:	bf00      	nop
    __DSB();

    SCB->CCR |=  (uint32_t)SCB_CCR_DC_Msk;  /* enable D-Cache */
 80004be:	4b28      	ldr	r3, [pc, #160]	; (8000560 <main+0x15c>)
 80004c0:	695b      	ldr	r3, [r3, #20]
 80004c2:	4a27      	ldr	r2, [pc, #156]	; (8000560 <main+0x15c>)
 80004c4:	f443 3380 	orr.w	r3, r3, #65536	; 0x10000
 80004c8:	6153      	str	r3, [r2, #20]
  __ASM volatile ("dsb 0xF":::"memory");
 80004ca:	f3bf 8f4f 	dsb	sy
}
 80004ce:	bf00      	nop
  __ASM volatile ("isb 0xF":::"memory");
 80004d0:	f3bf 8f6f 	isb	sy
}
 80004d4:	e000      	b.n	80004d8 <main+0xd4>
    if (SCB->CCR & SCB_CCR_DC_Msk) return;  /* return if DCache is already enabled */
 80004d6:	bf00      	nop
  /* Enable D-Cache---------------------------------------------------------*/
  SCB_EnableDCache();

/* USER CODE BEGIN Boot_Mode_Sequence_1 */
  /* Wait until CPU2 boots and enters in stop mode or timeout*/
  timeout = 0xFFFF;
 80004d8:	f64f 73ff 	movw	r3, #65535	; 0xffff
 80004dc:	617b      	str	r3, [r7, #20]
  while((__HAL_RCC_GET_FLAG(RCC_FLAG_D2CKRDY) != RESET) && (timeout-- > 0));
 80004de:	bf00      	nop
 80004e0:	4b20      	ldr	r3, [pc, #128]	; (8000564 <main+0x160>)
 80004e2:	681b      	ldr	r3, [r3, #0]
 80004e4:	f403 4300 	and.w	r3, r3, #32768	; 0x8000
 80004e8:	2b00      	cmp	r3, #0
 80004ea:	d004      	beq.n	80004f6 <main+0xf2>
 80004ec:	697b      	ldr	r3, [r7, #20]
 80004ee:	1e5a      	subs	r2, r3, #1
 80004f0:	617a      	str	r2, [r7, #20]
 80004f2:	2b00      	cmp	r3, #0
 80004f4:	dcf4      	bgt.n	80004e0 <main+0xdc>
  if ( timeout < 0 )
 80004f6:	697b      	ldr	r3, [r7, #20]
 80004f8:	2b00      	cmp	r3, #0
 80004fa:	da01      	bge.n	8000500 <main+0xfc>
  {
  Error_Handler();
 80004fc:	f000 f8f0 	bl	80006e0 <Error_Handler>
  }
/* USER CODE END Boot_Mode_Sequence_1 */
  /* MCU Configuration--------------------------------------------------------*/

  /* Reset of all peripherals, Initializes the Flash interface and the Systick. */
  HAL_Init();
 8000500:	f000 f9f6 	bl	80008f0 <HAL_Init>
  /* USER CODE BEGIN Init */

  /* USER CODE END Init */

  /* Configure the system clock */
  SystemClock_Config();
 8000504:	f000 f830 	bl	8000568 <SystemClock_Config>
/* USER CODE BEGIN Boot_Mode_Sequence_2 */
/* When system initialization is finished, Cortex-M7 will release Cortex-M4 by means of
HSEM notification */
/*HW semaphore Clock enable*/
__HAL_RCC_HSEM_CLK_ENABLE();
 8000508:	4b16      	ldr	r3, [pc, #88]	; (8000564 <main+0x160>)
 800050a:	f8d3 30e0 	ldr.w	r3, [r3, #224]	; 0xe0
 800050e:	4a15      	ldr	r2, [pc, #84]	; (8000564 <main+0x160>)
 8000510:	f043 7300 	orr.w	r3, r3, #33554432	; 0x2000000
 8000514:	f8c2 30e0 	str.w	r3, [r2, #224]	; 0xe0
 8000518:	4b12      	ldr	r3, [pc, #72]	; (8000564 <main+0x160>)
 800051a:	f8d3 30e0 	ldr.w	r3, [r3, #224]	; 0xe0
 800051e:	f003 7300 	and.w	r3, r3, #33554432	; 0x2000000
 8000522:	607b      	str	r3, [r7, #4]
 8000524:	687b      	ldr	r3, [r7, #4]
/*Take HSEM */
HAL_HSEM_FastTake(HSEM_ID_0);
 8000526:	2000      	movs	r0, #0
 8000528:	f000 fba6 	bl	8000c78 <HAL_HSEM_FastTake>
/*Release HSEM in order to notify the CPU2(CM4)*/
HAL_HSEM_Release(HSEM_ID_0,0);
 800052c:	2100      	movs	r1, #0
 800052e:	2000      	movs	r0, #0
 8000530:	f000 fbbc 	bl	8000cac <HAL_HSEM_Release>
/* wait until CPU2 wakes up from stop mode */
timeout = 0xFFFF;
 8000534:	f64f 73ff 	movw	r3, #65535	; 0xffff
 8000538:	617b      	str	r3, [r7, #20]
while((__HAL_RCC_GET_FLAG(RCC_FLAG_D2CKRDY) == RESET) && (timeout-- > 0));
 800053a:	bf00      	nop
 800053c:	4b09      	ldr	r3, [pc, #36]	; (8000564 <main+0x160>)
 800053e:	681b      	ldr	r3, [r3, #0]
 8000540:	f403 4300 	and.w	r3, r3, #32768	; 0x8000
 8000544:	2b00      	cmp	r3, #0
 8000546:	d104      	bne.n	8000552 <main+0x14e>
 8000548:	697b      	ldr	r3, [r7, #20]
 800054a:	1e5a      	subs	r2, r3, #1
 800054c:	617a      	str	r2, [r7, #20]
 800054e:	2b00      	cmp	r3, #0
 8000550:	dcf4      	bgt.n	800053c <main+0x138>
if ( timeout < 0 )
 8000552:	697b      	ldr	r3, [r7, #20]
 8000554:	2b00      	cmp	r3, #0
 8000556:	da01      	bge.n	800055c <main+0x158>
{
Error_Handler();
 8000558:	f000 f8c2 	bl	80006e0 <Error_Handler>
  //----------------------------------------------------------------------------------------
  /* USER CODE END 2 */

  /* Infinite loop */
  /* USER CODE BEGIN WHILE */
  while (1)
 800055c:	e7fe      	b.n	800055c <main+0x158>
 800055e:	bf00      	nop
 8000560:	e000ed00 	.word	0xe000ed00
 8000564:	58024400 	.word	0x58024400

08000568 <SystemClock_Config>:
/**
  * @brief System Clock Configuration
  * @retval None
  */
void SystemClock_Config(void)
{
 8000568:	b580      	push	{r7, lr}
 800056a:	b09c      	sub	sp, #112	; 0x70
 800056c:	af00      	add	r7, sp, #0
  RCC_OscInitTypeDef RCC_OscInitStruct = {0};
 800056e:	f107 0324 	add.w	r3, r7, #36	; 0x24
 8000572:	224c      	movs	r2, #76	; 0x4c
 8000574:	2100      	movs	r1, #0
 8000576:	4618      	mov	r0, r3
 8000578:	f001 ff0e 	bl	8002398 <memset>
  RCC_ClkInitTypeDef RCC_ClkInitStruct = {0};
 800057c:	1d3b      	adds	r3, r7, #4
 800057e:	2220      	movs	r2, #32
 8000580:	2100      	movs	r1, #0
 8000582:	4618      	mov	r0, r3
 8000584:	f001 ff08 	bl	8002398 <memset>

  /** Supply configuration update enable
  */
  HAL_PWREx_ConfigSupply(PWR_DIRECT_SMPS_SUPPLY);
 8000588:	2004      	movs	r0, #4
 800058a:	f000 fbc7 	bl	8000d1c <HAL_PWREx_ConfigSupply>

  /** Configure the main internal regulator output voltage
  */
  __HAL_PWR_VOLTAGESCALING_CONFIG(PWR_REGULATOR_VOLTAGE_SCALE0);
 800058e:	2300      	movs	r3, #0
 8000590:	603b      	str	r3, [r7, #0]
 8000592:	4b31      	ldr	r3, [pc, #196]	; (8000658 <SystemClock_Config+0xf0>)
 8000594:	699b      	ldr	r3, [r3, #24]
 8000596:	4a30      	ldr	r2, [pc, #192]	; (8000658 <SystemClock_Config+0xf0>)
 8000598:	f443 4340 	orr.w	r3, r3, #49152	; 0xc000
 800059c:	6193      	str	r3, [r2, #24]
 800059e:	4b2e      	ldr	r3, [pc, #184]	; (8000658 <SystemClock_Config+0xf0>)
 80005a0:	699b      	ldr	r3, [r3, #24]
 80005a2:	f403 4340 	and.w	r3, r3, #49152	; 0xc000
 80005a6:	603b      	str	r3, [r7, #0]
 80005a8:	4b2c      	ldr	r3, [pc, #176]	; (800065c <SystemClock_Config+0xf4>)
 80005aa:	6adb      	ldr	r3, [r3, #44]	; 0x2c
 80005ac:	4a2b      	ldr	r2, [pc, #172]	; (800065c <SystemClock_Config+0xf4>)
 80005ae:	f043 0301 	orr.w	r3, r3, #1
 80005b2:	62d3      	str	r3, [r2, #44]	; 0x2c
 80005b4:	4b29      	ldr	r3, [pc, #164]	; (800065c <SystemClock_Config+0xf4>)
 80005b6:	6adb      	ldr	r3, [r3, #44]	; 0x2c
 80005b8:	f003 0301 	and.w	r3, r3, #1
 80005bc:	603b      	str	r3, [r7, #0]
 80005be:	683b      	ldr	r3, [r7, #0]

  while(!__HAL_PWR_GET_FLAG(PWR_FLAG_VOSRDY)) {}
 80005c0:	bf00      	nop
 80005c2:	4b25      	ldr	r3, [pc, #148]	; (8000658 <SystemClock_Config+0xf0>)
 80005c4:	699b      	ldr	r3, [r3, #24]
 80005c6:	f403 5300 	and.w	r3, r3, #8192	; 0x2000
 80005ca:	f5b3 5f00 	cmp.w	r3, #8192	; 0x2000
 80005ce:	d1f8      	bne.n	80005c2 <SystemClock_Config+0x5a>

  /** Initializes the RCC Oscillators according to the specified parameters
  * in the RCC_OscInitTypeDef structure.
  */
  RCC_OscInitStruct.OscillatorType = RCC_OSCILLATORTYPE_HSI;
 80005d0:	2302      	movs	r3, #2
 80005d2:	627b      	str	r3, [r7, #36]	; 0x24
  RCC_OscInitStruct.HSIState = RCC_HSI_DIV1;
 80005d4:	2301      	movs	r3, #1
 80005d6:	633b      	str	r3, [r7, #48]	; 0x30
  RCC_OscInitStruct.HSICalibrationValue = RCC_HSICALIBRATION_DEFAULT;
 80005d8:	2340      	movs	r3, #64	; 0x40
 80005da:	637b      	str	r3, [r7, #52]	; 0x34
  RCC_OscInitStruct.PLL.PLLState = RCC_PLL_ON;
 80005dc:	2302      	movs	r3, #2
 80005de:	64bb      	str	r3, [r7, #72]	; 0x48
  RCC_OscInitStruct.PLL.PLLSource = RCC_PLLSOURCE_HSI;
 80005e0:	2300      	movs	r3, #0
 80005e2:	64fb      	str	r3, [r7, #76]	; 0x4c
  RCC_OscInitStruct.PLL.PLLM = 4;
 80005e4:	2304      	movs	r3, #4
 80005e6:	653b      	str	r3, [r7, #80]	; 0x50
  RCC_OscInitStruct.PLL.PLLN = 60;
 80005e8:	233c      	movs	r3, #60	; 0x3c
 80005ea:	657b      	str	r3, [r7, #84]	; 0x54
  RCC_OscInitStruct.PLL.PLLP = 2;
 80005ec:	2302      	movs	r3, #2
 80005ee:	65bb      	str	r3, [r7, #88]	; 0x58
  RCC_OscInitStruct.PLL.PLLQ = 2;
 80005f0:	2302      	movs	r3, #2
 80005f2:	65fb      	str	r3, [r7, #92]	; 0x5c
  RCC_OscInitStruct.PLL.PLLR = 2;
 80005f4:	2302      	movs	r3, #2
 80005f6:	663b      	str	r3, [r7, #96]	; 0x60
  RCC_OscInitStruct.PLL.PLLRGE = RCC_PLL1VCIRANGE_3;
 80005f8:	230c      	movs	r3, #12
 80005fa:	667b      	str	r3, [r7, #100]	; 0x64
  RCC_OscInitStruct.PLL.PLLVCOSEL = RCC_PLL1VCOWIDE;
 80005fc:	2300      	movs	r3, #0
 80005fe:	66bb      	str	r3, [r7, #104]	; 0x68
  RCC_OscInitStruct.PLL.PLLFRACN = 0;
 8000600:	2300      	movs	r3, #0
 8000602:	66fb      	str	r3, [r7, #108]	; 0x6c
  if (HAL_RCC_OscConfig(&RCC_OscInitStruct) != HAL_OK)
 8000604:	f107 0324 	add.w	r3, r7, #36	; 0x24
 8000608:	4618      	mov	r0, r3
 800060a:	f000 fbe1 	bl	8000dd0 <HAL_RCC_OscConfig>
 800060e:	4603      	mov	r3, r0
 8000610:	2b00      	cmp	r3, #0
 8000612:	d001      	beq.n	8000618 <SystemClock_Config+0xb0>
  {
    Error_Handler();
 8000614:	f000 f864 	bl	80006e0 <Error_Handler>
  }

  /** Initializes the CPU, AHB and APB buses clocks
  */
  RCC_ClkInitStruct.ClockType = RCC_CLOCKTYPE_HCLK|RCC_CLOCKTYPE_SYSCLK
 8000618:	233f      	movs	r3, #63	; 0x3f
 800061a:	607b      	str	r3, [r7, #4]
                              |RCC_CLOCKTYPE_PCLK1|RCC_CLOCKTYPE_PCLK2
                              |RCC_CLOCKTYPE_D3PCLK1|RCC_CLOCKTYPE_D1PCLK1;
  RCC_ClkInitStruct.SYSCLKSource = RCC_SYSCLKSOURCE_PLLCLK;
 800061c:	2303      	movs	r3, #3
 800061e:	60bb      	str	r3, [r7, #8]
  RCC_ClkInitStruct.SYSCLKDivider = RCC_SYSCLK_DIV1;
 8000620:	2300      	movs	r3, #0
 8000622:	60fb      	str	r3, [r7, #12]
  RCC_ClkInitStruct.AHBCLKDivider = RCC_HCLK_DIV2;
 8000624:	2308      	movs	r3, #8
 8000626:	613b      	str	r3, [r7, #16]
  RCC_ClkInitStruct.APB3CLKDivider = RCC_APB3_DIV2;
 8000628:	2340      	movs	r3, #64	; 0x40
 800062a:	617b      	str	r3, [r7, #20]
  RCC_ClkInitStruct.APB1CLKDivider = RCC_APB1_DIV2;
 800062c:	2340      	movs	r3, #64	; 0x40
 800062e:	61bb      	str	r3, [r7, #24]
  RCC_ClkInitStruct.APB2CLKDivider = RCC_APB2_DIV2;
 8000630:	f44f 6380 	mov.w	r3, #1024	; 0x400
 8000634:	61fb      	str	r3, [r7, #28]
  RCC_ClkInitStruct.APB4CLKDivider = RCC_APB4_DIV2;
 8000636:	2340      	movs	r3, #64	; 0x40
 8000638:	623b      	str	r3, [r7, #32]

  if (HAL_RCC_ClockConfig(&RCC_ClkInitStruct, FLASH_LATENCY_4) != HAL_OK)
 800063a:	1d3b      	adds	r3, r7, #4
 800063c:	2104      	movs	r1, #4
 800063e:	4618      	mov	r0, r3
 8000640:	f000 fff4 	bl	800162c <HAL_RCC_ClockConfig>
 8000644:	4603      	mov	r3, r0
 8000646:	2b00      	cmp	r3, #0
 8000648:	d001      	beq.n	800064e <SystemClock_Config+0xe6>
  {
    Error_Handler();
 800064a:	f000 f849 	bl	80006e0 <Error_Handler>
  }
}
 800064e:	bf00      	nop
 8000650:	3770      	adds	r7, #112	; 0x70
 8000652:	46bd      	mov	sp, r7
 8000654:	bd80      	pop	{r7, pc}
 8000656:	bf00      	nop
 8000658:	58024800 	.word	0x58024800
 800065c:	58000400 	.word	0x58000400

08000660 <MPU_Config>:
/* USER CODE END 4 */

/* MPU Configuration */

void MPU_Config(void)
{
 8000660:	b580      	push	{r7, lr}
 8000662:	b084      	sub	sp, #16
 8000664:	af00      	add	r7, sp, #0
  MPU_Region_InitTypeDef MPU_InitStruct = {0};
 8000666:	463b      	mov	r3, r7
 8000668:	2200      	movs	r2, #0
 800066a:	601a      	str	r2, [r3, #0]
 800066c:	605a      	str	r2, [r3, #4]
 800066e:	609a      	str	r2, [r3, #8]
 8000670:	60da      	str	r2, [r3, #12]

  /* Disables the MPU */
  HAL_MPU_Disable();
 8000672:	f000 fa85 	bl	8000b80 <HAL_MPU_Disable>

  /** Initializes and configures the Region and the memory to be protected
  */
  MPU_InitStruct.Enable = MPU_REGION_ENABLE;
 8000676:	2301      	movs	r3, #1
 8000678:	703b      	strb	r3, [r7, #0]
  MPU_InitStruct.Number = MPU_REGION_NUMBER0;
 800067a:	2300      	movs	r3, #0
 800067c:	707b      	strb	r3, [r7, #1]
  MPU_InitStruct.BaseAddress = 0x38000000;
 800067e:	f04f 5360 	mov.w	r3, #939524096	; 0x38000000
 8000682:	607b      	str	r3, [r7, #4]
  MPU_InitStruct.Size = MPU_REGION_SIZE_64KB;
 8000684:	230f      	movs	r3, #15
 8000686:	723b      	strb	r3, [r7, #8]
  MPU_InitStruct.SubRegionDisable = 0x0;
 8000688:	2300      	movs	r3, #0
 800068a:	727b      	strb	r3, [r7, #9]
  MPU_InitStruct.TypeExtField = MPU_TEX_LEVEL0;
 800068c:	2300      	movs	r3, #0
 800068e:	72bb      	strb	r3, [r7, #10]
  MPU_InitStruct.AccessPermission = MPU_REGION_FULL_ACCESS;
 8000690:	2303      	movs	r3, #3
 8000692:	72fb      	strb	r3, [r7, #11]
  MPU_InitStruct.DisableExec = MPU_INSTRUCTION_ACCESS_ENABLE;
 8000694:	2300      	movs	r3, #0
 8000696:	733b      	strb	r3, [r7, #12]
  MPU_InitStruct.IsShareable = MPU_ACCESS_SHAREABLE;
 8000698:	2301      	movs	r3, #1
 800069a:	737b      	strb	r3, [r7, #13]
  MPU_InitStruct.IsCacheable = MPU_ACCESS_NOT_CACHEABLE;
 800069c:	2300      	movs	r3, #0
 800069e:	73bb      	strb	r3, [r7, #14]
  MPU_InitStruct.IsBufferable = MPU_ACCESS_NOT_BUFFERABLE;
 80006a0:	2300      	movs	r3, #0
 80006a2:	73fb      	strb	r3, [r7, #15]

  HAL_MPU_ConfigRegion(&MPU_InitStruct);
 80006a4:	463b      	mov	r3, r7
 80006a6:	4618      	mov	r0, r3
 80006a8:	f000 faa2 	bl	8000bf0 <HAL_MPU_ConfigRegion>
  /* Enables the MPU */
  HAL_MPU_Enable(MPU_PRIVILEGED_DEFAULT);
 80006ac:	2004      	movs	r0, #4
 80006ae:	f000 fa7f 	bl	8000bb0 <HAL_MPU_Enable>

}
 80006b2:	bf00      	nop
 80006b4:	3710      	adds	r7, #16
 80006b6:	46bd      	mov	sp, r7
 80006b8:	bd80      	pop	{r7, pc}
	...

080006bc <HAL_TIM_PeriodElapsedCallback>:
  * a global variable "uwTick" used as application time base.
  * @param  htim : TIM handle
  * @retval None
  */
void HAL_TIM_PeriodElapsedCallback(TIM_HandleTypeDef *htim)
{
 80006bc:	b580      	push	{r7, lr}
 80006be:	b082      	sub	sp, #8
 80006c0:	af00      	add	r7, sp, #0
 80006c2:	6078      	str	r0, [r7, #4]
  /* USER CODE BEGIN Callback 0 */

  /* USER CODE END Callback 0 */
  if (htim->Instance == TIM3) {
 80006c4:	687b      	ldr	r3, [r7, #4]
 80006c6:	681b      	ldr	r3, [r3, #0]
 80006c8:	4a04      	ldr	r2, [pc, #16]	; (80006dc <HAL_TIM_PeriodElapsedCallback+0x20>)
 80006ca:	4293      	cmp	r3, r2
 80006cc:	d101      	bne.n	80006d2 <HAL_TIM_PeriodElapsedCallback+0x16>
    HAL_IncTick();
 80006ce:	f000 f94b 	bl	8000968 <HAL_IncTick>
  }
  /* USER CODE BEGIN Callback 1 */

  /* USER CODE END Callback 1 */
}
 80006d2:	bf00      	nop
 80006d4:	3708      	adds	r7, #8
 80006d6:	46bd      	mov	sp, r7
 80006d8:	bd80      	pop	{r7, pc}
 80006da:	bf00      	nop
 80006dc:	40000400 	.word	0x40000400

080006e0 <Error_Handler>:
/**
  * @brief  This function is executed in case of error occurrence.
  * @retval None
  */
void Error_Handler(void)
{
 80006e0:	b480      	push	{r7}
 80006e2:	af00      	add	r7, sp, #0
  __ASM volatile ("cpsid i" : : : "memory");
 80006e4:	b672      	cpsid	i
}
 80006e6:	bf00      	nop
  /* USER CODE BEGIN Error_Handler_Debug */
  /* User can add his own implementation to report the HAL error return state */
  __disable_irq();
  while (1)
 80006e8:	e7fe      	b.n	80006e8 <Error_Handler+0x8>
	...

080006ec <HAL_MspInit>:
/* USER CODE END 0 */
/**
  * Initializes the Global MSP.
  */
void HAL_MspInit(void)
{
 80006ec:	b580      	push	{r7, lr}
 80006ee:	b082      	sub	sp, #8
 80006f0:	af00      	add	r7, sp, #0
  /* USER CODE BEGIN MspInit 0 */

  /* USER CODE END MspInit 0 */

  __HAL_RCC_SYSCFG_CLK_ENABLE();
 80006f2:	4b11      	ldr	r3, [pc, #68]	; (8000738 <HAL_MspInit+0x4c>)
 80006f4:	f8d3 30f4 	ldr.w	r3, [r3, #244]	; 0xf4
 80006f8:	4a0f      	ldr	r2, [pc, #60]	; (8000738 <HAL_MspInit+0x4c>)
 80006fa:	f043 0302 	orr.w	r3, r3, #2
 80006fe:	f8c2 30f4 	str.w	r3, [r2, #244]	; 0xf4
 8000702:	4b0d      	ldr	r3, [pc, #52]	; (8000738 <HAL_MspInit+0x4c>)
 8000704:	f8d3 30f4 	ldr.w	r3, [r3, #244]	; 0xf4
 8000708:	f003 0302 	and.w	r3, r3, #2
 800070c:	607b      	str	r3, [r7, #4]
 800070e:	687b      	ldr	r3, [r7, #4]

  /* System interrupt init*/

  /* Peripheral interrupt init */
  /* CM4_SEV_IRQn interrupt configuration */
  HAL_NVIC_SetPriority(CM4_SEV_IRQn, 0, 0);
 8000710:	2200      	movs	r2, #0
 8000712:	2100      	movs	r1, #0
 8000714:	2041      	movs	r0, #65	; 0x41
 8000716:	f000 fa0b 	bl	8000b30 <HAL_NVIC_SetPriority>
  /* CM4_SEV_IRQn interrupt configuration */
  HAL_NVIC_EnableIRQ(CM4_SEV_IRQn);
 800071a:	2041      	movs	r0, #65	; 0x41
 800071c:	f000 fa22 	bl	8000b64 <HAL_NVIC_EnableIRQ>
  /* HSEM1_IRQn interrupt configuration */
  HAL_NVIC_SetPriority(HSEM1_IRQn, 0, 0);
 8000720:	2200      	movs	r2, #0
 8000722:	2100      	movs	r1, #0
 8000724:	207d      	movs	r0, #125	; 0x7d
 8000726:	f000 fa03 	bl	8000b30 <HAL_NVIC_SetPriority>
  /* HSEM1_IRQn interrupt configuration */
  HAL_NVIC_EnableIRQ(HSEM1_IRQn);
 800072a:	207d      	movs	r0, #125	; 0x7d
 800072c:	f000 fa1a 	bl	8000b64 <HAL_NVIC_EnableIRQ>

  /* USER CODE BEGIN MspInit 1 */

  /* USER CODE END MspInit 1 */
}
 8000730:	bf00      	nop
 8000732:	3708      	adds	r7, #8
 8000734:	46bd      	mov	sp, r7
 8000736:	bd80      	pop	{r7, pc}
 8000738:	58024400 	.word	0x58024400

0800073c <HAL_InitTick>:
  *         reset by HAL_Init() or at any time when clock is configured, by HAL_RCC_ClockConfig().
  * @param  TickPriority: Tick interrupt priority.
  * @retval HAL status
  */
HAL_StatusTypeDef HAL_InitTick(uint32_t TickPriority)
{
 800073c:	b580      	push	{r7, lr}
 800073e:	b090      	sub	sp, #64	; 0x40
 8000740:	af00      	add	r7, sp, #0
 8000742:	6078      	str	r0, [r7, #4]
  uint32_t              uwTimclock, uwAPB1Prescaler;

  uint32_t              uwPrescalerValue;
  uint32_t              pFLatency;
/*Configure the TIM3 IRQ priority */
  if (TickPriority < (1UL << __NVIC_PRIO_BITS))
 8000744:	687b      	ldr	r3, [r7, #4]
 8000746:	2b0f      	cmp	r3, #15
 8000748:	d827      	bhi.n	800079a <HAL_InitTick+0x5e>
  {
  HAL_NVIC_SetPriority(TIM3_IRQn, TickPriority ,0U);
 800074a:	2200      	movs	r2, #0
 800074c:	6879      	ldr	r1, [r7, #4]
 800074e:	201d      	movs	r0, #29
 8000750:	f000 f9ee 	bl	8000b30 <HAL_NVIC_SetPriority>

  /* Enable the TIM3 global Interrupt */
  HAL_NVIC_EnableIRQ(TIM3_IRQn);
 8000754:	201d      	movs	r0, #29
 8000756:	f000 fa05 	bl	8000b64 <HAL_NVIC_EnableIRQ>
    uwTickPrio = TickPriority;
 800075a:	4a29      	ldr	r2, [pc, #164]	; (8000800 <HAL_InitTick+0xc4>)
 800075c:	687b      	ldr	r3, [r7, #4]
 800075e:	6013      	str	r3, [r2, #0]
  {
    return HAL_ERROR;
  }

  /* Enable TIM3 clock */
  __HAL_RCC_TIM3_CLK_ENABLE();
 8000760:	4b28      	ldr	r3, [pc, #160]	; (8000804 <HAL_InitTick+0xc8>)
 8000762:	f8d3 30e8 	ldr.w	r3, [r3, #232]	; 0xe8
 8000766:	4a27      	ldr	r2, [pc, #156]	; (8000804 <HAL_InitTick+0xc8>)
 8000768:	f043 0302 	orr.w	r3, r3, #2
 800076c:	f8c2 30e8 	str.w	r3, [r2, #232]	; 0xe8
 8000770:	4b24      	ldr	r3, [pc, #144]	; (8000804 <HAL_InitTick+0xc8>)
 8000772:	f8d3 30e8 	ldr.w	r3, [r3, #232]	; 0xe8
 8000776:	f003 0302 	and.w	r3, r3, #2
 800077a:	60fb      	str	r3, [r7, #12]
 800077c:	68fb      	ldr	r3, [r7, #12]

  /* Get clock configuration */
  HAL_RCC_GetClockConfig(&clkconfig, &pFLatency);
 800077e:	f107 0210 	add.w	r2, r7, #16
 8000782:	f107 0314 	add.w	r3, r7, #20
 8000786:	4611      	mov	r1, r2
 8000788:	4618      	mov	r0, r3
 800078a:	f001 fac5 	bl	8001d18 <HAL_RCC_GetClockConfig>

  /* Get APB1 prescaler */
  uwAPB1Prescaler = clkconfig.APB1CLKDivider;
 800078e:	6abb      	ldr	r3, [r7, #40]	; 0x28
 8000790:	63bb      	str	r3, [r7, #56]	; 0x38
  /* Compute TIM3 clock */
  if (uwAPB1Prescaler == RCC_HCLK_DIV1)
 8000792:	6bbb      	ldr	r3, [r7, #56]	; 0x38
 8000794:	2b00      	cmp	r3, #0
 8000796:	d106      	bne.n	80007a6 <HAL_InitTick+0x6a>
 8000798:	e001      	b.n	800079e <HAL_InitTick+0x62>
    return HAL_ERROR;
 800079a:	2301      	movs	r3, #1
 800079c:	e02b      	b.n	80007f6 <HAL_InitTick+0xba>
  {
    uwTimclock = HAL_RCC_GetPCLK1Freq();
 800079e:	f001 faa5 	bl	8001cec <HAL_RCC_GetPCLK1Freq>
 80007a2:	63f8      	str	r0, [r7, #60]	; 0x3c
 80007a4:	e004      	b.n	80007b0 <HAL_InitTick+0x74>
  }
  else
  {
    uwTimclock = 2UL * HAL_RCC_GetPCLK1Freq();
 80007a6:	f001 faa1 	bl	8001cec <HAL_RCC_GetPCLK1Freq>
 80007aa:	4603      	mov	r3, r0
 80007ac:	005b      	lsls	r3, r3, #1
 80007ae:	63fb      	str	r3, [r7, #60]	; 0x3c
  }

  /* Compute the prescaler value to have TIM3 counter clock equal to 1MHz */
  uwPrescalerValue = (uint32_t) ((uwTimclock / 1000000U) - 1U);
 80007b0:	6bfb      	ldr	r3, [r7, #60]	; 0x3c
 80007b2:	4a15      	ldr	r2, [pc, #84]	; (8000808 <HAL_InitTick+0xcc>)
 80007b4:	fba2 2303 	umull	r2, r3, r2, r3
 80007b8:	0c9b      	lsrs	r3, r3, #18
 80007ba:	3b01      	subs	r3, #1
 80007bc:	637b      	str	r3, [r7, #52]	; 0x34

  /* Initialize TIM3 */
  htim3.Instance = TIM3;
 80007be:	4b13      	ldr	r3, [pc, #76]	; (800080c <HAL_InitTick+0xd0>)
 80007c0:	4a13      	ldr	r2, [pc, #76]	; (8000810 <HAL_InitTick+0xd4>)
 80007c2:	601a      	str	r2, [r3, #0]
  + Period = [(TIM3CLK/1000) - 1]. to have a (1/1000) s time base.
  + Prescaler = (uwTimclock/1000000 - 1) to have a 1MHz counter clock.
  + ClockDivision = 0
  + Counter direction = Up
  */
  htim3.Init.Period = (1000000U / 1000U) - 1U;
 80007c4:	4b11      	ldr	r3, [pc, #68]	; (800080c <HAL_InitTick+0xd0>)
 80007c6:	f240 32e7 	movw	r2, #999	; 0x3e7
 80007ca:	60da      	str	r2, [r3, #12]
  htim3.Init.Prescaler = uwPrescalerValue;
 80007cc:	4a0f      	ldr	r2, [pc, #60]	; (800080c <HAL_InitTick+0xd0>)
 80007ce:	6b7b      	ldr	r3, [r7, #52]	; 0x34
 80007d0:	6053      	str	r3, [r2, #4]
  htim3.Init.ClockDivision = 0;
 80007d2:	4b0e      	ldr	r3, [pc, #56]	; (800080c <HAL_InitTick+0xd0>)
 80007d4:	2200      	movs	r2, #0
 80007d6:	611a      	str	r2, [r3, #16]
  htim3.Init.CounterMode = TIM_COUNTERMODE_UP;
 80007d8:	4b0c      	ldr	r3, [pc, #48]	; (800080c <HAL_InitTick+0xd0>)
 80007da:	2200      	movs	r2, #0
 80007dc:	609a      	str	r2, [r3, #8]

  if(HAL_TIM_Base_Init(&htim3) == HAL_OK)
 80007de:	480b      	ldr	r0, [pc, #44]	; (800080c <HAL_InitTick+0xd0>)
 80007e0:	f001 fadc 	bl	8001d9c <HAL_TIM_Base_Init>
 80007e4:	4603      	mov	r3, r0
 80007e6:	2b00      	cmp	r3, #0
 80007e8:	d104      	bne.n	80007f4 <HAL_InitTick+0xb8>
  {
    /* Start the TIM time Base generation in interrupt mode */
    return HAL_TIM_Base_Start_IT(&htim3);
 80007ea:	4808      	ldr	r0, [pc, #32]	; (800080c <HAL_InitTick+0xd0>)
 80007ec:	f001 fb38 	bl	8001e60 <HAL_TIM_Base_Start_IT>
 80007f0:	4603      	mov	r3, r0
 80007f2:	e000      	b.n	80007f6 <HAL_InitTick+0xba>
  }

  /* Return function status */
  return HAL_ERROR;
 80007f4:	2301      	movs	r3, #1
}
 80007f6:	4618      	mov	r0, r3
 80007f8:	3740      	adds	r7, #64	; 0x40
 80007fa:	46bd      	mov	sp, r7
 80007fc:	bd80      	pop	{r7, pc}
 80007fe:	bf00      	nop
 8000800:	24000008 	.word	0x24000008
 8000804:	58024400 	.word	0x58024400
 8000808:	431bde83 	.word	0x431bde83
 800080c:	2400002c 	.word	0x2400002c
 8000810:	40000400 	.word	0x40000400

08000814 <NMI_Handler>:
/******************************************************************************/
/**
  * @brief This function handles Non maskable interrupt.
  */
void NMI_Handler(void)
{
 8000814:	b480      	push	{r7}
 8000816:	af00      	add	r7, sp, #0
  /* USER CODE BEGIN NonMaskableInt_IRQn 0 */

  /* USER CODE END NonMaskableInt_IRQn 0 */
  /* USER CODE BEGIN NonMaskableInt_IRQn 1 */
  while (1)
 8000818:	e7fe      	b.n	8000818 <NMI_Handler+0x4>

0800081a <HardFault_Handler>:

/**
  * @brief This function handles Hard fault interrupt.
  */
void HardFault_Handler(void)
{
 800081a:	b480      	push	{r7}
 800081c:	af00      	add	r7, sp, #0
  /* USER CODE BEGIN HardFault_IRQn 0 */

  /* USER CODE END HardFault_IRQn 0 */
  while (1)
 800081e:	e7fe      	b.n	800081e <HardFault_Handler+0x4>

08000820 <MemManage_Handler>:

/**
  * @brief This function handles Memory management fault.
  */
void MemManage_Handler(void)
{
 8000820:	b480      	push	{r7}
 8000822:	af00      	add	r7, sp, #0
  /* USER CODE BEGIN MemoryManagement_IRQn 0 */

  /* USER CODE END MemoryManagement_IRQn 0 */
  while (1)
 8000824:	e7fe      	b.n	8000824 <MemManage_Handler+0x4>

08000826 <BusFault_Handler>:

/**
  * @brief This function handles Pre-fetch fault, memory access fault.
  */
void BusFault_Handler(void)
{
 8000826:	b480      	push	{r7}
 8000828:	af00      	add	r7, sp, #0
  /* USER CODE BEGIN BusFault_IRQn 0 */

  /* USER CODE END BusFault_IRQn 0 */
  while (1)
 800082a:	e7fe      	b.n	800082a <BusFault_Handler+0x4>

0800082c <UsageFault_Handler>:

/**
  * @brief This function handles Undefined instruction or illegal state.
  */
void UsageFault_Handler(void)
{
 800082c:	b480      	push	{r7}
 800082e:	af00      	add	r7, sp, #0
  /* USER CODE BEGIN UsageFault_IRQn 0 */

  /* USER CODE END UsageFault_IRQn 0 */
  while (1)
 8000830:	e7fe      	b.n	8000830 <UsageFault_Handler+0x4>

08000832 <SVC_Handler>:

/**
  * @brief This function handles System service call via SWI instruction.
  */
void SVC_Handler(void)
{
 8000832:	b480      	push	{r7}
 8000834:	af00      	add	r7, sp, #0

  /* USER CODE END SVCall_IRQn 0 */
  /* USER CODE BEGIN SVCall_IRQn 1 */

  /* USER CODE END SVCall_IRQn 1 */
}
 8000836:	bf00      	nop
 8000838:	46bd      	mov	sp, r7
 800083a:	f85d 7b04 	ldr.w	r7, [sp], #4
 800083e:	4770      	bx	lr

08000840 <DebugMon_Handler>:

/**
  * @brief This function handles Debug monitor.
  */
void DebugMon_Handler(void)
{
 8000840:	b480      	push	{r7}
 8000842:	af00      	add	r7, sp, #0

  /* USER CODE END DebugMonitor_IRQn 0 */
  /* USER CODE BEGIN DebugMonitor_IRQn 1 */

  /* USER CODE END DebugMonitor_IRQn 1 */
}
 8000844:	bf00      	nop
 8000846:	46bd      	mov	sp, r7
 8000848:	f85d 7b04 	ldr.w	r7, [sp], #4
 800084c:	4770      	bx	lr

0800084e <PendSV_Handler>:

/**
  * @brief This function handles Pendable request for system service.
  */
void PendSV_Handler(void)
{
 800084e:	b480      	push	{r7}
 8000850:	af00      	add	r7, sp, #0

  /* USER CODE END PendSV_IRQn 0 */
  /* USER CODE BEGIN PendSV_IRQn 1 */

  /* USER CODE END PendSV_IRQn 1 */
}
 8000852:	bf00      	nop
 8000854:	46bd      	mov	sp, r7
 8000856:	f85d 7b04 	ldr.w	r7, [sp], #4
 800085a:	4770      	bx	lr

0800085c <SysTick_Handler>:

/**
  * @brief This function handles System tick timer.
  */
void SysTick_Handler(void)
{
 800085c:	b480      	push	{r7}
 800085e:	af00      	add	r7, sp, #0
  /* USER CODE END SysTick_IRQn 0 */

  /* USER CODE BEGIN SysTick_IRQn 1 */

  /* USER CODE END SysTick_IRQn 1 */
}
 8000860:	bf00      	nop
 8000862:	46bd      	mov	sp, r7
 8000864:	f85d 7b04 	ldr.w	r7, [sp], #4
 8000868:	4770      	bx	lr
	...

0800086c <TIM3_IRQHandler>:

/**
  * @brief This function handles TIM3 global interrupt.
  */
void TIM3_IRQHandler(void)
{
 800086c:	b580      	push	{r7, lr}
 800086e:	af00      	add	r7, sp, #0
  /* USER CODE BEGIN TIM3_IRQn 0 */

  /* USER CODE END TIM3_IRQn 0 */
  HAL_TIM_IRQHandler(&htim3);
 8000870:	4802      	ldr	r0, [pc, #8]	; (800087c <TIM3_IRQHandler+0x10>)
 8000872:	f001 fb6d 	bl	8001f50 <HAL_TIM_IRQHandler>
  /* USER CODE BEGIN TIM3_IRQn 1 */

  /* USER CODE END TIM3_IRQn 1 */
}
 8000876:	bf00      	nop
 8000878:	bd80      	pop	{r7, pc}
 800087a:	bf00      	nop
 800087c:	2400002c 	.word	0x2400002c

08000880 <CM4_SEV_IRQHandler>:

/**
  * @brief This function handles CM4 send event interrupt for CM7.
  */
void CM4_SEV_IRQHandler(void)
{
 8000880:	b480      	push	{r7}
 8000882:	af00      	add	r7, sp, #0

  /* USER CODE END CM4_SEV_IRQn 0 */
  /* USER CODE BEGIN CM4_SEV_IRQn 1 */

  /* USER CODE END CM4_SEV_IRQn 1 */
}
 8000884:	bf00      	nop
 8000886:	46bd      	mov	sp, r7
 8000888:	f85d 7b04 	ldr.w	r7, [sp], #4
 800088c:	4770      	bx	lr

0800088e <HSEM1_IRQHandler>:

/**
  * @brief This function handles HSEM1 global interrupt.
  */
void HSEM1_IRQHandler(void)
{
 800088e:	b580      	push	{r7, lr}
 8000890:	af00      	add	r7, sp, #0
  /* USER CODE BEGIN HSEM1_IRQn 0 */

  /* USER CODE END HSEM1_IRQn 0 */
  HAL_HSEM_IRQHandler();
 8000892:	f000 fa1f 	bl	8000cd4 <HAL_HSEM_IRQHandler>
  /* USER CODE BEGIN HSEM1_IRQn 1 */

  /* USER CODE END HSEM1_IRQn 1 */
}
 8000896:	bf00      	nop
 8000898:	bd80      	pop	{r7, pc}
	...

0800089c <Reset_Handler>:

    .section  .text.Reset_Handler
  .weak  Reset_Handler
  .type  Reset_Handler, %function
Reset_Handler:
  ldr   sp, =_estack      /* set stack pointer */
 800089c:	f8df d034 	ldr.w	sp, [pc, #52]	; 80008d4 <LoopFillZerobss+0xe>

/* Call the clock system initialization function.*/
  bl  SystemInit
 80008a0:	f7ff fd1a 	bl	80002d8 <SystemInit>

/* Copy the data segment initializers from flash to SRAM */
  ldr r0, =_sdata
 80008a4:	480c      	ldr	r0, [pc, #48]	; (80008d8 <LoopFillZerobss+0x12>)
  ldr r1, =_edata
 80008a6:	490d      	ldr	r1, [pc, #52]	; (80008dc <LoopFillZerobss+0x16>)
  ldr r2, =_sidata
 80008a8:	4a0d      	ldr	r2, [pc, #52]	; (80008e0 <LoopFillZerobss+0x1a>)
  movs r3, #0
 80008aa:	2300      	movs	r3, #0
  b LoopCopyDataInit
 80008ac:	e002      	b.n	80008b4 <LoopCopyDataInit>

080008ae <CopyDataInit>:

CopyDataInit:
  ldr r4, [r2, r3]
 80008ae:	58d4      	ldr	r4, [r2, r3]
  str r4, [r0, r3]
 80008b0:	50c4      	str	r4, [r0, r3]
  adds r3, r3, #4
 80008b2:	3304      	adds	r3, #4

080008b4 <LoopCopyDataInit>:

LoopCopyDataInit:
  adds r4, r0, r3
 80008b4:	18c4      	adds	r4, r0, r3
  cmp r4, r1
 80008b6:	428c      	cmp	r4, r1
  bcc CopyDataInit
 80008b8:	d3f9      	bcc.n	80008ae <CopyDataInit>
/* Zero fill the bss segment. */
  ldr r2, =_sbss
 80008ba:	4a0a      	ldr	r2, [pc, #40]	; (80008e4 <LoopFillZerobss+0x1e>)
  ldr r4, =_ebss
 80008bc:	4c0a      	ldr	r4, [pc, #40]	; (80008e8 <LoopFillZerobss+0x22>)
  movs r3, #0
 80008be:	2300      	movs	r3, #0
  b LoopFillZerobss
 80008c0:	e001      	b.n	80008c6 <LoopFillZerobss>

080008c2 <FillZerobss>:

FillZerobss:
  str  r3, [r2]
 80008c2:	6013      	str	r3, [r2, #0]
  adds r2, r2, #4
 80008c4:	3204      	adds	r2, #4

080008c6 <LoopFillZerobss>:

LoopFillZerobss:
  cmp r2, r4
 80008c6:	42a2      	cmp	r2, r4
  bcc FillZerobss
 80008c8:	d3fb      	bcc.n	80008c2 <FillZerobss>

/* Call static constructors */
    bl __libc_init_array
 80008ca:	f001 fd41 	bl	8002350 <__libc_init_array>
/* Call the application's entry point.*/
  bl  main
 80008ce:	f7ff fd99 	bl	8000404 <main>
  bx  lr
 80008d2:	4770      	bx	lr
  ldr   sp, =_estack      /* set stack pointer */
 80008d4:	24080000 	.word	0x24080000
  ldr r0, =_sdata
 80008d8:	24000000 	.word	0x24000000
  ldr r1, =_edata
 80008dc:	24000010 	.word	0x24000010
  ldr r2, =_sidata
 80008e0:	080023d8 	.word	0x080023d8
  ldr r2, =_sbss
 80008e4:	24000010 	.word	0x24000010
  ldr r4, =_ebss
 80008e8:	2400007c 	.word	0x2400007c

080008ec <ADC3_IRQHandler>:
 * @retval None
*/
    .section  .text.Default_Handler,"ax",%progbits
Default_Handler:
Infinite_Loop:
  b  Infinite_Loop
 80008ec:	e7fe      	b.n	80008ec <ADC3_IRQHandler>
	...

080008f0 <HAL_Init>:
  *         need to ensure that the SysTick time base is always set to 1 millisecond
  *         to have correct HAL operation.
  * @retval HAL status
  */
HAL_StatusTypeDef HAL_Init(void)
{
 80008f0:	b580      	push	{r7, lr}
 80008f2:	b082      	sub	sp, #8
 80008f4:	af00      	add	r7, sp, #0
   __HAL_ART_CONFIG_BASE_ADDRESS(0x08100000UL);  /* Configure the Cortex-M4 ART Base address to the Flash Bank 2 : */
   __HAL_ART_ENABLE();                           /* Enable the Cortex-M4 ART */
#endif /* DUAL_CORE &&  CORE_CM4 */

  /* Set Interrupt Group Priority */
  HAL_NVIC_SetPriorityGrouping(NVIC_PRIORITYGROUP_4);
 80008f6:	2003      	movs	r0, #3
 80008f8:	f000 f90f 	bl	8000b1a <HAL_NVIC_SetPriorityGrouping>

  /* Update the SystemCoreClock global variable */
#if defined(RCC_D1CFGR_D1CPRE)
  common_system_clock = HAL_RCC_GetSysClockFreq() >> ((D1CorePrescTable[(RCC->D1CFGR & RCC_D1CFGR_D1CPRE)>> RCC_D1CFGR_D1CPRE_Pos]) & 0x1FU);
 80008fc:	f001 f84c 	bl	8001998 <HAL_RCC_GetSysClockFreq>
 8000900:	4602      	mov	r2, r0
 8000902:	4b15      	ldr	r3, [pc, #84]	; (8000958 <HAL_Init+0x68>)
 8000904:	699b      	ldr	r3, [r3, #24]
 8000906:	0a1b      	lsrs	r3, r3, #8
 8000908:	f003 030f 	and.w	r3, r3, #15
 800090c:	4913      	ldr	r1, [pc, #76]	; (800095c <HAL_Init+0x6c>)
 800090e:	5ccb      	ldrb	r3, [r1, r3]
 8000910:	f003 031f 	and.w	r3, r3, #31
 8000914:	fa22 f303 	lsr.w	r3, r2, r3
 8000918:	607b      	str	r3, [r7, #4]
  common_system_clock = HAL_RCC_GetSysClockFreq() >> ((D1CorePrescTable[(RCC->CDCFGR1 & RCC_CDCFGR1_CDCPRE)>> RCC_CDCFGR1_CDCPRE_Pos]) & 0x1FU);
#endif

  /* Update the SystemD2Clock global variable */
#if defined(RCC_D1CFGR_HPRE)
  SystemD2Clock = (common_system_clock >> ((D1CorePrescTable[(RCC->D1CFGR & RCC_D1CFGR_HPRE)>> RCC_D1CFGR_HPRE_Pos]) & 0x1FU));
 800091a:	4b0f      	ldr	r3, [pc, #60]	; (8000958 <HAL_Init+0x68>)
 800091c:	699b      	ldr	r3, [r3, #24]
 800091e:	f003 030f 	and.w	r3, r3, #15
 8000922:	4a0e      	ldr	r2, [pc, #56]	; (800095c <HAL_Init+0x6c>)
 8000924:	5cd3      	ldrb	r3, [r2, r3]
 8000926:	f003 031f 	and.w	r3, r3, #31
 800092a:	687a      	ldr	r2, [r7, #4]
 800092c:	fa22 f303 	lsr.w	r3, r2, r3
 8000930:	4a0b      	ldr	r2, [pc, #44]	; (8000960 <HAL_Init+0x70>)
 8000932:	6013      	str	r3, [r2, #0]
#endif

#if defined(DUAL_CORE) && defined(CORE_CM4)
  SystemCoreClock = SystemD2Clock;
#else
  SystemCoreClock = common_system_clock;
 8000934:	4a0b      	ldr	r2, [pc, #44]	; (8000964 <HAL_Init+0x74>)
 8000936:	687b      	ldr	r3, [r7, #4]
 8000938:	6013      	str	r3, [r2, #0]
#endif /* DUAL_CORE && CORE_CM4 */

  /* Use systick as time base source and configure 1ms tick (default clock after Reset is HSI) */
  if(HAL_InitTick(TICK_INT_PRIORITY) != HAL_OK)
 800093a:	200f      	movs	r0, #15
 800093c:	f7ff fefe 	bl	800073c <HAL_InitTick>
 8000940:	4603      	mov	r3, r0
 8000942:	2b00      	cmp	r3, #0
 8000944:	d001      	beq.n	800094a <HAL_Init+0x5a>
  {
    return HAL_ERROR;
 8000946:	2301      	movs	r3, #1
 8000948:	e002      	b.n	8000950 <HAL_Init+0x60>
  }

  /* Init the low level hardware */
  HAL_MspInit();
 800094a:	f7ff fecf 	bl	80006ec <HAL_MspInit>

  /* Return function status */
  return HAL_OK;
 800094e:	2300      	movs	r3, #0
}
 8000950:	4618      	mov	r0, r3
 8000952:	3708      	adds	r7, #8
 8000954:	46bd      	mov	sp, r7
 8000956:	bd80      	pop	{r7, pc}
 8000958:	58024400 	.word	0x58024400
 800095c:	080023c0 	.word	0x080023c0
 8000960:	24000004 	.word	0x24000004
 8000964:	24000000 	.word	0x24000000

08000968 <HAL_IncTick>:
 * @note This function is declared as __weak to be overwritten in case of other
  *      implementations in user file.
  * @retval None
  */
__weak void HAL_IncTick(void)
{
 8000968:	b480      	push	{r7}
 800096a:	af00      	add	r7, sp, #0
  uwTick += (uint32_t)uwTickFreq;
 800096c:	4b06      	ldr	r3, [pc, #24]	; (8000988 <HAL_IncTick+0x20>)
 800096e:	781b      	ldrb	r3, [r3, #0]
 8000970:	461a      	mov	r2, r3
 8000972:	4b06      	ldr	r3, [pc, #24]	; (800098c <HAL_IncTick+0x24>)
 8000974:	681b      	ldr	r3, [r3, #0]
 8000976:	4413      	add	r3, r2
 8000978:	4a04      	ldr	r2, [pc, #16]	; (800098c <HAL_IncTick+0x24>)
 800097a:	6013      	str	r3, [r2, #0]
}
 800097c:	bf00      	nop
 800097e:	46bd      	mov	sp, r7
 8000980:	f85d 7b04 	ldr.w	r7, [sp], #4
 8000984:	4770      	bx	lr
 8000986:	bf00      	nop
 8000988:	2400000c 	.word	0x2400000c
 800098c:	24000078 	.word	0x24000078

08000990 <HAL_GetTick>:
  * @note This function is declared as __weak to be overwritten in case of other
  *       implementations in user file.
  * @retval tick value
  */
__weak uint32_t HAL_GetTick(void)
{
 8000990:	b480      	push	{r7}
 8000992:	af00      	add	r7, sp, #0
  return uwTick;
 8000994:	4b03      	ldr	r3, [pc, #12]	; (80009a4 <HAL_GetTick+0x14>)
 8000996:	681b      	ldr	r3, [r3, #0]
}
 8000998:	4618      	mov	r0, r3
 800099a:	46bd      	mov	sp, r7
 800099c:	f85d 7b04 	ldr.w	r7, [sp], #4
 80009a0:	4770      	bx	lr
 80009a2:	bf00      	nop
 80009a4:	24000078 	.word	0x24000078

080009a8 <HAL_GetREVID>:
/**
  * @brief  Returns the device revision identifier.
  * @retval Device revision identifier
  */
uint32_t HAL_GetREVID(void)
{
 80009a8:	b480      	push	{r7}
 80009aa:	af00      	add	r7, sp, #0
   return((DBGMCU->IDCODE) >> 16);
 80009ac:	4b03      	ldr	r3, [pc, #12]	; (80009bc <HAL_GetREVID+0x14>)
 80009ae:	681b      	ldr	r3, [r3, #0]
 80009b0:	0c1b      	lsrs	r3, r3, #16
}
 80009b2:	4618      	mov	r0, r3
 80009b4:	46bd      	mov	sp, r7
 80009b6:	f85d 7b04 	ldr.w	r7, [sp], #4
 80009ba:	4770      	bx	lr
 80009bc:	5c001000 	.word	0x5c001000

080009c0 <__NVIC_SetPriorityGrouping>:
{
 80009c0:	b480      	push	{r7}
 80009c2:	b085      	sub	sp, #20
 80009c4:	af00      	add	r7, sp, #0
 80009c6:	6078      	str	r0, [r7, #4]
  uint32_t PriorityGroupTmp = (PriorityGroup & (uint32_t)0x07UL);             /* only values 0..7 are used          */
 80009c8:	687b      	ldr	r3, [r7, #4]
 80009ca:	f003 0307 	and.w	r3, r3, #7
 80009ce:	60fb      	str	r3, [r7, #12]
  reg_value  =  SCB->AIRCR;                                                   /* read old register configuration    */
 80009d0:	4b0b      	ldr	r3, [pc, #44]	; (8000a00 <__NVIC_SetPriorityGrouping+0x40>)
 80009d2:	68db      	ldr	r3, [r3, #12]
 80009d4:	60bb      	str	r3, [r7, #8]
  reg_value &= ~((uint32_t)(SCB_AIRCR_VECTKEY_Msk | SCB_AIRCR_PRIGROUP_Msk)); /* clear bits to change               */
 80009d6:	68ba      	ldr	r2, [r7, #8]
 80009d8:	f64f 03ff 	movw	r3, #63743	; 0xf8ff
 80009dc:	4013      	ands	r3, r2
 80009de:	60bb      	str	r3, [r7, #8]
                (PriorityGroupTmp << SCB_AIRCR_PRIGROUP_Pos)  );              /* Insert write key and priority group */
 80009e0:	68fb      	ldr	r3, [r7, #12]
 80009e2:	021a      	lsls	r2, r3, #8
                ((uint32_t)0x5FAUL << SCB_AIRCR_VECTKEY_Pos) |
 80009e4:	68bb      	ldr	r3, [r7, #8]
 80009e6:	431a      	orrs	r2, r3
  reg_value  =  (reg_value                                   |
 80009e8:	4b06      	ldr	r3, [pc, #24]	; (8000a04 <__NVIC_SetPriorityGrouping+0x44>)
 80009ea:	4313      	orrs	r3, r2
 80009ec:	60bb      	str	r3, [r7, #8]
  SCB->AIRCR =  reg_value;
 80009ee:	4a04      	ldr	r2, [pc, #16]	; (8000a00 <__NVIC_SetPriorityGrouping+0x40>)
 80009f0:	68bb      	ldr	r3, [r7, #8]
 80009f2:	60d3      	str	r3, [r2, #12]
}
 80009f4:	bf00      	nop
 80009f6:	3714      	adds	r7, #20
 80009f8:	46bd      	mov	sp, r7
 80009fa:	f85d 7b04 	ldr.w	r7, [sp], #4
 80009fe:	4770      	bx	lr
 8000a00:	e000ed00 	.word	0xe000ed00
 8000a04:	05fa0000 	.word	0x05fa0000

08000a08 <__NVIC_GetPriorityGrouping>:
{
 8000a08:	b480      	push	{r7}
 8000a0a:	af00      	add	r7, sp, #0
  return ((uint32_t)((SCB->AIRCR & SCB_AIRCR_PRIGROUP_Msk) >> SCB_AIRCR_PRIGROUP_Pos));
 8000a0c:	4b04      	ldr	r3, [pc, #16]	; (8000a20 <__NVIC_GetPriorityGrouping+0x18>)
 8000a0e:	68db      	ldr	r3, [r3, #12]
 8000a10:	0a1b      	lsrs	r3, r3, #8
 8000a12:	f003 0307 	and.w	r3, r3, #7
}
 8000a16:	4618      	mov	r0, r3
 8000a18:	46bd      	mov	sp, r7
 8000a1a:	f85d 7b04 	ldr.w	r7, [sp], #4
 8000a1e:	4770      	bx	lr
 8000a20:	e000ed00 	.word	0xe000ed00

08000a24 <__NVIC_EnableIRQ>:
{
 8000a24:	b480      	push	{r7}
 8000a26:	b083      	sub	sp, #12
 8000a28:	af00      	add	r7, sp, #0
 8000a2a:	4603      	mov	r3, r0
 8000a2c:	80fb      	strh	r3, [r7, #6]
  if ((int32_t)(IRQn) >= 0)
 8000a2e:	f9b7 3006 	ldrsh.w	r3, [r7, #6]
 8000a32:	2b00      	cmp	r3, #0
 8000a34:	db0b      	blt.n	8000a4e <__NVIC_EnableIRQ+0x2a>
    NVIC->ISER[(((uint32_t)IRQn) >> 5UL)] = (uint32_t)(1UL << (((uint32_t)IRQn) & 0x1FUL));
 8000a36:	88fb      	ldrh	r3, [r7, #6]
 8000a38:	f003 021f 	and.w	r2, r3, #31
 8000a3c:	4907      	ldr	r1, [pc, #28]	; (8000a5c <__NVIC_EnableIRQ+0x38>)
 8000a3e:	f9b7 3006 	ldrsh.w	r3, [r7, #6]
 8000a42:	095b      	lsrs	r3, r3, #5
 8000a44:	2001      	movs	r0, #1
 8000a46:	fa00 f202 	lsl.w	r2, r0, r2
 8000a4a:	f841 2023 	str.w	r2, [r1, r3, lsl #2]
}
 8000a4e:	bf00      	nop
 8000a50:	370c      	adds	r7, #12
 8000a52:	46bd      	mov	sp, r7
 8000a54:	f85d 7b04 	ldr.w	r7, [sp], #4
 8000a58:	4770      	bx	lr
 8000a5a:	bf00      	nop
 8000a5c:	e000e100 	.word	0xe000e100

08000a60 <__NVIC_SetPriority>:
{
 8000a60:	b480      	push	{r7}
 8000a62:	b083      	sub	sp, #12
 8000a64:	af00      	add	r7, sp, #0
 8000a66:	4603      	mov	r3, r0
 8000a68:	6039      	str	r1, [r7, #0]
 8000a6a:	80fb      	strh	r3, [r7, #6]
  if ((int32_t)(IRQn) >= 0)
 8000a6c:	f9b7 3006 	ldrsh.w	r3, [r7, #6]
 8000a70:	2b00      	cmp	r3, #0
 8000a72:	db0a      	blt.n	8000a8a <__NVIC_SetPriority+0x2a>
    NVIC->IP[((uint32_t)IRQn)]                = (uint8_t)((priority << (8U - __NVIC_PRIO_BITS)) & (uint32_t)0xFFUL);
 8000a74:	683b      	ldr	r3, [r7, #0]
 8000a76:	b2da      	uxtb	r2, r3
 8000a78:	490c      	ldr	r1, [pc, #48]	; (8000aac <__NVIC_SetPriority+0x4c>)
 8000a7a:	f9b7 3006 	ldrsh.w	r3, [r7, #6]
 8000a7e:	0112      	lsls	r2, r2, #4
 8000a80:	b2d2      	uxtb	r2, r2
 8000a82:	440b      	add	r3, r1
 8000a84:	f883 2300 	strb.w	r2, [r3, #768]	; 0x300
}
 8000a88:	e00a      	b.n	8000aa0 <__NVIC_SetPriority+0x40>
    SCB->SHPR[(((uint32_t)IRQn) & 0xFUL)-4UL] = (uint8_t)((priority << (8U - __NVIC_PRIO_BITS)) & (uint32_t)0xFFUL);
 8000a8a:	683b      	ldr	r3, [r7, #0]
 8000a8c:	b2da      	uxtb	r2, r3
 8000a8e:	4908      	ldr	r1, [pc, #32]	; (8000ab0 <__NVIC_SetPriority+0x50>)
 8000a90:	88fb      	ldrh	r3, [r7, #6]
 8000a92:	f003 030f 	and.w	r3, r3, #15
 8000a96:	3b04      	subs	r3, #4
 8000a98:	0112      	lsls	r2, r2, #4
 8000a9a:	b2d2      	uxtb	r2, r2
 8000a9c:	440b      	add	r3, r1
 8000a9e:	761a      	strb	r2, [r3, #24]
}
 8000aa0:	bf00      	nop
 8000aa2:	370c      	adds	r7, #12
 8000aa4:	46bd      	mov	sp, r7
 8000aa6:	f85d 7b04 	ldr.w	r7, [sp], #4
 8000aaa:	4770      	bx	lr
 8000aac:	e000e100 	.word	0xe000e100
 8000ab0:	e000ed00 	.word	0xe000ed00

08000ab4 <NVIC_EncodePriority>:
{
 8000ab4:	b480      	push	{r7}
 8000ab6:	b089      	sub	sp, #36	; 0x24
 8000ab8:	af00      	add	r7, sp, #0
 8000aba:	60f8      	str	r0, [r7, #12]
 8000abc:	60b9      	str	r1, [r7, #8]
 8000abe:	607a      	str	r2, [r7, #4]
  uint32_t PriorityGroupTmp = (PriorityGroup & (uint32_t)0x07UL);   /* only values 0..7 are used          */
 8000ac0:	68fb      	ldr	r3, [r7, #12]
 8000ac2:	f003 0307 	and.w	r3, r3, #7
 8000ac6:	61fb      	str	r3, [r7, #28]
  PreemptPriorityBits = ((7UL - PriorityGroupTmp) > (uint32_t)(__NVIC_PRIO_BITS)) ? (uint32_t)(__NVIC_PRIO_BITS) : (uint32_t)(7UL - PriorityGroupTmp);
 8000ac8:	69fb      	ldr	r3, [r7, #28]
 8000aca:	f1c3 0307 	rsb	r3, r3, #7
 8000ace:	2b04      	cmp	r3, #4
 8000ad0:	bf28      	it	cs
 8000ad2:	2304      	movcs	r3, #4
 8000ad4:	61bb      	str	r3, [r7, #24]
  SubPriorityBits     = ((PriorityGroupTmp + (uint32_t)(__NVIC_PRIO_BITS)) < (uint32_t)7UL) ? (uint32_t)0UL : (uint32_t)((PriorityGroupTmp - 7UL) + (uint32_t)(__NVIC_PRIO_BITS));
 8000ad6:	69fb      	ldr	r3, [r7, #28]
 8000ad8:	3304      	adds	r3, #4
 8000ada:	2b06      	cmp	r3, #6
 8000adc:	d902      	bls.n	8000ae4 <NVIC_EncodePriority+0x30>
 8000ade:	69fb      	ldr	r3, [r7, #28]
 8000ae0:	3b03      	subs	r3, #3
 8000ae2:	e000      	b.n	8000ae6 <NVIC_EncodePriority+0x32>
 8000ae4:	2300      	movs	r3, #0
 8000ae6:	617b      	str	r3, [r7, #20]
           ((PreemptPriority & (uint32_t)((1UL << (PreemptPriorityBits)) - 1UL)) << SubPriorityBits) |
 8000ae8:	f04f 32ff 	mov.w	r2, #4294967295
 8000aec:	69bb      	ldr	r3, [r7, #24]
 8000aee:	fa02 f303 	lsl.w	r3, r2, r3
 8000af2:	43da      	mvns	r2, r3
 8000af4:	68bb      	ldr	r3, [r7, #8]
 8000af6:	401a      	ands	r2, r3
 8000af8:	697b      	ldr	r3, [r7, #20]
 8000afa:	409a      	lsls	r2, r3
           ((SubPriority     & (uint32_t)((1UL << (SubPriorityBits    )) - 1UL)))
 8000afc:	f04f 31ff 	mov.w	r1, #4294967295
 8000b00:	697b      	ldr	r3, [r7, #20]
 8000b02:	fa01 f303 	lsl.w	r3, r1, r3
 8000b06:	43d9      	mvns	r1, r3
 8000b08:	687b      	ldr	r3, [r7, #4]
 8000b0a:	400b      	ands	r3, r1
           ((PreemptPriority & (uint32_t)((1UL << (PreemptPriorityBits)) - 1UL)) << SubPriorityBits) |
 8000b0c:	4313      	orrs	r3, r2
}
 8000b0e:	4618      	mov	r0, r3
 8000b10:	3724      	adds	r7, #36	; 0x24
 8000b12:	46bd      	mov	sp, r7
 8000b14:	f85d 7b04 	ldr.w	r7, [sp], #4
 8000b18:	4770      	bx	lr

08000b1a <HAL_NVIC_SetPriorityGrouping>:
  * @note   When the NVIC_PriorityGroup_0 is selected, IRQ preemption is no more possible.
  *         The pending IRQ priority will be managed only by the subpriority.
  * @retval None
  */
void HAL_NVIC_SetPriorityGrouping(uint32_t PriorityGroup)
{
 8000b1a:	b580      	push	{r7, lr}
 8000b1c:	b082      	sub	sp, #8
 8000b1e:	af00      	add	r7, sp, #0
 8000b20:	6078      	str	r0, [r7, #4]
  /* Check the parameters */
  assert_param(IS_NVIC_PRIORITY_GROUP(PriorityGroup));

  /* Set the PRIGROUP[10:8] bits according to the PriorityGroup parameter value */
  NVIC_SetPriorityGrouping(PriorityGroup);
 8000b22:	6878      	ldr	r0, [r7, #4]
 8000b24:	f7ff ff4c 	bl	80009c0 <__NVIC_SetPriorityGrouping>
}
 8000b28:	bf00      	nop
 8000b2a:	3708      	adds	r7, #8
 8000b2c:	46bd      	mov	sp, r7
 8000b2e:	bd80      	pop	{r7, pc}

08000b30 <HAL_NVIC_SetPriority>:
  *         This parameter can be a value between 0 and 15
  *         A lower priority value indicates a higher priority.
  * @retval None
  */
void HAL_NVIC_SetPriority(IRQn_Type IRQn, uint32_t PreemptPriority, uint32_t SubPriority)
{
 8000b30:	b580      	push	{r7, lr}
 8000b32:	b086      	sub	sp, #24
 8000b34:	af00      	add	r7, sp, #0
 8000b36:	4603      	mov	r3, r0
 8000b38:	60b9      	str	r1, [r7, #8]
 8000b3a:	607a      	str	r2, [r7, #4]
 8000b3c:	81fb      	strh	r3, [r7, #14]

  /* Check the parameters */
  assert_param(IS_NVIC_SUB_PRIORITY(SubPriority));
  assert_param(IS_NVIC_PREEMPTION_PRIORITY(PreemptPriority));

  prioritygroup = NVIC_GetPriorityGrouping();
 8000b3e:	f7ff ff63 	bl	8000a08 <__NVIC_GetPriorityGrouping>
 8000b42:	6178      	str	r0, [r7, #20]

  NVIC_SetPriority(IRQn, NVIC_EncodePriority(prioritygroup, PreemptPriority, SubPriority));
 8000b44:	687a      	ldr	r2, [r7, #4]
 8000b46:	68b9      	ldr	r1, [r7, #8]
 8000b48:	6978      	ldr	r0, [r7, #20]
 8000b4a:	f7ff ffb3 	bl	8000ab4 <NVIC_EncodePriority>
 8000b4e:	4602      	mov	r2, r0
 8000b50:	f9b7 300e 	ldrsh.w	r3, [r7, #14]
 8000b54:	4611      	mov	r1, r2
 8000b56:	4618      	mov	r0, r3
 8000b58:	f7ff ff82 	bl	8000a60 <__NVIC_SetPriority>
}
 8000b5c:	bf00      	nop
 8000b5e:	3718      	adds	r7, #24
 8000b60:	46bd      	mov	sp, r7
 8000b62:	bd80      	pop	{r7, pc}

08000b64 <HAL_NVIC_EnableIRQ>:
  *         This parameter can be an enumerator of IRQn_Type enumeration
  *         (For the complete STM32 Devices IRQ Channels list, please refer to the appropriate CMSIS device file (stm32h7xxxx.h))
  * @retval None
  */
void HAL_NVIC_EnableIRQ(IRQn_Type IRQn)
{
 8000b64:	b580      	push	{r7, lr}
 8000b66:	b082      	sub	sp, #8
 8000b68:	af00      	add	r7, sp, #0
 8000b6a:	4603      	mov	r3, r0
 8000b6c:	80fb      	strh	r3, [r7, #6]
  /* Check the parameters */
  assert_param(IS_NVIC_DEVICE_IRQ(IRQn));

  /* Enable interrupt */
  NVIC_EnableIRQ(IRQn);
 8000b6e:	f9b7 3006 	ldrsh.w	r3, [r7, #6]
 8000b72:	4618      	mov	r0, r3
 8000b74:	f7ff ff56 	bl	8000a24 <__NVIC_EnableIRQ>
}
 8000b78:	bf00      	nop
 8000b7a:	3708      	adds	r7, #8
 8000b7c:	46bd      	mov	sp, r7
 8000b7e:	bd80      	pop	{r7, pc}

08000b80 <HAL_MPU_Disable>:
/**
  * @brief  Disables the MPU
  * @retval None
  */
void HAL_MPU_Disable(void)
{
 8000b80:	b480      	push	{r7}
 8000b82:	af00      	add	r7, sp, #0
  \details Ensures the apparent order of the explicit memory operations before
           and after the instruction, without ensuring their completion.
 */
__STATIC_FORCEINLINE void __DMB(void)
{
  __ASM volatile ("dmb 0xF":::"memory");
 8000b84:	f3bf 8f5f 	dmb	sy
}
 8000b88:	bf00      	nop
  /* Make sure outstanding transfers are done */
  __DMB();

  /* Disable fault exceptions */
  SCB->SHCSR &= ~SCB_SHCSR_MEMFAULTENA_Msk;
 8000b8a:	4b07      	ldr	r3, [pc, #28]	; (8000ba8 <HAL_MPU_Disable+0x28>)
 8000b8c:	6a5b      	ldr	r3, [r3, #36]	; 0x24
 8000b8e:	4a06      	ldr	r2, [pc, #24]	; (8000ba8 <HAL_MPU_Disable+0x28>)
 8000b90:	f423 3380 	bic.w	r3, r3, #65536	; 0x10000
 8000b94:	6253      	str	r3, [r2, #36]	; 0x24

  /* Disable the MPU and clear the control register*/
  MPU->CTRL = 0;
 8000b96:	4b05      	ldr	r3, [pc, #20]	; (8000bac <HAL_MPU_Disable+0x2c>)
 8000b98:	2200      	movs	r2, #0
 8000b9a:	605a      	str	r2, [r3, #4]
}
 8000b9c:	bf00      	nop
 8000b9e:	46bd      	mov	sp, r7
 8000ba0:	f85d 7b04 	ldr.w	r7, [sp], #4
 8000ba4:	4770      	bx	lr
 8000ba6:	bf00      	nop
 8000ba8:	e000ed00 	.word	0xe000ed00
 8000bac:	e000ed90 	.word	0xe000ed90

08000bb0 <HAL_MPU_Enable>:
  *            @arg MPU_PRIVILEGED_DEFAULT
  *            @arg MPU_HFNMI_PRIVDEF
  * @retval None
  */
void HAL_MPU_Enable(uint32_t MPU_Control)
{
 8000bb0:	b480      	push	{r7}
 8000bb2:	b083      	sub	sp, #12
 8000bb4:	af00      	add	r7, sp, #0
 8000bb6:	6078      	str	r0, [r7, #4]
  /* Enable the MPU */
  MPU->CTRL = MPU_Control | MPU_CTRL_ENABLE_Msk;
 8000bb8:	4a0b      	ldr	r2, [pc, #44]	; (8000be8 <HAL_MPU_Enable+0x38>)
 8000bba:	687b      	ldr	r3, [r7, #4]
 8000bbc:	f043 0301 	orr.w	r3, r3, #1
 8000bc0:	6053      	str	r3, [r2, #4]

  /* Enable fault exceptions */
  SCB->SHCSR |= SCB_SHCSR_MEMFAULTENA_Msk;
 8000bc2:	4b0a      	ldr	r3, [pc, #40]	; (8000bec <HAL_MPU_Enable+0x3c>)
 8000bc4:	6a5b      	ldr	r3, [r3, #36]	; 0x24
 8000bc6:	4a09      	ldr	r2, [pc, #36]	; (8000bec <HAL_MPU_Enable+0x3c>)
 8000bc8:	f443 3380 	orr.w	r3, r3, #65536	; 0x10000
 8000bcc:	6253      	str	r3, [r2, #36]	; 0x24
  __ASM volatile ("dsb 0xF":::"memory");
 8000bce:	f3bf 8f4f 	dsb	sy
}
 8000bd2:	bf00      	nop
  __ASM volatile ("isb 0xF":::"memory");
 8000bd4:	f3bf 8f6f 	isb	sy
}
 8000bd8:	bf00      	nop

  /* Ensure MPU setting take effects */
  __DSB();
  __ISB();
}
 8000bda:	bf00      	nop
 8000bdc:	370c      	adds	r7, #12
 8000bde:	46bd      	mov	sp, r7
 8000be0:	f85d 7b04 	ldr.w	r7, [sp], #4
 8000be4:	4770      	bx	lr
 8000be6:	bf00      	nop
 8000be8:	e000ed90 	.word	0xe000ed90
 8000bec:	e000ed00 	.word	0xe000ed00

08000bf0 <HAL_MPU_ConfigRegion>:
  * @param  MPU_Init Pointer to a MPU_Region_InitTypeDef structure that contains
  *                  the initialization and configuration information.
  * @retval None
  */
void HAL_MPU_ConfigRegion(MPU_Region_InitTypeDef *MPU_Init)
{
 8000bf0:	b480      	push	{r7}
 8000bf2:	b083      	sub	sp, #12
 8000bf4:	af00      	add	r7, sp, #0
 8000bf6:	6078      	str	r0, [r7, #4]
  /* Check the parameters */
  assert_param(IS_MPU_REGION_NUMBER(MPU_Init->Number));
  assert_param(IS_MPU_REGION_ENABLE(MPU_Init->Enable));

  /* Set the Region number */
  MPU->RNR = MPU_Init->Number;
 8000bf8:	687b      	ldr	r3, [r7, #4]
 8000bfa:	785a      	ldrb	r2, [r3, #1]
 8000bfc:	4b1d      	ldr	r3, [pc, #116]	; (8000c74 <HAL_MPU_ConfigRegion+0x84>)
 8000bfe:	609a      	str	r2, [r3, #8]

  if ((MPU_Init->Enable) != 0UL)
 8000c00:	687b      	ldr	r3, [r7, #4]
 8000c02:	781b      	ldrb	r3, [r3, #0]
 8000c04:	2b00      	cmp	r3, #0
 8000c06:	d029      	beq.n	8000c5c <HAL_MPU_ConfigRegion+0x6c>
    assert_param(IS_MPU_ACCESS_CACHEABLE(MPU_Init->IsCacheable));
    assert_param(IS_MPU_ACCESS_BUFFERABLE(MPU_Init->IsBufferable));
    assert_param(IS_MPU_SUB_REGION_DISABLE(MPU_Init->SubRegionDisable));
    assert_param(IS_MPU_REGION_SIZE(MPU_Init->Size));

    MPU->RBAR = MPU_Init->BaseAddress;
 8000c08:	4a1a      	ldr	r2, [pc, #104]	; (8000c74 <HAL_MPU_ConfigRegion+0x84>)
 8000c0a:	687b      	ldr	r3, [r7, #4]
 8000c0c:	685b      	ldr	r3, [r3, #4]
 8000c0e:	60d3      	str	r3, [r2, #12]
    MPU->RASR = ((uint32_t)MPU_Init->DisableExec             << MPU_RASR_XN_Pos)   |
 8000c10:	687b      	ldr	r3, [r7, #4]
 8000c12:	7b1b      	ldrb	r3, [r3, #12]
 8000c14:	071a      	lsls	r2, r3, #28
                ((uint32_t)MPU_Init->AccessPermission        << MPU_RASR_AP_Pos)   |
 8000c16:	687b      	ldr	r3, [r7, #4]
 8000c18:	7adb      	ldrb	r3, [r3, #11]
 8000c1a:	061b      	lsls	r3, r3, #24
    MPU->RASR = ((uint32_t)MPU_Init->DisableExec             << MPU_RASR_XN_Pos)   |
 8000c1c:	431a      	orrs	r2, r3
                ((uint32_t)MPU_Init->TypeExtField            << MPU_RASR_TEX_Pos)  |
 8000c1e:	687b      	ldr	r3, [r7, #4]
 8000c20:	7a9b      	ldrb	r3, [r3, #10]
 8000c22:	04db      	lsls	r3, r3, #19
                ((uint32_t)MPU_Init->AccessPermission        << MPU_RASR_AP_Pos)   |
 8000c24:	431a      	orrs	r2, r3
                ((uint32_t)MPU_Init->IsShareable             << MPU_RASR_S_Pos)    |
 8000c26:	687b      	ldr	r3, [r7, #4]
 8000c28:	7b5b      	ldrb	r3, [r3, #13]
 8000c2a:	049b      	lsls	r3, r3, #18
                ((uint32_t)MPU_Init->TypeExtField            << MPU_RASR_TEX_Pos)  |
 8000c2c:	431a      	orrs	r2, r3
                ((uint32_t)MPU_Init->IsCacheable             << MPU_RASR_C_Pos)    |
 8000c2e:	687b      	ldr	r3, [r7, #4]
 8000c30:	7b9b      	ldrb	r3, [r3, #14]
 8000c32:	045b      	lsls	r3, r3, #17
                ((uint32_t)MPU_Init->IsShareable             << MPU_RASR_S_Pos)    |
 8000c34:	431a      	orrs	r2, r3
                ((uint32_t)MPU_Init->IsBufferable            << MPU_RASR_B_Pos)    |
 8000c36:	687b      	ldr	r3, [r7, #4]
 8000c38:	7bdb      	ldrb	r3, [r3, #15]
 8000c3a:	041b      	lsls	r3, r3, #16
                ((uint32_t)MPU_Init->IsCacheable             << MPU_RASR_C_Pos)    |
 8000c3c:	431a      	orrs	r2, r3
                ((uint32_t)MPU_Init->SubRegionDisable        << MPU_RASR_SRD_Pos)  |
 8000c3e:	687b      	ldr	r3, [r7, #4]
 8000c40:	7a5b      	ldrb	r3, [r3, #9]
 8000c42:	021b      	lsls	r3, r3, #8
                ((uint32_t)MPU_Init->IsBufferable            << MPU_RASR_B_Pos)    |
 8000c44:	431a      	orrs	r2, r3
                ((uint32_t)MPU_Init->Size                    << MPU_RASR_SIZE_Pos) |
 8000c46:	687b      	ldr	r3, [r7, #4]
 8000c48:	7a1b      	ldrb	r3, [r3, #8]
 8000c4a:	005b      	lsls	r3, r3, #1
                ((uint32_t)MPU_Init->SubRegionDisable        << MPU_RASR_SRD_Pos)  |
 8000c4c:	4313      	orrs	r3, r2
                ((uint32_t)MPU_Init->Enable                  << MPU_RASR_ENABLE_Pos);
 8000c4e:	687a      	ldr	r2, [r7, #4]
 8000c50:	7812      	ldrb	r2, [r2, #0]
 8000c52:	4611      	mov	r1, r2
    MPU->RASR = ((uint32_t)MPU_Init->DisableExec             << MPU_RASR_XN_Pos)   |
 8000c54:	4a07      	ldr	r2, [pc, #28]	; (8000c74 <HAL_MPU_ConfigRegion+0x84>)
                ((uint32_t)MPU_Init->Size                    << MPU_RASR_SIZE_Pos) |
 8000c56:	430b      	orrs	r3, r1
    MPU->RASR = ((uint32_t)MPU_Init->DisableExec             << MPU_RASR_XN_Pos)   |
 8000c58:	6113      	str	r3, [r2, #16]
  else
  {
    MPU->RBAR = 0x00;
    MPU->RASR = 0x00;
  }
}
 8000c5a:	e005      	b.n	8000c68 <HAL_MPU_ConfigRegion+0x78>
    MPU->RBAR = 0x00;
 8000c5c:	4b05      	ldr	r3, [pc, #20]	; (8000c74 <HAL_MPU_ConfigRegion+0x84>)
 8000c5e:	2200      	movs	r2, #0
 8000c60:	60da      	str	r2, [r3, #12]
    MPU->RASR = 0x00;
 8000c62:	4b04      	ldr	r3, [pc, #16]	; (8000c74 <HAL_MPU_ConfigRegion+0x84>)
 8000c64:	2200      	movs	r2, #0
 8000c66:	611a      	str	r2, [r3, #16]
}
 8000c68:	bf00      	nop
 8000c6a:	370c      	adds	r7, #12
 8000c6c:	46bd      	mov	sp, r7
 8000c6e:	f85d 7b04 	ldr.w	r7, [sp], #4
 8000c72:	4770      	bx	lr
 8000c74:	e000ed90 	.word	0xe000ed90

08000c78 <HAL_HSEM_FastTake>:
  * @brief  Fast Take a semaphore with 1 Step mode.
  * @param  SemID: semaphore ID from 0 to 31
  * @retval HAL status
  */
HAL_StatusTypeDef HAL_HSEM_FastTake(uint32_t SemID)
{
 8000c78:	b480      	push	{r7}
 8000c7a:	b083      	sub	sp, #12
 8000c7c:	af00      	add	r7, sp, #0
 8000c7e:	6078      	str	r0, [r7, #4]
    /*take success when MasterID match and take bit set*/
    return HAL_OK;
  }
#else  
  /* Read the RLR register to take the semaphore */
  if (HSEM->RLR[SemID] == (HSEM_CR_COREID_CURRENT | HSEM_RLR_LOCK))
 8000c80:	4a08      	ldr	r2, [pc, #32]	; (8000ca4 <HAL_HSEM_FastTake+0x2c>)
 8000c82:	687b      	ldr	r3, [r7, #4]
 8000c84:	3320      	adds	r3, #32
 8000c86:	f852 3023 	ldr.w	r3, [r2, r3, lsl #2]
 8000c8a:	4a07      	ldr	r2, [pc, #28]	; (8000ca8 <HAL_HSEM_FastTake+0x30>)
 8000c8c:	4293      	cmp	r3, r2
 8000c8e:	d101      	bne.n	8000c94 <HAL_HSEM_FastTake+0x1c>
  {
    /*take success when MasterID match and take bit set*/
    return HAL_OK;
 8000c90:	2300      	movs	r3, #0
 8000c92:	e000      	b.n	8000c96 <HAL_HSEM_FastTake+0x1e>
  }
#endif

  /* Semaphore take fails */
  return HAL_ERROR;
 8000c94:	2301      	movs	r3, #1
}
 8000c96:	4618      	mov	r0, r3
 8000c98:	370c      	adds	r7, #12
 8000c9a:	46bd      	mov	sp, r7
 8000c9c:	f85d 7b04 	ldr.w	r7, [sp], #4
 8000ca0:	4770      	bx	lr
 8000ca2:	bf00      	nop
 8000ca4:	58026400 	.word	0x58026400
 8000ca8:	80000300 	.word	0x80000300

08000cac <HAL_HSEM_Release>:
  * @param  SemID: semaphore ID from 0 to 31
  * @param  ProcessID: Process ID from 0 to 255
  * @retval None
  */
void  HAL_HSEM_Release(uint32_t SemID, uint32_t ProcessID)
{
 8000cac:	b480      	push	{r7}
 8000cae:	b083      	sub	sp, #12
 8000cb0:	af00      	add	r7, sp, #0
 8000cb2:	6078      	str	r0, [r7, #4]
 8000cb4:	6039      	str	r1, [r7, #0]

  /* Clear the semaphore by writing to the R register : the MasterID , the processID and take bit = 0  */
#if  USE_MULTI_CORE_SHARED_CODE != 0U
  HSEM->R[SemID] = (ProcessID | ((HAL_GetCurrentCPUID() << POSITION_VAL(HSEM_R_MASTERID)) & HSEM_R_MASTERID));
#else
  HSEM->R[SemID] = (ProcessID | HSEM_CR_COREID_CURRENT);
 8000cb6:	4906      	ldr	r1, [pc, #24]	; (8000cd0 <HAL_HSEM_Release+0x24>)
 8000cb8:	683b      	ldr	r3, [r7, #0]
 8000cba:	f443 7240 	orr.w	r2, r3, #768	; 0x300
 8000cbe:	687b      	ldr	r3, [r7, #4]
 8000cc0:	f841 2023 	str.w	r2, [r1, r3, lsl #2]
#endif

}
 8000cc4:	bf00      	nop
 8000cc6:	370c      	adds	r7, #12
 8000cc8:	46bd      	mov	sp, r7
 8000cca:	f85d 7b04 	ldr.w	r7, [sp], #4
 8000cce:	4770      	bx	lr
 8000cd0:	58026400 	.word	0x58026400

08000cd4 <HAL_HSEM_IRQHandler>:
/**
  * @brief  This function handles HSEM interrupt request
  * @retval None
  */
void HAL_HSEM_IRQHandler(void)
{
 8000cd4:	b580      	push	{r7, lr}
 8000cd6:	b082      	sub	sp, #8
 8000cd8:	af00      	add	r7, sp, #0
    /*Clear Flags*/
    HSEM->C2ICR = ((uint32_t)statusreg);
  }
#else
  /* Get the list of masked freed semaphores*/
  statusreg = HSEM_COMMON->MISR;
 8000cda:	4b0a      	ldr	r3, [pc, #40]	; (8000d04 <HAL_HSEM_IRQHandler+0x30>)
 8000cdc:	68db      	ldr	r3, [r3, #12]
 8000cde:	607b      	str	r3, [r7, #4]

  /*Disable Interrupts*/
  HSEM_COMMON->IER &= ~((uint32_t)statusreg);
 8000ce0:	4b08      	ldr	r3, [pc, #32]	; (8000d04 <HAL_HSEM_IRQHandler+0x30>)
 8000ce2:	681a      	ldr	r2, [r3, #0]
 8000ce4:	687b      	ldr	r3, [r7, #4]
 8000ce6:	43db      	mvns	r3, r3
 8000ce8:	4906      	ldr	r1, [pc, #24]	; (8000d04 <HAL_HSEM_IRQHandler+0x30>)
 8000cea:	4013      	ands	r3, r2
 8000cec:	600b      	str	r3, [r1, #0]

  /*Clear Flags*/
  HSEM_COMMON->ICR = ((uint32_t)statusreg);
 8000cee:	4a05      	ldr	r2, [pc, #20]	; (8000d04 <HAL_HSEM_IRQHandler+0x30>)
 8000cf0:	687b      	ldr	r3, [r7, #4]
 8000cf2:	6053      	str	r3, [r2, #4]

#endif
  /* Call FreeCallback */
  HAL_HSEM_FreeCallback(statusreg);
 8000cf4:	6878      	ldr	r0, [r7, #4]
 8000cf6:	f000 f807 	bl	8000d08 <HAL_HSEM_FreeCallback>
}
 8000cfa:	bf00      	nop
 8000cfc:	3708      	adds	r7, #8
 8000cfe:	46bd      	mov	sp, r7
 8000d00:	bd80      	pop	{r7, pc}
 8000d02:	bf00      	nop
 8000d04:	58026500 	.word	0x58026500

08000d08 <HAL_HSEM_FreeCallback>:
  * @brief Semaphore Released Callback.
  * @param SemMask: Mask of Released semaphores
  * @retval None
  */
__weak void HAL_HSEM_FreeCallback(uint32_t SemMask)
{
 8000d08:	b480      	push	{r7}
 8000d0a:	b083      	sub	sp, #12
 8000d0c:	af00      	add	r7, sp, #0
 8000d0e:	6078      	str	r0, [r7, #4]
  UNUSED(SemMask);

  /* NOTE : This function should not be modified, when the callback is needed,
  the HAL_HSEM_FreeCallback can be implemented in the user file
    */
}
 8000d10:	bf00      	nop
 8000d12:	370c      	adds	r7, #12
 8000d14:	46bd      	mov	sp, r7
 8000d16:	f85d 7b04 	ldr.w	r7, [sp], #4
 8000d1a:	4770      	bx	lr

08000d1c <HAL_PWREx_ConfigSupply>:
  *         PWR_SMPS_2V5_SUPPLIES_EXT are used only for lines that supports SMPS
  *         regulator.
  * @retval HAL status.
  */
HAL_StatusTypeDef HAL_PWREx_ConfigSupply (uint32_t SupplySource)
{
 8000d1c:	b580      	push	{r7, lr}
 8000d1e:	b084      	sub	sp, #16
 8000d20:	af00      	add	r7, sp, #0
 8000d22:	6078      	str	r0, [r7, #4]

  /* Check if supply source was configured */
#if defined (PWR_FLAG_SCUEN)
  if (__HAL_PWR_GET_FLAG (PWR_FLAG_SCUEN) == 0U)
#else
  if ((PWR->CR3 & (PWR_CR3_SMPSEN | PWR_CR3_LDOEN | PWR_CR3_BYPASS)) != (PWR_CR3_SMPSEN | PWR_CR3_LDOEN))
 8000d24:	4b29      	ldr	r3, [pc, #164]	; (8000dcc <HAL_PWREx_ConfigSupply+0xb0>)
 8000d26:	68db      	ldr	r3, [r3, #12]
 8000d28:	f003 0307 	and.w	r3, r3, #7
 8000d2c:	2b06      	cmp	r3, #6
 8000d2e:	d00a      	beq.n	8000d46 <HAL_PWREx_ConfigSupply+0x2a>
#endif /* defined (PWR_FLAG_SCUEN) */
  {
    /* Check supply configuration */
    if ((PWR->CR3 & PWR_SUPPLY_CONFIG_MASK) != SupplySource)
 8000d30:	4b26      	ldr	r3, [pc, #152]	; (8000dcc <HAL_PWREx_ConfigSupply+0xb0>)
 8000d32:	68db      	ldr	r3, [r3, #12]
 8000d34:	f003 033f 	and.w	r3, r3, #63	; 0x3f
 8000d38:	687a      	ldr	r2, [r7, #4]
 8000d3a:	429a      	cmp	r2, r3
 8000d3c:	d001      	beq.n	8000d42 <HAL_PWREx_ConfigSupply+0x26>
    {
      /* Supply configuration update locked, can't apply a new supply config */
      return HAL_ERROR;
 8000d3e:	2301      	movs	r3, #1
 8000d40:	e040      	b.n	8000dc4 <HAL_PWREx_ConfigSupply+0xa8>
    else
    {
      /* Supply configuration update locked, but new supply configuration
         matches with old supply configuration : nothing to do
      */
      return HAL_OK;
 8000d42:	2300      	movs	r3, #0
 8000d44:	e03e      	b.n	8000dc4 <HAL_PWREx_ConfigSupply+0xa8>
    }
  }

  /* Set the power supply configuration */
  MODIFY_REG (PWR->CR3, PWR_SUPPLY_CONFIG_MASK, SupplySource);
 8000d46:	4b21      	ldr	r3, [pc, #132]	; (8000dcc <HAL_PWREx_ConfigSupply+0xb0>)
 8000d48:	68db      	ldr	r3, [r3, #12]
 8000d4a:	f023 023f 	bic.w	r2, r3, #63	; 0x3f
 8000d4e:	491f      	ldr	r1, [pc, #124]	; (8000dcc <HAL_PWREx_ConfigSupply+0xb0>)
 8000d50:	687b      	ldr	r3, [r7, #4]
 8000d52:	4313      	orrs	r3, r2
 8000d54:	60cb      	str	r3, [r1, #12]

  /* Get tick */
  tickstart = HAL_GetTick ();
 8000d56:	f7ff fe1b 	bl	8000990 <HAL_GetTick>
 8000d5a:	60f8      	str	r0, [r7, #12]

  /* Wait till voltage level flag is set */
  while (__HAL_PWR_GET_FLAG (PWR_FLAG_ACTVOSRDY) == 0U)
 8000d5c:	e009      	b.n	8000d72 <HAL_PWREx_ConfigSupply+0x56>
  {
    if ((HAL_GetTick () - tickstart) > PWR_FLAG_SETTING_DELAY)
 8000d5e:	f7ff fe17 	bl	8000990 <HAL_GetTick>
 8000d62:	4602      	mov	r2, r0
 8000d64:	68fb      	ldr	r3, [r7, #12]
 8000d66:	1ad3      	subs	r3, r2, r3
 8000d68:	f5b3 7f7a 	cmp.w	r3, #1000	; 0x3e8
 8000d6c:	d901      	bls.n	8000d72 <HAL_PWREx_ConfigSupply+0x56>
    {
      return HAL_ERROR;
 8000d6e:	2301      	movs	r3, #1
 8000d70:	e028      	b.n	8000dc4 <HAL_PWREx_ConfigSupply+0xa8>
  while (__HAL_PWR_GET_FLAG (PWR_FLAG_ACTVOSRDY) == 0U)
 8000d72:	4b16      	ldr	r3, [pc, #88]	; (8000dcc <HAL_PWREx_ConfigSupply+0xb0>)
 8000d74:	685b      	ldr	r3, [r3, #4]
 8000d76:	f403 5300 	and.w	r3, r3, #8192	; 0x2000
 8000d7a:	f5b3 5f00 	cmp.w	r3, #8192	; 0x2000
 8000d7e:	d1ee      	bne.n	8000d5e <HAL_PWREx_ConfigSupply+0x42>
    }
  }

#if defined (SMPS)
  /* When the SMPS supplies external circuits verify that SDEXTRDY flag is set */
  if ((SupplySource == PWR_SMPS_1V8_SUPPLIES_EXT_AND_LDO) ||
 8000d80:	687b      	ldr	r3, [r7, #4]
 8000d82:	2b1e      	cmp	r3, #30
 8000d84:	d008      	beq.n	8000d98 <HAL_PWREx_ConfigSupply+0x7c>
 8000d86:	687b      	ldr	r3, [r7, #4]
 8000d88:	2b2e      	cmp	r3, #46	; 0x2e
 8000d8a:	d005      	beq.n	8000d98 <HAL_PWREx_ConfigSupply+0x7c>
      (SupplySource == PWR_SMPS_2V5_SUPPLIES_EXT_AND_LDO) ||
 8000d8c:	687b      	ldr	r3, [r7, #4]
 8000d8e:	2b1d      	cmp	r3, #29
 8000d90:	d002      	beq.n	8000d98 <HAL_PWREx_ConfigSupply+0x7c>
      (SupplySource == PWR_SMPS_1V8_SUPPLIES_EXT)         ||
 8000d92:	687b      	ldr	r3, [r7, #4]
 8000d94:	2b2d      	cmp	r3, #45	; 0x2d
 8000d96:	d114      	bne.n	8000dc2 <HAL_PWREx_ConfigSupply+0xa6>
      (SupplySource == PWR_SMPS_2V5_SUPPLIES_EXT))
  {
    /* Get the current tick number */
    tickstart = HAL_GetTick ();
 8000d98:	f7ff fdfa 	bl	8000990 <HAL_GetTick>
 8000d9c:	60f8      	str	r0, [r7, #12]

    /* Wait till SMPS external supply ready flag is set */
    while (__HAL_PWR_GET_FLAG (PWR_FLAG_SMPSEXTRDY) == 0U)
 8000d9e:	e009      	b.n	8000db4 <HAL_PWREx_ConfigSupply+0x98>
    {
      if ((HAL_GetTick () - tickstart) > PWR_FLAG_SETTING_DELAY)
 8000da0:	f7ff fdf6 	bl	8000990 <HAL_GetTick>
 8000da4:	4602      	mov	r2, r0
 8000da6:	68fb      	ldr	r3, [r7, #12]
 8000da8:	1ad3      	subs	r3, r2, r3
 8000daa:	f5b3 7f7a 	cmp.w	r3, #1000	; 0x3e8
 8000dae:	d901      	bls.n	8000db4 <HAL_PWREx_ConfigSupply+0x98>
      {
        return HAL_ERROR;
 8000db0:	2301      	movs	r3, #1
 8000db2:	e007      	b.n	8000dc4 <HAL_PWREx_ConfigSupply+0xa8>
    while (__HAL_PWR_GET_FLAG (PWR_FLAG_SMPSEXTRDY) == 0U)
 8000db4:	4b05      	ldr	r3, [pc, #20]	; (8000dcc <HAL_PWREx_ConfigSupply+0xb0>)
 8000db6:	68db      	ldr	r3, [r3, #12]
 8000db8:	f403 3380 	and.w	r3, r3, #65536	; 0x10000
 8000dbc:	f5b3 3f80 	cmp.w	r3, #65536	; 0x10000
 8000dc0:	d1ee      	bne.n	8000da0 <HAL_PWREx_ConfigSupply+0x84>
      }
    }
  }
#endif /* defined (SMPS) */

  return HAL_OK;
 8000dc2:	2300      	movs	r3, #0
}
 8000dc4:	4618      	mov	r0, r3
 8000dc6:	3710      	adds	r7, #16
 8000dc8:	46bd      	mov	sp, r7
 8000dca:	bd80      	pop	{r7, pc}
 8000dcc:	58024800 	.word	0x58024800

08000dd0 <HAL_RCC_OscConfig>:
  *         supported by this function. User should request a transition to HSE Off
  *         first and then HSE On or HSE Bypass.
  * @retval HAL status
  */
__weak HAL_StatusTypeDef HAL_RCC_OscConfig(RCC_OscInitTypeDef  *RCC_OscInitStruct)
{
 8000dd0:	b580      	push	{r7, lr}
 8000dd2:	b08c      	sub	sp, #48	; 0x30
 8000dd4:	af00      	add	r7, sp, #0
 8000dd6:	6078      	str	r0, [r7, #4]
  uint32_t tickstart;
  uint32_t temp1_pllckcfg, temp2_pllckcfg;

    /* Check Null pointer */
  if(RCC_OscInitStruct == NULL)
 8000dd8:	687b      	ldr	r3, [r7, #4]
 8000dda:	2b00      	cmp	r3, #0
 8000ddc:	d102      	bne.n	8000de4 <HAL_RCC_OscConfig+0x14>
  {
    return HAL_ERROR;
 8000dde:	2301      	movs	r3, #1
 8000de0:	f000 bc1d 	b.w	800161e <HAL_RCC_OscConfig+0x84e>
  }

  /* Check the parameters */
  assert_param(IS_RCC_OSCILLATORTYPE(RCC_OscInitStruct->OscillatorType));
  /*------------------------------- HSE Configuration ------------------------*/
  if(((RCC_OscInitStruct->OscillatorType) & RCC_OSCILLATORTYPE_HSE) == RCC_OSCILLATORTYPE_HSE)
 8000de4:	687b      	ldr	r3, [r7, #4]
 8000de6:	681b      	ldr	r3, [r3, #0]
 8000de8:	f003 0301 	and.w	r3, r3, #1
 8000dec:	2b00      	cmp	r3, #0
 8000dee:	f000 8087 	beq.w	8000f00 <HAL_RCC_OscConfig+0x130>
  {
    /* Check the parameters */
    assert_param(IS_RCC_HSE(RCC_OscInitStruct->HSEState));

    const uint32_t temp_sysclksrc = __HAL_RCC_GET_SYSCLK_SOURCE();
 8000df2:	4b99      	ldr	r3, [pc, #612]	; (8001058 <HAL_RCC_OscConfig+0x288>)
 8000df4:	691b      	ldr	r3, [r3, #16]
 8000df6:	f003 0338 	and.w	r3, r3, #56	; 0x38
 8000dfa:	62fb      	str	r3, [r7, #44]	; 0x2c
    const uint32_t temp_pllckselr = RCC->PLLCKSELR;
 8000dfc:	4b96      	ldr	r3, [pc, #600]	; (8001058 <HAL_RCC_OscConfig+0x288>)
 8000dfe:	6a9b      	ldr	r3, [r3, #40]	; 0x28
 8000e00:	62bb      	str	r3, [r7, #40]	; 0x28
    /* When the HSE is used as system clock or clock source for PLL in these cases HSE will not disabled */
    if((temp_sysclksrc == RCC_CFGR_SWS_HSE) || ((temp_sysclksrc == RCC_CFGR_SWS_PLL1) && ((temp_pllckselr & RCC_PLLCKSELR_PLLSRC) == RCC_PLLCKSELR_PLLSRC_HSE)))
 8000e02:	6afb      	ldr	r3, [r7, #44]	; 0x2c
 8000e04:	2b10      	cmp	r3, #16
 8000e06:	d007      	beq.n	8000e18 <HAL_RCC_OscConfig+0x48>
 8000e08:	6afb      	ldr	r3, [r7, #44]	; 0x2c
 8000e0a:	2b18      	cmp	r3, #24
 8000e0c:	d110      	bne.n	8000e30 <HAL_RCC_OscConfig+0x60>
 8000e0e:	6abb      	ldr	r3, [r7, #40]	; 0x28
 8000e10:	f003 0303 	and.w	r3, r3, #3
 8000e14:	2b02      	cmp	r3, #2
 8000e16:	d10b      	bne.n	8000e30 <HAL_RCC_OscConfig+0x60>
    {
      if((__HAL_RCC_GET_FLAG(RCC_FLAG_HSERDY) != 0U) && (RCC_OscInitStruct->HSEState == RCC_HSE_OFF))
 8000e18:	4b8f      	ldr	r3, [pc, #572]	; (8001058 <HAL_RCC_OscConfig+0x288>)
 8000e1a:	681b      	ldr	r3, [r3, #0]
 8000e1c:	f403 3300 	and.w	r3, r3, #131072	; 0x20000
 8000e20:	2b00      	cmp	r3, #0
 8000e22:	d06c      	beq.n	8000efe <HAL_RCC_OscConfig+0x12e>
 8000e24:	687b      	ldr	r3, [r7, #4]
 8000e26:	685b      	ldr	r3, [r3, #4]
 8000e28:	2b00      	cmp	r3, #0
 8000e2a:	d168      	bne.n	8000efe <HAL_RCC_OscConfig+0x12e>
      {
        return HAL_ERROR;
 8000e2c:	2301      	movs	r3, #1
 8000e2e:	e3f6      	b.n	800161e <HAL_RCC_OscConfig+0x84e>
      }
    }
    else
    {
      /* Set the new HSE configuration ---------------------------------------*/
      __HAL_RCC_HSE_CONFIG(RCC_OscInitStruct->HSEState);
 8000e30:	687b      	ldr	r3, [r7, #4]
 8000e32:	685b      	ldr	r3, [r3, #4]
 8000e34:	f5b3 3f80 	cmp.w	r3, #65536	; 0x10000
 8000e38:	d106      	bne.n	8000e48 <HAL_RCC_OscConfig+0x78>
 8000e3a:	4b87      	ldr	r3, [pc, #540]	; (8001058 <HAL_RCC_OscConfig+0x288>)
 8000e3c:	681b      	ldr	r3, [r3, #0]
 8000e3e:	4a86      	ldr	r2, [pc, #536]	; (8001058 <HAL_RCC_OscConfig+0x288>)
 8000e40:	f443 3380 	orr.w	r3, r3, #65536	; 0x10000
 8000e44:	6013      	str	r3, [r2, #0]
 8000e46:	e02e      	b.n	8000ea6 <HAL_RCC_OscConfig+0xd6>
 8000e48:	687b      	ldr	r3, [r7, #4]
 8000e4a:	685b      	ldr	r3, [r3, #4]
 8000e4c:	2b00      	cmp	r3, #0
 8000e4e:	d10c      	bne.n	8000e6a <HAL_RCC_OscConfig+0x9a>
 8000e50:	4b81      	ldr	r3, [pc, #516]	; (8001058 <HAL_RCC_OscConfig+0x288>)
 8000e52:	681b      	ldr	r3, [r3, #0]
 8000e54:	4a80      	ldr	r2, [pc, #512]	; (8001058 <HAL_RCC_OscConfig+0x288>)
 8000e56:	f423 3380 	bic.w	r3, r3, #65536	; 0x10000
 8000e5a:	6013      	str	r3, [r2, #0]
 8000e5c:	4b7e      	ldr	r3, [pc, #504]	; (8001058 <HAL_RCC_OscConfig+0x288>)
 8000e5e:	681b      	ldr	r3, [r3, #0]
 8000e60:	4a7d      	ldr	r2, [pc, #500]	; (8001058 <HAL_RCC_OscConfig+0x288>)
 8000e62:	f423 2380 	bic.w	r3, r3, #262144	; 0x40000
 8000e66:	6013      	str	r3, [r2, #0]
 8000e68:	e01d      	b.n	8000ea6 <HAL_RCC_OscConfig+0xd6>
 8000e6a:	687b      	ldr	r3, [r7, #4]
 8000e6c:	685b      	ldr	r3, [r3, #4]
 8000e6e:	f5b3 2fa0 	cmp.w	r3, #327680	; 0x50000
 8000e72:	d10c      	bne.n	8000e8e <HAL_RCC_OscConfig+0xbe>
 8000e74:	4b78      	ldr	r3, [pc, #480]	; (8001058 <HAL_RCC_OscConfig+0x288>)
 8000e76:	681b      	ldr	r3, [r3, #0]
 8000e78:	4a77      	ldr	r2, [pc, #476]	; (8001058 <HAL_RCC_OscConfig+0x288>)
 8000e7a:	f443 2380 	orr.w	r3, r3, #262144	; 0x40000
 8000e7e:	6013      	str	r3, [r2, #0]
 8000e80:	4b75      	ldr	r3, [pc, #468]	; (8001058 <HAL_RCC_OscConfig+0x288>)
 8000e82:	681b      	ldr	r3, [r3, #0]
 8000e84:	4a74      	ldr	r2, [pc, #464]	; (8001058 <HAL_RCC_OscConfig+0x288>)
 8000e86:	f443 3380 	orr.w	r3, r3, #65536	; 0x10000
 8000e8a:	6013      	str	r3, [r2, #0]
 8000e8c:	e00b      	b.n	8000ea6 <HAL_RCC_OscConfig+0xd6>
 8000e8e:	4b72      	ldr	r3, [pc, #456]	; (8001058 <HAL_RCC_OscConfig+0x288>)
 8000e90:	681b      	ldr	r3, [r3, #0]
 8000e92:	4a71      	ldr	r2, [pc, #452]	; (8001058 <HAL_RCC_OscConfig+0x288>)
 8000e94:	f423 3380 	bic.w	r3, r3, #65536	; 0x10000
 8000e98:	6013      	str	r3, [r2, #0]
 8000e9a:	4b6f      	ldr	r3, [pc, #444]	; (8001058 <HAL_RCC_OscConfig+0x288>)
 8000e9c:	681b      	ldr	r3, [r3, #0]
 8000e9e:	4a6e      	ldr	r2, [pc, #440]	; (8001058 <HAL_RCC_OscConfig+0x288>)
 8000ea0:	f423 2380 	bic.w	r3, r3, #262144	; 0x40000
 8000ea4:	6013      	str	r3, [r2, #0]

      /* Check the HSE State */
      if(RCC_OscInitStruct->HSEState != RCC_HSE_OFF)
 8000ea6:	687b      	ldr	r3, [r7, #4]
 8000ea8:	685b      	ldr	r3, [r3, #4]
 8000eaa:	2b00      	cmp	r3, #0
 8000eac:	d013      	beq.n	8000ed6 <HAL_RCC_OscConfig+0x106>
      {
        /* Get Start Tick*/
        tickstart = HAL_GetTick();
 8000eae:	f7ff fd6f 	bl	8000990 <HAL_GetTick>
 8000eb2:	6278      	str	r0, [r7, #36]	; 0x24

        /* Wait till HSE is ready */
        while(__HAL_RCC_GET_FLAG(RCC_FLAG_HSERDY) == 0U)
 8000eb4:	e008      	b.n	8000ec8 <HAL_RCC_OscConfig+0xf8>
        {
          if((uint32_t) (HAL_GetTick() - tickstart ) > HSE_TIMEOUT_VALUE)
 8000eb6:	f7ff fd6b 	bl	8000990 <HAL_GetTick>
 8000eba:	4602      	mov	r2, r0
 8000ebc:	6a7b      	ldr	r3, [r7, #36]	; 0x24
 8000ebe:	1ad3      	subs	r3, r2, r3
 8000ec0:	2b64      	cmp	r3, #100	; 0x64
 8000ec2:	d901      	bls.n	8000ec8 <HAL_RCC_OscConfig+0xf8>
          {
            return HAL_TIMEOUT;
 8000ec4:	2303      	movs	r3, #3
 8000ec6:	e3aa      	b.n	800161e <HAL_RCC_OscConfig+0x84e>
        while(__HAL_RCC_GET_FLAG(RCC_FLAG_HSERDY) == 0U)
 8000ec8:	4b63      	ldr	r3, [pc, #396]	; (8001058 <HAL_RCC_OscConfig+0x288>)
 8000eca:	681b      	ldr	r3, [r3, #0]
 8000ecc:	f403 3300 	and.w	r3, r3, #131072	; 0x20000
 8000ed0:	2b00      	cmp	r3, #0
 8000ed2:	d0f0      	beq.n	8000eb6 <HAL_RCC_OscConfig+0xe6>
 8000ed4:	e014      	b.n	8000f00 <HAL_RCC_OscConfig+0x130>
        }
      }
      else
      {
        /* Get Start Tick*/
        tickstart = HAL_GetTick();
 8000ed6:	f7ff fd5b 	bl	8000990 <HAL_GetTick>
 8000eda:	6278      	str	r0, [r7, #36]	; 0x24

        /* Wait till HSE is disabled */
        while(__HAL_RCC_GET_FLAG(RCC_FLAG_HSERDY) != 0U)
 8000edc:	e008      	b.n	8000ef0 <HAL_RCC_OscConfig+0x120>
        {
          if((uint32_t) (HAL_GetTick() - tickstart ) > HSE_TIMEOUT_VALUE)
 8000ede:	f7ff fd57 	bl	8000990 <HAL_GetTick>
 8000ee2:	4602      	mov	r2, r0
 8000ee4:	6a7b      	ldr	r3, [r7, #36]	; 0x24
 8000ee6:	1ad3      	subs	r3, r2, r3
 8000ee8:	2b64      	cmp	r3, #100	; 0x64
 8000eea:	d901      	bls.n	8000ef0 <HAL_RCC_OscConfig+0x120>
          {
            return HAL_TIMEOUT;
 8000eec:	2303      	movs	r3, #3
 8000eee:	e396      	b.n	800161e <HAL_RCC_OscConfig+0x84e>
        while(__HAL_RCC_GET_FLAG(RCC_FLAG_HSERDY) != 0U)
 8000ef0:	4b59      	ldr	r3, [pc, #356]	; (8001058 <HAL_RCC_OscConfig+0x288>)
 8000ef2:	681b      	ldr	r3, [r3, #0]
 8000ef4:	f403 3300 	and.w	r3, r3, #131072	; 0x20000
 8000ef8:	2b00      	cmp	r3, #0
 8000efa:	d1f0      	bne.n	8000ede <HAL_RCC_OscConfig+0x10e>
 8000efc:	e000      	b.n	8000f00 <HAL_RCC_OscConfig+0x130>
      if((__HAL_RCC_GET_FLAG(RCC_FLAG_HSERDY) != 0U) && (RCC_OscInitStruct->HSEState == RCC_HSE_OFF))
 8000efe:	bf00      	nop
        }
      }
    }
  }
  /*----------------------------- HSI Configuration --------------------------*/
  if(((RCC_OscInitStruct->OscillatorType) & RCC_OSCILLATORTYPE_HSI) == RCC_OSCILLATORTYPE_HSI)
 8000f00:	687b      	ldr	r3, [r7, #4]
 8000f02:	681b      	ldr	r3, [r3, #0]
 8000f04:	f003 0302 	and.w	r3, r3, #2
 8000f08:	2b00      	cmp	r3, #0
 8000f0a:	f000 80cb 	beq.w	80010a4 <HAL_RCC_OscConfig+0x2d4>
    /* Check the parameters */
    assert_param(IS_RCC_HSI(RCC_OscInitStruct->HSIState));
    assert_param(IS_RCC_HSICALIBRATION_VALUE(RCC_OscInitStruct->HSICalibrationValue));

    /* When the HSI is used as system clock it will not be disabled */
    const uint32_t temp_sysclksrc = __HAL_RCC_GET_SYSCLK_SOURCE();
 8000f0e:	4b52      	ldr	r3, [pc, #328]	; (8001058 <HAL_RCC_OscConfig+0x288>)
 8000f10:	691b      	ldr	r3, [r3, #16]
 8000f12:	f003 0338 	and.w	r3, r3, #56	; 0x38
 8000f16:	623b      	str	r3, [r7, #32]
    const uint32_t temp_pllckselr = RCC->PLLCKSELR;
 8000f18:	4b4f      	ldr	r3, [pc, #316]	; (8001058 <HAL_RCC_OscConfig+0x288>)
 8000f1a:	6a9b      	ldr	r3, [r3, #40]	; 0x28
 8000f1c:	61fb      	str	r3, [r7, #28]
    if((temp_sysclksrc == RCC_CFGR_SWS_HSI) || ((temp_sysclksrc == RCC_CFGR_SWS_PLL1) && ((temp_pllckselr & RCC_PLLCKSELR_PLLSRC) == RCC_PLLCKSELR_PLLSRC_HSI)))
 8000f1e:	6a3b      	ldr	r3, [r7, #32]
 8000f20:	2b00      	cmp	r3, #0
 8000f22:	d007      	beq.n	8000f34 <HAL_RCC_OscConfig+0x164>
 8000f24:	6a3b      	ldr	r3, [r7, #32]
 8000f26:	2b18      	cmp	r3, #24
 8000f28:	d156      	bne.n	8000fd8 <HAL_RCC_OscConfig+0x208>
 8000f2a:	69fb      	ldr	r3, [r7, #28]
 8000f2c:	f003 0303 	and.w	r3, r3, #3
 8000f30:	2b00      	cmp	r3, #0
 8000f32:	d151      	bne.n	8000fd8 <HAL_RCC_OscConfig+0x208>
    {
      /* When HSI is used as system clock it will not be disabled */
      if((__HAL_RCC_GET_FLAG(RCC_FLAG_HSIRDY) != 0U) && (RCC_OscInitStruct->HSIState == RCC_HSI_OFF))
 8000f34:	4b48      	ldr	r3, [pc, #288]	; (8001058 <HAL_RCC_OscConfig+0x288>)
 8000f36:	681b      	ldr	r3, [r3, #0]
 8000f38:	f003 0304 	and.w	r3, r3, #4
 8000f3c:	2b00      	cmp	r3, #0
 8000f3e:	d005      	beq.n	8000f4c <HAL_RCC_OscConfig+0x17c>
 8000f40:	687b      	ldr	r3, [r7, #4]
 8000f42:	68db      	ldr	r3, [r3, #12]
 8000f44:	2b00      	cmp	r3, #0
 8000f46:	d101      	bne.n	8000f4c <HAL_RCC_OscConfig+0x17c>
      {
        return HAL_ERROR;
 8000f48:	2301      	movs	r3, #1
 8000f4a:	e368      	b.n	800161e <HAL_RCC_OscConfig+0x84e>
      }
      /* Otherwise, only HSI division and calibration are allowed */
      else
      {
          /* Enable the Internal High Speed oscillator (HSI, HSIDIV2, HSIDIV4, or HSIDIV8) */
          __HAL_RCC_HSI_CONFIG(RCC_OscInitStruct->HSIState);
 8000f4c:	4b42      	ldr	r3, [pc, #264]	; (8001058 <HAL_RCC_OscConfig+0x288>)
 8000f4e:	681b      	ldr	r3, [r3, #0]
 8000f50:	f023 0219 	bic.w	r2, r3, #25
 8000f54:	687b      	ldr	r3, [r7, #4]
 8000f56:	68db      	ldr	r3, [r3, #12]
 8000f58:	493f      	ldr	r1, [pc, #252]	; (8001058 <HAL_RCC_OscConfig+0x288>)
 8000f5a:	4313      	orrs	r3, r2
 8000f5c:	600b      	str	r3, [r1, #0]

          /* Get Start Tick*/
          tickstart = HAL_GetTick();
 8000f5e:	f7ff fd17 	bl	8000990 <HAL_GetTick>
 8000f62:	6278      	str	r0, [r7, #36]	; 0x24

          /* Wait till HSI is ready */
          while(__HAL_RCC_GET_FLAG(RCC_FLAG_HSIRDY) == 0U)
 8000f64:	e008      	b.n	8000f78 <HAL_RCC_OscConfig+0x1a8>
          {
            if((uint32_t) (HAL_GetTick() - tickstart ) > HSI_TIMEOUT_VALUE)
 8000f66:	f7ff fd13 	bl	8000990 <HAL_GetTick>
 8000f6a:	4602      	mov	r2, r0
 8000f6c:	6a7b      	ldr	r3, [r7, #36]	; 0x24
 8000f6e:	1ad3      	subs	r3, r2, r3
 8000f70:	2b02      	cmp	r3, #2
 8000f72:	d901      	bls.n	8000f78 <HAL_RCC_OscConfig+0x1a8>
            {
              return HAL_TIMEOUT;
 8000f74:	2303      	movs	r3, #3
 8000f76:	e352      	b.n	800161e <HAL_RCC_OscConfig+0x84e>
          while(__HAL_RCC_GET_FLAG(RCC_FLAG_HSIRDY) == 0U)
 8000f78:	4b37      	ldr	r3, [pc, #220]	; (8001058 <HAL_RCC_OscConfig+0x288>)
 8000f7a:	681b      	ldr	r3, [r3, #0]
 8000f7c:	f003 0304 	and.w	r3, r3, #4
 8000f80:	2b00      	cmp	r3, #0
 8000f82:	d0f0      	beq.n	8000f66 <HAL_RCC_OscConfig+0x196>
            }
          }
        /* Adjusts the Internal High Speed oscillator (HSI) calibration value.*/
        __HAL_RCC_HSI_CALIBRATIONVALUE_ADJUST(RCC_OscInitStruct->HSICalibrationValue);
 8000f84:	f7ff fd10 	bl	80009a8 <HAL_GetREVID>
 8000f88:	4603      	mov	r3, r0
 8000f8a:	f241 0203 	movw	r2, #4099	; 0x1003
 8000f8e:	4293      	cmp	r3, r2
 8000f90:	d817      	bhi.n	8000fc2 <HAL_RCC_OscConfig+0x1f2>
 8000f92:	687b      	ldr	r3, [r7, #4]
 8000f94:	691b      	ldr	r3, [r3, #16]
 8000f96:	2b40      	cmp	r3, #64	; 0x40
 8000f98:	d108      	bne.n	8000fac <HAL_RCC_OscConfig+0x1dc>
 8000f9a:	4b2f      	ldr	r3, [pc, #188]	; (8001058 <HAL_RCC_OscConfig+0x288>)
 8000f9c:	685b      	ldr	r3, [r3, #4]
 8000f9e:	f423 337c 	bic.w	r3, r3, #258048	; 0x3f000
 8000fa2:	4a2d      	ldr	r2, [pc, #180]	; (8001058 <HAL_RCC_OscConfig+0x288>)
 8000fa4:	f443 3300 	orr.w	r3, r3, #131072	; 0x20000
 8000fa8:	6053      	str	r3, [r2, #4]
      if((__HAL_RCC_GET_FLAG(RCC_FLAG_HSIRDY) != 0U) && (RCC_OscInitStruct->HSIState == RCC_HSI_OFF))
 8000faa:	e07b      	b.n	80010a4 <HAL_RCC_OscConfig+0x2d4>
        __HAL_RCC_HSI_CALIBRATIONVALUE_ADJUST(RCC_OscInitStruct->HSICalibrationValue);
 8000fac:	4b2a      	ldr	r3, [pc, #168]	; (8001058 <HAL_RCC_OscConfig+0x288>)
 8000fae:	685b      	ldr	r3, [r3, #4]
 8000fb0:	f423 327c 	bic.w	r2, r3, #258048	; 0x3f000
 8000fb4:	687b      	ldr	r3, [r7, #4]
 8000fb6:	691b      	ldr	r3, [r3, #16]
 8000fb8:	031b      	lsls	r3, r3, #12
 8000fba:	4927      	ldr	r1, [pc, #156]	; (8001058 <HAL_RCC_OscConfig+0x288>)
 8000fbc:	4313      	orrs	r3, r2
 8000fbe:	604b      	str	r3, [r1, #4]
      if((__HAL_RCC_GET_FLAG(RCC_FLAG_HSIRDY) != 0U) && (RCC_OscInitStruct->HSIState == RCC_HSI_OFF))
 8000fc0:	e070      	b.n	80010a4 <HAL_RCC_OscConfig+0x2d4>
        __HAL_RCC_HSI_CALIBRATIONVALUE_ADJUST(RCC_OscInitStruct->HSICalibrationValue);
 8000fc2:	4b25      	ldr	r3, [pc, #148]	; (8001058 <HAL_RCC_OscConfig+0x288>)
 8000fc4:	685b      	ldr	r3, [r3, #4]
 8000fc6:	f023 42fe 	bic.w	r2, r3, #2130706432	; 0x7f000000
 8000fca:	687b      	ldr	r3, [r7, #4]
 8000fcc:	691b      	ldr	r3, [r3, #16]
 8000fce:	061b      	lsls	r3, r3, #24
 8000fd0:	4921      	ldr	r1, [pc, #132]	; (8001058 <HAL_RCC_OscConfig+0x288>)
 8000fd2:	4313      	orrs	r3, r2
 8000fd4:	604b      	str	r3, [r1, #4]
      if((__HAL_RCC_GET_FLAG(RCC_FLAG_HSIRDY) != 0U) && (RCC_OscInitStruct->HSIState == RCC_HSI_OFF))
 8000fd6:	e065      	b.n	80010a4 <HAL_RCC_OscConfig+0x2d4>
    }

    else
    {
      /* Check the HSI State */
      if((RCC_OscInitStruct->HSIState)!= RCC_HSI_OFF)
 8000fd8:	687b      	ldr	r3, [r7, #4]
 8000fda:	68db      	ldr	r3, [r3, #12]
 8000fdc:	2b00      	cmp	r3, #0
 8000fde:	d048      	beq.n	8001072 <HAL_RCC_OscConfig+0x2a2>
      {
     /* Enable the Internal High Speed oscillator (HSI, HSIDIV2,HSIDIV4, or HSIDIV8) */
        __HAL_RCC_HSI_CONFIG(RCC_OscInitStruct->HSIState);
 8000fe0:	4b1d      	ldr	r3, [pc, #116]	; (8001058 <HAL_RCC_OscConfig+0x288>)
 8000fe2:	681b      	ldr	r3, [r3, #0]
 8000fe4:	f023 0219 	bic.w	r2, r3, #25
 8000fe8:	687b      	ldr	r3, [r7, #4]
 8000fea:	68db      	ldr	r3, [r3, #12]
 8000fec:	491a      	ldr	r1, [pc, #104]	; (8001058 <HAL_RCC_OscConfig+0x288>)
 8000fee:	4313      	orrs	r3, r2
 8000ff0:	600b      	str	r3, [r1, #0]

        /* Get Start Tick*/
        tickstart = HAL_GetTick();
 8000ff2:	f7ff fccd 	bl	8000990 <HAL_GetTick>
 8000ff6:	6278      	str	r0, [r7, #36]	; 0x24

        /* Wait till HSI is ready */
        while(__HAL_RCC_GET_FLAG(RCC_FLAG_HSIRDY) == 0U)
 8000ff8:	e008      	b.n	800100c <HAL_RCC_OscConfig+0x23c>
        {
          if((HAL_GetTick() - tickstart ) > HSI_TIMEOUT_VALUE)
 8000ffa:	f7ff fcc9 	bl	8000990 <HAL_GetTick>
 8000ffe:	4602      	mov	r2, r0
 8001000:	6a7b      	ldr	r3, [r7, #36]	; 0x24
 8001002:	1ad3      	subs	r3, r2, r3
 8001004:	2b02      	cmp	r3, #2
 8001006:	d901      	bls.n	800100c <HAL_RCC_OscConfig+0x23c>
          {
            return HAL_TIMEOUT;
 8001008:	2303      	movs	r3, #3
 800100a:	e308      	b.n	800161e <HAL_RCC_OscConfig+0x84e>
        while(__HAL_RCC_GET_FLAG(RCC_FLAG_HSIRDY) == 0U)
 800100c:	4b12      	ldr	r3, [pc, #72]	; (8001058 <HAL_RCC_OscConfig+0x288>)
 800100e:	681b      	ldr	r3, [r3, #0]
 8001010:	f003 0304 	and.w	r3, r3, #4
 8001014:	2b00      	cmp	r3, #0
 8001016:	d0f0      	beq.n	8000ffa <HAL_RCC_OscConfig+0x22a>
          }
        }

        /* Adjusts the Internal High Speed oscillator (HSI) calibration value.*/
        __HAL_RCC_HSI_CALIBRATIONVALUE_ADJUST(RCC_OscInitStruct->HSICalibrationValue);
 8001018:	f7ff fcc6 	bl	80009a8 <HAL_GetREVID>
 800101c:	4603      	mov	r3, r0
 800101e:	f241 0203 	movw	r2, #4099	; 0x1003
 8001022:	4293      	cmp	r3, r2
 8001024:	d81a      	bhi.n	800105c <HAL_RCC_OscConfig+0x28c>
 8001026:	687b      	ldr	r3, [r7, #4]
 8001028:	691b      	ldr	r3, [r3, #16]
 800102a:	2b40      	cmp	r3, #64	; 0x40
 800102c:	d108      	bne.n	8001040 <HAL_RCC_OscConfig+0x270>
 800102e:	4b0a      	ldr	r3, [pc, #40]	; (8001058 <HAL_RCC_OscConfig+0x288>)
 8001030:	685b      	ldr	r3, [r3, #4]
 8001032:	f423 337c 	bic.w	r3, r3, #258048	; 0x3f000
 8001036:	4a08      	ldr	r2, [pc, #32]	; (8001058 <HAL_RCC_OscConfig+0x288>)
 8001038:	f443 3300 	orr.w	r3, r3, #131072	; 0x20000
 800103c:	6053      	str	r3, [r2, #4]
 800103e:	e031      	b.n	80010a4 <HAL_RCC_OscConfig+0x2d4>
 8001040:	4b05      	ldr	r3, [pc, #20]	; (8001058 <HAL_RCC_OscConfig+0x288>)
 8001042:	685b      	ldr	r3, [r3, #4]
 8001044:	f423 327c 	bic.w	r2, r3, #258048	; 0x3f000
 8001048:	687b      	ldr	r3, [r7, #4]
 800104a:	691b      	ldr	r3, [r3, #16]
 800104c:	031b      	lsls	r3, r3, #12
 800104e:	4902      	ldr	r1, [pc, #8]	; (8001058 <HAL_RCC_OscConfig+0x288>)
 8001050:	4313      	orrs	r3, r2
 8001052:	604b      	str	r3, [r1, #4]
 8001054:	e026      	b.n	80010a4 <HAL_RCC_OscConfig+0x2d4>
 8001056:	bf00      	nop
 8001058:	58024400 	.word	0x58024400
 800105c:	4b9a      	ldr	r3, [pc, #616]	; (80012c8 <HAL_RCC_OscConfig+0x4f8>)
 800105e:	685b      	ldr	r3, [r3, #4]
 8001060:	f023 42fe 	bic.w	r2, r3, #2130706432	; 0x7f000000
 8001064:	687b      	ldr	r3, [r7, #4]
 8001066:	691b      	ldr	r3, [r3, #16]
 8001068:	061b      	lsls	r3, r3, #24
 800106a:	4997      	ldr	r1, [pc, #604]	; (80012c8 <HAL_RCC_OscConfig+0x4f8>)
 800106c:	4313      	orrs	r3, r2
 800106e:	604b      	str	r3, [r1, #4]
 8001070:	e018      	b.n	80010a4 <HAL_RCC_OscConfig+0x2d4>
      }
      else
      {
        /* Disable the Internal High Speed oscillator (HSI). */
        __HAL_RCC_HSI_DISABLE();
 8001072:	4b95      	ldr	r3, [pc, #596]	; (80012c8 <HAL_RCC_OscConfig+0x4f8>)
 8001074:	681b      	ldr	r3, [r3, #0]
 8001076:	4a94      	ldr	r2, [pc, #592]	; (80012c8 <HAL_RCC_OscConfig+0x4f8>)
 8001078:	f023 0301 	bic.w	r3, r3, #1
 800107c:	6013      	str	r3, [r2, #0]

        /* Get Start Tick*/
        tickstart = HAL_GetTick();
 800107e:	f7ff fc87 	bl	8000990 <HAL_GetTick>
 8001082:	6278      	str	r0, [r7, #36]	; 0x24

        /* Wait till HSI is disabled */
        while(__HAL_RCC_GET_FLAG(RCC_FLAG_HSIRDY) != 0U)
 8001084:	e008      	b.n	8001098 <HAL_RCC_OscConfig+0x2c8>
        {
          if((HAL_GetTick() - tickstart ) > HSI_TIMEOUT_VALUE)
 8001086:	f7ff fc83 	bl	8000990 <HAL_GetTick>
 800108a:	4602      	mov	r2, r0
 800108c:	6a7b      	ldr	r3, [r7, #36]	; 0x24
 800108e:	1ad3      	subs	r3, r2, r3
 8001090:	2b02      	cmp	r3, #2
 8001092:	d901      	bls.n	8001098 <HAL_RCC_OscConfig+0x2c8>
          {
            return HAL_TIMEOUT;
 8001094:	2303      	movs	r3, #3
 8001096:	e2c2      	b.n	800161e <HAL_RCC_OscConfig+0x84e>
        while(__HAL_RCC_GET_FLAG(RCC_FLAG_HSIRDY) != 0U)
 8001098:	4b8b      	ldr	r3, [pc, #556]	; (80012c8 <HAL_RCC_OscConfig+0x4f8>)
 800109a:	681b      	ldr	r3, [r3, #0]
 800109c:	f003 0304 	and.w	r3, r3, #4
 80010a0:	2b00      	cmp	r3, #0
 80010a2:	d1f0      	bne.n	8001086 <HAL_RCC_OscConfig+0x2b6>
        }
      }
    }
  }
  /*----------------------------- CSI Configuration --------------------------*/
  if(((RCC_OscInitStruct->OscillatorType) & RCC_OSCILLATORTYPE_CSI) == RCC_OSCILLATORTYPE_CSI)
 80010a4:	687b      	ldr	r3, [r7, #4]
 80010a6:	681b      	ldr	r3, [r3, #0]
 80010a8:	f003 0310 	and.w	r3, r3, #16
 80010ac:	2b00      	cmp	r3, #0
 80010ae:	f000 80a9 	beq.w	8001204 <HAL_RCC_OscConfig+0x434>
    /* Check the parameters */
    assert_param(IS_RCC_CSI(RCC_OscInitStruct->CSIState));
    assert_param(IS_RCC_CSICALIBRATION_VALUE(RCC_OscInitStruct->CSICalibrationValue));

    /* When the CSI is used as system clock it will not disabled */
    const uint32_t temp_sysclksrc = __HAL_RCC_GET_SYSCLK_SOURCE();
 80010b2:	4b85      	ldr	r3, [pc, #532]	; (80012c8 <HAL_RCC_OscConfig+0x4f8>)
 80010b4:	691b      	ldr	r3, [r3, #16]
 80010b6:	f003 0338 	and.w	r3, r3, #56	; 0x38
 80010ba:	61bb      	str	r3, [r7, #24]
    const uint32_t temp_pllckselr = RCC->PLLCKSELR;
 80010bc:	4b82      	ldr	r3, [pc, #520]	; (80012c8 <HAL_RCC_OscConfig+0x4f8>)
 80010be:	6a9b      	ldr	r3, [r3, #40]	; 0x28
 80010c0:	617b      	str	r3, [r7, #20]
    if((temp_sysclksrc == RCC_CFGR_SWS_CSI) || ((temp_sysclksrc == RCC_CFGR_SWS_PLL1) && ((temp_pllckselr & RCC_PLLCKSELR_PLLSRC) == RCC_PLLCKSELR_PLLSRC_CSI)))
 80010c2:	69bb      	ldr	r3, [r7, #24]
 80010c4:	2b08      	cmp	r3, #8
 80010c6:	d007      	beq.n	80010d8 <HAL_RCC_OscConfig+0x308>
 80010c8:	69bb      	ldr	r3, [r7, #24]
 80010ca:	2b18      	cmp	r3, #24
 80010cc:	d13a      	bne.n	8001144 <HAL_RCC_OscConfig+0x374>
 80010ce:	697b      	ldr	r3, [r7, #20]
 80010d0:	f003 0303 	and.w	r3, r3, #3
 80010d4:	2b01      	cmp	r3, #1
 80010d6:	d135      	bne.n	8001144 <HAL_RCC_OscConfig+0x374>
    {
      /* When CSI is used as system clock it will not disabled */
      if((__HAL_RCC_GET_FLAG(RCC_FLAG_CSIRDY) != 0U) && (RCC_OscInitStruct->CSIState != RCC_CSI_ON))
 80010d8:	4b7b      	ldr	r3, [pc, #492]	; (80012c8 <HAL_RCC_OscConfig+0x4f8>)
 80010da:	681b      	ldr	r3, [r3, #0]
 80010dc:	f403 7380 	and.w	r3, r3, #256	; 0x100
 80010e0:	2b00      	cmp	r3, #0
 80010e2:	d005      	beq.n	80010f0 <HAL_RCC_OscConfig+0x320>
 80010e4:	687b      	ldr	r3, [r7, #4]
 80010e6:	69db      	ldr	r3, [r3, #28]
 80010e8:	2b80      	cmp	r3, #128	; 0x80
 80010ea:	d001      	beq.n	80010f0 <HAL_RCC_OscConfig+0x320>
      {
        return HAL_ERROR;
 80010ec:	2301      	movs	r3, #1
 80010ee:	e296      	b.n	800161e <HAL_RCC_OscConfig+0x84e>
      }
      /* Otherwise, just the calibration is allowed */
      else
      {
        /* Adjusts the Internal High Speed oscillator (CSI) calibration value.*/
        __HAL_RCC_CSI_CALIBRATIONVALUE_ADJUST(RCC_OscInitStruct->CSICalibrationValue);
 80010f0:	f7ff fc5a 	bl	80009a8 <HAL_GetREVID>
 80010f4:	4603      	mov	r3, r0
 80010f6:	f241 0203 	movw	r2, #4099	; 0x1003
 80010fa:	4293      	cmp	r3, r2
 80010fc:	d817      	bhi.n	800112e <HAL_RCC_OscConfig+0x35e>
 80010fe:	687b      	ldr	r3, [r7, #4]
 8001100:	6a1b      	ldr	r3, [r3, #32]
 8001102:	2b20      	cmp	r3, #32
 8001104:	d108      	bne.n	8001118 <HAL_RCC_OscConfig+0x348>
 8001106:	4b70      	ldr	r3, [pc, #448]	; (80012c8 <HAL_RCC_OscConfig+0x4f8>)
 8001108:	685b      	ldr	r3, [r3, #4]
 800110a:	f023 43f8 	bic.w	r3, r3, #2080374784	; 0x7c000000
 800110e:	4a6e      	ldr	r2, [pc, #440]	; (80012c8 <HAL_RCC_OscConfig+0x4f8>)
 8001110:	f043 4380 	orr.w	r3, r3, #1073741824	; 0x40000000
 8001114:	6053      	str	r3, [r2, #4]
      if((__HAL_RCC_GET_FLAG(RCC_FLAG_CSIRDY) != 0U) && (RCC_OscInitStruct->CSIState != RCC_CSI_ON))
 8001116:	e075      	b.n	8001204 <HAL_RCC_OscConfig+0x434>
        __HAL_RCC_CSI_CALIBRATIONVALUE_ADJUST(RCC_OscInitStruct->CSICalibrationValue);
 8001118:	4b6b      	ldr	r3, [pc, #428]	; (80012c8 <HAL_RCC_OscConfig+0x4f8>)
 800111a:	685b      	ldr	r3, [r3, #4]
 800111c:	f023 42f8 	bic.w	r2, r3, #2080374784	; 0x7c000000
 8001120:	687b      	ldr	r3, [r7, #4]
 8001122:	6a1b      	ldr	r3, [r3, #32]
 8001124:	069b      	lsls	r3, r3, #26
 8001126:	4968      	ldr	r1, [pc, #416]	; (80012c8 <HAL_RCC_OscConfig+0x4f8>)
 8001128:	4313      	orrs	r3, r2
 800112a:	604b      	str	r3, [r1, #4]
      if((__HAL_RCC_GET_FLAG(RCC_FLAG_CSIRDY) != 0U) && (RCC_OscInitStruct->CSIState != RCC_CSI_ON))
 800112c:	e06a      	b.n	8001204 <HAL_RCC_OscConfig+0x434>
        __HAL_RCC_CSI_CALIBRATIONVALUE_ADJUST(RCC_OscInitStruct->CSICalibrationValue);
 800112e:	4b66      	ldr	r3, [pc, #408]	; (80012c8 <HAL_RCC_OscConfig+0x4f8>)
 8001130:	68db      	ldr	r3, [r3, #12]
 8001132:	f023 527c 	bic.w	r2, r3, #1056964608	; 0x3f000000
 8001136:	687b      	ldr	r3, [r7, #4]
 8001138:	6a1b      	ldr	r3, [r3, #32]
 800113a:	061b      	lsls	r3, r3, #24
 800113c:	4962      	ldr	r1, [pc, #392]	; (80012c8 <HAL_RCC_OscConfig+0x4f8>)
 800113e:	4313      	orrs	r3, r2
 8001140:	60cb      	str	r3, [r1, #12]
      if((__HAL_RCC_GET_FLAG(RCC_FLAG_CSIRDY) != 0U) && (RCC_OscInitStruct->CSIState != RCC_CSI_ON))
 8001142:	e05f      	b.n	8001204 <HAL_RCC_OscConfig+0x434>
      }
    }
    else
    {
      /* Check the CSI State */
      if((RCC_OscInitStruct->CSIState)!= RCC_CSI_OFF)
 8001144:	687b      	ldr	r3, [r7, #4]
 8001146:	69db      	ldr	r3, [r3, #28]
 8001148:	2b00      	cmp	r3, #0
 800114a:	d042      	beq.n	80011d2 <HAL_RCC_OscConfig+0x402>
      {
        /* Enable the Internal High Speed oscillator (CSI). */
        __HAL_RCC_CSI_ENABLE();
 800114c:	4b5e      	ldr	r3, [pc, #376]	; (80012c8 <HAL_RCC_OscConfig+0x4f8>)
 800114e:	681b      	ldr	r3, [r3, #0]
 8001150:	4a5d      	ldr	r2, [pc, #372]	; (80012c8 <HAL_RCC_OscConfig+0x4f8>)
 8001152:	f043 0380 	orr.w	r3, r3, #128	; 0x80
 8001156:	6013      	str	r3, [r2, #0]

        /* Get Start Tick*/
        tickstart = HAL_GetTick();
 8001158:	f7ff fc1a 	bl	8000990 <HAL_GetTick>
 800115c:	6278      	str	r0, [r7, #36]	; 0x24

        /* Wait till CSI is ready */
        while(__HAL_RCC_GET_FLAG(RCC_FLAG_CSIRDY) == 0U)
 800115e:	e008      	b.n	8001172 <HAL_RCC_OscConfig+0x3a2>
        {
          if((HAL_GetTick() - tickstart ) > CSI_TIMEOUT_VALUE)
 8001160:	f7ff fc16 	bl	8000990 <HAL_GetTick>
 8001164:	4602      	mov	r2, r0
 8001166:	6a7b      	ldr	r3, [r7, #36]	; 0x24
 8001168:	1ad3      	subs	r3, r2, r3
 800116a:	2b02      	cmp	r3, #2
 800116c:	d901      	bls.n	8001172 <HAL_RCC_OscConfig+0x3a2>
          {
            return HAL_TIMEOUT;
 800116e:	2303      	movs	r3, #3
 8001170:	e255      	b.n	800161e <HAL_RCC_OscConfig+0x84e>
        while(__HAL_RCC_GET_FLAG(RCC_FLAG_CSIRDY) == 0U)
 8001172:	4b55      	ldr	r3, [pc, #340]	; (80012c8 <HAL_RCC_OscConfig+0x4f8>)
 8001174:	681b      	ldr	r3, [r3, #0]
 8001176:	f403 7380 	and.w	r3, r3, #256	; 0x100
 800117a:	2b00      	cmp	r3, #0
 800117c:	d0f0      	beq.n	8001160 <HAL_RCC_OscConfig+0x390>
          }
        }

        /* Adjusts the Internal High Speed oscillator (CSI) calibration value.*/
        __HAL_RCC_CSI_CALIBRATIONVALUE_ADJUST(RCC_OscInitStruct->CSICalibrationValue);
 800117e:	f7ff fc13 	bl	80009a8 <HAL_GetREVID>
 8001182:	4603      	mov	r3, r0
 8001184:	f241 0203 	movw	r2, #4099	; 0x1003
 8001188:	4293      	cmp	r3, r2
 800118a:	d817      	bhi.n	80011bc <HAL_RCC_OscConfig+0x3ec>
 800118c:	687b      	ldr	r3, [r7, #4]
 800118e:	6a1b      	ldr	r3, [r3, #32]
 8001190:	2b20      	cmp	r3, #32
 8001192:	d108      	bne.n	80011a6 <HAL_RCC_OscConfig+0x3d6>
 8001194:	4b4c      	ldr	r3, [pc, #304]	; (80012c8 <HAL_RCC_OscConfig+0x4f8>)
 8001196:	685b      	ldr	r3, [r3, #4]
 8001198:	f023 43f8 	bic.w	r3, r3, #2080374784	; 0x7c000000
 800119c:	4a4a      	ldr	r2, [pc, #296]	; (80012c8 <HAL_RCC_OscConfig+0x4f8>)
 800119e:	f043 4380 	orr.w	r3, r3, #1073741824	; 0x40000000
 80011a2:	6053      	str	r3, [r2, #4]
 80011a4:	e02e      	b.n	8001204 <HAL_RCC_OscConfig+0x434>
 80011a6:	4b48      	ldr	r3, [pc, #288]	; (80012c8 <HAL_RCC_OscConfig+0x4f8>)
 80011a8:	685b      	ldr	r3, [r3, #4]
 80011aa:	f023 42f8 	bic.w	r2, r3, #2080374784	; 0x7c000000
 80011ae:	687b      	ldr	r3, [r7, #4]
 80011b0:	6a1b      	ldr	r3, [r3, #32]
 80011b2:	069b      	lsls	r3, r3, #26
 80011b4:	4944      	ldr	r1, [pc, #272]	; (80012c8 <HAL_RCC_OscConfig+0x4f8>)
 80011b6:	4313      	orrs	r3, r2
 80011b8:	604b      	str	r3, [r1, #4]
 80011ba:	e023      	b.n	8001204 <HAL_RCC_OscConfig+0x434>
 80011bc:	4b42      	ldr	r3, [pc, #264]	; (80012c8 <HAL_RCC_OscConfig+0x4f8>)
 80011be:	68db      	ldr	r3, [r3, #12]
 80011c0:	f023 527c 	bic.w	r2, r3, #1056964608	; 0x3f000000
 80011c4:	687b      	ldr	r3, [r7, #4]
 80011c6:	6a1b      	ldr	r3, [r3, #32]
 80011c8:	061b      	lsls	r3, r3, #24
 80011ca:	493f      	ldr	r1, [pc, #252]	; (80012c8 <HAL_RCC_OscConfig+0x4f8>)
 80011cc:	4313      	orrs	r3, r2
 80011ce:	60cb      	str	r3, [r1, #12]
 80011d0:	e018      	b.n	8001204 <HAL_RCC_OscConfig+0x434>
      }
      else
      {
        /* Disable the Internal High Speed oscillator (CSI). */
        __HAL_RCC_CSI_DISABLE();
 80011d2:	4b3d      	ldr	r3, [pc, #244]	; (80012c8 <HAL_RCC_OscConfig+0x4f8>)
 80011d4:	681b      	ldr	r3, [r3, #0]
 80011d6:	4a3c      	ldr	r2, [pc, #240]	; (80012c8 <HAL_RCC_OscConfig+0x4f8>)
 80011d8:	f023 0380 	bic.w	r3, r3, #128	; 0x80
 80011dc:	6013      	str	r3, [r2, #0]

        /* Get Start Tick*/
        tickstart = HAL_GetTick();
 80011de:	f7ff fbd7 	bl	8000990 <HAL_GetTick>
 80011e2:	6278      	str	r0, [r7, #36]	; 0x24

        /* Wait till CSI is disabled */
        while(__HAL_RCC_GET_FLAG(RCC_FLAG_CSIRDY) != 0U)
 80011e4:	e008      	b.n	80011f8 <HAL_RCC_OscConfig+0x428>
        {
          if((HAL_GetTick() - tickstart ) > CSI_TIMEOUT_VALUE)
 80011e6:	f7ff fbd3 	bl	8000990 <HAL_GetTick>
 80011ea:	4602      	mov	r2, r0
 80011ec:	6a7b      	ldr	r3, [r7, #36]	; 0x24
 80011ee:	1ad3      	subs	r3, r2, r3
 80011f0:	2b02      	cmp	r3, #2
 80011f2:	d901      	bls.n	80011f8 <HAL_RCC_OscConfig+0x428>
          {
            return HAL_TIMEOUT;
 80011f4:	2303      	movs	r3, #3
 80011f6:	e212      	b.n	800161e <HAL_RCC_OscConfig+0x84e>
        while(__HAL_RCC_GET_FLAG(RCC_FLAG_CSIRDY) != 0U)
 80011f8:	4b33      	ldr	r3, [pc, #204]	; (80012c8 <HAL_RCC_OscConfig+0x4f8>)
 80011fa:	681b      	ldr	r3, [r3, #0]
 80011fc:	f403 7380 	and.w	r3, r3, #256	; 0x100
 8001200:	2b00      	cmp	r3, #0
 8001202:	d1f0      	bne.n	80011e6 <HAL_RCC_OscConfig+0x416>
        }
      }
    }
  }
  /*------------------------------ LSI Configuration -------------------------*/
  if(((RCC_OscInitStruct->OscillatorType) & RCC_OSCILLATORTYPE_LSI) == RCC_OSCILLATORTYPE_LSI)
 8001204:	687b      	ldr	r3, [r7, #4]
 8001206:	681b      	ldr	r3, [r3, #0]
 8001208:	f003 0308 	and.w	r3, r3, #8
 800120c:	2b00      	cmp	r3, #0
 800120e:	d036      	beq.n	800127e <HAL_RCC_OscConfig+0x4ae>
  {
    /* Check the parameters */
    assert_param(IS_RCC_LSI(RCC_OscInitStruct->LSIState));

    /* Check the LSI State */
    if((RCC_OscInitStruct->LSIState)!= RCC_LSI_OFF)
 8001210:	687b      	ldr	r3, [r7, #4]
 8001212:	695b      	ldr	r3, [r3, #20]
 8001214:	2b00      	cmp	r3, #0
 8001216:	d019      	beq.n	800124c <HAL_RCC_OscConfig+0x47c>
    {
      /* Enable the Internal Low Speed oscillator (LSI). */
      __HAL_RCC_LSI_ENABLE();
 8001218:	4b2b      	ldr	r3, [pc, #172]	; (80012c8 <HAL_RCC_OscConfig+0x4f8>)
 800121a:	6f5b      	ldr	r3, [r3, #116]	; 0x74
 800121c:	4a2a      	ldr	r2, [pc, #168]	; (80012c8 <HAL_RCC_OscConfig+0x4f8>)
 800121e:	f043 0301 	orr.w	r3, r3, #1
 8001222:	6753      	str	r3, [r2, #116]	; 0x74

      /* Get Start Tick*/
      tickstart = HAL_GetTick();
 8001224:	f7ff fbb4 	bl	8000990 <HAL_GetTick>
 8001228:	6278      	str	r0, [r7, #36]	; 0x24

      /* Wait till LSI is ready */
      while(__HAL_RCC_GET_FLAG(RCC_FLAG_LSIRDY) == 0U)
 800122a:	e008      	b.n	800123e <HAL_RCC_OscConfig+0x46e>
      {
        if((HAL_GetTick() - tickstart ) > LSI_TIMEOUT_VALUE)
 800122c:	f7ff fbb0 	bl	8000990 <HAL_GetTick>
 8001230:	4602      	mov	r2, r0
 8001232:	6a7b      	ldr	r3, [r7, #36]	; 0x24
 8001234:	1ad3      	subs	r3, r2, r3
 8001236:	2b02      	cmp	r3, #2
 8001238:	d901      	bls.n	800123e <HAL_RCC_OscConfig+0x46e>
        {
          return HAL_TIMEOUT;
 800123a:	2303      	movs	r3, #3
 800123c:	e1ef      	b.n	800161e <HAL_RCC_OscConfig+0x84e>
      while(__HAL_RCC_GET_FLAG(RCC_FLAG_LSIRDY) == 0U)
 800123e:	4b22      	ldr	r3, [pc, #136]	; (80012c8 <HAL_RCC_OscConfig+0x4f8>)
 8001240:	6f5b      	ldr	r3, [r3, #116]	; 0x74
 8001242:	f003 0302 	and.w	r3, r3, #2
 8001246:	2b00      	cmp	r3, #0
 8001248:	d0f0      	beq.n	800122c <HAL_RCC_OscConfig+0x45c>
 800124a:	e018      	b.n	800127e <HAL_RCC_OscConfig+0x4ae>
      }
    }
    else
    {
      /* Disable the Internal Low Speed oscillator (LSI). */
      __HAL_RCC_LSI_DISABLE();
 800124c:	4b1e      	ldr	r3, [pc, #120]	; (80012c8 <HAL_RCC_OscConfig+0x4f8>)
 800124e:	6f5b      	ldr	r3, [r3, #116]	; 0x74
 8001250:	4a1d      	ldr	r2, [pc, #116]	; (80012c8 <HAL_RCC_OscConfig+0x4f8>)
 8001252:	f023 0301 	bic.w	r3, r3, #1
 8001256:	6753      	str	r3, [r2, #116]	; 0x74

      /* Get Start Tick*/
      tickstart = HAL_GetTick();
 8001258:	f7ff fb9a 	bl	8000990 <HAL_GetTick>
 800125c:	6278      	str	r0, [r7, #36]	; 0x24

      /* Wait till LSI is ready */
      while(__HAL_RCC_GET_FLAG(RCC_FLAG_LSIRDY) != 0U)
 800125e:	e008      	b.n	8001272 <HAL_RCC_OscConfig+0x4a2>
      {
        if((HAL_GetTick() - tickstart ) > LSI_TIMEOUT_VALUE)
 8001260:	f7ff fb96 	bl	8000990 <HAL_GetTick>
 8001264:	4602      	mov	r2, r0
 8001266:	6a7b      	ldr	r3, [r7, #36]	; 0x24
 8001268:	1ad3      	subs	r3, r2, r3
 800126a:	2b02      	cmp	r3, #2
 800126c:	d901      	bls.n	8001272 <HAL_RCC_OscConfig+0x4a2>
        {
          return HAL_TIMEOUT;
 800126e:	2303      	movs	r3, #3
 8001270:	e1d5      	b.n	800161e <HAL_RCC_OscConfig+0x84e>
      while(__HAL_RCC_GET_FLAG(RCC_FLAG_LSIRDY) != 0U)
 8001272:	4b15      	ldr	r3, [pc, #84]	; (80012c8 <HAL_RCC_OscConfig+0x4f8>)
 8001274:	6f5b      	ldr	r3, [r3, #116]	; 0x74
 8001276:	f003 0302 	and.w	r3, r3, #2
 800127a:	2b00      	cmp	r3, #0
 800127c:	d1f0      	bne.n	8001260 <HAL_RCC_OscConfig+0x490>
      }
    }
  }

  /*------------------------------ HSI48 Configuration -------------------------*/
  if(((RCC_OscInitStruct->OscillatorType) & RCC_OSCILLATORTYPE_HSI48) == RCC_OSCILLATORTYPE_HSI48)
 800127e:	687b      	ldr	r3, [r7, #4]
 8001280:	681b      	ldr	r3, [r3, #0]
 8001282:	f003 0320 	and.w	r3, r3, #32
 8001286:	2b00      	cmp	r3, #0
 8001288:	d039      	beq.n	80012fe <HAL_RCC_OscConfig+0x52e>
  {
    /* Check the parameters */
    assert_param(IS_RCC_HSI48(RCC_OscInitStruct->HSI48State));

    /* Check the HSI48 State */
    if((RCC_OscInitStruct->HSI48State)!= RCC_HSI48_OFF)
 800128a:	687b      	ldr	r3, [r7, #4]
 800128c:	699b      	ldr	r3, [r3, #24]
 800128e:	2b00      	cmp	r3, #0
 8001290:	d01c      	beq.n	80012cc <HAL_RCC_OscConfig+0x4fc>
    {
      /* Enable the Internal Low Speed oscillator (HSI48). */
      __HAL_RCC_HSI48_ENABLE();
 8001292:	4b0d      	ldr	r3, [pc, #52]	; (80012c8 <HAL_RCC_OscConfig+0x4f8>)
 8001294:	681b      	ldr	r3, [r3, #0]
 8001296:	4a0c      	ldr	r2, [pc, #48]	; (80012c8 <HAL_RCC_OscConfig+0x4f8>)
 8001298:	f443 5380 	orr.w	r3, r3, #4096	; 0x1000
 800129c:	6013      	str	r3, [r2, #0]

      /* Get time-out */
      tickstart = HAL_GetTick();
 800129e:	f7ff fb77 	bl	8000990 <HAL_GetTick>
 80012a2:	6278      	str	r0, [r7, #36]	; 0x24

      /* Wait till HSI48 is ready */
      while(__HAL_RCC_GET_FLAG(RCC_FLAG_HSI48RDY) == 0U)
 80012a4:	e008      	b.n	80012b8 <HAL_RCC_OscConfig+0x4e8>
      {
        if((HAL_GetTick() - tickstart ) > HSI48_TIMEOUT_VALUE)
 80012a6:	f7ff fb73 	bl	8000990 <HAL_GetTick>
 80012aa:	4602      	mov	r2, r0
 80012ac:	6a7b      	ldr	r3, [r7, #36]	; 0x24
 80012ae:	1ad3      	subs	r3, r2, r3
 80012b0:	2b02      	cmp	r3, #2
 80012b2:	d901      	bls.n	80012b8 <HAL_RCC_OscConfig+0x4e8>
        {
          return HAL_TIMEOUT;
 80012b4:	2303      	movs	r3, #3
 80012b6:	e1b2      	b.n	800161e <HAL_RCC_OscConfig+0x84e>
      while(__HAL_RCC_GET_FLAG(RCC_FLAG_HSI48RDY) == 0U)
 80012b8:	4b03      	ldr	r3, [pc, #12]	; (80012c8 <HAL_RCC_OscConfig+0x4f8>)
 80012ba:	681b      	ldr	r3, [r3, #0]
 80012bc:	f403 5300 	and.w	r3, r3, #8192	; 0x2000
 80012c0:	2b00      	cmp	r3, #0
 80012c2:	d0f0      	beq.n	80012a6 <HAL_RCC_OscConfig+0x4d6>
 80012c4:	e01b      	b.n	80012fe <HAL_RCC_OscConfig+0x52e>
 80012c6:	bf00      	nop
 80012c8:	58024400 	.word	0x58024400
      }
    }
    else
    {
      /* Disable the Internal Low Speed oscillator (HSI48). */
      __HAL_RCC_HSI48_DISABLE();
 80012cc:	4b9b      	ldr	r3, [pc, #620]	; (800153c <HAL_RCC_OscConfig+0x76c>)
 80012ce:	681b      	ldr	r3, [r3, #0]
 80012d0:	4a9a      	ldr	r2, [pc, #616]	; (800153c <HAL_RCC_OscConfig+0x76c>)
 80012d2:	f423 5380 	bic.w	r3, r3, #4096	; 0x1000
 80012d6:	6013      	str	r3, [r2, #0]

      /* Get time-out */
      tickstart = HAL_GetTick();
 80012d8:	f7ff fb5a 	bl	8000990 <HAL_GetTick>
 80012dc:	6278      	str	r0, [r7, #36]	; 0x24

      /* Wait till HSI48 is ready */
      while(__HAL_RCC_GET_FLAG(RCC_FLAG_HSI48RDY) != 0U)
 80012de:	e008      	b.n	80012f2 <HAL_RCC_OscConfig+0x522>
      {
        if((HAL_GetTick() - tickstart ) > HSI48_TIMEOUT_VALUE)
 80012e0:	f7ff fb56 	bl	8000990 <HAL_GetTick>
 80012e4:	4602      	mov	r2, r0
 80012e6:	6a7b      	ldr	r3, [r7, #36]	; 0x24
 80012e8:	1ad3      	subs	r3, r2, r3
 80012ea:	2b02      	cmp	r3, #2
 80012ec:	d901      	bls.n	80012f2 <HAL_RCC_OscConfig+0x522>
        {
          return HAL_TIMEOUT;
 80012ee:	2303      	movs	r3, #3
 80012f0:	e195      	b.n	800161e <HAL_RCC_OscConfig+0x84e>
      while(__HAL_RCC_GET_FLAG(RCC_FLAG_HSI48RDY) != 0U)
 80012f2:	4b92      	ldr	r3, [pc, #584]	; (800153c <HAL_RCC_OscConfig+0x76c>)
 80012f4:	681b      	ldr	r3, [r3, #0]
 80012f6:	f403 5300 	and.w	r3, r3, #8192	; 0x2000
 80012fa:	2b00      	cmp	r3, #0
 80012fc:	d1f0      	bne.n	80012e0 <HAL_RCC_OscConfig+0x510>
        }
      }
    }
  }
  /*------------------------------ LSE Configuration -------------------------*/
  if(((RCC_OscInitStruct->OscillatorType) & RCC_OSCILLATORTYPE_LSE) == RCC_OSCILLATORTYPE_LSE)
 80012fe:	687b      	ldr	r3, [r7, #4]
 8001300:	681b      	ldr	r3, [r3, #0]
 8001302:	f003 0304 	and.w	r3, r3, #4
 8001306:	2b00      	cmp	r3, #0
 8001308:	f000 8081 	beq.w	800140e <HAL_RCC_OscConfig+0x63e>
  {
    /* Check the parameters */
    assert_param(IS_RCC_LSE(RCC_OscInitStruct->LSEState));

    /* Enable write access to Backup domain */
    PWR->CR1 |= PWR_CR1_DBP;
 800130c:	4b8c      	ldr	r3, [pc, #560]	; (8001540 <HAL_RCC_OscConfig+0x770>)
 800130e:	681b      	ldr	r3, [r3, #0]
 8001310:	4a8b      	ldr	r2, [pc, #556]	; (8001540 <HAL_RCC_OscConfig+0x770>)
 8001312:	f443 7380 	orr.w	r3, r3, #256	; 0x100
 8001316:	6013      	str	r3, [r2, #0]

    /* Wait for Backup domain Write protection disable */
    tickstart = HAL_GetTick();
 8001318:	f7ff fb3a 	bl	8000990 <HAL_GetTick>
 800131c:	6278      	str	r0, [r7, #36]	; 0x24

    while((PWR->CR1 & PWR_CR1_DBP) == 0U)
 800131e:	e008      	b.n	8001332 <HAL_RCC_OscConfig+0x562>
    {
      if((HAL_GetTick() - tickstart ) > RCC_DBP_TIMEOUT_VALUE)
 8001320:	f7ff fb36 	bl	8000990 <HAL_GetTick>
 8001324:	4602      	mov	r2, r0
 8001326:	6a7b      	ldr	r3, [r7, #36]	; 0x24
 8001328:	1ad3      	subs	r3, r2, r3
 800132a:	2b64      	cmp	r3, #100	; 0x64
 800132c:	d901      	bls.n	8001332 <HAL_RCC_OscConfig+0x562>
      {
        return HAL_TIMEOUT;
 800132e:	2303      	movs	r3, #3
 8001330:	e175      	b.n	800161e <HAL_RCC_OscConfig+0x84e>
    while((PWR->CR1 & PWR_CR1_DBP) == 0U)
 8001332:	4b83      	ldr	r3, [pc, #524]	; (8001540 <HAL_RCC_OscConfig+0x770>)
 8001334:	681b      	ldr	r3, [r3, #0]
 8001336:	f403 7380 	and.w	r3, r3, #256	; 0x100
 800133a:	2b00      	cmp	r3, #0
 800133c:	d0f0      	beq.n	8001320 <HAL_RCC_OscConfig+0x550>
      }
    }

    /* Set the new LSE configuration -----------------------------------------*/
    __HAL_RCC_LSE_CONFIG(RCC_OscInitStruct->LSEState);
 800133e:	687b      	ldr	r3, [r7, #4]
 8001340:	689b      	ldr	r3, [r3, #8]
 8001342:	2b01      	cmp	r3, #1
 8001344:	d106      	bne.n	8001354 <HAL_RCC_OscConfig+0x584>
 8001346:	4b7d      	ldr	r3, [pc, #500]	; (800153c <HAL_RCC_OscConfig+0x76c>)
 8001348:	6f1b      	ldr	r3, [r3, #112]	; 0x70
 800134a:	4a7c      	ldr	r2, [pc, #496]	; (800153c <HAL_RCC_OscConfig+0x76c>)
 800134c:	f043 0301 	orr.w	r3, r3, #1
 8001350:	6713      	str	r3, [r2, #112]	; 0x70
 8001352:	e02d      	b.n	80013b0 <HAL_RCC_OscConfig+0x5e0>
 8001354:	687b      	ldr	r3, [r7, #4]
 8001356:	689b      	ldr	r3, [r3, #8]
 8001358:	2b00      	cmp	r3, #0
 800135a:	d10c      	bne.n	8001376 <HAL_RCC_OscConfig+0x5a6>
 800135c:	4b77      	ldr	r3, [pc, #476]	; (800153c <HAL_RCC_OscConfig+0x76c>)
 800135e:	6f1b      	ldr	r3, [r3, #112]	; 0x70
 8001360:	4a76      	ldr	r2, [pc, #472]	; (800153c <HAL_RCC_OscConfig+0x76c>)
 8001362:	f023 0301 	bic.w	r3, r3, #1
 8001366:	6713      	str	r3, [r2, #112]	; 0x70
 8001368:	4b74      	ldr	r3, [pc, #464]	; (800153c <HAL_RCC_OscConfig+0x76c>)
 800136a:	6f1b      	ldr	r3, [r3, #112]	; 0x70
 800136c:	4a73      	ldr	r2, [pc, #460]	; (800153c <HAL_RCC_OscConfig+0x76c>)
 800136e:	f023 0304 	bic.w	r3, r3, #4
 8001372:	6713      	str	r3, [r2, #112]	; 0x70
 8001374:	e01c      	b.n	80013b0 <HAL_RCC_OscConfig+0x5e0>
 8001376:	687b      	ldr	r3, [r7, #4]
 8001378:	689b      	ldr	r3, [r3, #8]
 800137a:	2b05      	cmp	r3, #5
 800137c:	d10c      	bne.n	8001398 <HAL_RCC_OscConfig+0x5c8>
 800137e:	4b6f      	ldr	r3, [pc, #444]	; (800153c <HAL_RCC_OscConfig+0x76c>)
 8001380:	6f1b      	ldr	r3, [r3, #112]	; 0x70
 8001382:	4a6e      	ldr	r2, [pc, #440]	; (800153c <HAL_RCC_OscConfig+0x76c>)
 8001384:	f043 0304 	orr.w	r3, r3, #4
 8001388:	6713      	str	r3, [r2, #112]	; 0x70
 800138a:	4b6c      	ldr	r3, [pc, #432]	; (800153c <HAL_RCC_OscConfig+0x76c>)
 800138c:	6f1b      	ldr	r3, [r3, #112]	; 0x70
 800138e:	4a6b      	ldr	r2, [pc, #428]	; (800153c <HAL_RCC_OscConfig+0x76c>)
 8001390:	f043 0301 	orr.w	r3, r3, #1
 8001394:	6713      	str	r3, [r2, #112]	; 0x70
 8001396:	e00b      	b.n	80013b0 <HAL_RCC_OscConfig+0x5e0>
 8001398:	4b68      	ldr	r3, [pc, #416]	; (800153c <HAL_RCC_OscConfig+0x76c>)
 800139a:	6f1b      	ldr	r3, [r3, #112]	; 0x70
 800139c:	4a67      	ldr	r2, [pc, #412]	; (800153c <HAL_RCC_OscConfig+0x76c>)
 800139e:	f023 0301 	bic.w	r3, r3, #1
 80013a2:	6713      	str	r3, [r2, #112]	; 0x70
 80013a4:	4b65      	ldr	r3, [pc, #404]	; (800153c <HAL_RCC_OscConfig+0x76c>)
 80013a6:	6f1b      	ldr	r3, [r3, #112]	; 0x70
 80013a8:	4a64      	ldr	r2, [pc, #400]	; (800153c <HAL_RCC_OscConfig+0x76c>)
 80013aa:	f023 0304 	bic.w	r3, r3, #4
 80013ae:	6713      	str	r3, [r2, #112]	; 0x70
    /* Check the LSE State */
    if((RCC_OscInitStruct->LSEState) != RCC_LSE_OFF)
 80013b0:	687b      	ldr	r3, [r7, #4]
 80013b2:	689b      	ldr	r3, [r3, #8]
 80013b4:	2b00      	cmp	r3, #0
 80013b6:	d015      	beq.n	80013e4 <HAL_RCC_OscConfig+0x614>
    {
      /* Get Start Tick*/
      tickstart = HAL_GetTick();
 80013b8:	f7ff faea 	bl	8000990 <HAL_GetTick>
 80013bc:	6278      	str	r0, [r7, #36]	; 0x24

      /* Wait till LSE is ready */
      while(__HAL_RCC_GET_FLAG(RCC_FLAG_LSERDY) == 0U)
 80013be:	e00a      	b.n	80013d6 <HAL_RCC_OscConfig+0x606>
      {
        if((HAL_GetTick() - tickstart ) > RCC_LSE_TIMEOUT_VALUE)
 80013c0:	f7ff fae6 	bl	8000990 <HAL_GetTick>
 80013c4:	4602      	mov	r2, r0
 80013c6:	6a7b      	ldr	r3, [r7, #36]	; 0x24
 80013c8:	1ad3      	subs	r3, r2, r3
 80013ca:	f241 3288 	movw	r2, #5000	; 0x1388
 80013ce:	4293      	cmp	r3, r2
 80013d0:	d901      	bls.n	80013d6 <HAL_RCC_OscConfig+0x606>
        {
          return HAL_TIMEOUT;
 80013d2:	2303      	movs	r3, #3
 80013d4:	e123      	b.n	800161e <HAL_RCC_OscConfig+0x84e>
      while(__HAL_RCC_GET_FLAG(RCC_FLAG_LSERDY) == 0U)
 80013d6:	4b59      	ldr	r3, [pc, #356]	; (800153c <HAL_RCC_OscConfig+0x76c>)
 80013d8:	6f1b      	ldr	r3, [r3, #112]	; 0x70
 80013da:	f003 0302 	and.w	r3, r3, #2
 80013de:	2b00      	cmp	r3, #0
 80013e0:	d0ee      	beq.n	80013c0 <HAL_RCC_OscConfig+0x5f0>
 80013e2:	e014      	b.n	800140e <HAL_RCC_OscConfig+0x63e>
      }
    }
    else
    {
      /* Get Start Tick*/
      tickstart = HAL_GetTick();
 80013e4:	f7ff fad4 	bl	8000990 <HAL_GetTick>
 80013e8:	6278      	str	r0, [r7, #36]	; 0x24

      /* Wait till LSE is disabled */
      while(__HAL_RCC_GET_FLAG(RCC_FLAG_LSERDY) != 0U)
 80013ea:	e00a      	b.n	8001402 <HAL_RCC_OscConfig+0x632>
      {
        if((HAL_GetTick() - tickstart ) > RCC_LSE_TIMEOUT_VALUE)
 80013ec:	f7ff fad0 	bl	8000990 <HAL_GetTick>
 80013f0:	4602      	mov	r2, r0
 80013f2:	6a7b      	ldr	r3, [r7, #36]	; 0x24
 80013f4:	1ad3      	subs	r3, r2, r3
 80013f6:	f241 3288 	movw	r2, #5000	; 0x1388
 80013fa:	4293      	cmp	r3, r2
 80013fc:	d901      	bls.n	8001402 <HAL_RCC_OscConfig+0x632>
        {
          return HAL_TIMEOUT;
 80013fe:	2303      	movs	r3, #3
 8001400:	e10d      	b.n	800161e <HAL_RCC_OscConfig+0x84e>
      while(__HAL_RCC_GET_FLAG(RCC_FLAG_LSERDY) != 0U)
 8001402:	4b4e      	ldr	r3, [pc, #312]	; (800153c <HAL_RCC_OscConfig+0x76c>)
 8001404:	6f1b      	ldr	r3, [r3, #112]	; 0x70
 8001406:	f003 0302 	and.w	r3, r3, #2
 800140a:	2b00      	cmp	r3, #0
 800140c:	d1ee      	bne.n	80013ec <HAL_RCC_OscConfig+0x61c>
    }
  }
  /*-------------------------------- PLL Configuration -----------------------*/
  /* Check the parameters */
  assert_param(IS_RCC_PLL(RCC_OscInitStruct->PLL.PLLState));
  if ((RCC_OscInitStruct->PLL.PLLState) != RCC_PLL_NONE)
 800140e:	687b      	ldr	r3, [r7, #4]
 8001410:	6a5b      	ldr	r3, [r3, #36]	; 0x24
 8001412:	2b00      	cmp	r3, #0
 8001414:	f000 8102 	beq.w	800161c <HAL_RCC_OscConfig+0x84c>
  {
    /* Check if the PLL is used as system clock or not */
    if(__HAL_RCC_GET_SYSCLK_SOURCE() != RCC_CFGR_SWS_PLL1)
 8001418:	4b48      	ldr	r3, [pc, #288]	; (800153c <HAL_RCC_OscConfig+0x76c>)
 800141a:	691b      	ldr	r3, [r3, #16]
 800141c:	f003 0338 	and.w	r3, r3, #56	; 0x38
 8001420:	2b18      	cmp	r3, #24
 8001422:	f000 80bd 	beq.w	80015a0 <HAL_RCC_OscConfig+0x7d0>
    {
      if((RCC_OscInitStruct->PLL.PLLState) == RCC_PLL_ON)
 8001426:	687b      	ldr	r3, [r7, #4]
 8001428:	6a5b      	ldr	r3, [r3, #36]	; 0x24
 800142a:	2b02      	cmp	r3, #2
 800142c:	f040 809e 	bne.w	800156c <HAL_RCC_OscConfig+0x79c>
        assert_param(IS_RCC_PLLQ_VALUE(RCC_OscInitStruct->PLL.PLLQ));
        assert_param(IS_RCC_PLLR_VALUE(RCC_OscInitStruct->PLL.PLLR));
        assert_param(IS_RCC_PLLFRACN_VALUE(RCC_OscInitStruct->PLL.PLLFRACN));

        /* Disable the main PLL. */
        __HAL_RCC_PLL_DISABLE();
 8001430:	4b42      	ldr	r3, [pc, #264]	; (800153c <HAL_RCC_OscConfig+0x76c>)
 8001432:	681b      	ldr	r3, [r3, #0]
 8001434:	4a41      	ldr	r2, [pc, #260]	; (800153c <HAL_RCC_OscConfig+0x76c>)
 8001436:	f023 7380 	bic.w	r3, r3, #16777216	; 0x1000000
 800143a:	6013      	str	r3, [r2, #0]

        /* Get Start Tick*/
        tickstart = HAL_GetTick();
 800143c:	f7ff faa8 	bl	8000990 <HAL_GetTick>
 8001440:	6278      	str	r0, [r7, #36]	; 0x24

        /* Wait till PLL is disabled */
        while(__HAL_RCC_GET_FLAG(RCC_FLAG_PLLRDY) != 0U)
 8001442:	e008      	b.n	8001456 <HAL_RCC_OscConfig+0x686>
        {
          if((HAL_GetTick() - tickstart ) > PLL_TIMEOUT_VALUE)
 8001444:	f7ff faa4 	bl	8000990 <HAL_GetTick>
 8001448:	4602      	mov	r2, r0
 800144a:	6a7b      	ldr	r3, [r7, #36]	; 0x24
 800144c:	1ad3      	subs	r3, r2, r3
 800144e:	2b02      	cmp	r3, #2
 8001450:	d901      	bls.n	8001456 <HAL_RCC_OscConfig+0x686>
          {
            return HAL_TIMEOUT;
 8001452:	2303      	movs	r3, #3
 8001454:	e0e3      	b.n	800161e <HAL_RCC_OscConfig+0x84e>
        while(__HAL_RCC_GET_FLAG(RCC_FLAG_PLLRDY) != 0U)
 8001456:	4b39      	ldr	r3, [pc, #228]	; (800153c <HAL_RCC_OscConfig+0x76c>)
 8001458:	681b      	ldr	r3, [r3, #0]
 800145a:	f003 7300 	and.w	r3, r3, #33554432	; 0x2000000
 800145e:	2b00      	cmp	r3, #0
 8001460:	d1f0      	bne.n	8001444 <HAL_RCC_OscConfig+0x674>
          }
        }

        /* Configure the main PLL clock source, multiplication and division factors. */
        __HAL_RCC_PLL_CONFIG(RCC_OscInitStruct->PLL.PLLSource,
 8001462:	4b36      	ldr	r3, [pc, #216]	; (800153c <HAL_RCC_OscConfig+0x76c>)
 8001464:	6a9a      	ldr	r2, [r3, #40]	; 0x28
 8001466:	4b37      	ldr	r3, [pc, #220]	; (8001544 <HAL_RCC_OscConfig+0x774>)
 8001468:	4013      	ands	r3, r2
 800146a:	687a      	ldr	r2, [r7, #4]
 800146c:	6a91      	ldr	r1, [r2, #40]	; 0x28
 800146e:	687a      	ldr	r2, [r7, #4]
 8001470:	6ad2      	ldr	r2, [r2, #44]	; 0x2c
 8001472:	0112      	lsls	r2, r2, #4
 8001474:	430a      	orrs	r2, r1
 8001476:	4931      	ldr	r1, [pc, #196]	; (800153c <HAL_RCC_OscConfig+0x76c>)
 8001478:	4313      	orrs	r3, r2
 800147a:	628b      	str	r3, [r1, #40]	; 0x28
 800147c:	687b      	ldr	r3, [r7, #4]
 800147e:	6b1b      	ldr	r3, [r3, #48]	; 0x30
 8001480:	3b01      	subs	r3, #1
 8001482:	f3c3 0208 	ubfx	r2, r3, #0, #9
 8001486:	687b      	ldr	r3, [r7, #4]
 8001488:	6b5b      	ldr	r3, [r3, #52]	; 0x34
 800148a:	3b01      	subs	r3, #1
 800148c:	025b      	lsls	r3, r3, #9
 800148e:	b29b      	uxth	r3, r3
 8001490:	431a      	orrs	r2, r3
 8001492:	687b      	ldr	r3, [r7, #4]
 8001494:	6b9b      	ldr	r3, [r3, #56]	; 0x38
 8001496:	3b01      	subs	r3, #1
 8001498:	041b      	lsls	r3, r3, #16
 800149a:	f403 03fe 	and.w	r3, r3, #8323072	; 0x7f0000
 800149e:	431a      	orrs	r2, r3
 80014a0:	687b      	ldr	r3, [r7, #4]
 80014a2:	6bdb      	ldr	r3, [r3, #60]	; 0x3c
 80014a4:	3b01      	subs	r3, #1
 80014a6:	061b      	lsls	r3, r3, #24
 80014a8:	f003 43fe 	and.w	r3, r3, #2130706432	; 0x7f000000
 80014ac:	4923      	ldr	r1, [pc, #140]	; (800153c <HAL_RCC_OscConfig+0x76c>)
 80014ae:	4313      	orrs	r3, r2
 80014b0:	630b      	str	r3, [r1, #48]	; 0x30
                             RCC_OscInitStruct->PLL.PLLP,
                             RCC_OscInitStruct->PLL.PLLQ,
                             RCC_OscInitStruct->PLL.PLLR);

         /* Disable PLLFRACN . */
         __HAL_RCC_PLLFRACN_DISABLE();
 80014b2:	4b22      	ldr	r3, [pc, #136]	; (800153c <HAL_RCC_OscConfig+0x76c>)
 80014b4:	6adb      	ldr	r3, [r3, #44]	; 0x2c
 80014b6:	4a21      	ldr	r2, [pc, #132]	; (800153c <HAL_RCC_OscConfig+0x76c>)
 80014b8:	f023 0301 	bic.w	r3, r3, #1
 80014bc:	62d3      	str	r3, [r2, #44]	; 0x2c

         /* Configure PLL PLL1FRACN */
         __HAL_RCC_PLLFRACN_CONFIG(RCC_OscInitStruct->PLL.PLLFRACN);
 80014be:	4b1f      	ldr	r3, [pc, #124]	; (800153c <HAL_RCC_OscConfig+0x76c>)
 80014c0:	6b5a      	ldr	r2, [r3, #52]	; 0x34
 80014c2:	4b21      	ldr	r3, [pc, #132]	; (8001548 <HAL_RCC_OscConfig+0x778>)
 80014c4:	4013      	ands	r3, r2
 80014c6:	687a      	ldr	r2, [r7, #4]
 80014c8:	6c92      	ldr	r2, [r2, #72]	; 0x48
 80014ca:	00d2      	lsls	r2, r2, #3
 80014cc:	491b      	ldr	r1, [pc, #108]	; (800153c <HAL_RCC_OscConfig+0x76c>)
 80014ce:	4313      	orrs	r3, r2
 80014d0:	634b      	str	r3, [r1, #52]	; 0x34

        /* Select PLL1 input reference frequency range: VCI */
        __HAL_RCC_PLL_VCIRANGE(RCC_OscInitStruct->PLL.PLLRGE) ;
 80014d2:	4b1a      	ldr	r3, [pc, #104]	; (800153c <HAL_RCC_OscConfig+0x76c>)
 80014d4:	6adb      	ldr	r3, [r3, #44]	; 0x2c
 80014d6:	f023 020c 	bic.w	r2, r3, #12
 80014da:	687b      	ldr	r3, [r7, #4]
 80014dc:	6c1b      	ldr	r3, [r3, #64]	; 0x40
 80014de:	4917      	ldr	r1, [pc, #92]	; (800153c <HAL_RCC_OscConfig+0x76c>)
 80014e0:	4313      	orrs	r3, r2
 80014e2:	62cb      	str	r3, [r1, #44]	; 0x2c

        /* Select PLL1 output frequency range : VCO */
        __HAL_RCC_PLL_VCORANGE(RCC_OscInitStruct->PLL.PLLVCOSEL) ;
 80014e4:	4b15      	ldr	r3, [pc, #84]	; (800153c <HAL_RCC_OscConfig+0x76c>)
 80014e6:	6adb      	ldr	r3, [r3, #44]	; 0x2c
 80014e8:	f023 0202 	bic.w	r2, r3, #2
 80014ec:	687b      	ldr	r3, [r7, #4]
 80014ee:	6c5b      	ldr	r3, [r3, #68]	; 0x44
 80014f0:	4912      	ldr	r1, [pc, #72]	; (800153c <HAL_RCC_OscConfig+0x76c>)
 80014f2:	4313      	orrs	r3, r2
 80014f4:	62cb      	str	r3, [r1, #44]	; 0x2c

        /* Enable PLL System Clock output. */
         __HAL_RCC_PLLCLKOUT_ENABLE(RCC_PLL1_DIVP);
 80014f6:	4b11      	ldr	r3, [pc, #68]	; (800153c <HAL_RCC_OscConfig+0x76c>)
 80014f8:	6adb      	ldr	r3, [r3, #44]	; 0x2c
 80014fa:	4a10      	ldr	r2, [pc, #64]	; (800153c <HAL_RCC_OscConfig+0x76c>)
 80014fc:	f443 3380 	orr.w	r3, r3, #65536	; 0x10000
 8001500:	62d3      	str	r3, [r2, #44]	; 0x2c

        /* Enable PLL1Q Clock output. */
         __HAL_RCC_PLLCLKOUT_ENABLE(RCC_PLL1_DIVQ);
 8001502:	4b0e      	ldr	r3, [pc, #56]	; (800153c <HAL_RCC_OscConfig+0x76c>)
 8001504:	6adb      	ldr	r3, [r3, #44]	; 0x2c
 8001506:	4a0d      	ldr	r2, [pc, #52]	; (800153c <HAL_RCC_OscConfig+0x76c>)
 8001508:	f443 3300 	orr.w	r3, r3, #131072	; 0x20000
 800150c:	62d3      	str	r3, [r2, #44]	; 0x2c

        /* Enable PLL1R  Clock output. */
         __HAL_RCC_PLLCLKOUT_ENABLE(RCC_PLL1_DIVR);
 800150e:	4b0b      	ldr	r3, [pc, #44]	; (800153c <HAL_RCC_OscConfig+0x76c>)
 8001510:	6adb      	ldr	r3, [r3, #44]	; 0x2c
 8001512:	4a0a      	ldr	r2, [pc, #40]	; (800153c <HAL_RCC_OscConfig+0x76c>)
 8001514:	f443 2380 	orr.w	r3, r3, #262144	; 0x40000
 8001518:	62d3      	str	r3, [r2, #44]	; 0x2c

        /* Enable PLL1FRACN . */
         __HAL_RCC_PLLFRACN_ENABLE();
 800151a:	4b08      	ldr	r3, [pc, #32]	; (800153c <HAL_RCC_OscConfig+0x76c>)
 800151c:	6adb      	ldr	r3, [r3, #44]	; 0x2c
 800151e:	4a07      	ldr	r2, [pc, #28]	; (800153c <HAL_RCC_OscConfig+0x76c>)
 8001520:	f043 0301 	orr.w	r3, r3, #1
 8001524:	62d3      	str	r3, [r2, #44]	; 0x2c

        /* Enable the main PLL. */
        __HAL_RCC_PLL_ENABLE();
 8001526:	4b05      	ldr	r3, [pc, #20]	; (800153c <HAL_RCC_OscConfig+0x76c>)
 8001528:	681b      	ldr	r3, [r3, #0]
 800152a:	4a04      	ldr	r2, [pc, #16]	; (800153c <HAL_RCC_OscConfig+0x76c>)
 800152c:	f043 7380 	orr.w	r3, r3, #16777216	; 0x1000000
 8001530:	6013      	str	r3, [r2, #0]

        /* Get Start Tick*/
        tickstart = HAL_GetTick();
 8001532:	f7ff fa2d 	bl	8000990 <HAL_GetTick>
 8001536:	6278      	str	r0, [r7, #36]	; 0x24

        /* Wait till PLL is ready */
        while(__HAL_RCC_GET_FLAG(RCC_FLAG_PLLRDY) == 0U)
 8001538:	e011      	b.n	800155e <HAL_RCC_OscConfig+0x78e>
 800153a:	bf00      	nop
 800153c:	58024400 	.word	0x58024400
 8001540:	58024800 	.word	0x58024800
 8001544:	fffffc0c 	.word	0xfffffc0c
 8001548:	ffff0007 	.word	0xffff0007
        {
          if((HAL_GetTick() - tickstart ) > PLL_TIMEOUT_VALUE)
 800154c:	f7ff fa20 	bl	8000990 <HAL_GetTick>
 8001550:	4602      	mov	r2, r0
 8001552:	6a7b      	ldr	r3, [r7, #36]	; 0x24
 8001554:	1ad3      	subs	r3, r2, r3
 8001556:	2b02      	cmp	r3, #2
 8001558:	d901      	bls.n	800155e <HAL_RCC_OscConfig+0x78e>
          {
            return HAL_TIMEOUT;
 800155a:	2303      	movs	r3, #3
 800155c:	e05f      	b.n	800161e <HAL_RCC_OscConfig+0x84e>
        while(__HAL_RCC_GET_FLAG(RCC_FLAG_PLLRDY) == 0U)
 800155e:	4b32      	ldr	r3, [pc, #200]	; (8001628 <HAL_RCC_OscConfig+0x858>)
 8001560:	681b      	ldr	r3, [r3, #0]
 8001562:	f003 7300 	and.w	r3, r3, #33554432	; 0x2000000
 8001566:	2b00      	cmp	r3, #0
 8001568:	d0f0      	beq.n	800154c <HAL_RCC_OscConfig+0x77c>
 800156a:	e057      	b.n	800161c <HAL_RCC_OscConfig+0x84c>
        }
      }
      else
      {
        /* Disable the main PLL. */
        __HAL_RCC_PLL_DISABLE();
 800156c:	4b2e      	ldr	r3, [pc, #184]	; (8001628 <HAL_RCC_OscConfig+0x858>)
 800156e:	681b      	ldr	r3, [r3, #0]
 8001570:	4a2d      	ldr	r2, [pc, #180]	; (8001628 <HAL_RCC_OscConfig+0x858>)
 8001572:	f023 7380 	bic.w	r3, r3, #16777216	; 0x1000000
 8001576:	6013      	str	r3, [r2, #0]

        /* Get Start Tick*/
        tickstart = HAL_GetTick();
 8001578:	f7ff fa0a 	bl	8000990 <HAL_GetTick>
 800157c:	6278      	str	r0, [r7, #36]	; 0x24

        /* Wait till PLL is disabled */
        while(__HAL_RCC_GET_FLAG(RCC_FLAG_PLLRDY) != 0U)
 800157e:	e008      	b.n	8001592 <HAL_RCC_OscConfig+0x7c2>
        {
          if((HAL_GetTick() - tickstart ) > PLL_TIMEOUT_VALUE)
 8001580:	f7ff fa06 	bl	8000990 <HAL_GetTick>
 8001584:	4602      	mov	r2, r0
 8001586:	6a7b      	ldr	r3, [r7, #36]	; 0x24
 8001588:	1ad3      	subs	r3, r2, r3
 800158a:	2b02      	cmp	r3, #2
 800158c:	d901      	bls.n	8001592 <HAL_RCC_OscConfig+0x7c2>
          {
            return HAL_TIMEOUT;
 800158e:	2303      	movs	r3, #3
 8001590:	e045      	b.n	800161e <HAL_RCC_OscConfig+0x84e>
        while(__HAL_RCC_GET_FLAG(RCC_FLAG_PLLRDY) != 0U)
 8001592:	4b25      	ldr	r3, [pc, #148]	; (8001628 <HAL_RCC_OscConfig+0x858>)
 8001594:	681b      	ldr	r3, [r3, #0]
 8001596:	f003 7300 	and.w	r3, r3, #33554432	; 0x2000000
 800159a:	2b00      	cmp	r3, #0
 800159c:	d1f0      	bne.n	8001580 <HAL_RCC_OscConfig+0x7b0>
 800159e:	e03d      	b.n	800161c <HAL_RCC_OscConfig+0x84c>
      }
    }
    else
    {
      /* Do not return HAL_ERROR if request repeats the current configuration */
      temp1_pllckcfg = RCC->PLLCKSELR;
 80015a0:	4b21      	ldr	r3, [pc, #132]	; (8001628 <HAL_RCC_OscConfig+0x858>)
 80015a2:	6a9b      	ldr	r3, [r3, #40]	; 0x28
 80015a4:	613b      	str	r3, [r7, #16]
      temp2_pllckcfg = RCC->PLL1DIVR;
 80015a6:	4b20      	ldr	r3, [pc, #128]	; (8001628 <HAL_RCC_OscConfig+0x858>)
 80015a8:	6b1b      	ldr	r3, [r3, #48]	; 0x30
 80015aa:	60fb      	str	r3, [r7, #12]
      if(((RCC_OscInitStruct->PLL.PLLState) == RCC_PLL_OFF) ||
 80015ac:	687b      	ldr	r3, [r7, #4]
 80015ae:	6a5b      	ldr	r3, [r3, #36]	; 0x24
 80015b0:	2b01      	cmp	r3, #1
 80015b2:	d031      	beq.n	8001618 <HAL_RCC_OscConfig+0x848>
	 (READ_BIT(temp1_pllckcfg, RCC_PLLCKSELR_PLLSRC) != RCC_OscInitStruct->PLL.PLLSource) ||
 80015b4:	693b      	ldr	r3, [r7, #16]
 80015b6:	f003 0203 	and.w	r2, r3, #3
 80015ba:	687b      	ldr	r3, [r7, #4]
 80015bc:	6a9b      	ldr	r3, [r3, #40]	; 0x28
      if(((RCC_OscInitStruct->PLL.PLLState) == RCC_PLL_OFF) ||
 80015be:	429a      	cmp	r2, r3
 80015c0:	d12a      	bne.n	8001618 <HAL_RCC_OscConfig+0x848>
         ((READ_BIT(temp1_pllckcfg, RCC_PLLCKSELR_DIVM1) >> RCC_PLLCKSELR_DIVM1_Pos) != RCC_OscInitStruct->PLL.PLLM) ||
 80015c2:	693b      	ldr	r3, [r7, #16]
 80015c4:	091b      	lsrs	r3, r3, #4
 80015c6:	f003 023f 	and.w	r2, r3, #63	; 0x3f
 80015ca:	687b      	ldr	r3, [r7, #4]
 80015cc:	6adb      	ldr	r3, [r3, #44]	; 0x2c
	 (READ_BIT(temp1_pllckcfg, RCC_PLLCKSELR_PLLSRC) != RCC_OscInitStruct->PLL.PLLSource) ||
 80015ce:	429a      	cmp	r2, r3
 80015d0:	d122      	bne.n	8001618 <HAL_RCC_OscConfig+0x848>
         (READ_BIT(temp2_pllckcfg, RCC_PLL1DIVR_N1) != (RCC_OscInitStruct->PLL.PLLN - 1U)) ||
 80015d2:	68fb      	ldr	r3, [r7, #12]
 80015d4:	f3c3 0208 	ubfx	r2, r3, #0, #9
 80015d8:	687b      	ldr	r3, [r7, #4]
 80015da:	6b1b      	ldr	r3, [r3, #48]	; 0x30
 80015dc:	3b01      	subs	r3, #1
         ((READ_BIT(temp1_pllckcfg, RCC_PLLCKSELR_DIVM1) >> RCC_PLLCKSELR_DIVM1_Pos) != RCC_OscInitStruct->PLL.PLLM) ||
 80015de:	429a      	cmp	r2, r3
 80015e0:	d11a      	bne.n	8001618 <HAL_RCC_OscConfig+0x848>
         ((READ_BIT(temp2_pllckcfg, RCC_PLL1DIVR_P1) >> RCC_PLL1DIVR_P1_Pos) != (RCC_OscInitStruct->PLL.PLLP - 1U)) ||
 80015e2:	68fb      	ldr	r3, [r7, #12]
 80015e4:	0a5b      	lsrs	r3, r3, #9
 80015e6:	f003 027f 	and.w	r2, r3, #127	; 0x7f
 80015ea:	687b      	ldr	r3, [r7, #4]
 80015ec:	6b5b      	ldr	r3, [r3, #52]	; 0x34
 80015ee:	3b01      	subs	r3, #1
         (READ_BIT(temp2_pllckcfg, RCC_PLL1DIVR_N1) != (RCC_OscInitStruct->PLL.PLLN - 1U)) ||
 80015f0:	429a      	cmp	r2, r3
 80015f2:	d111      	bne.n	8001618 <HAL_RCC_OscConfig+0x848>
         ((READ_BIT(temp2_pllckcfg, RCC_PLL1DIVR_Q1) >> RCC_PLL1DIVR_Q1_Pos) != (RCC_OscInitStruct->PLL.PLLQ - 1U)) ||
 80015f4:	68fb      	ldr	r3, [r7, #12]
 80015f6:	0c1b      	lsrs	r3, r3, #16
 80015f8:	f003 027f 	and.w	r2, r3, #127	; 0x7f
 80015fc:	687b      	ldr	r3, [r7, #4]
 80015fe:	6b9b      	ldr	r3, [r3, #56]	; 0x38
 8001600:	3b01      	subs	r3, #1
         ((READ_BIT(temp2_pllckcfg, RCC_PLL1DIVR_P1) >> RCC_PLL1DIVR_P1_Pos) != (RCC_OscInitStruct->PLL.PLLP - 1U)) ||
 8001602:	429a      	cmp	r2, r3
 8001604:	d108      	bne.n	8001618 <HAL_RCC_OscConfig+0x848>
         ((READ_BIT(temp2_pllckcfg, RCC_PLL1DIVR_R1) >> RCC_PLL1DIVR_R1_Pos) != (RCC_OscInitStruct->PLL.PLLR - 1U)))
 8001606:	68fb      	ldr	r3, [r7, #12]
 8001608:	0e1b      	lsrs	r3, r3, #24
 800160a:	f003 027f 	and.w	r2, r3, #127	; 0x7f
 800160e:	687b      	ldr	r3, [r7, #4]
 8001610:	6bdb      	ldr	r3, [r3, #60]	; 0x3c
 8001612:	3b01      	subs	r3, #1
         ((READ_BIT(temp2_pllckcfg, RCC_PLL1DIVR_Q1) >> RCC_PLL1DIVR_Q1_Pos) != (RCC_OscInitStruct->PLL.PLLQ - 1U)) ||
 8001614:	429a      	cmp	r2, r3
 8001616:	d001      	beq.n	800161c <HAL_RCC_OscConfig+0x84c>
      {
        return HAL_ERROR;
 8001618:	2301      	movs	r3, #1
 800161a:	e000      	b.n	800161e <HAL_RCC_OscConfig+0x84e>
      }
    }
  }
  return HAL_OK;
 800161c:	2300      	movs	r3, #0
}
 800161e:	4618      	mov	r0, r3
 8001620:	3730      	adds	r7, #48	; 0x30
 8001622:	46bd      	mov	sp, r7
 8001624:	bd80      	pop	{r7, pc}
 8001626:	bf00      	nop
 8001628:	58024400 	.word	0x58024400

0800162c <HAL_RCC_ClockConfig>:
  *         D1CPRE[3:0] bits to ensure that  Domain1 core clock not exceed the maximum allowed frequency
  *         (for more details refer to section above "Initialization/de-initialization functions")
  * @retval None
  */
HAL_StatusTypeDef HAL_RCC_ClockConfig(RCC_ClkInitTypeDef  *RCC_ClkInitStruct, uint32_t FLatency)
{
 800162c:	b580      	push	{r7, lr}
 800162e:	b086      	sub	sp, #24
 8001630:	af00      	add	r7, sp, #0
 8001632:	6078      	str	r0, [r7, #4]
 8001634:	6039      	str	r1, [r7, #0]
  HAL_StatusTypeDef halstatus;
  uint32_t tickstart;
  uint32_t common_system_clock;

   /* Check Null pointer */
  if(RCC_ClkInitStruct == NULL)
 8001636:	687b      	ldr	r3, [r7, #4]
 8001638:	2b00      	cmp	r3, #0
 800163a:	d101      	bne.n	8001640 <HAL_RCC_ClockConfig+0x14>
  {
    return HAL_ERROR;
 800163c:	2301      	movs	r3, #1
 800163e:	e19c      	b.n	800197a <HAL_RCC_ClockConfig+0x34e>
  /* To correctly read data from FLASH memory, the number of wait states (LATENCY)
    must be correctly programmed according to the frequency of the CPU clock
    (HCLK) and the supply voltage of the device. */

  /* Increasing the CPU frequency */
  if(FLatency > __HAL_FLASH_GET_LATENCY())
 8001640:	4b8a      	ldr	r3, [pc, #552]	; (800186c <HAL_RCC_ClockConfig+0x240>)
 8001642:	681b      	ldr	r3, [r3, #0]
 8001644:	f003 030f 	and.w	r3, r3, #15
 8001648:	683a      	ldr	r2, [r7, #0]
 800164a:	429a      	cmp	r2, r3
 800164c:	d910      	bls.n	8001670 <HAL_RCC_ClockConfig+0x44>
  {
    /* Program the new number of wait states to the LATENCY bits in the FLASH_ACR register */
    __HAL_FLASH_SET_LATENCY(FLatency);
 800164e:	4b87      	ldr	r3, [pc, #540]	; (800186c <HAL_RCC_ClockConfig+0x240>)
 8001650:	681b      	ldr	r3, [r3, #0]
 8001652:	f023 020f 	bic.w	r2, r3, #15
 8001656:	4985      	ldr	r1, [pc, #532]	; (800186c <HAL_RCC_ClockConfig+0x240>)
 8001658:	683b      	ldr	r3, [r7, #0]
 800165a:	4313      	orrs	r3, r2
 800165c:	600b      	str	r3, [r1, #0]

    /* Check that the new number of wait states is taken into account to access the Flash
    memory by reading the FLASH_ACR register */
    if(__HAL_FLASH_GET_LATENCY() != FLatency)
 800165e:	4b83      	ldr	r3, [pc, #524]	; (800186c <HAL_RCC_ClockConfig+0x240>)
 8001660:	681b      	ldr	r3, [r3, #0]
 8001662:	f003 030f 	and.w	r3, r3, #15
 8001666:	683a      	ldr	r2, [r7, #0]
 8001668:	429a      	cmp	r2, r3
 800166a:	d001      	beq.n	8001670 <HAL_RCC_ClockConfig+0x44>
    {
      return HAL_ERROR;
 800166c:	2301      	movs	r3, #1
 800166e:	e184      	b.n	800197a <HAL_RCC_ClockConfig+0x34e>

  }

  /* Increasing the BUS frequency divider */
  /*-------------------------- D1PCLK1/CDPCLK1 Configuration ---------------------------*/
  if(((RCC_ClkInitStruct->ClockType) & RCC_CLOCKTYPE_D1PCLK1) == RCC_CLOCKTYPE_D1PCLK1)
 8001670:	687b      	ldr	r3, [r7, #4]
 8001672:	681b      	ldr	r3, [r3, #0]
 8001674:	f003 0304 	and.w	r3, r3, #4
 8001678:	2b00      	cmp	r3, #0
 800167a:	d010      	beq.n	800169e <HAL_RCC_ClockConfig+0x72>
  {
#if defined (RCC_D1CFGR_D1PPRE)
    if((RCC_ClkInitStruct->APB3CLKDivider) > (RCC->D1CFGR & RCC_D1CFGR_D1PPRE))
 800167c:	687b      	ldr	r3, [r7, #4]
 800167e:	691a      	ldr	r2, [r3, #16]
 8001680:	4b7b      	ldr	r3, [pc, #492]	; (8001870 <HAL_RCC_ClockConfig+0x244>)
 8001682:	699b      	ldr	r3, [r3, #24]
 8001684:	f003 0370 	and.w	r3, r3, #112	; 0x70
 8001688:	429a      	cmp	r2, r3
 800168a:	d908      	bls.n	800169e <HAL_RCC_ClockConfig+0x72>
    {
      assert_param(IS_RCC_D1PCLK1(RCC_ClkInitStruct->APB3CLKDivider));
      MODIFY_REG(RCC->D1CFGR, RCC_D1CFGR_D1PPRE, RCC_ClkInitStruct->APB3CLKDivider);
 800168c:	4b78      	ldr	r3, [pc, #480]	; (8001870 <HAL_RCC_ClockConfig+0x244>)
 800168e:	699b      	ldr	r3, [r3, #24]
 8001690:	f023 0270 	bic.w	r2, r3, #112	; 0x70
 8001694:	687b      	ldr	r3, [r7, #4]
 8001696:	691b      	ldr	r3, [r3, #16]
 8001698:	4975      	ldr	r1, [pc, #468]	; (8001870 <HAL_RCC_ClockConfig+0x244>)
 800169a:	4313      	orrs	r3, r2
 800169c:	618b      	str	r3, [r1, #24]
    }
#endif
  }

  /*-------------------------- PCLK1 Configuration ---------------------------*/
  if(((RCC_ClkInitStruct->ClockType) & RCC_CLOCKTYPE_PCLK1) == RCC_CLOCKTYPE_PCLK1)
 800169e:	687b      	ldr	r3, [r7, #4]
 80016a0:	681b      	ldr	r3, [r3, #0]
 80016a2:	f003 0308 	and.w	r3, r3, #8
 80016a6:	2b00      	cmp	r3, #0
 80016a8:	d010      	beq.n	80016cc <HAL_RCC_ClockConfig+0xa0>
  {
#if defined (RCC_D2CFGR_D2PPRE1)
    if((RCC_ClkInitStruct->APB1CLKDivider) > (RCC->D2CFGR & RCC_D2CFGR_D2PPRE1))
 80016aa:	687b      	ldr	r3, [r7, #4]
 80016ac:	695a      	ldr	r2, [r3, #20]
 80016ae:	4b70      	ldr	r3, [pc, #448]	; (8001870 <HAL_RCC_ClockConfig+0x244>)
 80016b0:	69db      	ldr	r3, [r3, #28]
 80016b2:	f003 0370 	and.w	r3, r3, #112	; 0x70
 80016b6:	429a      	cmp	r2, r3
 80016b8:	d908      	bls.n	80016cc <HAL_RCC_ClockConfig+0xa0>
    {
      assert_param(IS_RCC_PCLK1(RCC_ClkInitStruct->APB1CLKDivider));
      MODIFY_REG(RCC->D2CFGR, RCC_D2CFGR_D2PPRE1, (RCC_ClkInitStruct->APB1CLKDivider));
 80016ba:	4b6d      	ldr	r3, [pc, #436]	; (8001870 <HAL_RCC_ClockConfig+0x244>)
 80016bc:	69db      	ldr	r3, [r3, #28]
 80016be:	f023 0270 	bic.w	r2, r3, #112	; 0x70
 80016c2:	687b      	ldr	r3, [r7, #4]
 80016c4:	695b      	ldr	r3, [r3, #20]
 80016c6:	496a      	ldr	r1, [pc, #424]	; (8001870 <HAL_RCC_ClockConfig+0x244>)
 80016c8:	4313      	orrs	r3, r2
 80016ca:	61cb      	str	r3, [r1, #28]
      MODIFY_REG(RCC->CDCFGR2, RCC_CDCFGR2_CDPPRE1, (RCC_ClkInitStruct->APB1CLKDivider));
  }
#endif
    }
  /*-------------------------- PCLK2 Configuration ---------------------------*/
  if(((RCC_ClkInitStruct->ClockType) & RCC_CLOCKTYPE_PCLK2) == RCC_CLOCKTYPE_PCLK2)
 80016cc:	687b      	ldr	r3, [r7, #4]
 80016ce:	681b      	ldr	r3, [r3, #0]
 80016d0:	f003 0310 	and.w	r3, r3, #16
 80016d4:	2b00      	cmp	r3, #0
 80016d6:	d010      	beq.n	80016fa <HAL_RCC_ClockConfig+0xce>
  {
#if defined(RCC_D2CFGR_D2PPRE2)
    if((RCC_ClkInitStruct->APB2CLKDivider) > (RCC->D2CFGR & RCC_D2CFGR_D2PPRE2))
 80016d8:	687b      	ldr	r3, [r7, #4]
 80016da:	699a      	ldr	r2, [r3, #24]
 80016dc:	4b64      	ldr	r3, [pc, #400]	; (8001870 <HAL_RCC_ClockConfig+0x244>)
 80016de:	69db      	ldr	r3, [r3, #28]
 80016e0:	f403 63e0 	and.w	r3, r3, #1792	; 0x700
 80016e4:	429a      	cmp	r2, r3
 80016e6:	d908      	bls.n	80016fa <HAL_RCC_ClockConfig+0xce>
    {
      assert_param(IS_RCC_PCLK2(RCC_ClkInitStruct->APB2CLKDivider));
      MODIFY_REG(RCC->D2CFGR, RCC_D2CFGR_D2PPRE2, (RCC_ClkInitStruct->APB2CLKDivider));
 80016e8:	4b61      	ldr	r3, [pc, #388]	; (8001870 <HAL_RCC_ClockConfig+0x244>)
 80016ea:	69db      	ldr	r3, [r3, #28]
 80016ec:	f423 62e0 	bic.w	r2, r3, #1792	; 0x700
 80016f0:	687b      	ldr	r3, [r7, #4]
 80016f2:	699b      	ldr	r3, [r3, #24]
 80016f4:	495e      	ldr	r1, [pc, #376]	; (8001870 <HAL_RCC_ClockConfig+0x244>)
 80016f6:	4313      	orrs	r3, r2
 80016f8:	61cb      	str	r3, [r1, #28]
    }
#endif
  }

  /*-------------------------- D3PCLK1 Configuration ---------------------------*/
  if(((RCC_ClkInitStruct->ClockType) & RCC_CLOCKTYPE_D3PCLK1) == RCC_CLOCKTYPE_D3PCLK1)
 80016fa:	687b      	ldr	r3, [r7, #4]
 80016fc:	681b      	ldr	r3, [r3, #0]
 80016fe:	f003 0320 	and.w	r3, r3, #32
 8001702:	2b00      	cmp	r3, #0
 8001704:	d010      	beq.n	8001728 <HAL_RCC_ClockConfig+0xfc>
  {
#if defined(RCC_D3CFGR_D3PPRE)
    if((RCC_ClkInitStruct->APB4CLKDivider) > (RCC->D3CFGR & RCC_D3CFGR_D3PPRE))
 8001706:	687b      	ldr	r3, [r7, #4]
 8001708:	69da      	ldr	r2, [r3, #28]
 800170a:	4b59      	ldr	r3, [pc, #356]	; (8001870 <HAL_RCC_ClockConfig+0x244>)
 800170c:	6a1b      	ldr	r3, [r3, #32]
 800170e:	f003 0370 	and.w	r3, r3, #112	; 0x70
 8001712:	429a      	cmp	r2, r3
 8001714:	d908      	bls.n	8001728 <HAL_RCC_ClockConfig+0xfc>
    {
      assert_param(IS_RCC_D3PCLK1(RCC_ClkInitStruct->APB4CLKDivider));
      MODIFY_REG(RCC->D3CFGR, RCC_D3CFGR_D3PPRE, (RCC_ClkInitStruct->APB4CLKDivider) );
 8001716:	4b56      	ldr	r3, [pc, #344]	; (8001870 <HAL_RCC_ClockConfig+0x244>)
 8001718:	6a1b      	ldr	r3, [r3, #32]
 800171a:	f023 0270 	bic.w	r2, r3, #112	; 0x70
 800171e:	687b      	ldr	r3, [r7, #4]
 8001720:	69db      	ldr	r3, [r3, #28]
 8001722:	4953      	ldr	r1, [pc, #332]	; (8001870 <HAL_RCC_ClockConfig+0x244>)
 8001724:	4313      	orrs	r3, r2
 8001726:	620b      	str	r3, [r1, #32]
    }
#endif
  }

   /*-------------------------- HCLK Configuration --------------------------*/
  if(((RCC_ClkInitStruct->ClockType) & RCC_CLOCKTYPE_HCLK) == RCC_CLOCKTYPE_HCLK)
 8001728:	687b      	ldr	r3, [r7, #4]
 800172a:	681b      	ldr	r3, [r3, #0]
 800172c:	f003 0302 	and.w	r3, r3, #2
 8001730:	2b00      	cmp	r3, #0
 8001732:	d010      	beq.n	8001756 <HAL_RCC_ClockConfig+0x12a>
  {
#if defined (RCC_D1CFGR_HPRE)
    if((RCC_ClkInitStruct->AHBCLKDivider) > (RCC->D1CFGR & RCC_D1CFGR_HPRE))
 8001734:	687b      	ldr	r3, [r7, #4]
 8001736:	68da      	ldr	r2, [r3, #12]
 8001738:	4b4d      	ldr	r3, [pc, #308]	; (8001870 <HAL_RCC_ClockConfig+0x244>)
 800173a:	699b      	ldr	r3, [r3, #24]
 800173c:	f003 030f 	and.w	r3, r3, #15
 8001740:	429a      	cmp	r2, r3
 8001742:	d908      	bls.n	8001756 <HAL_RCC_ClockConfig+0x12a>
    {
      /* Set the new HCLK clock divider */
      assert_param(IS_RCC_HCLK(RCC_ClkInitStruct->AHBCLKDivider));
      MODIFY_REG(RCC->D1CFGR, RCC_D1CFGR_HPRE, RCC_ClkInitStruct->AHBCLKDivider);
 8001744:	4b4a      	ldr	r3, [pc, #296]	; (8001870 <HAL_RCC_ClockConfig+0x244>)
 8001746:	699b      	ldr	r3, [r3, #24]
 8001748:	f023 020f 	bic.w	r2, r3, #15
 800174c:	687b      	ldr	r3, [r7, #4]
 800174e:	68db      	ldr	r3, [r3, #12]
 8001750:	4947      	ldr	r1, [pc, #284]	; (8001870 <HAL_RCC_ClockConfig+0x244>)
 8001752:	4313      	orrs	r3, r2
 8001754:	618b      	str	r3, [r1, #24]
    }
#endif
  }

    /*------------------------- SYSCLK Configuration -------------------------*/
    if(((RCC_ClkInitStruct->ClockType) & RCC_CLOCKTYPE_SYSCLK) == RCC_CLOCKTYPE_SYSCLK)
 8001756:	687b      	ldr	r3, [r7, #4]
 8001758:	681b      	ldr	r3, [r3, #0]
 800175a:	f003 0301 	and.w	r3, r3, #1
 800175e:	2b00      	cmp	r3, #0
 8001760:	d055      	beq.n	800180e <HAL_RCC_ClockConfig+0x1e2>
    {
      assert_param(IS_RCC_SYSCLK(RCC_ClkInitStruct->SYSCLKDivider));
      assert_param(IS_RCC_SYSCLKSOURCE(RCC_ClkInitStruct->SYSCLKSource));
#if defined(RCC_D1CFGR_D1CPRE)
      MODIFY_REG(RCC->D1CFGR, RCC_D1CFGR_D1CPRE, RCC_ClkInitStruct->SYSCLKDivider);
 8001762:	4b43      	ldr	r3, [pc, #268]	; (8001870 <HAL_RCC_ClockConfig+0x244>)
 8001764:	699b      	ldr	r3, [r3, #24]
 8001766:	f423 6270 	bic.w	r2, r3, #3840	; 0xf00
 800176a:	687b      	ldr	r3, [r7, #4]
 800176c:	689b      	ldr	r3, [r3, #8]
 800176e:	4940      	ldr	r1, [pc, #256]	; (8001870 <HAL_RCC_ClockConfig+0x244>)
 8001770:	4313      	orrs	r3, r2
 8001772:	618b      	str	r3, [r1, #24]
#else
      MODIFY_REG(RCC->CDCFGR1, RCC_CDCFGR1_CDCPRE, RCC_ClkInitStruct->SYSCLKDivider);
#endif
      /* HSE is selected as System Clock Source */
      if(RCC_ClkInitStruct->SYSCLKSource == RCC_SYSCLKSOURCE_HSE)
 8001774:	687b      	ldr	r3, [r7, #4]
 8001776:	685b      	ldr	r3, [r3, #4]
 8001778:	2b02      	cmp	r3, #2
 800177a:	d107      	bne.n	800178c <HAL_RCC_ClockConfig+0x160>
      {
        /* Check the HSE ready flag */
        if(__HAL_RCC_GET_FLAG(RCC_FLAG_HSERDY) == 0U)
 800177c:	4b3c      	ldr	r3, [pc, #240]	; (8001870 <HAL_RCC_ClockConfig+0x244>)
 800177e:	681b      	ldr	r3, [r3, #0]
 8001780:	f403 3300 	and.w	r3, r3, #131072	; 0x20000
 8001784:	2b00      	cmp	r3, #0
 8001786:	d121      	bne.n	80017cc <HAL_RCC_ClockConfig+0x1a0>
        {
          return HAL_ERROR;
 8001788:	2301      	movs	r3, #1
 800178a:	e0f6      	b.n	800197a <HAL_RCC_ClockConfig+0x34e>
        }
      }
      /* PLL is selected as System Clock Source */
      else if(RCC_ClkInitStruct->SYSCLKSource == RCC_SYSCLKSOURCE_PLLCLK)
 800178c:	687b      	ldr	r3, [r7, #4]
 800178e:	685b      	ldr	r3, [r3, #4]
 8001790:	2b03      	cmp	r3, #3
 8001792:	d107      	bne.n	80017a4 <HAL_RCC_ClockConfig+0x178>
      {
        /* Check the PLL ready flag */
        if(__HAL_RCC_GET_FLAG(RCC_FLAG_PLLRDY) == 0U)
 8001794:	4b36      	ldr	r3, [pc, #216]	; (8001870 <HAL_RCC_ClockConfig+0x244>)
 8001796:	681b      	ldr	r3, [r3, #0]
 8001798:	f003 7300 	and.w	r3, r3, #33554432	; 0x2000000
 800179c:	2b00      	cmp	r3, #0
 800179e:	d115      	bne.n	80017cc <HAL_RCC_ClockConfig+0x1a0>
        {
          return HAL_ERROR;
 80017a0:	2301      	movs	r3, #1
 80017a2:	e0ea      	b.n	800197a <HAL_RCC_ClockConfig+0x34e>
        }
      }
      /* CSI is selected as System Clock Source */
      else if(RCC_ClkInitStruct->SYSCLKSource == RCC_SYSCLKSOURCE_CSI)
 80017a4:	687b      	ldr	r3, [r7, #4]
 80017a6:	685b      	ldr	r3, [r3, #4]
 80017a8:	2b01      	cmp	r3, #1
 80017aa:	d107      	bne.n	80017bc <HAL_RCC_ClockConfig+0x190>
      {
        /* Check the PLL ready flag */
        if(__HAL_RCC_GET_FLAG(RCC_FLAG_CSIRDY) == 0U)
 80017ac:	4b30      	ldr	r3, [pc, #192]	; (8001870 <HAL_RCC_ClockConfig+0x244>)
 80017ae:	681b      	ldr	r3, [r3, #0]
 80017b0:	f403 7380 	and.w	r3, r3, #256	; 0x100
 80017b4:	2b00      	cmp	r3, #0
 80017b6:	d109      	bne.n	80017cc <HAL_RCC_ClockConfig+0x1a0>
        {
          return HAL_ERROR;
 80017b8:	2301      	movs	r3, #1
 80017ba:	e0de      	b.n	800197a <HAL_RCC_ClockConfig+0x34e>
      }
      /* HSI is selected as System Clock Source */
      else
      {
        /* Check the HSI ready flag */
        if(__HAL_RCC_GET_FLAG(RCC_FLAG_HSIRDY) == 0U)
 80017bc:	4b2c      	ldr	r3, [pc, #176]	; (8001870 <HAL_RCC_ClockConfig+0x244>)
 80017be:	681b      	ldr	r3, [r3, #0]
 80017c0:	f003 0304 	and.w	r3, r3, #4
 80017c4:	2b00      	cmp	r3, #0
 80017c6:	d101      	bne.n	80017cc <HAL_RCC_ClockConfig+0x1a0>
        {
          return HAL_ERROR;
 80017c8:	2301      	movs	r3, #1
 80017ca:	e0d6      	b.n	800197a <HAL_RCC_ClockConfig+0x34e>
        }
      }
      MODIFY_REG(RCC->CFGR, RCC_CFGR_SW, RCC_ClkInitStruct->SYSCLKSource);
 80017cc:	4b28      	ldr	r3, [pc, #160]	; (8001870 <HAL_RCC_ClockConfig+0x244>)
 80017ce:	691b      	ldr	r3, [r3, #16]
 80017d0:	f023 0207 	bic.w	r2, r3, #7
 80017d4:	687b      	ldr	r3, [r7, #4]
 80017d6:	685b      	ldr	r3, [r3, #4]
 80017d8:	4925      	ldr	r1, [pc, #148]	; (8001870 <HAL_RCC_ClockConfig+0x244>)
 80017da:	4313      	orrs	r3, r2
 80017dc:	610b      	str	r3, [r1, #16]

      /* Get Start Tick*/
      tickstart = HAL_GetTick();
 80017de:	f7ff f8d7 	bl	8000990 <HAL_GetTick>
 80017e2:	6178      	str	r0, [r7, #20]

        while (__HAL_RCC_GET_SYSCLK_SOURCE() !=  (RCC_ClkInitStruct->SYSCLKSource << RCC_CFGR_SWS_Pos))
 80017e4:	e00a      	b.n	80017fc <HAL_RCC_ClockConfig+0x1d0>
        {
          if((HAL_GetTick() - tickstart ) > CLOCKSWITCH_TIMEOUT_VALUE)
 80017e6:	f7ff f8d3 	bl	8000990 <HAL_GetTick>
 80017ea:	4602      	mov	r2, r0
 80017ec:	697b      	ldr	r3, [r7, #20]
 80017ee:	1ad3      	subs	r3, r2, r3
 80017f0:	f241 3288 	movw	r2, #5000	; 0x1388
 80017f4:	4293      	cmp	r3, r2
 80017f6:	d901      	bls.n	80017fc <HAL_RCC_ClockConfig+0x1d0>
          {
            return HAL_TIMEOUT;
 80017f8:	2303      	movs	r3, #3
 80017fa:	e0be      	b.n	800197a <HAL_RCC_ClockConfig+0x34e>
        while (__HAL_RCC_GET_SYSCLK_SOURCE() !=  (RCC_ClkInitStruct->SYSCLKSource << RCC_CFGR_SWS_Pos))
 80017fc:	4b1c      	ldr	r3, [pc, #112]	; (8001870 <HAL_RCC_ClockConfig+0x244>)
 80017fe:	691b      	ldr	r3, [r3, #16]
 8001800:	f003 0238 	and.w	r2, r3, #56	; 0x38
 8001804:	687b      	ldr	r3, [r7, #4]
 8001806:	685b      	ldr	r3, [r3, #4]
 8001808:	00db      	lsls	r3, r3, #3
 800180a:	429a      	cmp	r2, r3
 800180c:	d1eb      	bne.n	80017e6 <HAL_RCC_ClockConfig+0x1ba>

    }

    /* Decreasing the BUS frequency divider */
   /*-------------------------- HCLK Configuration --------------------------*/
  if(((RCC_ClkInitStruct->ClockType) & RCC_CLOCKTYPE_HCLK) == RCC_CLOCKTYPE_HCLK)
 800180e:	687b      	ldr	r3, [r7, #4]
 8001810:	681b      	ldr	r3, [r3, #0]
 8001812:	f003 0302 	and.w	r3, r3, #2
 8001816:	2b00      	cmp	r3, #0
 8001818:	d010      	beq.n	800183c <HAL_RCC_ClockConfig+0x210>
  {
#if defined(RCC_D1CFGR_HPRE)
    if((RCC_ClkInitStruct->AHBCLKDivider) < (RCC->D1CFGR & RCC_D1CFGR_HPRE))
 800181a:	687b      	ldr	r3, [r7, #4]
 800181c:	68da      	ldr	r2, [r3, #12]
 800181e:	4b14      	ldr	r3, [pc, #80]	; (8001870 <HAL_RCC_ClockConfig+0x244>)
 8001820:	699b      	ldr	r3, [r3, #24]
 8001822:	f003 030f 	and.w	r3, r3, #15
 8001826:	429a      	cmp	r2, r3
 8001828:	d208      	bcs.n	800183c <HAL_RCC_ClockConfig+0x210>
    {
      /* Set the new HCLK clock divider */
      assert_param(IS_RCC_HCLK(RCC_ClkInitStruct->AHBCLKDivider));
      MODIFY_REG(RCC->D1CFGR, RCC_D1CFGR_HPRE, RCC_ClkInitStruct->AHBCLKDivider);
 800182a:	4b11      	ldr	r3, [pc, #68]	; (8001870 <HAL_RCC_ClockConfig+0x244>)
 800182c:	699b      	ldr	r3, [r3, #24]
 800182e:	f023 020f 	bic.w	r2, r3, #15
 8001832:	687b      	ldr	r3, [r7, #4]
 8001834:	68db      	ldr	r3, [r3, #12]
 8001836:	490e      	ldr	r1, [pc, #56]	; (8001870 <HAL_RCC_ClockConfig+0x244>)
 8001838:	4313      	orrs	r3, r2
 800183a:	618b      	str	r3, [r1, #24]
    }
#endif
  }

  /* Decreasing the number of wait states because of lower CPU frequency */
  if(FLatency < __HAL_FLASH_GET_LATENCY())
 800183c:	4b0b      	ldr	r3, [pc, #44]	; (800186c <HAL_RCC_ClockConfig+0x240>)
 800183e:	681b      	ldr	r3, [r3, #0]
 8001840:	f003 030f 	and.w	r3, r3, #15
 8001844:	683a      	ldr	r2, [r7, #0]
 8001846:	429a      	cmp	r2, r3
 8001848:	d214      	bcs.n	8001874 <HAL_RCC_ClockConfig+0x248>
  {
    /* Program the new number of wait states to the LATENCY bits in the FLASH_ACR register */
    __HAL_FLASH_SET_LATENCY(FLatency);
 800184a:	4b08      	ldr	r3, [pc, #32]	; (800186c <HAL_RCC_ClockConfig+0x240>)
 800184c:	681b      	ldr	r3, [r3, #0]
 800184e:	f023 020f 	bic.w	r2, r3, #15
 8001852:	4906      	ldr	r1, [pc, #24]	; (800186c <HAL_RCC_ClockConfig+0x240>)
 8001854:	683b      	ldr	r3, [r7, #0]
 8001856:	4313      	orrs	r3, r2
 8001858:	600b      	str	r3, [r1, #0]

    /* Check that the new number of wait states is taken into account to access the Flash
    memory by reading the FLASH_ACR register */
    if(__HAL_FLASH_GET_LATENCY() != FLatency)
 800185a:	4b04      	ldr	r3, [pc, #16]	; (800186c <HAL_RCC_ClockConfig+0x240>)
 800185c:	681b      	ldr	r3, [r3, #0]
 800185e:	f003 030f 	and.w	r3, r3, #15
 8001862:	683a      	ldr	r2, [r7, #0]
 8001864:	429a      	cmp	r2, r3
 8001866:	d005      	beq.n	8001874 <HAL_RCC_ClockConfig+0x248>
    {
      return HAL_ERROR;
 8001868:	2301      	movs	r3, #1
 800186a:	e086      	b.n	800197a <HAL_RCC_ClockConfig+0x34e>
 800186c:	52002000 	.word	0x52002000
 8001870:	58024400 	.word	0x58024400
    }
 }

  /*-------------------------- D1PCLK1/CDPCLK Configuration ---------------------------*/
 if(((RCC_ClkInitStruct->ClockType) & RCC_CLOCKTYPE_D1PCLK1) == RCC_CLOCKTYPE_D1PCLK1)
 8001874:	687b      	ldr	r3, [r7, #4]
 8001876:	681b      	ldr	r3, [r3, #0]
 8001878:	f003 0304 	and.w	r3, r3, #4
 800187c:	2b00      	cmp	r3, #0
 800187e:	d010      	beq.n	80018a2 <HAL_RCC_ClockConfig+0x276>
 {
#if defined(RCC_D1CFGR_D1PPRE)
   if((RCC_ClkInitStruct->APB3CLKDivider) < (RCC->D1CFGR & RCC_D1CFGR_D1PPRE))
 8001880:	687b      	ldr	r3, [r7, #4]
 8001882:	691a      	ldr	r2, [r3, #16]
 8001884:	4b3f      	ldr	r3, [pc, #252]	; (8001984 <HAL_RCC_ClockConfig+0x358>)
 8001886:	699b      	ldr	r3, [r3, #24]
 8001888:	f003 0370 	and.w	r3, r3, #112	; 0x70
 800188c:	429a      	cmp	r2, r3
 800188e:	d208      	bcs.n	80018a2 <HAL_RCC_ClockConfig+0x276>
   {
     assert_param(IS_RCC_D1PCLK1(RCC_ClkInitStruct->APB3CLKDivider));
     MODIFY_REG(RCC->D1CFGR, RCC_D1CFGR_D1PPRE, RCC_ClkInitStruct->APB3CLKDivider);
 8001890:	4b3c      	ldr	r3, [pc, #240]	; (8001984 <HAL_RCC_ClockConfig+0x358>)
 8001892:	699b      	ldr	r3, [r3, #24]
 8001894:	f023 0270 	bic.w	r2, r3, #112	; 0x70
 8001898:	687b      	ldr	r3, [r7, #4]
 800189a:	691b      	ldr	r3, [r3, #16]
 800189c:	4939      	ldr	r1, [pc, #228]	; (8001984 <HAL_RCC_ClockConfig+0x358>)
 800189e:	4313      	orrs	r3, r2
 80018a0:	618b      	str	r3, [r1, #24]
   }
#endif
 }

  /*-------------------------- PCLK1 Configuration ---------------------------*/
 if(((RCC_ClkInitStruct->ClockType) & RCC_CLOCKTYPE_PCLK1) == RCC_CLOCKTYPE_PCLK1)
 80018a2:	687b      	ldr	r3, [r7, #4]
 80018a4:	681b      	ldr	r3, [r3, #0]
 80018a6:	f003 0308 	and.w	r3, r3, #8
 80018aa:	2b00      	cmp	r3, #0
 80018ac:	d010      	beq.n	80018d0 <HAL_RCC_ClockConfig+0x2a4>
 {
#if defined(RCC_D2CFGR_D2PPRE1)
   if((RCC_ClkInitStruct->APB1CLKDivider) < (RCC->D2CFGR & RCC_D2CFGR_D2PPRE1))
 80018ae:	687b      	ldr	r3, [r7, #4]
 80018b0:	695a      	ldr	r2, [r3, #20]
 80018b2:	4b34      	ldr	r3, [pc, #208]	; (8001984 <HAL_RCC_ClockConfig+0x358>)
 80018b4:	69db      	ldr	r3, [r3, #28]
 80018b6:	f003 0370 	and.w	r3, r3, #112	; 0x70
 80018ba:	429a      	cmp	r2, r3
 80018bc:	d208      	bcs.n	80018d0 <HAL_RCC_ClockConfig+0x2a4>
   {
     assert_param(IS_RCC_PCLK1(RCC_ClkInitStruct->APB1CLKDivider));
     MODIFY_REG(RCC->D2CFGR, RCC_D2CFGR_D2PPRE1, (RCC_ClkInitStruct->APB1CLKDivider));
 80018be:	4b31      	ldr	r3, [pc, #196]	; (8001984 <HAL_RCC_ClockConfig+0x358>)
 80018c0:	69db      	ldr	r3, [r3, #28]
 80018c2:	f023 0270 	bic.w	r2, r3, #112	; 0x70
 80018c6:	687b      	ldr	r3, [r7, #4]
 80018c8:	695b      	ldr	r3, [r3, #20]
 80018ca:	492e      	ldr	r1, [pc, #184]	; (8001984 <HAL_RCC_ClockConfig+0x358>)
 80018cc:	4313      	orrs	r3, r2
 80018ce:	61cb      	str	r3, [r1, #28]
   }
#endif
 }

  /*-------------------------- PCLK2 Configuration ---------------------------*/
 if(((RCC_ClkInitStruct->ClockType) & RCC_CLOCKTYPE_PCLK2) == RCC_CLOCKTYPE_PCLK2)
 80018d0:	687b      	ldr	r3, [r7, #4]
 80018d2:	681b      	ldr	r3, [r3, #0]
 80018d4:	f003 0310 	and.w	r3, r3, #16
 80018d8:	2b00      	cmp	r3, #0
 80018da:	d010      	beq.n	80018fe <HAL_RCC_ClockConfig+0x2d2>
 {
#if defined (RCC_D2CFGR_D2PPRE2)
   if((RCC_ClkInitStruct->APB2CLKDivider) < (RCC->D2CFGR & RCC_D2CFGR_D2PPRE2))
 80018dc:	687b      	ldr	r3, [r7, #4]
 80018de:	699a      	ldr	r2, [r3, #24]
 80018e0:	4b28      	ldr	r3, [pc, #160]	; (8001984 <HAL_RCC_ClockConfig+0x358>)
 80018e2:	69db      	ldr	r3, [r3, #28]
 80018e4:	f403 63e0 	and.w	r3, r3, #1792	; 0x700
 80018e8:	429a      	cmp	r2, r3
 80018ea:	d208      	bcs.n	80018fe <HAL_RCC_ClockConfig+0x2d2>
   {
     assert_param(IS_RCC_PCLK2(RCC_ClkInitStruct->APB2CLKDivider));
     MODIFY_REG(RCC->D2CFGR, RCC_D2CFGR_D2PPRE2, (RCC_ClkInitStruct->APB2CLKDivider));
 80018ec:	4b25      	ldr	r3, [pc, #148]	; (8001984 <HAL_RCC_ClockConfig+0x358>)
 80018ee:	69db      	ldr	r3, [r3, #28]
 80018f0:	f423 62e0 	bic.w	r2, r3, #1792	; 0x700
 80018f4:	687b      	ldr	r3, [r7, #4]
 80018f6:	699b      	ldr	r3, [r3, #24]
 80018f8:	4922      	ldr	r1, [pc, #136]	; (8001984 <HAL_RCC_ClockConfig+0x358>)
 80018fa:	4313      	orrs	r3, r2
 80018fc:	61cb      	str	r3, [r1, #28]
   }
#endif
 }

  /*-------------------------- D3PCLK1/SRDPCLK1 Configuration ---------------------------*/
 if(((RCC_ClkInitStruct->ClockType) & RCC_CLOCKTYPE_D3PCLK1) == RCC_CLOCKTYPE_D3PCLK1)
 80018fe:	687b      	ldr	r3, [r7, #4]
 8001900:	681b      	ldr	r3, [r3, #0]
 8001902:	f003 0320 	and.w	r3, r3, #32
 8001906:	2b00      	cmp	r3, #0
 8001908:	d010      	beq.n	800192c <HAL_RCC_ClockConfig+0x300>
 {
#if defined(RCC_D3CFGR_D3PPRE)
   if((RCC_ClkInitStruct->APB4CLKDivider) < (RCC->D3CFGR & RCC_D3CFGR_D3PPRE))
 800190a:	687b      	ldr	r3, [r7, #4]
 800190c:	69da      	ldr	r2, [r3, #28]
 800190e:	4b1d      	ldr	r3, [pc, #116]	; (8001984 <HAL_RCC_ClockConfig+0x358>)
 8001910:	6a1b      	ldr	r3, [r3, #32]
 8001912:	f003 0370 	and.w	r3, r3, #112	; 0x70
 8001916:	429a      	cmp	r2, r3
 8001918:	d208      	bcs.n	800192c <HAL_RCC_ClockConfig+0x300>
   {
     assert_param(IS_RCC_D3PCLK1(RCC_ClkInitStruct->APB4CLKDivider));
     MODIFY_REG(RCC->D3CFGR, RCC_D3CFGR_D3PPRE, (RCC_ClkInitStruct->APB4CLKDivider) );
 800191a:	4b1a      	ldr	r3, [pc, #104]	; (8001984 <HAL_RCC_ClockConfig+0x358>)
 800191c:	6a1b      	ldr	r3, [r3, #32]
 800191e:	f023 0270 	bic.w	r2, r3, #112	; 0x70
 8001922:	687b      	ldr	r3, [r7, #4]
 8001924:	69db      	ldr	r3, [r3, #28]
 8001926:	4917      	ldr	r1, [pc, #92]	; (8001984 <HAL_RCC_ClockConfig+0x358>)
 8001928:	4313      	orrs	r3, r2
 800192a:	620b      	str	r3, [r1, #32]
#endif
 }

  /* Update the SystemCoreClock global variable */
#if defined(RCC_D1CFGR_D1CPRE)
  common_system_clock = HAL_RCC_GetSysClockFreq() >> ((D1CorePrescTable[(RCC->D1CFGR & RCC_D1CFGR_D1CPRE)>> RCC_D1CFGR_D1CPRE_Pos]) & 0x1FU);
 800192c:	f000 f834 	bl	8001998 <HAL_RCC_GetSysClockFreq>
 8001930:	4602      	mov	r2, r0
 8001932:	4b14      	ldr	r3, [pc, #80]	; (8001984 <HAL_RCC_ClockConfig+0x358>)
 8001934:	699b      	ldr	r3, [r3, #24]
 8001936:	0a1b      	lsrs	r3, r3, #8
 8001938:	f003 030f 	and.w	r3, r3, #15
 800193c:	4912      	ldr	r1, [pc, #72]	; (8001988 <HAL_RCC_ClockConfig+0x35c>)
 800193e:	5ccb      	ldrb	r3, [r1, r3]
 8001940:	f003 031f 	and.w	r3, r3, #31
 8001944:	fa22 f303 	lsr.w	r3, r2, r3
 8001948:	613b      	str	r3, [r7, #16]
#else
  common_system_clock = HAL_RCC_GetSysClockFreq() >> ((D1CorePrescTable[(RCC->CDCFGR1 & RCC_CDCFGR1_CDCPRE)>> RCC_CDCFGR1_CDCPRE_Pos]) & 0x1FU);
#endif

#if defined(RCC_D1CFGR_HPRE)
  SystemD2Clock = (common_system_clock >> ((D1CorePrescTable[(RCC->D1CFGR & RCC_D1CFGR_HPRE)>> RCC_D1CFGR_HPRE_Pos]) & 0x1FU));
 800194a:	4b0e      	ldr	r3, [pc, #56]	; (8001984 <HAL_RCC_ClockConfig+0x358>)
 800194c:	699b      	ldr	r3, [r3, #24]
 800194e:	f003 030f 	and.w	r3, r3, #15
 8001952:	4a0d      	ldr	r2, [pc, #52]	; (8001988 <HAL_RCC_ClockConfig+0x35c>)
 8001954:	5cd3      	ldrb	r3, [r2, r3]
 8001956:	f003 031f 	and.w	r3, r3, #31
 800195a:	693a      	ldr	r2, [r7, #16]
 800195c:	fa22 f303 	lsr.w	r3, r2, r3
 8001960:	4a0a      	ldr	r2, [pc, #40]	; (800198c <HAL_RCC_ClockConfig+0x360>)
 8001962:	6013      	str	r3, [r2, #0]
#endif

#if defined(DUAL_CORE) && defined(CORE_CM4)
  SystemCoreClock = SystemD2Clock;
#else
  SystemCoreClock = common_system_clock;
 8001964:	4a0a      	ldr	r2, [pc, #40]	; (8001990 <HAL_RCC_ClockConfig+0x364>)
 8001966:	693b      	ldr	r3, [r7, #16]
 8001968:	6013      	str	r3, [r2, #0]
#endif /* DUAL_CORE && CORE_CM4 */

  /* Configure the source of time base considering new system clocks settings*/
  halstatus = HAL_InitTick (uwTickPrio);
 800196a:	4b0a      	ldr	r3, [pc, #40]	; (8001994 <HAL_RCC_ClockConfig+0x368>)
 800196c:	681b      	ldr	r3, [r3, #0]
 800196e:	4618      	mov	r0, r3
 8001970:	f7fe fee4 	bl	800073c <HAL_InitTick>
 8001974:	4603      	mov	r3, r0
 8001976:	73fb      	strb	r3, [r7, #15]

  return halstatus;
 8001978:	7bfb      	ldrb	r3, [r7, #15]
}
 800197a:	4618      	mov	r0, r3
 800197c:	3718      	adds	r7, #24
 800197e:	46bd      	mov	sp, r7
 8001980:	bd80      	pop	{r7, pc}
 8001982:	bf00      	nop
 8001984:	58024400 	.word	0x58024400
 8001988:	080023c0 	.word	0x080023c0
 800198c:	24000004 	.word	0x24000004
 8001990:	24000000 	.word	0x24000000
 8001994:	24000008 	.word	0x24000008

08001998 <HAL_RCC_GetSysClockFreq>:
  *
  *
  * @retval SYSCLK frequency
  */
uint32_t HAL_RCC_GetSysClockFreq(void)
{
 8001998:	b480      	push	{r7}
 800199a:	b089      	sub	sp, #36	; 0x24
 800199c:	af00      	add	r7, sp, #0
  float_t fracn1, pllvco;
  uint32_t sysclockfreq;

  /* Get SYSCLK source -------------------------------------------------------*/

  switch (RCC->CFGR & RCC_CFGR_SWS)
 800199e:	4bb3      	ldr	r3, [pc, #716]	; (8001c6c <HAL_RCC_GetSysClockFreq+0x2d4>)
 80019a0:	691b      	ldr	r3, [r3, #16]
 80019a2:	f003 0338 	and.w	r3, r3, #56	; 0x38
 80019a6:	2b18      	cmp	r3, #24
 80019a8:	f200 8155 	bhi.w	8001c56 <HAL_RCC_GetSysClockFreq+0x2be>
 80019ac:	a201      	add	r2, pc, #4	; (adr r2, 80019b4 <HAL_RCC_GetSysClockFreq+0x1c>)
 80019ae:	f852 f023 	ldr.w	pc, [r2, r3, lsl #2]
 80019b2:	bf00      	nop
 80019b4:	08001a19 	.word	0x08001a19
 80019b8:	08001c57 	.word	0x08001c57
 80019bc:	08001c57 	.word	0x08001c57
 80019c0:	08001c57 	.word	0x08001c57
 80019c4:	08001c57 	.word	0x08001c57
 80019c8:	08001c57 	.word	0x08001c57
 80019cc:	08001c57 	.word	0x08001c57
 80019d0:	08001c57 	.word	0x08001c57
 80019d4:	08001a3f 	.word	0x08001a3f
 80019d8:	08001c57 	.word	0x08001c57
 80019dc:	08001c57 	.word	0x08001c57
 80019e0:	08001c57 	.word	0x08001c57
 80019e4:	08001c57 	.word	0x08001c57
 80019e8:	08001c57 	.word	0x08001c57
 80019ec:	08001c57 	.word	0x08001c57
 80019f0:	08001c57 	.word	0x08001c57
 80019f4:	08001a45 	.word	0x08001a45
 80019f8:	08001c57 	.word	0x08001c57
 80019fc:	08001c57 	.word	0x08001c57
 8001a00:	08001c57 	.word	0x08001c57
 8001a04:	08001c57 	.word	0x08001c57
 8001a08:	08001c57 	.word	0x08001c57
 8001a0c:	08001c57 	.word	0x08001c57
 8001a10:	08001c57 	.word	0x08001c57
 8001a14:	08001a4b 	.word	0x08001a4b
  {
  case RCC_CFGR_SWS_HSI:  /* HSI used as system clock source */

   if (__HAL_RCC_GET_FLAG(RCC_FLAG_HSIDIV) != 0U)
 8001a18:	4b94      	ldr	r3, [pc, #592]	; (8001c6c <HAL_RCC_GetSysClockFreq+0x2d4>)
 8001a1a:	681b      	ldr	r3, [r3, #0]
 8001a1c:	f003 0320 	and.w	r3, r3, #32
 8001a20:	2b00      	cmp	r3, #0
 8001a22:	d009      	beq.n	8001a38 <HAL_RCC_GetSysClockFreq+0xa0>
      {
        sysclockfreq = (uint32_t) (HSI_VALUE >> (__HAL_RCC_GET_HSI_DIVIDER()>> 3));
 8001a24:	4b91      	ldr	r3, [pc, #580]	; (8001c6c <HAL_RCC_GetSysClockFreq+0x2d4>)
 8001a26:	681b      	ldr	r3, [r3, #0]
 8001a28:	08db      	lsrs	r3, r3, #3
 8001a2a:	f003 0303 	and.w	r3, r3, #3
 8001a2e:	4a90      	ldr	r2, [pc, #576]	; (8001c70 <HAL_RCC_GetSysClockFreq+0x2d8>)
 8001a30:	fa22 f303 	lsr.w	r3, r2, r3
 8001a34:	61bb      	str	r3, [r7, #24]
      else
      {
        sysclockfreq = (uint32_t) HSI_VALUE;
      }

    break;
 8001a36:	e111      	b.n	8001c5c <HAL_RCC_GetSysClockFreq+0x2c4>
        sysclockfreq = (uint32_t) HSI_VALUE;
 8001a38:	4b8d      	ldr	r3, [pc, #564]	; (8001c70 <HAL_RCC_GetSysClockFreq+0x2d8>)
 8001a3a:	61bb      	str	r3, [r7, #24]
    break;
 8001a3c:	e10e      	b.n	8001c5c <HAL_RCC_GetSysClockFreq+0x2c4>

  case RCC_CFGR_SWS_CSI:  /* CSI used as system clock  source */
    sysclockfreq = CSI_VALUE;
 8001a3e:	4b8d      	ldr	r3, [pc, #564]	; (8001c74 <HAL_RCC_GetSysClockFreq+0x2dc>)
 8001a40:	61bb      	str	r3, [r7, #24]
    break;
 8001a42:	e10b      	b.n	8001c5c <HAL_RCC_GetSysClockFreq+0x2c4>

  case RCC_CFGR_SWS_HSE:  /* HSE used as system clock  source */
    sysclockfreq = HSE_VALUE;
 8001a44:	4b8c      	ldr	r3, [pc, #560]	; (8001c78 <HAL_RCC_GetSysClockFreq+0x2e0>)
 8001a46:	61bb      	str	r3, [r7, #24]
    break;
 8001a48:	e108      	b.n	8001c5c <HAL_RCC_GetSysClockFreq+0x2c4>
  case RCC_CFGR_SWS_PLL1:  /* PLL1 used as system clock  source */

    /* PLL_VCO = (HSE_VALUE or HSI_VALUE or CSI_VALUE/ PLLM) * PLLN
    SYSCLK = PLL_VCO / PLLR
    */
    pllsource = (RCC->PLLCKSELR & RCC_PLLCKSELR_PLLSRC);
 8001a4a:	4b88      	ldr	r3, [pc, #544]	; (8001c6c <HAL_RCC_GetSysClockFreq+0x2d4>)
 8001a4c:	6a9b      	ldr	r3, [r3, #40]	; 0x28
 8001a4e:	f003 0303 	and.w	r3, r3, #3
 8001a52:	617b      	str	r3, [r7, #20]
    pllm = ((RCC->PLLCKSELR & RCC_PLLCKSELR_DIVM1)>> 4)  ;
 8001a54:	4b85      	ldr	r3, [pc, #532]	; (8001c6c <HAL_RCC_GetSysClockFreq+0x2d4>)
 8001a56:	6a9b      	ldr	r3, [r3, #40]	; 0x28
 8001a58:	091b      	lsrs	r3, r3, #4
 8001a5a:	f003 033f 	and.w	r3, r3, #63	; 0x3f
 8001a5e:	613b      	str	r3, [r7, #16]
    pllfracen = ((RCC-> PLLCFGR & RCC_PLLCFGR_PLL1FRACEN)>>RCC_PLLCFGR_PLL1FRACEN_Pos);
 8001a60:	4b82      	ldr	r3, [pc, #520]	; (8001c6c <HAL_RCC_GetSysClockFreq+0x2d4>)
 8001a62:	6adb      	ldr	r3, [r3, #44]	; 0x2c
 8001a64:	f003 0301 	and.w	r3, r3, #1
 8001a68:	60fb      	str	r3, [r7, #12]
    fracn1 = (float_t)(uint32_t)(pllfracen* ((RCC->PLL1FRACR & RCC_PLL1FRACR_FRACN1)>> 3));
 8001a6a:	4b80      	ldr	r3, [pc, #512]	; (8001c6c <HAL_RCC_GetSysClockFreq+0x2d4>)
 8001a6c:	6b5b      	ldr	r3, [r3, #52]	; 0x34
 8001a6e:	08db      	lsrs	r3, r3, #3
 8001a70:	f3c3 030c 	ubfx	r3, r3, #0, #13
 8001a74:	68fa      	ldr	r2, [r7, #12]
 8001a76:	fb02 f303 	mul.w	r3, r2, r3
 8001a7a:	ee07 3a90 	vmov	s15, r3
 8001a7e:	eef8 7a67 	vcvt.f32.u32	s15, s15
 8001a82:	edc7 7a02 	vstr	s15, [r7, #8]

    if (pllm != 0U)
 8001a86:	693b      	ldr	r3, [r7, #16]
 8001a88:	2b00      	cmp	r3, #0
 8001a8a:	f000 80e1 	beq.w	8001c50 <HAL_RCC_GetSysClockFreq+0x2b8>
 8001a8e:	697b      	ldr	r3, [r7, #20]
 8001a90:	2b02      	cmp	r3, #2
 8001a92:	f000 8083 	beq.w	8001b9c <HAL_RCC_GetSysClockFreq+0x204>
 8001a96:	697b      	ldr	r3, [r7, #20]
 8001a98:	2b02      	cmp	r3, #2
 8001a9a:	f200 80a1 	bhi.w	8001be0 <HAL_RCC_GetSysClockFreq+0x248>
 8001a9e:	697b      	ldr	r3, [r7, #20]
 8001aa0:	2b00      	cmp	r3, #0
 8001aa2:	d003      	beq.n	8001aac <HAL_RCC_GetSysClockFreq+0x114>
 8001aa4:	697b      	ldr	r3, [r7, #20]
 8001aa6:	2b01      	cmp	r3, #1
 8001aa8:	d056      	beq.n	8001b58 <HAL_RCC_GetSysClockFreq+0x1c0>
 8001aaa:	e099      	b.n	8001be0 <HAL_RCC_GetSysClockFreq+0x248>
    {
      switch (pllsource)
      {
      case RCC_PLLSOURCE_HSI:  /* HSI used as PLL clock source */

       if (__HAL_RCC_GET_FLAG(RCC_FLAG_HSIDIV) != 0U)
 8001aac:	4b6f      	ldr	r3, [pc, #444]	; (8001c6c <HAL_RCC_GetSysClockFreq+0x2d4>)
 8001aae:	681b      	ldr	r3, [r3, #0]
 8001ab0:	f003 0320 	and.w	r3, r3, #32
 8001ab4:	2b00      	cmp	r3, #0
 8001ab6:	d02d      	beq.n	8001b14 <HAL_RCC_GetSysClockFreq+0x17c>
        {
          hsivalue= (HSI_VALUE >> (__HAL_RCC_GET_HSI_DIVIDER()>> 3));
 8001ab8:	4b6c      	ldr	r3, [pc, #432]	; (8001c6c <HAL_RCC_GetSysClockFreq+0x2d4>)
 8001aba:	681b      	ldr	r3, [r3, #0]
 8001abc:	08db      	lsrs	r3, r3, #3
 8001abe:	f003 0303 	and.w	r3, r3, #3
 8001ac2:	4a6b      	ldr	r2, [pc, #428]	; (8001c70 <HAL_RCC_GetSysClockFreq+0x2d8>)
 8001ac4:	fa22 f303 	lsr.w	r3, r2, r3
 8001ac8:	607b      	str	r3, [r7, #4]
          pllvco = ( (float_t)hsivalue / (float_t)pllm) * ((float_t)(uint32_t)(RCC->PLL1DIVR & RCC_PLL1DIVR_N1) + (fracn1/(float_t)0x2000) +(float_t)1 );
 8001aca:	687b      	ldr	r3, [r7, #4]
 8001acc:	ee07 3a90 	vmov	s15, r3
 8001ad0:	eef8 6a67 	vcvt.f32.u32	s13, s15
 8001ad4:	693b      	ldr	r3, [r7, #16]
 8001ad6:	ee07 3a90 	vmov	s15, r3
 8001ada:	eef8 7a67 	vcvt.f32.u32	s15, s15
 8001ade:	ee86 7aa7 	vdiv.f32	s14, s13, s15
 8001ae2:	4b62      	ldr	r3, [pc, #392]	; (8001c6c <HAL_RCC_GetSysClockFreq+0x2d4>)
 8001ae4:	6b1b      	ldr	r3, [r3, #48]	; 0x30
 8001ae6:	f3c3 0308 	ubfx	r3, r3, #0, #9
 8001aea:	ee07 3a90 	vmov	s15, r3
 8001aee:	eef8 6a67 	vcvt.f32.u32	s13, s15
 8001af2:	ed97 6a02 	vldr	s12, [r7, #8]
 8001af6:	eddf 5a61 	vldr	s11, [pc, #388]	; 8001c7c <HAL_RCC_GetSysClockFreq+0x2e4>
 8001afa:	eec6 7a25 	vdiv.f32	s15, s12, s11
 8001afe:	ee76 7aa7 	vadd.f32	s15, s13, s15
 8001b02:	eef7 6a00 	vmov.f32	s13, #112	; 0x3f800000  1.0
 8001b06:	ee77 7aa6 	vadd.f32	s15, s15, s13
 8001b0a:	ee67 7a27 	vmul.f32	s15, s14, s15
 8001b0e:	edc7 7a07 	vstr	s15, [r7, #28]
        }
        else
        {
          pllvco = ((float_t)HSI_VALUE / (float_t)pllm) * ((float_t)(uint32_t)(RCC->PLL1DIVR & RCC_PLL1DIVR_N1) + (fracn1/(float_t)0x2000) +(float_t)1 );
        }
        break;
 8001b12:	e087      	b.n	8001c24 <HAL_RCC_GetSysClockFreq+0x28c>
          pllvco = ((float_t)HSI_VALUE / (float_t)pllm) * ((float_t)(uint32_t)(RCC->PLL1DIVR & RCC_PLL1DIVR_N1) + (fracn1/(float_t)0x2000) +(float_t)1 );
 8001b14:	693b      	ldr	r3, [r7, #16]
 8001b16:	ee07 3a90 	vmov	s15, r3
 8001b1a:	eef8 7a67 	vcvt.f32.u32	s15, s15
 8001b1e:	eddf 6a58 	vldr	s13, [pc, #352]	; 8001c80 <HAL_RCC_GetSysClockFreq+0x2e8>
 8001b22:	ee86 7aa7 	vdiv.f32	s14, s13, s15
 8001b26:	4b51      	ldr	r3, [pc, #324]	; (8001c6c <HAL_RCC_GetSysClockFreq+0x2d4>)
 8001b28:	6b1b      	ldr	r3, [r3, #48]	; 0x30
 8001b2a:	f3c3 0308 	ubfx	r3, r3, #0, #9
 8001b2e:	ee07 3a90 	vmov	s15, r3
 8001b32:	eef8 6a67 	vcvt.f32.u32	s13, s15
 8001b36:	ed97 6a02 	vldr	s12, [r7, #8]
 8001b3a:	eddf 5a50 	vldr	s11, [pc, #320]	; 8001c7c <HAL_RCC_GetSysClockFreq+0x2e4>
 8001b3e:	eec6 7a25 	vdiv.f32	s15, s12, s11
 8001b42:	ee76 7aa7 	vadd.f32	s15, s13, s15
 8001b46:	eef7 6a00 	vmov.f32	s13, #112	; 0x3f800000  1.0
 8001b4a:	ee77 7aa6 	vadd.f32	s15, s15, s13
 8001b4e:	ee67 7a27 	vmul.f32	s15, s14, s15
 8001b52:	edc7 7a07 	vstr	s15, [r7, #28]
        break;
 8001b56:	e065      	b.n	8001c24 <HAL_RCC_GetSysClockFreq+0x28c>

      case RCC_PLLSOURCE_CSI:  /* CSI used as PLL clock source */
        pllvco = ((float_t)CSI_VALUE / (float_t)pllm) * ((float_t)(uint32_t)(RCC->PLL1DIVR & RCC_PLL1DIVR_N1) + (fracn1/(float_t)0x2000) +(float_t)1 );
 8001b58:	693b      	ldr	r3, [r7, #16]
 8001b5a:	ee07 3a90 	vmov	s15, r3
 8001b5e:	eef8 7a67 	vcvt.f32.u32	s15, s15
 8001b62:	eddf 6a48 	vldr	s13, [pc, #288]	; 8001c84 <HAL_RCC_GetSysClockFreq+0x2ec>
 8001b66:	ee86 7aa7 	vdiv.f32	s14, s13, s15
 8001b6a:	4b40      	ldr	r3, [pc, #256]	; (8001c6c <HAL_RCC_GetSysClockFreq+0x2d4>)
 8001b6c:	6b1b      	ldr	r3, [r3, #48]	; 0x30
 8001b6e:	f3c3 0308 	ubfx	r3, r3, #0, #9
 8001b72:	ee07 3a90 	vmov	s15, r3
 8001b76:	eef8 6a67 	vcvt.f32.u32	s13, s15
 8001b7a:	ed97 6a02 	vldr	s12, [r7, #8]
 8001b7e:	eddf 5a3f 	vldr	s11, [pc, #252]	; 8001c7c <HAL_RCC_GetSysClockFreq+0x2e4>
 8001b82:	eec6 7a25 	vdiv.f32	s15, s12, s11
 8001b86:	ee76 7aa7 	vadd.f32	s15, s13, s15
 8001b8a:	eef7 6a00 	vmov.f32	s13, #112	; 0x3f800000  1.0
 8001b8e:	ee77 7aa6 	vadd.f32	s15, s15, s13
 8001b92:	ee67 7a27 	vmul.f32	s15, s14, s15
 8001b96:	edc7 7a07 	vstr	s15, [r7, #28]
        break;
 8001b9a:	e043      	b.n	8001c24 <HAL_RCC_GetSysClockFreq+0x28c>

      case RCC_PLLSOURCE_HSE:  /* HSE used as PLL clock source */
        pllvco = ((float_t)HSE_VALUE / (float_t)pllm) * ((float_t)(uint32_t)(RCC->PLL1DIVR & RCC_PLL1DIVR_N1) + (fracn1/(float_t)0x2000) +(float_t)1 );
 8001b9c:	693b      	ldr	r3, [r7, #16]
 8001b9e:	ee07 3a90 	vmov	s15, r3
 8001ba2:	eef8 7a67 	vcvt.f32.u32	s15, s15
 8001ba6:	eddf 6a38 	vldr	s13, [pc, #224]	; 8001c88 <HAL_RCC_GetSysClockFreq+0x2f0>
 8001baa:	ee86 7aa7 	vdiv.f32	s14, s13, s15
 8001bae:	4b2f      	ldr	r3, [pc, #188]	; (8001c6c <HAL_RCC_GetSysClockFreq+0x2d4>)
 8001bb0:	6b1b      	ldr	r3, [r3, #48]	; 0x30
 8001bb2:	f3c3 0308 	ubfx	r3, r3, #0, #9
 8001bb6:	ee07 3a90 	vmov	s15, r3
 8001bba:	eef8 6a67 	vcvt.f32.u32	s13, s15
 8001bbe:	ed97 6a02 	vldr	s12, [r7, #8]
 8001bc2:	eddf 5a2e 	vldr	s11, [pc, #184]	; 8001c7c <HAL_RCC_GetSysClockFreq+0x2e4>
 8001bc6:	eec6 7a25 	vdiv.f32	s15, s12, s11
 8001bca:	ee76 7aa7 	vadd.f32	s15, s13, s15
 8001bce:	eef7 6a00 	vmov.f32	s13, #112	; 0x3f800000  1.0
 8001bd2:	ee77 7aa6 	vadd.f32	s15, s15, s13
 8001bd6:	ee67 7a27 	vmul.f32	s15, s14, s15
 8001bda:	edc7 7a07 	vstr	s15, [r7, #28]
        break;
 8001bde:	e021      	b.n	8001c24 <HAL_RCC_GetSysClockFreq+0x28c>

      default:
        pllvco = ((float_t)CSI_VALUE / (float_t)pllm) * ((float_t)(uint32_t)(RCC->PLL1DIVR & RCC_PLL1DIVR_N1) + (fracn1/(float_t)0x2000) +(float_t)1 );
 8001be0:	693b      	ldr	r3, [r7, #16]
 8001be2:	ee07 3a90 	vmov	s15, r3
 8001be6:	eef8 7a67 	vcvt.f32.u32	s15, s15
 8001bea:	eddf 6a26 	vldr	s13, [pc, #152]	; 8001c84 <HAL_RCC_GetSysClockFreq+0x2ec>
 8001bee:	ee86 7aa7 	vdiv.f32	s14, s13, s15
 8001bf2:	4b1e      	ldr	r3, [pc, #120]	; (8001c6c <HAL_RCC_GetSysClockFreq+0x2d4>)
 8001bf4:	6b1b      	ldr	r3, [r3, #48]	; 0x30
 8001bf6:	f3c3 0308 	ubfx	r3, r3, #0, #9
 8001bfa:	ee07 3a90 	vmov	s15, r3
 8001bfe:	eef8 6a67 	vcvt.f32.u32	s13, s15
 8001c02:	ed97 6a02 	vldr	s12, [r7, #8]
 8001c06:	eddf 5a1d 	vldr	s11, [pc, #116]	; 8001c7c <HAL_RCC_GetSysClockFreq+0x2e4>
 8001c0a:	eec6 7a25 	vdiv.f32	s15, s12, s11
 8001c0e:	ee76 7aa7 	vadd.f32	s15, s13, s15
 8001c12:	eef7 6a00 	vmov.f32	s13, #112	; 0x3f800000  1.0
 8001c16:	ee77 7aa6 	vadd.f32	s15, s15, s13
 8001c1a:	ee67 7a27 	vmul.f32	s15, s14, s15
 8001c1e:	edc7 7a07 	vstr	s15, [r7, #28]
        break;
 8001c22:	bf00      	nop
      }
      pllp = (((RCC->PLL1DIVR & RCC_PLL1DIVR_P1) >>9) + 1U ) ;
 8001c24:	4b11      	ldr	r3, [pc, #68]	; (8001c6c <HAL_RCC_GetSysClockFreq+0x2d4>)
 8001c26:	6b1b      	ldr	r3, [r3, #48]	; 0x30
 8001c28:	0a5b      	lsrs	r3, r3, #9
 8001c2a:	f003 037f 	and.w	r3, r3, #127	; 0x7f
 8001c2e:	3301      	adds	r3, #1
 8001c30:	603b      	str	r3, [r7, #0]
      sysclockfreq =  (uint32_t)(float_t)(pllvco/(float_t)pllp);
 8001c32:	683b      	ldr	r3, [r7, #0]
 8001c34:	ee07 3a90 	vmov	s15, r3
 8001c38:	eeb8 7a67 	vcvt.f32.u32	s14, s15
 8001c3c:	edd7 6a07 	vldr	s13, [r7, #28]
 8001c40:	eec6 7a87 	vdiv.f32	s15, s13, s14
 8001c44:	eefc 7ae7 	vcvt.u32.f32	s15, s15
 8001c48:	ee17 3a90 	vmov	r3, s15
 8001c4c:	61bb      	str	r3, [r7, #24]
    }
    else
    {
      sysclockfreq = 0U;
    }
    break;
 8001c4e:	e005      	b.n	8001c5c <HAL_RCC_GetSysClockFreq+0x2c4>
      sysclockfreq = 0U;
 8001c50:	2300      	movs	r3, #0
 8001c52:	61bb      	str	r3, [r7, #24]
    break;
 8001c54:	e002      	b.n	8001c5c <HAL_RCC_GetSysClockFreq+0x2c4>

  default:
    sysclockfreq = CSI_VALUE;
 8001c56:	4b07      	ldr	r3, [pc, #28]	; (8001c74 <HAL_RCC_GetSysClockFreq+0x2dc>)
 8001c58:	61bb      	str	r3, [r7, #24]
    break;
 8001c5a:	bf00      	nop
  }

  return sysclockfreq;
 8001c5c:	69bb      	ldr	r3, [r7, #24]
}
 8001c5e:	4618      	mov	r0, r3
 8001c60:	3724      	adds	r7, #36	; 0x24
 8001c62:	46bd      	mov	sp, r7
 8001c64:	f85d 7b04 	ldr.w	r7, [sp], #4
 8001c68:	4770      	bx	lr
 8001c6a:	bf00      	nop
 8001c6c:	58024400 	.word	0x58024400
 8001c70:	03d09000 	.word	0x03d09000
 8001c74:	003d0900 	.word	0x003d0900
 8001c78:	007a1200 	.word	0x007a1200
 8001c7c:	46000000 	.word	0x46000000
 8001c80:	4c742400 	.word	0x4c742400
 8001c84:	4a742400 	.word	0x4a742400
 8001c88:	4af42400 	.word	0x4af42400

08001c8c <HAL_RCC_GetHCLKFreq>:
  * @note   The SystemD2Clock CMSIS variable is used to store System domain2 Clock Frequency
  *         and updated within this function
  * @retval HCLK frequency
  */
uint32_t HAL_RCC_GetHCLKFreq(void)
{
 8001c8c:	b580      	push	{r7, lr}
 8001c8e:	b082      	sub	sp, #8
 8001c90:	af00      	add	r7, sp, #0
uint32_t common_system_clock;

#if defined(RCC_D1CFGR_D1CPRE)
  common_system_clock = HAL_RCC_GetSysClockFreq() >> (D1CorePrescTable[(RCC->D1CFGR & RCC_D1CFGR_D1CPRE)>> RCC_D1CFGR_D1CPRE_Pos] & 0x1FU);
 8001c92:	f7ff fe81 	bl	8001998 <HAL_RCC_GetSysClockFreq>
 8001c96:	4602      	mov	r2, r0
 8001c98:	4b10      	ldr	r3, [pc, #64]	; (8001cdc <HAL_RCC_GetHCLKFreq+0x50>)
 8001c9a:	699b      	ldr	r3, [r3, #24]
 8001c9c:	0a1b      	lsrs	r3, r3, #8
 8001c9e:	f003 030f 	and.w	r3, r3, #15
 8001ca2:	490f      	ldr	r1, [pc, #60]	; (8001ce0 <HAL_RCC_GetHCLKFreq+0x54>)
 8001ca4:	5ccb      	ldrb	r3, [r1, r3]
 8001ca6:	f003 031f 	and.w	r3, r3, #31
 8001caa:	fa22 f303 	lsr.w	r3, r2, r3
 8001cae:	607b      	str	r3, [r7, #4]
#else
  common_system_clock = HAL_RCC_GetSysClockFreq() >> (D1CorePrescTable[(RCC->CDCFGR1 & RCC_CDCFGR1_CDCPRE)>> RCC_CDCFGR1_CDCPRE_Pos] & 0x1FU);
#endif

#if defined(RCC_D1CFGR_HPRE)
  SystemD2Clock = (common_system_clock >> ((D1CorePrescTable[(RCC->D1CFGR & RCC_D1CFGR_HPRE)>> RCC_D1CFGR_HPRE_Pos]) & 0x1FU));
 8001cb0:	4b0a      	ldr	r3, [pc, #40]	; (8001cdc <HAL_RCC_GetHCLKFreq+0x50>)
 8001cb2:	699b      	ldr	r3, [r3, #24]
 8001cb4:	f003 030f 	and.w	r3, r3, #15
 8001cb8:	4a09      	ldr	r2, [pc, #36]	; (8001ce0 <HAL_RCC_GetHCLKFreq+0x54>)
 8001cba:	5cd3      	ldrb	r3, [r2, r3]
 8001cbc:	f003 031f 	and.w	r3, r3, #31
 8001cc0:	687a      	ldr	r2, [r7, #4]
 8001cc2:	fa22 f303 	lsr.w	r3, r2, r3
 8001cc6:	4a07      	ldr	r2, [pc, #28]	; (8001ce4 <HAL_RCC_GetHCLKFreq+0x58>)
 8001cc8:	6013      	str	r3, [r2, #0]
#endif

#if defined(DUAL_CORE) && defined(CORE_CM4)
  SystemCoreClock = SystemD2Clock;
#else
  SystemCoreClock = common_system_clock;
 8001cca:	4a07      	ldr	r2, [pc, #28]	; (8001ce8 <HAL_RCC_GetHCLKFreq+0x5c>)
 8001ccc:	687b      	ldr	r3, [r7, #4]
 8001cce:	6013      	str	r3, [r2, #0]
#endif /* DUAL_CORE && CORE_CM4 */

  return SystemD2Clock;
 8001cd0:	4b04      	ldr	r3, [pc, #16]	; (8001ce4 <HAL_RCC_GetHCLKFreq+0x58>)
 8001cd2:	681b      	ldr	r3, [r3, #0]
}
 8001cd4:	4618      	mov	r0, r3
 8001cd6:	3708      	adds	r7, #8
 8001cd8:	46bd      	mov	sp, r7
 8001cda:	bd80      	pop	{r7, pc}
 8001cdc:	58024400 	.word	0x58024400
 8001ce0:	080023c0 	.word	0x080023c0
 8001ce4:	24000004 	.word	0x24000004
 8001ce8:	24000000 	.word	0x24000000

08001cec <HAL_RCC_GetPCLK1Freq>:
  * @note   Each time PCLK1 changes, this function must be called to update the
  *         right PCLK1 value. Otherwise, any configuration based on this function will be incorrect.
  * @retval PCLK1 frequency
  */
uint32_t HAL_RCC_GetPCLK1Freq(void)
{
 8001cec:	b580      	push	{r7, lr}
 8001cee:	af00      	add	r7, sp, #0
#if defined (RCC_D2CFGR_D2PPRE1)
  /* Get HCLK source and Compute PCLK1 frequency ---------------------------*/
  return (HAL_RCC_GetHCLKFreq() >> ((D1CorePrescTable[(RCC->D2CFGR & RCC_D2CFGR_D2PPRE1)>> RCC_D2CFGR_D2PPRE1_Pos]) & 0x1FU));
 8001cf0:	f7ff ffcc 	bl	8001c8c <HAL_RCC_GetHCLKFreq>
 8001cf4:	4602      	mov	r2, r0
 8001cf6:	4b06      	ldr	r3, [pc, #24]	; (8001d10 <HAL_RCC_GetPCLK1Freq+0x24>)
 8001cf8:	69db      	ldr	r3, [r3, #28]
 8001cfa:	091b      	lsrs	r3, r3, #4
 8001cfc:	f003 0307 	and.w	r3, r3, #7
 8001d00:	4904      	ldr	r1, [pc, #16]	; (8001d14 <HAL_RCC_GetPCLK1Freq+0x28>)
 8001d02:	5ccb      	ldrb	r3, [r1, r3]
 8001d04:	f003 031f 	and.w	r3, r3, #31
 8001d08:	fa22 f303 	lsr.w	r3, r2, r3
#else
 /* Get HCLK source and Compute PCLK1 frequency ---------------------------*/
  return (HAL_RCC_GetHCLKFreq() >> ((D1CorePrescTable[(RCC->CDCFGR2 & RCC_CDCFGR2_CDPPRE1)>> RCC_CDCFGR2_CDPPRE1_Pos]) & 0x1FU));
#endif
}
 8001d0c:	4618      	mov	r0, r3
 8001d0e:	bd80      	pop	{r7, pc}
 8001d10:	58024400 	.word	0x58024400
 8001d14:	080023c0 	.word	0x080023c0

08001d18 <HAL_RCC_GetClockConfig>:
  * will be configured.
  * @param  pFLatency: Pointer on the Flash Latency.
  * @retval None
  */
void HAL_RCC_GetClockConfig(RCC_ClkInitTypeDef  *RCC_ClkInitStruct, uint32_t *pFLatency)
{
 8001d18:	b480      	push	{r7}
 8001d1a:	b083      	sub	sp, #12
 8001d1c:	af00      	add	r7, sp, #0
 8001d1e:	6078      	str	r0, [r7, #4]
 8001d20:	6039      	str	r1, [r7, #0]
  /* Set all possible values for the Clock type parameter --------------------*/
  RCC_ClkInitStruct->ClockType = RCC_CLOCKTYPE_SYSCLK | RCC_CLOCKTYPE_HCLK | RCC_CLOCKTYPE_D1PCLK1 | RCC_CLOCKTYPE_PCLK1 |
 8001d22:	687b      	ldr	r3, [r7, #4]
 8001d24:	223f      	movs	r2, #63	; 0x3f
 8001d26:	601a      	str	r2, [r3, #0]
                                 RCC_CLOCKTYPE_PCLK2 |  RCC_CLOCKTYPE_D3PCLK1  ;

  /* Get the SYSCLK configuration --------------------------------------------*/
  RCC_ClkInitStruct->SYSCLKSource = (uint32_t)(RCC->CFGR & RCC_CFGR_SW);
 8001d28:	4b1a      	ldr	r3, [pc, #104]	; (8001d94 <HAL_RCC_GetClockConfig+0x7c>)
 8001d2a:	691b      	ldr	r3, [r3, #16]
 8001d2c:	f003 0207 	and.w	r2, r3, #7
 8001d30:	687b      	ldr	r3, [r7, #4]
 8001d32:	605a      	str	r2, [r3, #4]

#if defined(RCC_D1CFGR_D1CPRE)
  /* Get the SYSCLK configuration ----------------------------------------------*/
  RCC_ClkInitStruct->SYSCLKDivider = (uint32_t)(RCC->D1CFGR & RCC_D1CFGR_D1CPRE);
 8001d34:	4b17      	ldr	r3, [pc, #92]	; (8001d94 <HAL_RCC_GetClockConfig+0x7c>)
 8001d36:	699b      	ldr	r3, [r3, #24]
 8001d38:	f403 6270 	and.w	r2, r3, #3840	; 0xf00
 8001d3c:	687b      	ldr	r3, [r7, #4]
 8001d3e:	609a      	str	r2, [r3, #8]

  /* Get the D1HCLK configuration ----------------------------------------------*/
  RCC_ClkInitStruct->AHBCLKDivider = (uint32_t)(RCC->D1CFGR & RCC_D1CFGR_HPRE);
 8001d40:	4b14      	ldr	r3, [pc, #80]	; (8001d94 <HAL_RCC_GetClockConfig+0x7c>)
 8001d42:	699b      	ldr	r3, [r3, #24]
 8001d44:	f003 020f 	and.w	r2, r3, #15
 8001d48:	687b      	ldr	r3, [r7, #4]
 8001d4a:	60da      	str	r2, [r3, #12]

  /* Get the APB3 configuration ----------------------------------------------*/
  RCC_ClkInitStruct->APB3CLKDivider = (uint32_t)(RCC->D1CFGR & RCC_D1CFGR_D1PPRE);
 8001d4c:	4b11      	ldr	r3, [pc, #68]	; (8001d94 <HAL_RCC_GetClockConfig+0x7c>)
 8001d4e:	699b      	ldr	r3, [r3, #24]
 8001d50:	f003 0270 	and.w	r2, r3, #112	; 0x70
 8001d54:	687b      	ldr	r3, [r7, #4]
 8001d56:	611a      	str	r2, [r3, #16]

  /* Get the APB1 configuration ----------------------------------------------*/
  RCC_ClkInitStruct->APB1CLKDivider = (uint32_t)(RCC->D2CFGR & RCC_D2CFGR_D2PPRE1);
 8001d58:	4b0e      	ldr	r3, [pc, #56]	; (8001d94 <HAL_RCC_GetClockConfig+0x7c>)
 8001d5a:	69db      	ldr	r3, [r3, #28]
 8001d5c:	f003 0270 	and.w	r2, r3, #112	; 0x70
 8001d60:	687b      	ldr	r3, [r7, #4]
 8001d62:	615a      	str	r2, [r3, #20]

  /* Get the APB2 configuration ----------------------------------------------*/
  RCC_ClkInitStruct->APB2CLKDivider = (uint32_t)(RCC->D2CFGR & RCC_D2CFGR_D2PPRE2);
 8001d64:	4b0b      	ldr	r3, [pc, #44]	; (8001d94 <HAL_RCC_GetClockConfig+0x7c>)
 8001d66:	69db      	ldr	r3, [r3, #28]
 8001d68:	f403 62e0 	and.w	r2, r3, #1792	; 0x700
 8001d6c:	687b      	ldr	r3, [r7, #4]
 8001d6e:	619a      	str	r2, [r3, #24]

  /* Get the APB4 configuration ----------------------------------------------*/
  RCC_ClkInitStruct->APB4CLKDivider = (uint32_t)(RCC->D3CFGR & RCC_D3CFGR_D3PPRE);
 8001d70:	4b08      	ldr	r3, [pc, #32]	; (8001d94 <HAL_RCC_GetClockConfig+0x7c>)
 8001d72:	6a1b      	ldr	r3, [r3, #32]
 8001d74:	f003 0270 	and.w	r2, r3, #112	; 0x70
 8001d78:	687b      	ldr	r3, [r7, #4]
 8001d7a:	61da      	str	r2, [r3, #28]
  /* Get the APB4 configuration ----------------------------------------------*/
  RCC_ClkInitStruct->APB4CLKDivider = (uint32_t)(RCC->SRDCFGR & RCC_SRDCFGR_SRDPPRE);
#endif

  /* Get the Flash Wait State (Latency) configuration ------------------------*/
  *pFLatency = (uint32_t)(FLASH->ACR & FLASH_ACR_LATENCY);
 8001d7c:	4b06      	ldr	r3, [pc, #24]	; (8001d98 <HAL_RCC_GetClockConfig+0x80>)
 8001d7e:	681b      	ldr	r3, [r3, #0]
 8001d80:	f003 020f 	and.w	r2, r3, #15
 8001d84:	683b      	ldr	r3, [r7, #0]
 8001d86:	601a      	str	r2, [r3, #0]
}
 8001d88:	bf00      	nop
 8001d8a:	370c      	adds	r7, #12
 8001d8c:	46bd      	mov	sp, r7
 8001d8e:	f85d 7b04 	ldr.w	r7, [sp], #4
 8001d92:	4770      	bx	lr
 8001d94:	58024400 	.word	0x58024400
 8001d98:	52002000 	.word	0x52002000

08001d9c <HAL_TIM_Base_Init>:
  *         Ex: call @ref HAL_TIM_Base_DeInit() before HAL_TIM_Base_Init()
  * @param  htim TIM Base handle
  * @retval HAL status
  */
HAL_StatusTypeDef HAL_TIM_Base_Init(TIM_HandleTypeDef *htim)
{
 8001d9c:	b580      	push	{r7, lr}
 8001d9e:	b082      	sub	sp, #8
 8001da0:	af00      	add	r7, sp, #0
 8001da2:	6078      	str	r0, [r7, #4]
  /* Check the TIM handle allocation */
  if (htim == NULL)
 8001da4:	687b      	ldr	r3, [r7, #4]
 8001da6:	2b00      	cmp	r3, #0
 8001da8:	d101      	bne.n	8001dae <HAL_TIM_Base_Init+0x12>
  {
    return HAL_ERROR;
 8001daa:	2301      	movs	r3, #1
 8001dac:	e049      	b.n	8001e42 <HAL_TIM_Base_Init+0xa6>
  assert_param(IS_TIM_INSTANCE(htim->Instance));
  assert_param(IS_TIM_COUNTER_MODE(htim->Init.CounterMode));
  assert_param(IS_TIM_CLOCKDIVISION_DIV(htim->Init.ClockDivision));
  assert_param(IS_TIM_AUTORELOAD_PRELOAD(htim->Init.AutoReloadPreload));

  if (htim->State == HAL_TIM_STATE_RESET)
 8001dae:	687b      	ldr	r3, [r7, #4]
 8001db0:	f893 303d 	ldrb.w	r3, [r3, #61]	; 0x3d
 8001db4:	b2db      	uxtb	r3, r3
 8001db6:	2b00      	cmp	r3, #0
 8001db8:	d106      	bne.n	8001dc8 <HAL_TIM_Base_Init+0x2c>
  {
    /* Allocate lock resource and initialize it */
    htim->Lock = HAL_UNLOCKED;
 8001dba:	687b      	ldr	r3, [r7, #4]
 8001dbc:	2200      	movs	r2, #0
 8001dbe:	f883 203c 	strb.w	r2, [r3, #60]	; 0x3c
    }
    /* Init the low level hardware : GPIO, CLOCK, NVIC */
    htim->Base_MspInitCallback(htim);
#else
    /* Init the low level hardware : GPIO, CLOCK, NVIC */
    HAL_TIM_Base_MspInit(htim);
 8001dc2:	6878      	ldr	r0, [r7, #4]
 8001dc4:	f000 f841 	bl	8001e4a <HAL_TIM_Base_MspInit>
#endif /* USE_HAL_TIM_REGISTER_CALLBACKS */
  }

  /* Set the TIM state */
  htim->State = HAL_TIM_STATE_BUSY;
 8001dc8:	687b      	ldr	r3, [r7, #4]
 8001dca:	2202      	movs	r2, #2
 8001dcc:	f883 203d 	strb.w	r2, [r3, #61]	; 0x3d

  /* Set the Time Base configuration */
  TIM_Base_SetConfig(htim->Instance, &htim->Init);
 8001dd0:	687b      	ldr	r3, [r7, #4]
 8001dd2:	681a      	ldr	r2, [r3, #0]
 8001dd4:	687b      	ldr	r3, [r7, #4]
 8001dd6:	3304      	adds	r3, #4
 8001dd8:	4619      	mov	r1, r3
 8001dda:	4610      	mov	r0, r2
 8001ddc:	f000 fa00 	bl	80021e0 <TIM_Base_SetConfig>

  /* Initialize the DMA burst operation state */
  htim->DMABurstState = HAL_DMA_BURST_STATE_READY;
 8001de0:	687b      	ldr	r3, [r7, #4]
 8001de2:	2201      	movs	r2, #1
 8001de4:	f883 2048 	strb.w	r2, [r3, #72]	; 0x48

  /* Initialize the TIM channels state */
  TIM_CHANNEL_STATE_SET_ALL(htim, HAL_TIM_CHANNEL_STATE_READY);
 8001de8:	687b      	ldr	r3, [r7, #4]
 8001dea:	2201      	movs	r2, #1
 8001dec:	f883 203e 	strb.w	r2, [r3, #62]	; 0x3e
 8001df0:	687b      	ldr	r3, [r7, #4]
 8001df2:	2201      	movs	r2, #1
 8001df4:	f883 203f 	strb.w	r2, [r3, #63]	; 0x3f
 8001df8:	687b      	ldr	r3, [r7, #4]
 8001dfa:	2201      	movs	r2, #1
 8001dfc:	f883 2040 	strb.w	r2, [r3, #64]	; 0x40
 8001e00:	687b      	ldr	r3, [r7, #4]
 8001e02:	2201      	movs	r2, #1
 8001e04:	f883 2041 	strb.w	r2, [r3, #65]	; 0x41
 8001e08:	687b      	ldr	r3, [r7, #4]
 8001e0a:	2201      	movs	r2, #1
 8001e0c:	f883 2042 	strb.w	r2, [r3, #66]	; 0x42
 8001e10:	687b      	ldr	r3, [r7, #4]
 8001e12:	2201      	movs	r2, #1
 8001e14:	f883 2043 	strb.w	r2, [r3, #67]	; 0x43
  TIM_CHANNEL_N_STATE_SET_ALL(htim, HAL_TIM_CHANNEL_STATE_READY);
 8001e18:	687b      	ldr	r3, [r7, #4]
 8001e1a:	2201      	movs	r2, #1
 8001e1c:	f883 2044 	strb.w	r2, [r3, #68]	; 0x44
 8001e20:	687b      	ldr	r3, [r7, #4]
 8001e22:	2201      	movs	r2, #1
 8001e24:	f883 2045 	strb.w	r2, [r3, #69]	; 0x45
 8001e28:	687b      	ldr	r3, [r7, #4]
 8001e2a:	2201      	movs	r2, #1
 8001e2c:	f883 2046 	strb.w	r2, [r3, #70]	; 0x46
 8001e30:	687b      	ldr	r3, [r7, #4]
 8001e32:	2201      	movs	r2, #1
 8001e34:	f883 2047 	strb.w	r2, [r3, #71]	; 0x47

  /* Initialize the TIM state*/
  htim->State = HAL_TIM_STATE_READY;
 8001e38:	687b      	ldr	r3, [r7, #4]
 8001e3a:	2201      	movs	r2, #1
 8001e3c:	f883 203d 	strb.w	r2, [r3, #61]	; 0x3d

  return HAL_OK;
 8001e40:	2300      	movs	r3, #0
}
 8001e42:	4618      	mov	r0, r3
 8001e44:	3708      	adds	r7, #8
 8001e46:	46bd      	mov	sp, r7
 8001e48:	bd80      	pop	{r7, pc}

08001e4a <HAL_TIM_Base_MspInit>:
  * @brief  Initializes the TIM Base MSP.
  * @param  htim TIM Base handle
  * @retval None
  */
__weak void HAL_TIM_Base_MspInit(TIM_HandleTypeDef *htim)
{
 8001e4a:	b480      	push	{r7}
 8001e4c:	b083      	sub	sp, #12
 8001e4e:	af00      	add	r7, sp, #0
 8001e50:	6078      	str	r0, [r7, #4]
  UNUSED(htim);

  /* NOTE : This function should not be modified, when the callback is needed,
