
FreeRTOS_AMP_Test_CM4.elf:     file format elf32-littlearm

Sections:
Idx Name          Size      VMA       LMA       File off  Algn
  0 .isr_vector   00000298  08100000  08100000  00010000  2**0
                  CONTENTS, ALLOC, LOAD, READONLY, DATA
  1 .text         00001648  08100298  08100298  00010298  2**2
                  CONTENTS, ALLOC, LOAD, READONLY, CODE
  2 .rodata       00000010  081018e0  081018e0  000118e0  2**2
                  CONTENTS, ALLOC, LOAD, READONLY, DATA
  3 .init_array   00000004  081018f0  081018f0  000118f0  2**2
                  CONTENTS, ALLOC, LOAD, DATA
  4 .fini_array   00000004  081018f4  081018f4  000118f4  2**2
                  CONTENTS, ALLOC, LOAD, DATA
  5 .data         00000010  10000000  081018f8  00020000  2**2
                  CONTENTS, ALLOC, LOAD, DATA
  6 .bss          0000006c  10000010  08101908  00020010  2**2
                  ALLOC
  7 ._user_heap_stack 00000604  1000007c  08101908  0002007c  2**0
                  ALLOC
  8 .openamp_section 00000000  38000000  38000000  00020010  2**0
                  CONTENTS
  9 .ARM.attributes 00000030  00000000  00000000  00020010  2**0
                  CONTENTS, READONLY
 10 .debug_info   0000dfcd  00000000  00000000  00020040  2**0
                  CONTENTS, READONLY, DEBUGGING, OCTETS
 11 .debug_abbrev 00001c2e  00000000  00000000  0002e00d  2**0
                  CONTENTS, READONLY, DEBUGGING, OCTETS
 12 .debug_aranges 00000c90  00000000  00000000  0002fc40  2**3
                  CONTENTS, READONLY, DEBUGGING, OCTETS
 13 .debug_ranges 00000bb8  00000000  00000000  000308d0  2**3
                  CONTENTS, READONLY, DEBUGGING, OCTETS
 14 .debug_macro  00038c62  00000000  00000000  00031488  2**0
                  CONTENTS, READONLY, DEBUGGING, OCTETS
 15 .debug_line   0000e1b9  00000000  00000000  0006a0ea  2**0
                  CONTENTS, READONLY, DEBUGGING, OCTETS
 16 .debug_str    0017b322  00000000  00000000  000782a3  2**0
                  CONTENTS, READONLY, DEBUGGING, OCTETS
 17 .comment      00000050  00000000  00000000  001f35c5  2**0
                  CONTENTS, READONLY
 18 .debug_frame  000033d8  00000000  00000000  001f3618  2**2
                  CONTENTS, READONLY, DEBUGGING, OCTETS

Disassembly of section .text:

08100298 <__do_global_dtors_aux>:
 8100298:	b510      	push	{r4, lr}
 810029a:	4c05      	ldr	r4, [pc, #20]	; (81002b0 <__do_global_dtors_aux+0x18>)
 810029c:	7823      	ldrb	r3, [r4, #0]
 810029e:	b933      	cbnz	r3, 81002ae <__do_global_dtors_aux+0x16>
 81002a0:	4b04      	ldr	r3, [pc, #16]	; (81002b4 <__do_global_dtors_aux+0x1c>)
 81002a2:	b113      	cbz	r3, 81002aa <__do_global_dtors_aux+0x12>
 81002a4:	4804      	ldr	r0, [pc, #16]	; (81002b8 <__do_global_dtors_aux+0x20>)
 81002a6:	f3af 8000 	nop.w
 81002aa:	2301      	movs	r3, #1
 81002ac:	7023      	strb	r3, [r4, #0]
 81002ae:	bd10      	pop	{r4, pc}
 81002b0:	10000010 	.word	0x10000010
 81002b4:	00000000 	.word	0x00000000
 81002b8:	081018c8 	.word	0x081018c8

081002bc <frame_dummy>:
 81002bc:	b508      	push	{r3, lr}
 81002be:	4b03      	ldr	r3, [pc, #12]	; (81002cc <frame_dummy+0x10>)
 81002c0:	b11b      	cbz	r3, 81002ca <frame_dummy+0xe>
 81002c2:	4903      	ldr	r1, [pc, #12]	; (81002d0 <frame_dummy+0x14>)
 81002c4:	4803      	ldr	r0, [pc, #12]	; (81002d4 <frame_dummy+0x18>)
 81002c6:	f3af 8000 	nop.w
 81002ca:	bd08      	pop	{r3, pc}
 81002cc:	00000000 	.word	0x00000000
 81002d0:	10000014 	.word	0x10000014
 81002d4:	081018c8 	.word	0x081018c8

081002d8 <SystemInit>:
  *         configuration.
  * @param  None
  * @retval None
  */
void SystemInit (void)
{
 81002d8:	b480      	push	{r7}
 81002da:	af00      	add	r7, sp, #0
  /* FPU settings ------------------------------------------------------------*/
  #if (__FPU_PRESENT == 1) && (__FPU_USED == 1)
    SCB->CPACR |= ((3UL << (10*2))|(3UL << (11*2)));  /* set CP10 and CP11 Full Access */
 81002dc:	4b09      	ldr	r3, [pc, #36]	; (8100304 <SystemInit+0x2c>)
 81002de:	f8d3 3088 	ldr.w	r3, [r3, #136]	; 0x88
 81002e2:	4a08      	ldr	r2, [pc, #32]	; (8100304 <SystemInit+0x2c>)
 81002e4:	f443 0370 	orr.w	r3, r3, #15728640	; 0xf00000
 81002e8:	f8c2 3088 	str.w	r3, [r2, #136]	; 0x88
  #endif

    /*SEVONPEND enabled so that an interrupt coming from the CPU(n) interrupt signal is
     detectable by the CPU after a WFI/WFE instruction.*/
 SCB->SCR |= SCB_SCR_SEVONPEND_Msk;
 81002ec:	4b05      	ldr	r3, [pc, #20]	; (8100304 <SystemInit+0x2c>)
 81002ee:	691b      	ldr	r3, [r3, #16]
 81002f0:	4a04      	ldr	r2, [pc, #16]	; (8100304 <SystemInit+0x2c>)
 81002f2:	f043 0310 	orr.w	r3, r3, #16
 81002f6:	6113      	str	r3, [r2, #16]
#endif /* USER_VECT_TAB_ADDRESS */

#else
#error Please #define CORE_CM4 or CORE_CM7
#endif /* CORE_CM4 */
}
 81002f8:	bf00      	nop
 81002fa:	46bd      	mov	sp, r7
 81002fc:	f85d 7b04 	ldr.w	r7, [sp], #4
 8100300:	4770      	bx	lr
 8100302:	bf00      	nop
 8100304:	e000ed00 	.word	0xe000ed00

08100308 <main>:
/**
  * @brief  The application entry point.
  * @retval int
  */
int main(void)
{
 8100308:	b580      	push	{r7, lr}
 810030a:	b082      	sub	sp, #8
 810030c:	af00      	add	r7, sp, #0

  /* USER CODE END 1 */

/* USER CODE BEGIN Boot_Mode_Sequence_1 */
  /*HW semaphore Clock enable*/
  __HAL_RCC_HSEM_CLK_ENABLE();
 810030e:	4b1b      	ldr	r3, [pc, #108]	; (810037c <main+0x74>)
 8100310:	f8d3 30e0 	ldr.w	r3, [r3, #224]	; 0xe0
 8100314:	4a19      	ldr	r2, [pc, #100]	; (810037c <main+0x74>)
 8100316:	f043 7300 	orr.w	r3, r3, #33554432	; 0x2000000
 810031a:	f8c2 30e0 	str.w	r3, [r2, #224]	; 0xe0
 810031e:	4b17      	ldr	r3, [pc, #92]	; (810037c <main+0x74>)
 8100320:	f8d3 30e0 	ldr.w	r3, [r3, #224]	; 0xe0
 8100324:	f003 7300 	and.w	r3, r3, #33554432	; 0x2000000
 8100328:	607b      	str	r3, [r7, #4]
 810032a:	687b      	ldr	r3, [r7, #4]
  /* Activate HSEM notification for Cortex-M4*/
  HAL_HSEM_ActivateNotification(__HAL_HSEM_SEMID_TO_MASK(HSEM_ID_0));
 810032c:	2001      	movs	r0, #1
 810032e:	f000 fd0b 	bl	8100d48 <HAL_HSEM_ActivateNotification>
  /*
  Domain D2 goes to STOP mode (Cortex-M4 in deep-sleep) waiting for Cortex-M7 to
  perform system initialization (system clock config, external memory configuration.. )
  */
  HAL_PWREx_ClearPendingEvent();
 8100332:	f000 fdb9 	bl	8100ea8 <HAL_PWREx_ClearPendingEvent>
  HAL_PWREx_EnterSTOPMode(PWR_MAINREGULATOR_ON, PWR_STOPENTRY_WFE, PWR_D2_DOMAIN);
 8100336:	2201      	movs	r2, #1
 8100338:	2102      	movs	r1, #2
 810033a:	2000      	movs	r0, #0
 810033c:	f000 fd3a 	bl	8100db4 <HAL_PWREx_EnterSTOPMode>
  /* Clear HSEM flag */
  __HAL_HSEM_CLEAR_FLAG(__HAL_HSEM_SEMID_TO_MASK(HSEM_ID_0));
 8100340:	4b0f      	ldr	r3, [pc, #60]	; (8100380 <main+0x78>)
 8100342:	681b      	ldr	r3, [r3, #0]
 8100344:	091b      	lsrs	r3, r3, #4
 8100346:	f003 030f 	and.w	r3, r3, #15
 810034a:	2b07      	cmp	r3, #7
 810034c:	d108      	bne.n	8100360 <main+0x58>
 810034e:	4b0d      	ldr	r3, [pc, #52]	; (8100384 <main+0x7c>)
 8100350:	f8d3 3104 	ldr.w	r3, [r3, #260]	; 0x104
 8100354:	4a0b      	ldr	r2, [pc, #44]	; (8100384 <main+0x7c>)
 8100356:	f043 0301 	orr.w	r3, r3, #1
 810035a:	f8c2 3104 	str.w	r3, [r2, #260]	; 0x104
 810035e:	e007      	b.n	8100370 <main+0x68>
 8100360:	4b08      	ldr	r3, [pc, #32]	; (8100384 <main+0x7c>)
 8100362:	f8d3 3114 	ldr.w	r3, [r3, #276]	; 0x114
 8100366:	4a07      	ldr	r2, [pc, #28]	; (8100384 <main+0x7c>)
 8100368:	f043 0301 	orr.w	r3, r3, #1
 810036c:	f8c2 3114 	str.w	r3, [r2, #276]	; 0x114

/* USER CODE END Boot_Mode_Sequence_1 */
  /* MCU Configuration--------------------------------------------------------*/

  /* Reset of all peripherals, Initializes the Flash interface and the Systick. */
  HAL_Init();
 8100370:	f000 f996 	bl	81006a0 <HAL_Init>
  /* USER CODE BEGIN SysInit */

  /* USER CODE END SysInit */

  /* Initialize all configured peripherals */
  MX_GPIO_Init();
 8100374:	f000 f808 	bl	8100388 <MX_GPIO_Init>
*/
  /* USER CODE END 2 */

  /* Infinite loop */
  /* USER CODE BEGIN WHILE */
  while (1)
 8100378:	e7fe      	b.n	8100378 <main+0x70>
 810037a:	bf00      	nop
 810037c:	58024400 	.word	0x58024400
 8100380:	e000ed00 	.word	0xe000ed00
 8100384:	58026400 	.word	0x58026400

08100388 <MX_GPIO_Init>:
  * @brief GPIO Initialization Function
  * @param None
  * @retval None
  */
static void MX_GPIO_Init(void)
{
 8100388:	b580      	push	{r7, lr}
 810038a:	b088      	sub	sp, #32
 810038c:	af00      	add	r7, sp, #0
  GPIO_InitTypeDef GPIO_InitStruct = {0};
 810038e:	f107 030c 	add.w	r3, r7, #12
 8100392:	2200      	movs	r2, #0
 8100394:	601a      	str	r2, [r3, #0]
 8100396:	605a      	str	r2, [r3, #4]
 8100398:	609a      	str	r2, [r3, #8]
 810039a:	60da      	str	r2, [r3, #12]
 810039c:	611a      	str	r2, [r3, #16]

  /* GPIO Ports Clock Enable */
  __HAL_RCC_GPIOC_CLK_ENABLE();
 810039e:	4b37      	ldr	r3, [pc, #220]	; (810047c <MX_GPIO_Init+0xf4>)
 81003a0:	f8d3 30e0 	ldr.w	r3, [r3, #224]	; 0xe0
 81003a4:	4a35      	ldr	r2, [pc, #212]	; (810047c <MX_GPIO_Init+0xf4>)
 81003a6:	f043 0304 	orr.w	r3, r3, #4
 81003aa:	f8c2 30e0 	str.w	r3, [r2, #224]	; 0xe0
 81003ae:	4b33      	ldr	r3, [pc, #204]	; (810047c <MX_GPIO_Init+0xf4>)
 81003b0:	f8d3 30e0 	ldr.w	r3, [r3, #224]	; 0xe0
 81003b4:	f003 0304 	and.w	r3, r3, #4
 81003b8:	60bb      	str	r3, [r7, #8]
 81003ba:	68bb      	ldr	r3, [r7, #8]
  __HAL_RCC_GPIOB_CLK_ENABLE();
 81003bc:	4b2f      	ldr	r3, [pc, #188]	; (810047c <MX_GPIO_Init+0xf4>)
 81003be:	f8d3 30e0 	ldr.w	r3, [r3, #224]	; 0xe0
 81003c2:	4a2e      	ldr	r2, [pc, #184]	; (810047c <MX_GPIO_Init+0xf4>)
 81003c4:	f043 0302 	orr.w	r3, r3, #2
 81003c8:	f8c2 30e0 	str.w	r3, [r2, #224]	; 0xe0
 81003cc:	4b2b      	ldr	r3, [pc, #172]	; (810047c <MX_GPIO_Init+0xf4>)
 81003ce:	f8d3 30e0 	ldr.w	r3, [r3, #224]	; 0xe0
 81003d2:	f003 0302 	and.w	r3, r3, #2
 81003d6:	607b      	str	r3, [r7, #4]
 81003d8:	687b      	ldr	r3, [r7, #4]
  __HAL_RCC_GPIOE_CLK_ENABLE();
 81003da:	4b28      	ldr	r3, [pc, #160]	; (810047c <MX_GPIO_Init+0xf4>)
 81003dc:	f8d3 30e0 	ldr.w	r3, [r3, #224]	; 0xe0
 81003e0:	4a26      	ldr	r2, [pc, #152]	; (810047c <MX_GPIO_Init+0xf4>)
 81003e2:	f043 0310 	orr.w	r3, r3, #16
 81003e6:	f8c2 30e0 	str.w	r3, [r2, #224]	; 0xe0
 81003ea:	4b24      	ldr	r3, [pc, #144]	; (810047c <MX_GPIO_Init+0xf4>)
 81003ec:	f8d3 30e0 	ldr.w	r3, [r3, #224]	; 0xe0
 81003f0:	f003 0310 	and.w	r3, r3, #16
 81003f4:	603b      	str	r3, [r7, #0]
 81003f6:	683b      	ldr	r3, [r7, #0]

  /*Configure GPIO pin Output Level */
  HAL_GPIO_WritePin(GPIOB, LED1_Pin|LD3_Pin, GPIO_PIN_RESET);
 81003f8:	2200      	movs	r2, #0
 81003fa:	f244 0101 	movw	r1, #16385	; 0x4001
 81003fe:	4820      	ldr	r0, [pc, #128]	; (8100480 <MX_GPIO_Init+0xf8>)
 8100400:	f000 fc64 	bl	8100ccc <HAL_GPIO_WritePin>

  /*Configure GPIO pin Output Level */
  HAL_GPIO_WritePin(LED2_GPIO_Port, LED2_Pin, GPIO_PIN_RESET);
 8100404:	2200      	movs	r2, #0
 8100406:	2102      	movs	r1, #2
 8100408:	481e      	ldr	r0, [pc, #120]	; (8100484 <MX_GPIO_Init+0xfc>)
 810040a:	f000 fc5f 	bl	8100ccc <HAL_GPIO_WritePin>

  /*Configure GPIO pin : PC13 */
  GPIO_InitStruct.Pin = GPIO_PIN_13;
 810040e:	f44f 5300 	mov.w	r3, #8192	; 0x2000
 8100412:	60fb      	str	r3, [r7, #12]
  GPIO_InitStruct.Mode = GPIO_MODE_IT_RISING;
 8100414:	f44f 1388 	mov.w	r3, #1114112	; 0x110000
 8100418:	613b      	str	r3, [r7, #16]
  GPIO_InitStruct.Pull = GPIO_NOPULL;
 810041a:	2300      	movs	r3, #0
 810041c:	617b      	str	r3, [r7, #20]
  HAL_GPIO_Init(GPIOC, &GPIO_InitStruct);
 810041e:	f107 030c 	add.w	r3, r7, #12
 8100422:	4619      	mov	r1, r3
 8100424:	4818      	ldr	r0, [pc, #96]	; (8100488 <MX_GPIO_Init+0x100>)
 8100426:	f000 faa1 	bl	810096c <HAL_GPIO_Init>

  /*Configure GPIO pins : LED1_Pin LD3_Pin */
  GPIO_InitStruct.Pin = LED1_Pin|LD3_Pin;
 810042a:	f244 0301 	movw	r3, #16385	; 0x4001
 810042e:	60fb      	str	r3, [r7, #12]
  GPIO_InitStruct.Mode = GPIO_MODE_OUTPUT_PP;
 8100430:	2301      	movs	r3, #1
 8100432:	613b      	str	r3, [r7, #16]
  GPIO_InitStruct.Pull = GPIO_NOPULL;
 8100434:	2300      	movs	r3, #0
 8100436:	617b      	str	r3, [r7, #20]
  GPIO_InitStruct.Speed = GPIO_SPEED_FREQ_LOW;
 8100438:	2300      	movs	r3, #0
 810043a:	61bb      	str	r3, [r7, #24]
  HAL_GPIO_Init(GPIOB, &GPIO_InitStruct);
 810043c:	f107 030c 	add.w	r3, r7, #12
 8100440:	4619      	mov	r1, r3
 8100442:	480f      	ldr	r0, [pc, #60]	; (8100480 <MX_GPIO_Init+0xf8>)
 8100444:	f000 fa92 	bl	810096c <HAL_GPIO_Init>

  /*Configure GPIO pin : LED2_Pin */
  GPIO_InitStruct.Pin = LED2_Pin;
 8100448:	2302      	movs	r3, #2
 810044a:	60fb      	str	r3, [r7, #12]
  GPIO_InitStruct.Mode = GPIO_MODE_OUTPUT_PP;
 810044c:	2301      	movs	r3, #1
 810044e:	613b      	str	r3, [r7, #16]
  GPIO_InitStruct.Pull = GPIO_NOPULL;
 8100450:	2300      	movs	r3, #0
 8100452:	617b      	str	r3, [r7, #20]
  GPIO_InitStruct.Speed = GPIO_SPEED_FREQ_LOW;
 8100454:	2300      	movs	r3, #0
 8100456:	61bb      	str	r3, [r7, #24]
  HAL_GPIO_Init(LED2_GPIO_Port, &GPIO_InitStruct);
 8100458:	f107 030c 	add.w	r3, r7, #12
 810045c:	4619      	mov	r1, r3
 810045e:	4809      	ldr	r0, [pc, #36]	; (8100484 <MX_GPIO_Init+0xfc>)
 8100460:	f000 fa84 	bl	810096c <HAL_GPIO_Init>

  /* EXTI interrupt init*/
  HAL_NVIC_SetPriority(EXTI15_10_IRQn, 0, 0);
 8100464:	2200      	movs	r2, #0
 8100466:	2100      	movs	r1, #0
 8100468:	2028      	movs	r0, #40	; 0x28
 810046a:	f000 fa43 	bl	81008f4 <HAL_NVIC_SetPriority>
  HAL_NVIC_EnableIRQ(EXTI15_10_IRQn);
 810046e:	2028      	movs	r0, #40	; 0x28
 8100470:	f000 fa5a 	bl	8100928 <HAL_NVIC_EnableIRQ>

}
 8100474:	bf00      	nop
 8100476:	3720      	adds	r7, #32
 8100478:	46bd      	mov	sp, r7
 810047a:	bd80      	pop	{r7, pc}
 810047c:	58024400 	.word	0x58024400
 8100480:	58020400 	.word	0x58020400
 8100484:	58021000 	.word	0x58021000
 8100488:	58020800 	.word	0x58020800

0810048c <HAL_TIM_PeriodElapsedCallback>:
  * a global variable "uwTick" used as application time base.
  * @param  htim : TIM handle
  * @retval None
  */
void HAL_TIM_PeriodElapsedCallback(TIM_HandleTypeDef *htim)
{
 810048c:	b580      	push	{r7, lr}
 810048e:	b082      	sub	sp, #8
 8100490:	af00      	add	r7, sp, #0
 8100492:	6078      	str	r0, [r7, #4]
  /* USER CODE BEGIN Callback 0 */

  /* USER CODE END Callback 0 */
  if (htim->Instance == TIM2) {
 8100494:	687b      	ldr	r3, [r7, #4]
 8100496:	681b      	ldr	r3, [r3, #0]
 8100498:	f1b3 4f80 	cmp.w	r3, #1073741824	; 0x40000000
 810049c:	d101      	bne.n	81004a2 <HAL_TIM_PeriodElapsedCallback+0x16>
    HAL_IncTick();
 810049e:	f000 f95d 	bl	810075c <HAL_IncTick>
  }
  /* USER CODE BEGIN Callback 1 */

  /* USER CODE END Callback 1 */
}
 81004a2:	bf00      	nop
 81004a4:	3708      	adds	r7, #8
 81004a6:	46bd      	mov	sp, r7
 81004a8:	bd80      	pop	{r7, pc}
	...

081004ac <HAL_MspInit>:
/* USER CODE END 0 */
/**
  * Initializes the Global MSP.
  */
void HAL_MspInit(void)
{
 81004ac:	b580      	push	{r7, lr}
 81004ae:	b082      	sub	sp, #8
 81004b0:	af00      	add	r7, sp, #0
  /* USER CODE BEGIN MspInit 0 */

  /* USER CODE END MspInit 0 */

  __HAL_RCC_SYSCFG_CLK_ENABLE();
 81004b2:	4b11      	ldr	r3, [pc, #68]	; (81004f8 <HAL_MspInit+0x4c>)
 81004b4:	f8d3 30f4 	ldr.w	r3, [r3, #244]	; 0xf4
 81004b8:	4a0f      	ldr	r2, [pc, #60]	; (81004f8 <HAL_MspInit+0x4c>)
 81004ba:	f043 0302 	orr.w	r3, r3, #2
 81004be:	f8c2 30f4 	str.w	r3, [r2, #244]	; 0xf4
 81004c2:	4b0d      	ldr	r3, [pc, #52]	; (81004f8 <HAL_MspInit+0x4c>)
 81004c4:	f8d3 30f4 	ldr.w	r3, [r3, #244]	; 0xf4
 81004c8:	f003 0302 	and.w	r3, r3, #2
 81004cc:	607b      	str	r3, [r7, #4]
 81004ce:	687b      	ldr	r3, [r7, #4]

  /* System interrupt init*/

  /* Peripheral interrupt init */
  /* CM7_SEV_IRQn interrupt configuration */
  HAL_NVIC_SetPriority(CM7_SEV_IRQn, 0, 0);
 81004d0:	2200      	movs	r2, #0
 81004d2:	2100      	movs	r1, #0
 81004d4:	2040      	movs	r0, #64	; 0x40
 81004d6:	f000 fa0d 	bl	81008f4 <HAL_NVIC_SetPriority>
  /* CM7_SEV_IRQn interrupt configuration */
  HAL_NVIC_EnableIRQ(CM7_SEV_IRQn);
 81004da:	2040      	movs	r0, #64	; 0x40
 81004dc:	f000 fa24 	bl	8100928 <HAL_NVIC_EnableIRQ>
  /* HSEM2_IRQn interrupt configuration */
  HAL_NVIC_SetPriority(HSEM2_IRQn, 0, 0);
 81004e0:	2200      	movs	r2, #0
 81004e2:	2100      	movs	r1, #0
 81004e4:	207e      	movs	r0, #126	; 0x7e
 81004e6:	f000 fa05 	bl	81008f4 <HAL_NVIC_SetPriority>
  /* HSEM2_IRQn interrupt configuration */
  HAL_NVIC_EnableIRQ(HSEM2_IRQn);
 81004ea:	207e      	movs	r0, #126	; 0x7e
 81004ec:	f000 fa1c 	bl	8100928 <HAL_NVIC_EnableIRQ>

  /* USER CODE BEGIN MspInit 1 */

  /* USER CODE END MspInit 1 */
}
 81004f0:	bf00      	nop
 81004f2:	3708      	adds	r7, #8
 81004f4:	46bd      	mov	sp, r7
 81004f6:	bd80      	pop	{r7, pc}
 81004f8:	58024400 	.word	0x58024400

081004fc <HAL_InitTick>:
  *         reset by HAL_Init() or at any time when clock is configured, by HAL_RCC_ClockConfig().
  * @param  TickPriority: Tick interrupt priority.
  * @retval HAL status
  */
HAL_StatusTypeDef HAL_InitTick(uint32_t TickPriority)
{
 81004fc:	b580      	push	{r7, lr}
 81004fe:	b090      	sub	sp, #64	; 0x40
 8100500:	af00      	add	r7, sp, #0
 8100502:	6078      	str	r0, [r7, #4]
  uint32_t              uwTimclock, uwAPB1Prescaler;

  uint32_t              uwPrescalerValue;
  uint32_t              pFLatency;
/*Configure the TIM2 IRQ priority */
  if (TickPriority < (1UL << __NVIC_PRIO_BITS))
 8100504:	687b      	ldr	r3, [r7, #4]
 8100506:	2b0f      	cmp	r3, #15
 8100508:	d827      	bhi.n	810055a <HAL_InitTick+0x5e>
  {
  HAL_NVIC_SetPriority(TIM2_IRQn, TickPriority ,0U);
 810050a:	2200      	movs	r2, #0
 810050c:	6879      	ldr	r1, [r7, #4]
 810050e:	201c      	movs	r0, #28
 8100510:	f000 f9f0 	bl	81008f4 <HAL_NVIC_SetPriority>

  /* Enable the TIM2 global Interrupt */
  HAL_NVIC_EnableIRQ(TIM2_IRQn);
 8100514:	201c      	movs	r0, #28
 8100516:	f000 fa07 	bl	8100928 <HAL_NVIC_EnableIRQ>
    uwTickPrio = TickPriority;
 810051a:	4a29      	ldr	r2, [pc, #164]	; (81005c0 <HAL_InitTick+0xc4>)
 810051c:	687b      	ldr	r3, [r7, #4]
 810051e:	6013      	str	r3, [r2, #0]
  {
    return HAL_ERROR;
  }

  /* Enable TIM2 clock */
  __HAL_RCC_TIM2_CLK_ENABLE();
 8100520:	4b28      	ldr	r3, [pc, #160]	; (81005c4 <HAL_InitTick+0xc8>)
 8100522:	f8d3 30e8 	ldr.w	r3, [r3, #232]	; 0xe8
 8100526:	4a27      	ldr	r2, [pc, #156]	; (81005c4 <HAL_InitTick+0xc8>)
 8100528:	f043 0301 	orr.w	r3, r3, #1
 810052c:	f8c2 30e8 	str.w	r3, [r2, #232]	; 0xe8
 8100530:	4b24      	ldr	r3, [pc, #144]	; (81005c4 <HAL_InitTick+0xc8>)
 8100532:	f8d3 30e8 	ldr.w	r3, [r3, #232]	; 0xe8
 8100536:	f003 0301 	and.w	r3, r3, #1
 810053a:	60fb      	str	r3, [r7, #12]
 810053c:	68fb      	ldr	r3, [r7, #12]

  /* Get clock configuration */
  HAL_RCC_GetClockConfig(&clkconfig, &pFLatency);
 810053e:	f107 0210 	add.w	r2, r7, #16
 8100542:	f107 0314 	add.w	r3, r7, #20
 8100546:	4611      	mov	r1, r2
 8100548:	4618      	mov	r0, r3
 810054a:	f000 fe7d 	bl	8101248 <HAL_RCC_GetClockConfig>

  /* Get APB1 prescaler */
  uwAPB1Prescaler = clkconfig.APB1CLKDivider;
 810054e:	6abb      	ldr	r3, [r7, #40]	; 0x28
 8100550:	63bb      	str	r3, [r7, #56]	; 0x38
  /* Compute TIM2 clock */
  if (uwAPB1Prescaler == RCC_HCLK_DIV1)
 8100552:	6bbb      	ldr	r3, [r7, #56]	; 0x38
 8100554:	2b00      	cmp	r3, #0
 8100556:	d106      	bne.n	8100566 <HAL_InitTick+0x6a>
 8100558:	e001      	b.n	810055e <HAL_InitTick+0x62>
    return HAL_ERROR;
 810055a:	2301      	movs	r3, #1
 810055c:	e02c      	b.n	81005b8 <HAL_InitTick+0xbc>
  {
    uwTimclock = HAL_RCC_GetPCLK1Freq();
 810055e:	f000 fe5d 	bl	810121c <HAL_RCC_GetPCLK1Freq>
 8100562:	63f8      	str	r0, [r7, #60]	; 0x3c
 8100564:	e004      	b.n	8100570 <HAL_InitTick+0x74>
  }
  else
  {
    uwTimclock = 2UL * HAL_RCC_GetPCLK1Freq();
 8100566:	f000 fe59 	bl	810121c <HAL_RCC_GetPCLK1Freq>
 810056a:	4603      	mov	r3, r0
 810056c:	005b      	lsls	r3, r3, #1
 810056e:	63fb      	str	r3, [r7, #60]	; 0x3c
  }

  /* Compute the prescaler value to have TIM2 counter clock equal to 1MHz */
  uwPrescalerValue = (uint32_t) ((uwTimclock / 1000000U) - 1U);
 8100570:	6bfb      	ldr	r3, [r7, #60]	; 0x3c
 8100572:	4a15      	ldr	r2, [pc, #84]	; (81005c8 <HAL_InitTick+0xcc>)
 8100574:	fba2 2303 	umull	r2, r3, r2, r3
 8100578:	0c9b      	lsrs	r3, r3, #18
 810057a:	3b01      	subs	r3, #1
 810057c:	637b      	str	r3, [r7, #52]	; 0x34

  /* Initialize TIM2 */
  htim2.Instance = TIM2;
 810057e:	4b13      	ldr	r3, [pc, #76]	; (81005cc <HAL_InitTick+0xd0>)
 8100580:	f04f 4280 	mov.w	r2, #1073741824	; 0x40000000
 8100584:	601a      	str	r2, [r3, #0]
  + Period = [(TIM2CLK/1000) - 1]. to have a (1/1000) s time base.
  + Prescaler = (uwTimclock/1000000 - 1) to have a 1MHz counter clock.
  + ClockDivision = 0
  + Counter direction = Up
  */
  htim2.Init.Period = (1000000U / 1000U) - 1U;
 8100586:	4b11      	ldr	r3, [pc, #68]	; (81005cc <HAL_InitTick+0xd0>)
 8100588:	f240 32e7 	movw	r2, #999	; 0x3e7
 810058c:	60da      	str	r2, [r3, #12]
  htim2.Init.Prescaler = uwPrescalerValue;
 810058e:	4a0f      	ldr	r2, [pc, #60]	; (81005cc <HAL_InitTick+0xd0>)
 8100590:	6b7b      	ldr	r3, [r7, #52]	; 0x34
 8100592:	6053      	str	r3, [r2, #4]
  htim2.Init.ClockDivision = 0;
 8100594:	4b0d      	ldr	r3, [pc, #52]	; (81005cc <HAL_InitTick+0xd0>)
 8100596:	2200      	movs	r2, #0
 8100598:	611a      	str	r2, [r3, #16]
  htim2.Init.CounterMode = TIM_COUNTERMODE_UP;
 810059a:	4b0c      	ldr	r3, [pc, #48]	; (81005cc <HAL_InitTick+0xd0>)
 810059c:	2200      	movs	r2, #0
 810059e:	609a      	str	r2, [r3, #8]

  if(HAL_TIM_Base_Init(&htim2) == HAL_OK)
 81005a0:	480a      	ldr	r0, [pc, #40]	; (81005cc <HAL_InitTick+0xd0>)
 81005a2:	f000 fe93 	bl	81012cc <HAL_TIM_Base_Init>
 81005a6:	4603      	mov	r3, r0
 81005a8:	2b00      	cmp	r3, #0
 81005aa:	d104      	bne.n	81005b6 <HAL_InitTick+0xba>
  {
    /* Start the TIM time Base generation in interrupt mode */
    return HAL_TIM_Base_Start_IT(&htim2);
 81005ac:	4807      	ldr	r0, [pc, #28]	; (81005cc <HAL_InitTick+0xd0>)
 81005ae:	f000 feef 	bl	8101390 <HAL_TIM_Base_Start_IT>
 81005b2:	4603      	mov	r3, r0
 81005b4:	e000      	b.n	81005b8 <HAL_InitTick+0xbc>
  }

  /* Return function status */
  return HAL_ERROR;
 81005b6:	2301      	movs	r3, #1
}
 81005b8:	4618      	mov	r0, r3
 81005ba:	3740      	adds	r7, #64	; 0x40
 81005bc:	46bd      	mov	sp, r7
 81005be:	bd80      	pop	{r7, pc}
 81005c0:	10000008 	.word	0x10000008
 81005c4:	58024400 	.word	0x58024400
 81005c8:	431bde83 	.word	0x431bde83
 81005cc:	1000002c 	.word	0x1000002c

081005d0 <NMI_Handler>:
/******************************************************************************/
/**
  * @brief This function handles Non maskable interrupt.
  */
void NMI_Handler(void)
{
 81005d0:	b480      	push	{r7}
 81005d2:	af00      	add	r7, sp, #0
  /* USER CODE BEGIN NonMaskableInt_IRQn 0 */

  /* USER CODE END NonMaskableInt_IRQn 0 */
  /* USER CODE BEGIN NonMaskableInt_IRQn 1 */
  while (1)
 81005d4:	e7fe      	b.n	81005d4 <NMI_Handler+0x4>

081005d6 <HardFault_Handler>:

/**
  * @brief This function handles Hard fault interrupt.
  */
void HardFault_Handler(void)
{
 81005d6:	b480      	push	{r7}
 81005d8:	af00      	add	r7, sp, #0
  /* USER CODE BEGIN HardFault_IRQn 0 */

  /* USER CODE END HardFault_IRQn 0 */
  while (1)
 81005da:	e7fe      	b.n	81005da <HardFault_Handler+0x4>

081005dc <MemManage_Handler>:

/**
  * @brief This function handles Memory management fault.
  */
void MemManage_Handler(void)
{
 81005dc:	b480      	push	{r7}
 81005de:	af00      	add	r7, sp, #0
  /* USER CODE BEGIN MemoryManagement_IRQn 0 */

  /* USER CODE END MemoryManagement_IRQn 0 */
  while (1)
 81005e0:	e7fe      	b.n	81005e0 <MemManage_Handler+0x4>

081005e2 <BusFault_Handler>:

/**
  * @brief This function handles Pre-fetch fault, memory access fault.
  */
void BusFault_Handler(void)
{
 81005e2:	b480      	push	{r7}
 81005e4:	af00      	add	r7, sp, #0
  /* USER CODE BEGIN BusFault_IRQn 0 */

  /* USER CODE END BusFault_IRQn 0 */
  while (1)
 81005e6:	e7fe      	b.n	81005e6 <BusFault_Handler+0x4>

081005e8 <UsageFault_Handler>:

/**
  * @brief This function handles Undefined instruction or illegal state.
  */
void UsageFault_Handler(void)
{
 81005e8:	b480      	push	{r7}
 81005ea:	af00      	add	r7, sp, #0
  /* USER CODE BEGIN UsageFault_IRQn 0 */

  /* USER CODE END UsageFault_IRQn 0 */
  while (1)
 81005ec:	e7fe      	b.n	81005ec <UsageFault_Handler+0x4>

081005ee <DebugMon_Handler>:

/**
  * @brief This function handles Debug monitor.
  */
void DebugMon_Handler(void)
{
 81005ee:	b480      	push	{r7}
 81005f0:	af00      	add	r7, sp, #0

  /* USER CODE END DebugMonitor_IRQn 0 */
  /* USER CODE BEGIN DebugMonitor_IRQn 1 */

  /* USER CODE END DebugMonitor_IRQn 1 */
}
 81005f2:	bf00      	nop
 81005f4:	46bd      	mov	sp, r7
 81005f6:	f85d 7b04 	ldr.w	r7, [sp], #4
 81005fa:	4770      	bx	lr

081005fc <SysTick_Handler>:

/**
  * @brief This function handles System tick timer.
  */
void SysTick_Handler(void)
{
 81005fc:	b480      	push	{r7}
 81005fe:	af00      	add	r7, sp, #0
  /* USER CODE END SysTick_IRQn 0 */

  /* USER CODE BEGIN SysTick_IRQn 1 */

  /* USER CODE END SysTick_IRQn 1 */
}
 8100600:	bf00      	nop
 8100602:	46bd      	mov	sp, r7
 8100604:	f85d 7b04 	ldr.w	r7, [sp], #4
 8100608:	4770      	bx	lr
	...

0810060c <TIM2_IRQHandler>:

/**
  * @brief This function handles TIM2 global interrupt.
  */
void TIM2_IRQHandler(void)
{
 810060c:	b580      	push	{r7, lr}
 810060e:	af00      	add	r7, sp, #0
  /* USER CODE BEGIN TIM2_IRQn 0 */

  /* USER CODE END TIM2_IRQn 0 */
  HAL_TIM_IRQHandler(&htim2);
 8100610:	4802      	ldr	r0, [pc, #8]	; (810061c <TIM2_IRQHandler+0x10>)
 8100612:	f000 ff35 	bl	8101480 <HAL_TIM_IRQHandler>
  /* USER CODE BEGIN TIM2_IRQn 1 */

  /* USER CODE END TIM2_IRQn 1 */
}
 8100616:	bf00      	nop
 8100618:	bd80      	pop	{r7, pc}
 810061a:	bf00      	nop
 810061c:	1000002c 	.word	0x1000002c

08100620 <EXTI15_10_IRQHandler>:

/**
  * @brief This function handles EXTI line[15:10] interrupts.
  */
void EXTI15_10_IRQHandler(void)
{
 8100620:	b580      	push	{r7, lr}
 8100622:	af00      	add	r7, sp, #0
  /* USER CODE BEGIN EXTI15_10_IRQn 0 */

  /* USER CODE END EXTI15_10_IRQn 0 */
  HAL_GPIO_EXTI_IRQHandler(GPIO_PIN_13);
 8100624:	f44f 5000 	mov.w	r0, #8192	; 0x2000
 8100628:	f000 fb69 	bl	8100cfe <HAL_GPIO_EXTI_IRQHandler>
  /* USER CODE BEGIN EXTI15_10_IRQn 1 */

  /* USER CODE END EXTI15_10_IRQn 1 */
}
 810062c:	bf00      	nop
 810062e:	bd80      	pop	{r7, pc}

08100630 <CM7_SEV_IRQHandler>:

/**
  * @brief This function handles CM7 send event interrupt for CM4.
  */
void CM7_SEV_IRQHandler(void)
{
 8100630:	b480      	push	{r7}
 8100632:	af00      	add	r7, sp, #0

  /* USER CODE END CM7_SEV_IRQn 0 */
  /* USER CODE BEGIN CM7_SEV_IRQn 1 */

  /* USER CODE END CM7_SEV_IRQn 1 */
}
 8100634:	bf00      	nop
 8100636:	46bd      	mov	sp, r7
 8100638:	f85d 7b04 	ldr.w	r7, [sp], #4
 810063c:	4770      	bx	lr

0810063e <HSEM2_IRQHandler>:

/**
  * @brief This function handles HSEM2 global interrupt.
  */
void HSEM2_IRQHandler(void)
{
 810063e:	b580      	push	{r7, lr}
 8100640:	af00      	add	r7, sp, #0
  /* USER CODE BEGIN HSEM2_IRQn 0 */

  /* USER CODE END HSEM2_IRQn 0 */
  HAL_HSEM_IRQHandler();
 8100642:	f000 fb93 	bl	8100d6c <HAL_HSEM_IRQHandler>
  /* USER CODE BEGIN HSEM2_IRQn 1 */

  /* USER CODE END HSEM2_IRQn 1 */
}
 8100646:	bf00      	nop
 8100648:	bd80      	pop	{r7, pc}
	...

0810064c <Reset_Handler>:

    .section  .text.Reset_Handler
  .weak  Reset_Handler
  .type  Reset_Handler, %function
Reset_Handler:
  ldr   sp, =_estack      /* set stack pointer */
 810064c:	f8df d034 	ldr.w	sp, [pc, #52]	; 8100684 <LoopFillZerobss+0xe>

/* Call the clock system initialization function.*/
  bl  SystemInit
 8100650:	f7ff fe42 	bl	81002d8 <SystemInit>

/* Copy the data segment initializers from flash to SRAM */
  ldr r0, =_sdata
 8100654:	480c      	ldr	r0, [pc, #48]	; (8100688 <LoopFillZerobss+0x12>)
  ldr r1, =_edata
 8100656:	490d      	ldr	r1, [pc, #52]	; (810068c <LoopFillZerobss+0x16>)
  ldr r2, =_sidata
 8100658:	4a0d      	ldr	r2, [pc, #52]	; (8100690 <LoopFillZerobss+0x1a>)
  movs r3, #0
 810065a:	2300      	movs	r3, #0
  b LoopCopyDataInit
 810065c:	e002      	b.n	8100664 <LoopCopyDataInit>

0810065e <CopyDataInit>:

CopyDataInit:
  ldr r4, [r2, r3]
 810065e:	58d4      	ldr	r4, [r2, r3]
  str r4, [r0, r3]
 8100660:	50c4      	str	r4, [r0, r3]
  adds r3, r3, #4
 8100662:	3304      	adds	r3, #4

08100664 <LoopCopyDataInit>:

LoopCopyDataInit:
  adds r4, r0, r3
 8100664:	18c4      	adds	r4, r0, r3
  cmp r4, r1
 8100666:	428c      	cmp	r4, r1
  bcc CopyDataInit
 8100668:	d3f9      	bcc.n	810065e <CopyDataInit>
/* Zero fill the bss segment. */
  ldr r2, =_sbss
 810066a:	4a0a      	ldr	r2, [pc, #40]	; (8100694 <LoopFillZerobss+0x1e>)
  ldr r4, =_ebss
 810066c:	4c0a      	ldr	r4, [pc, #40]	; (8100698 <LoopFillZerobss+0x22>)
  movs r3, #0
 810066e:	2300      	movs	r3, #0
  b LoopFillZerobss
 8100670:	e001      	b.n	8100676 <LoopFillZerobss>

08100672 <FillZerobss>:

FillZerobss:
  str  r3, [r2]
 8100672:	6013      	str	r3, [r2, #0]
  adds r2, r2, #4
 8100674:	3204      	adds	r2, #4

08100676 <LoopFillZerobss>:

LoopFillZerobss:
  cmp r2, r4
 8100676:	42a2      	cmp	r2, r4
  bcc FillZerobss
 8100678:	d3fb      	bcc.n	8100672 <FillZerobss>

/* Call static constructors */
    bl __libc_init_array
 810067a:	f001 f901 	bl	8101880 <__libc_init_array>
/* Call the application's entry point.*/
  bl  main
 810067e:	f7ff fe43 	bl	8100308 <main>
  bx  lr
 8100682:	4770      	bx	lr
  ldr   sp, =_estack      /* set stack pointer */
 8100684:	10048000 	.word	0x10048000
  ldr r0, =_sdata
 8100688:	10000000 	.word	0x10000000
  ldr r1, =_edata
 810068c:	10000010 	.word	0x10000010
  ldr r2, =_sidata
 8100690:	081018f8 	.word	0x081018f8
  ldr r2, =_sbss
 8100694:	10000010 	.word	0x10000010
  ldr r4, =_ebss
 8100698:	1000007c 	.word	0x1000007c

0810069c <ADC3_IRQHandler>:
 * @retval None
*/
    .section  .text.Default_Handler,"ax",%progbits
Default_Handler:
Infinite_Loop:
  b  Infinite_Loop
 810069c:	e7fe      	b.n	810069c <ADC3_IRQHandler>
	...

081006a0 <HAL_Init>:
  *         need to ensure that the SysTick time base is always set to 1 millisecond
  *         to have correct HAL operation.
  * @retval HAL status
  */
HAL_StatusTypeDef HAL_Init(void)
{
 81006a0:	b580      	push	{r7, lr}
 81006a2:	b082      	sub	sp, #8
 81006a4:	af00      	add	r7, sp, #0

uint32_t common_system_clock;

#if defined(DUAL_CORE) && defined(CORE_CM4)
   /* Configure Cortex-M4 Instruction cache through ART accelerator */
   __HAL_RCC_ART_CLK_ENABLE();                   /* Enable the Cortex-M4 ART Clock */
 81006a6:	4b28      	ldr	r3, [pc, #160]	; (8100748 <HAL_Init+0xa8>)
 81006a8:	f8d3 30d8 	ldr.w	r3, [r3, #216]	; 0xd8
 81006ac:	4a26      	ldr	r2, [pc, #152]	; (8100748 <HAL_Init+0xa8>)
 81006ae:	f443 4380 	orr.w	r3, r3, #16384	; 0x4000
 81006b2:	f8c2 30d8 	str.w	r3, [r2, #216]	; 0xd8
 81006b6:	4b24      	ldr	r3, [pc, #144]	; (8100748 <HAL_Init+0xa8>)
 81006b8:	f8d3 30d8 	ldr.w	r3, [r3, #216]	; 0xd8
 81006bc:	f403 4380 	and.w	r3, r3, #16384	; 0x4000
 81006c0:	603b      	str	r3, [r7, #0]
 81006c2:	683b      	ldr	r3, [r7, #0]
   __HAL_ART_CONFIG_BASE_ADDRESS(0x08100000UL);  /* Configure the Cortex-M4 ART Base address to the Flash Bank 2 : */
 81006c4:	4b21      	ldr	r3, [pc, #132]	; (810074c <HAL_Init+0xac>)
 81006c6:	681b      	ldr	r3, [r3, #0]
 81006c8:	f423 237f 	bic.w	r3, r3, #1044480	; 0xff000
 81006cc:	f423 6370 	bic.w	r3, r3, #3840	; 0xf00
 81006d0:	4a1e      	ldr	r2, [pc, #120]	; (810074c <HAL_Init+0xac>)
 81006d2:	f443 4301 	orr.w	r3, r3, #33024	; 0x8100
 81006d6:	6013      	str	r3, [r2, #0]
   __HAL_ART_ENABLE();                           /* Enable the Cortex-M4 ART */
 81006d8:	4b1c      	ldr	r3, [pc, #112]	; (810074c <HAL_Init+0xac>)
 81006da:	681b      	ldr	r3, [r3, #0]
 81006dc:	4a1b      	ldr	r2, [pc, #108]	; (810074c <HAL_Init+0xac>)
 81006de:	f043 0301 	orr.w	r3, r3, #1
 81006e2:	6013      	str	r3, [r2, #0]
#endif /* DUAL_CORE &&  CORE_CM4 */

  /* Set Interrupt Group Priority */
  HAL_NVIC_SetPriorityGrouping(NVIC_PRIORITYGROUP_4);
 81006e4:	2003      	movs	r0, #3
 81006e6:	f000 f8fa 	bl	81008de <HAL_NVIC_SetPriorityGrouping>

  /* Update the SystemCoreClock global variable */
#if defined(RCC_D1CFGR_D1CPRE)
  common_system_clock = HAL_RCC_GetSysClockFreq() >> ((D1CorePrescTable[(RCC->D1CFGR & RCC_D1CFGR_D1CPRE)>> RCC_D1CFGR_D1CPRE_Pos]) & 0x1FU);
 81006ea:	f000 fbeb 	bl	8100ec4 <HAL_RCC_GetSysClockFreq>
 81006ee:	4602      	mov	r2, r0
 81006f0:	4b15      	ldr	r3, [pc, #84]	; (8100748 <HAL_Init+0xa8>)
 81006f2:	699b      	ldr	r3, [r3, #24]
 81006f4:	0a1b      	lsrs	r3, r3, #8
 81006f6:	f003 030f 	and.w	r3, r3, #15
 81006fa:	4915      	ldr	r1, [pc, #84]	; (8100750 <HAL_Init+0xb0>)
 81006fc:	5ccb      	ldrb	r3, [r1, r3]
 81006fe:	f003 031f 	and.w	r3, r3, #31
 8100702:	fa22 f303 	lsr.w	r3, r2, r3
 8100706:	607b      	str	r3, [r7, #4]
  common_system_clock = HAL_RCC_GetSysClockFreq() >> ((D1CorePrescTable[(RCC->CDCFGR1 & RCC_CDCFGR1_CDCPRE)>> RCC_CDCFGR1_CDCPRE_Pos]) & 0x1FU);
#endif

  /* Update the SystemD2Clock global variable */
#if defined(RCC_D1CFGR_HPRE)
  SystemD2Clock = (common_system_clock >> ((D1CorePrescTable[(RCC->D1CFGR & RCC_D1CFGR_HPRE)>> RCC_D1CFGR_HPRE_Pos]) & 0x1FU));
 8100708:	4b0f      	ldr	r3, [pc, #60]	; (8100748 <HAL_Init+0xa8>)
 810070a:	699b      	ldr	r3, [r3, #24]
 810070c:	f003 030f 	and.w	r3, r3, #15
 8100710:	4a0f      	ldr	r2, [pc, #60]	; (8100750 <HAL_Init+0xb0>)
 8100712:	5cd3      	ldrb	r3, [r2, r3]
 8100714:	f003 031f 	and.w	r3, r3, #31
 8100718:	687a      	ldr	r2, [r7, #4]
 810071a:	fa22 f303 	lsr.w	r3, r2, r3
 810071e:	4a0d      	ldr	r2, [pc, #52]	; (8100754 <HAL_Init+0xb4>)
 8100720:	6013      	str	r3, [r2, #0]
#else
  SystemD2Clock = (common_system_clock >> ((D1CorePrescTable[(RCC->CDCFGR1 & RCC_CDCFGR1_HPRE)>> RCC_CDCFGR1_HPRE_Pos]) & 0x1FU));
#endif

#if defined(DUAL_CORE) && defined(CORE_CM4)
  SystemCoreClock = SystemD2Clock;
 8100722:	4b0c      	ldr	r3, [pc, #48]	; (8100754 <HAL_Init+0xb4>)
 8100724:	681b      	ldr	r3, [r3, #0]
 8100726:	4a0c      	ldr	r2, [pc, #48]	; (8100758 <HAL_Init+0xb8>)
 8100728:	6013      	str	r3, [r2, #0]
#else
  SystemCoreClock = common_system_clock;
#endif /* DUAL_CORE && CORE_CM4 */

  /* Use systick as time base source and configure 1ms tick (default clock after Reset is HSI) */
  if(HAL_InitTick(TICK_INT_PRIORITY) != HAL_OK)
 810072a:	200f      	movs	r0, #15
 810072c:	f7ff fee6 	bl	81004fc <HAL_InitTick>
 8100730:	4603      	mov	r3, r0
 8100732:	2b00      	cmp	r3, #0
 8100734:	d001      	beq.n	810073a <HAL_Init+0x9a>
  {
    return HAL_ERROR;
 8100736:	2301      	movs	r3, #1
 8100738:	e002      	b.n	8100740 <HAL_Init+0xa0>
  }

  /* Init the low level hardware */
  HAL_MspInit();
 810073a:	f7ff feb7 	bl	81004ac <HAL_MspInit>

  /* Return function status */
  return HAL_OK;
 810073e:	2300      	movs	r3, #0
}
 8100740:	4618      	mov	r0, r3
 8100742:	3708      	adds	r7, #8
 8100744:	46bd      	mov	sp, r7
 8100746:	bd80      	pop	{r7, pc}
 8100748:	58024400 	.word	0x58024400
 810074c:	40024400 	.word	0x40024400
 8100750:	081018e0 	.word	0x081018e0
 8100754:	10000004 	.word	0x10000004
 8100758:	10000000 	.word	0x10000000

0810075c <HAL_IncTick>:
 * @note This function is declared as __weak to be overwritten in case of other
  *      implementations in user file.
  * @retval None
  */
__weak void HAL_IncTick(void)
{
 810075c:	b480      	push	{r7}
 810075e:	af00      	add	r7, sp, #0
  uwTick += (uint32_t)uwTickFreq;
 8100760:	4b06      	ldr	r3, [pc, #24]	; (810077c <HAL_IncTick+0x20>)
 8100762:	781b      	ldrb	r3, [r3, #0]
 8100764:	461a      	mov	r2, r3
 8100766:	4b06      	ldr	r3, [pc, #24]	; (8100780 <HAL_IncTick+0x24>)
 8100768:	681b      	ldr	r3, [r3, #0]
 810076a:	4413      	add	r3, r2
 810076c:	4a04      	ldr	r2, [pc, #16]	; (8100780 <HAL_IncTick+0x24>)
 810076e:	6013      	str	r3, [r2, #0]
}
 8100770:	bf00      	nop
 8100772:	46bd      	mov	sp, r7
 8100774:	f85d 7b04 	ldr.w	r7, [sp], #4
 8100778:	4770      	bx	lr
 810077a:	bf00      	nop
 810077c:	1000000c 	.word	0x1000000c
 8100780:	10000078 	.word	0x10000078

08100784 <__NVIC_SetPriorityGrouping>:
           In case of a conflict between priority grouping and available
           priority bits (__NVIC_PRIO_BITS), the smallest possible priority group is set.
  \param [in]      PriorityGroup  Priority grouping field.
 */
__STATIC_INLINE void __NVIC_SetPriorityGrouping(uint32_t PriorityGroup)
{
 8100784:	b480      	push	{r7}
 8100786:	b085      	sub	sp, #20
 8100788:	af00      	add	r7, sp, #0
 810078a:	6078      	str	r0, [r7, #4]
  uint32_t reg_value;
  uint32_t PriorityGroupTmp = (PriorityGroup & (uint32_t)0x07UL);             /* only values 0..7 are used          */
 810078c:	687b      	ldr	r3, [r7, #4]
 810078e:	f003 0307 	and.w	r3, r3, #7
 8100792:	60fb      	str	r3, [r7, #12]

  reg_value  =  SCB->AIRCR;                                                   /* read old register configuration    */
 8100794:	4b0c      	ldr	r3, [pc, #48]	; (81007c8 <__NVIC_SetPriorityGrouping+0x44>)
 8100796:	68db      	ldr	r3, [r3, #12]
 8100798:	60bb      	str	r3, [r7, #8]
  reg_value &= ~((uint32_t)(SCB_AIRCR_VECTKEY_Msk | SCB_AIRCR_PRIGROUP_Msk)); /* clear bits to change               */
 810079a:	68ba      	ldr	r2, [r7, #8]
 810079c:	f64f 03ff 	movw	r3, #63743	; 0xf8ff
 81007a0:	4013      	ands	r3, r2
 81007a2:	60bb      	str	r3, [r7, #8]
  reg_value  =  (reg_value                                   |
                ((uint32_t)0x5FAUL << SCB_AIRCR_VECTKEY_Pos) |
                (PriorityGroupTmp << SCB_AIRCR_PRIGROUP_Pos)  );              /* Insert write key and priority group */
 81007a4:	68fb      	ldr	r3, [r7, #12]
 81007a6:	021a      	lsls	r2, r3, #8
                ((uint32_t)0x5FAUL << SCB_AIRCR_VECTKEY_Pos) |
 81007a8:	68bb      	ldr	r3, [r7, #8]
 81007aa:	4313      	orrs	r3, r2
  reg_value  =  (reg_value                                   |
 81007ac:	f043 63bf 	orr.w	r3, r3, #100139008	; 0x5f80000
 81007b0:	f443 3300 	orr.w	r3, r3, #131072	; 0x20000
 81007b4:	60bb      	str	r3, [r7, #8]
  SCB->AIRCR =  reg_value;
 81007b6:	4a04      	ldr	r2, [pc, #16]	; (81007c8 <__NVIC_SetPriorityGrouping+0x44>)
 81007b8:	68bb      	ldr	r3, [r7, #8]
 81007ba:	60d3      	str	r3, [r2, #12]
}
 81007bc:	bf00      	nop
 81007be:	3714      	adds	r7, #20
 81007c0:	46bd      	mov	sp, r7
 81007c2:	f85d 7b04 	ldr.w	r7, [sp], #4
 81007c6:	4770      	bx	lr
 81007c8:	e000ed00 	.word	0xe000ed00

081007cc <__NVIC_GetPriorityGrouping>:
  \brief   Get Priority Grouping
  \details Reads the priority grouping field from the NVIC Interrupt Controller.
  \return                Priority grouping field (SCB->AIRCR [10:8] PRIGROUP field).
 */
__STATIC_INLINE uint32_t __NVIC_GetPriorityGrouping(void)
{
 81007cc:	b480      	push	{r7}
 81007ce:	af00      	add	r7, sp, #0
  return ((uint32_t)((SCB->AIRCR & SCB_AIRCR_PRIGROUP_Msk) >> SCB_AIRCR_PRIGROUP_Pos));
 81007d0:	4b04      	ldr	r3, [pc, #16]	; (81007e4 <__NVIC_GetPriorityGrouping+0x18>)
 81007d2:	68db      	ldr	r3, [r3, #12]
 81007d4:	0a1b      	lsrs	r3, r3, #8
 81007d6:	f003 0307 	and.w	r3, r3, #7
}
 81007da:	4618      	mov	r0, r3
 81007dc:	46bd      	mov	sp, r7
 81007de:	f85d 7b04 	ldr.w	r7, [sp], #4
 81007e2:	4770      	bx	lr
 81007e4:	e000ed00 	.word	0xe000ed00

081007e8 <__NVIC_EnableIRQ>:
  \details Enables a device specific interrupt in the NVIC interrupt controller.
  \param [in]      IRQn  Device specific interrupt number.
  \note    IRQn must not be negative.
 */
__STATIC_INLINE void __NVIC_EnableIRQ(IRQn_Type IRQn)
{
 81007e8:	b480      	push	{r7}
 81007ea:	b083      	sub	sp, #12
 81007ec:	af00      	add	r7, sp, #0
 81007ee:	4603      	mov	r3, r0
 81007f0:	80fb      	strh	r3, [r7, #6]
  if ((int32_t)(IRQn) >= 0)
 81007f2:	f9b7 3006 	ldrsh.w	r3, [r7, #6]
 81007f6:	2b00      	cmp	r3, #0
 81007f8:	db0b      	blt.n	8100812 <__NVIC_EnableIRQ+0x2a>
  {
    __COMPILER_BARRIER();
    NVIC->ISER[(((uint32_t)IRQn) >> 5UL)] = (uint32_t)(1UL << (((uint32_t)IRQn) & 0x1FUL));
 81007fa:	88fb      	ldrh	r3, [r7, #6]
 81007fc:	f003 021f 	and.w	r2, r3, #31
 8100800:	4907      	ldr	r1, [pc, #28]	; (8100820 <__NVIC_EnableIRQ+0x38>)
 8100802:	f9b7 3006 	ldrsh.w	r3, [r7, #6]
 8100806:	095b      	lsrs	r3, r3, #5
 8100808:	2001      	movs	r0, #1
 810080a:	fa00 f202 	lsl.w	r2, r0, r2
 810080e:	f841 2023 	str.w	r2, [r1, r3, lsl #2]
    __COMPILER_BARRIER();
  }
}
 8100812:	bf00      	nop
 8100814:	370c      	adds	r7, #12
 8100816:	46bd      	mov	sp, r7
 8100818:	f85d 7b04 	ldr.w	r7, [sp], #4
 810081c:	4770      	bx	lr
 810081e:	bf00      	nop
 8100820:	e000e100 	.word	0xe000e100

08100824 <__NVIC_SetPriority>:
  \param [in]      IRQn  Interrupt number.
  \param [in]  priority  Priority to set.
  \note    The priority cannot be set for every processor exception.
 */
__STATIC_INLINE void __NVIC_SetPriority(IRQn_Type IRQn, uint32_t priority)
{
 8100824:	b480      	push	{r7}
 8100826:	b083      	sub	sp, #12
 8100828:	af00      	add	r7, sp, #0
 810082a:	4603      	mov	r3, r0
 810082c:	6039      	str	r1, [r7, #0]
 810082e:	80fb      	strh	r3, [r7, #6]
  if ((int32_t)(IRQn) >= 0)
 8100830:	f9b7 3006 	ldrsh.w	r3, [r7, #6]
 8100834:	2b00      	cmp	r3, #0
 8100836:	db0a      	blt.n	810084e <__NVIC_SetPriority+0x2a>
  {
    NVIC->IP[((uint32_t)IRQn)]               = (uint8_t)((priority << (8U - __NVIC_PRIO_BITS)) & (uint32_t)0xFFUL);
 8100838:	683b      	ldr	r3, [r7, #0]
 810083a:	b2da      	uxtb	r2, r3
 810083c:	490c      	ldr	r1, [pc, #48]	; (8100870 <__NVIC_SetPriority+0x4c>)
 810083e:	f9b7 3006 	ldrsh.w	r3, [r7, #6]
 8100842:	0112      	lsls	r2, r2, #4
 8100844:	b2d2      	uxtb	r2, r2
 8100846:	440b      	add	r3, r1
 8100848:	f883 2300 	strb.w	r2, [r3, #768]	; 0x300
  }
  else
  {
    SCB->SHP[(((uint32_t)IRQn) & 0xFUL)-4UL] = (uint8_t)((priority << (8U - __NVIC_PRIO_BITS)) & (uint32_t)0xFFUL);
  }
}
 810084c:	e00a      	b.n	8100864 <__NVIC_SetPriority+0x40>
    SCB->SHP[(((uint32_t)IRQn) & 0xFUL)-4UL] = (uint8_t)((priority << (8U - __NVIC_PRIO_BITS)) & (uint32_t)0xFFUL);
 810084e:	683b      	ldr	r3, [r7, #0]
 8100850:	b2da      	uxtb	r2, r3
 8100852:	4908      	ldr	r1, [pc, #32]	; (8100874 <__NVIC_SetPriority+0x50>)
 8100854:	88fb      	ldrh	r3, [r7, #6]
 8100856:	f003 030f 	and.w	r3, r3, #15
 810085a:	3b04      	subs	r3, #4
 810085c:	0112      	lsls	r2, r2, #4
 810085e:	b2d2      	uxtb	r2, r2
 8100860:	440b      	add	r3, r1
 8100862:	761a      	strb	r2, [r3, #24]
}
 8100864:	bf00      	nop
 8100866:	370c      	adds	r7, #12
 8100868:	46bd      	mov	sp, r7
 810086a:	f85d 7b04 	ldr.w	r7, [sp], #4
 810086e:	4770      	bx	lr
 8100870:	e000e100 	.word	0xe000e100
 8100874:	e000ed00 	.word	0xe000ed00

08100878 <NVIC_EncodePriority>:
  \param [in]   PreemptPriority  Preemptive priority value (starting from 0).
  \param [in]       SubPriority  Subpriority value (starting from 0).
  \return                        Encoded priority. Value can be used in the function \ref NVIC_SetPriority().
 */
__STATIC_INLINE uint32_t NVIC_EncodePriority (uint32_t PriorityGroup, uint32_t PreemptPriority, uint32_t SubPriority)
{
 8100878:	b480      	push	{r7}
 810087a:	b089      	sub	sp, #36	; 0x24
 810087c:	af00      	add	r7, sp, #0
 810087e:	60f8      	str	r0, [r7, #12]
 8100880:	60b9      	str	r1, [r7, #8]
 8100882:	607a      	str	r2, [r7, #4]
  uint32_t PriorityGroupTmp = (PriorityGroup & (uint32_t)0x07UL);   /* only values 0..7 are used          */
 8100884:	68fb      	ldr	r3, [r7, #12]
 8100886:	f003 0307 	and.w	r3, r3, #7
 810088a:	61fb      	str	r3, [r7, #28]
  uint32_t PreemptPriorityBits;
  uint32_t SubPriorityBits;

  PreemptPriorityBits = ((7UL - PriorityGroupTmp) > (uint32_t)(__NVIC_PRIO_BITS)) ? (uint32_t)(__NVIC_PRIO_BITS) : (uint32_t)(7UL - PriorityGroupTmp);
 810088c:	69fb      	ldr	r3, [r7, #28]
 810088e:	f1c3 0307 	rsb	r3, r3, #7
 8100892:	2b04      	cmp	r3, #4
 8100894:	bf28      	it	cs
 8100896:	2304      	movcs	r3, #4
 8100898:	61bb      	str	r3, [r7, #24]
  SubPriorityBits     = ((PriorityGroupTmp + (uint32_t)(__NVIC_PRIO_BITS)) < (uint32_t)7UL) ? (uint32_t)0UL : (uint32_t)((PriorityGroupTmp - 7UL) + (uint32_t)(__NVIC_PRIO_BITS));
 810089a:	69fb      	ldr	r3, [r7, #28]
 810089c:	3304      	adds	r3, #4
 810089e:	2b06      	cmp	r3, #6
 81008a0:	d902      	bls.n	81008a8 <NVIC_EncodePriority+0x30>
 81008a2:	69fb      	ldr	r3, [r7, #28]
 81008a4:	3b03      	subs	r3, #3
 81008a6:	e000      	b.n	81008aa <NVIC_EncodePriority+0x32>
 81008a8:	2300      	movs	r3, #0
 81008aa:	617b      	str	r3, [r7, #20]

  return (
           ((PreemptPriority & (uint32_t)((1UL << (PreemptPriorityBits)) - 1UL)) << SubPriorityBits) |
 81008ac:	f04f 32ff 	mov.w	r2, #4294967295
 81008b0:	69bb      	ldr	r3, [r7, #24]
 81008b2:	fa02 f303 	lsl.w	r3, r2, r3
 81008b6:	43da      	mvns	r2, r3
 81008b8:	68bb      	ldr	r3, [r7, #8]
 81008ba:	401a      	ands	r2, r3
 81008bc:	697b      	ldr	r3, [r7, #20]
 81008be:	409a      	lsls	r2, r3
           ((SubPriority     & (uint32_t)((1UL << (SubPriorityBits    )) - 1UL)))
 81008c0:	f04f 31ff 	mov.w	r1, #4294967295
 81008c4:	697b      	ldr	r3, [r7, #20]
 81008c6:	fa01 f303 	lsl.w	r3, r1, r3
 81008ca:	43d9      	mvns	r1, r3
 81008cc:	687b      	ldr	r3, [r7, #4]
 81008ce:	400b      	ands	r3, r1
           ((PreemptPriority & (uint32_t)((1UL << (PreemptPriorityBits)) - 1UL)) << SubPriorityBits) |
 81008d0:	4313      	orrs	r3, r2
         );
}
 81008d2:	4618      	mov	r0, r3
 81008d4:	3724      	adds	r7, #36	; 0x24
 81008d6:	46bd      	mov	sp, r7
 81008d8:	f85d 7b04 	ldr.w	r7, [sp], #4
 81008dc:	4770      	bx	lr

081008de <HAL_NVIC_SetPriorityGrouping>:
  * @note   When the NVIC_PriorityGroup_0 is selected, IRQ preemption is no more possible.
  *         The pending IRQ priority will be managed only by the subpriority.
  * @retval None
  */
void HAL_NVIC_SetPriorityGrouping(uint32_t PriorityGroup)
{
 81008de:	b580      	push	{r7, lr}
 81008e0:	b082      	sub	sp, #8
 81008e2:	af00      	add	r7, sp, #0
 81008e4:	6078      	str	r0, [r7, #4]
  /* Check the parameters */
  assert_param(IS_NVIC_PRIORITY_GROUP(PriorityGroup));

  /* Set the PRIGROUP[10:8] bits according to the PriorityGroup parameter value */
  NVIC_SetPriorityGrouping(PriorityGroup);
 81008e6:	6878      	ldr	r0, [r7, #4]
 81008e8:	f7ff ff4c 	bl	8100784 <__NVIC_SetPriorityGrouping>
}
 81008ec:	bf00      	nop
 81008ee:	3708      	adds	r7, #8
 81008f0:	46bd      	mov	sp, r7
 81008f2:	bd80      	pop	{r7, pc}

081008f4 <HAL_NVIC_SetPriority>:
  *         This parameter can be a value between 0 and 15
  *         A lower priority value indicates a higher priority.
  * @retval None
  */
void HAL_NVIC_SetPriority(IRQn_Type IRQn, uint32_t PreemptPriority, uint32_t SubPriority)
{
 81008f4:	b580      	push	{r7, lr}
 81008f6:	b086      	sub	sp, #24
 81008f8:	af00      	add	r7, sp, #0
 81008fa:	4603      	mov	r3, r0
 81008fc:	60b9      	str	r1, [r7, #8]
 81008fe:	607a      	str	r2, [r7, #4]
 8100900:	81fb      	strh	r3, [r7, #14]

  /* Check the parameters */
  assert_param(IS_NVIC_SUB_PRIORITY(SubPriority));
  assert_param(IS_NVIC_PREEMPTION_PRIORITY(PreemptPriority));

  prioritygroup = NVIC_GetPriorityGrouping();
 8100902:	f7ff ff63 	bl	81007cc <__NVIC_GetPriorityGrouping>
 8100906:	6178      	str	r0, [r7, #20]

  NVIC_SetPriority(IRQn, NVIC_EncodePriority(prioritygroup, PreemptPriority, SubPriority));
 8100908:	687a      	ldr	r2, [r7, #4]
 810090a:	68b9      	ldr	r1, [r7, #8]
 810090c:	6978      	ldr	r0, [r7, #20]
 810090e:	f7ff ffb3 	bl	8100878 <NVIC_EncodePriority>
 8100912:	4602      	mov	r2, r0
 8100914:	f9b7 300e 	ldrsh.w	r3, [r7, #14]
 8100918:	4611      	mov	r1, r2
 810091a:	4618      	mov	r0, r3
 810091c:	f7ff ff82 	bl	8100824 <__NVIC_SetPriority>
}
 8100920:	bf00      	nop
 8100922:	3718      	adds	r7, #24
 8100924:	46bd      	mov	sp, r7
 8100926:	bd80      	pop	{r7, pc}

08100928 <HAL_NVIC_EnableIRQ>:
  *         This parameter can be an enumerator of IRQn_Type enumeration
  *         (For the complete STM32 Devices IRQ Channels list, please refer to the appropriate CMSIS device file (stm32h7xxxx.h))
  * @retval None
  */
void HAL_NVIC_EnableIRQ(IRQn_Type IRQn)
{
 8100928:	b580      	push	{r7, lr}
 810092a:	b082      	sub	sp, #8
 810092c:	af00      	add	r7, sp, #0
 810092e:	4603      	mov	r3, r0
 8100930:	80fb      	strh	r3, [r7, #6]
  /* Check the parameters */
  assert_param(IS_NVIC_DEVICE_IRQ(IRQn));

  /* Enable interrupt */
  NVIC_EnableIRQ(IRQn);
 8100932:	f9b7 3006 	ldrsh.w	r3, [r7, #6]
 8100936:	4618      	mov	r0, r3
 8100938:	f7ff ff56 	bl	81007e8 <__NVIC_EnableIRQ>
}
 810093c:	bf00      	nop
 810093e:	3708      	adds	r7, #8
 8100940:	46bd      	mov	sp, r7
 8100942:	bd80      	pop	{r7, pc}

08100944 <HAL_GetCurrentCPUID>:
/**
  * @brief  Returns the current CPU ID.
  * @retval CPU identifier
  */
uint32_t HAL_GetCurrentCPUID(void)
{
 8100944:	b480      	push	{r7}
 8100946:	af00      	add	r7, sp, #0
  if (((SCB->CPUID & 0x000000F0U) >> 4 )== 0x7U)
 8100948:	4b07      	ldr	r3, [pc, #28]	; (8100968 <HAL_GetCurrentCPUID+0x24>)
 810094a:	681b      	ldr	r3, [r3, #0]
 810094c:	091b      	lsrs	r3, r3, #4
 810094e:	f003 030f 	and.w	r3, r3, #15
 8100952:	2b07      	cmp	r3, #7
 8100954:	d101      	bne.n	810095a <HAL_GetCurrentCPUID+0x16>
  {
    return  CM7_CPUID;
 8100956:	2303      	movs	r3, #3
 8100958:	e000      	b.n	810095c <HAL_GetCurrentCPUID+0x18>
  }
  else
  {
    return CM4_CPUID;
 810095a:	2301      	movs	r3, #1
  }
}
 810095c:	4618      	mov	r0, r3
 810095e:	46bd      	mov	sp, r7
 8100960:	f85d 7b04 	ldr.w	r7, [sp], #4
 8100964:	4770      	bx	lr
 8100966:	bf00      	nop
 8100968:	e000ed00 	.word	0xe000ed00

0810096c <HAL_GPIO_Init>:
  * @param  GPIO_Init: pointer to a GPIO_InitTypeDef structure that contains
  *         the configuration information for the specified GPIO peripheral.
  * @retval None
  */
void HAL_GPIO_Init(GPIO_TypeDef  *GPIOx, GPIO_InitTypeDef *GPIO_Init)
{
 810096c:	b480      	push	{r7}
 810096e:	b089      	sub	sp, #36	; 0x24
 8100970:	af00      	add	r7, sp, #0
 8100972:	6078      	str	r0, [r7, #4]
 8100974:	6039      	str	r1, [r7, #0]
  uint32_t position = 0x00U;
 8100976:	2300      	movs	r3, #0
 8100978:	61fb      	str	r3, [r7, #28]
  uint32_t iocurrent;
  uint32_t temp;
  EXTI_Core_TypeDef *EXTI_CurrentCPU;

#if defined(DUAL_CORE) && defined(CORE_CM4)
  EXTI_CurrentCPU = EXTI_D2; /* EXTI for CM4 CPU */
 810097a:	4b89      	ldr	r3, [pc, #548]	; (8100ba0 <HAL_GPIO_Init+0x234>)
 810097c:	617b      	str	r3, [r7, #20]
  assert_param(IS_GPIO_ALL_INSTANCE(GPIOx));
  assert_param(IS_GPIO_PIN(GPIO_Init->Pin));
  assert_param(IS_GPIO_MODE(GPIO_Init->Mode));

  /* Configure the port pins */
  while (((GPIO_Init->Pin) >> position) != 0x00U)
 810097e:	e194      	b.n	8100caa <HAL_GPIO_Init+0x33e>
  {
    /* Get current io position */
    iocurrent = (GPIO_Init->Pin) & (1UL << position);
 8100980:	683b      	ldr	r3, [r7, #0]
 8100982:	681a      	ldr	r2, [r3, #0]
 8100984:	2101      	movs	r1, #1
 8100986:	69fb      	ldr	r3, [r7, #28]
 8100988:	fa01 f303 	lsl.w	r3, r1, r3
 810098c:	4013      	ands	r3, r2
 810098e:	613b      	str	r3, [r7, #16]

    if (iocurrent != 0x00U)
 8100990:	693b      	ldr	r3, [r7, #16]
 8100992:	2b00      	cmp	r3, #0
 8100994:	f000 8186 	beq.w	8100ca4 <HAL_GPIO_Init+0x338>
    {
      /*--------------------- GPIO Mode Configuration ------------------------*/
      /* In case of Output or Alternate function mode selection */
      if (((GPIO_Init->Mode & GPIO_MODE) == MODE_OUTPUT) || ((GPIO_Init->Mode & GPIO_MODE) == MODE_AF))
 8100998:	683b      	ldr	r3, [r7, #0]
 810099a:	685b      	ldr	r3, [r3, #4]
 810099c:	f003 0303 	and.w	r3, r3, #3
 81009a0:	2b01      	cmp	r3, #1
 81009a2:	d005      	beq.n	81009b0 <HAL_GPIO_Init+0x44>
 81009a4:	683b      	ldr	r3, [r7, #0]
 81009a6:	685b      	ldr	r3, [r3, #4]
 81009a8:	f003 0303 	and.w	r3, r3, #3
 81009ac:	2b02      	cmp	r3, #2
 81009ae:	d130      	bne.n	8100a12 <HAL_GPIO_Init+0xa6>
      {
        /* Check the Speed parameter */
        assert_param(IS_GPIO_SPEED(GPIO_Init->Speed));

        /* Configure the IO Speed */
        temp = GPIOx->OSPEEDR;
 81009b0:	687b      	ldr	r3, [r7, #4]
 81009b2:	689b      	ldr	r3, [r3, #8]
 81009b4:	61bb      	str	r3, [r7, #24]
        temp &= ~(GPIO_OSPEEDR_OSPEED0 << (position * 2U));
 81009b6:	69fb      	ldr	r3, [r7, #28]
 81009b8:	005b      	lsls	r3, r3, #1
 81009ba:	2203      	movs	r2, #3
 81009bc:	fa02 f303 	lsl.w	r3, r2, r3
 81009c0:	43db      	mvns	r3, r3
 81009c2:	69ba      	ldr	r2, [r7, #24]
 81009c4:	4013      	ands	r3, r2
 81009c6:	61bb      	str	r3, [r7, #24]
        temp |= (GPIO_Init->Speed << (position * 2U));
 81009c8:	683b      	ldr	r3, [r7, #0]
 81009ca:	68da      	ldr	r2, [r3, #12]
 81009cc:	69fb      	ldr	r3, [r7, #28]
 81009ce:	005b      	lsls	r3, r3, #1
 81009d0:	fa02 f303 	lsl.w	r3, r2, r3
 81009d4:	69ba      	ldr	r2, [r7, #24]
 81009d6:	4313      	orrs	r3, r2
 81009d8:	61bb      	str	r3, [r7, #24]
        GPIOx->OSPEEDR = temp;
 81009da:	687b      	ldr	r3, [r7, #4]
 81009dc:	69ba      	ldr	r2, [r7, #24]
 81009de:	609a      	str	r2, [r3, #8]

        /* Configure the IO Output Type */
        temp = GPIOx->OTYPER;
 81009e0:	687b      	ldr	r3, [r7, #4]
 81009e2:	685b      	ldr	r3, [r3, #4]
 81009e4:	61bb      	str	r3, [r7, #24]
        temp &= ~(GPIO_OTYPER_OT0 << position) ;
 81009e6:	2201      	movs	r2, #1
 81009e8:	69fb      	ldr	r3, [r7, #28]
 81009ea:	fa02 f303 	lsl.w	r3, r2, r3
 81009ee:	43db      	mvns	r3, r3
 81009f0:	69ba      	ldr	r2, [r7, #24]
 81009f2:	4013      	ands	r3, r2
 81009f4:	61bb      	str	r3, [r7, #24]
        temp |= (((GPIO_Init->Mode & OUTPUT_TYPE) >> OUTPUT_TYPE_Pos) << position);
 81009f6:	683b      	ldr	r3, [r7, #0]
 81009f8:	685b      	ldr	r3, [r3, #4]
 81009fa:	091b      	lsrs	r3, r3, #4
 81009fc:	f003 0201 	and.w	r2, r3, #1
 8100a00:	69fb      	ldr	r3, [r7, #28]
 8100a02:	fa02 f303 	lsl.w	r3, r2, r3
 8100a06:	69ba      	ldr	r2, [r7, #24]
 8100a08:	4313      	orrs	r3, r2
 8100a0a:	61bb      	str	r3, [r7, #24]
        GPIOx->OTYPER = temp;
 8100a0c:	687b      	ldr	r3, [r7, #4]
 8100a0e:	69ba      	ldr	r2, [r7, #24]
 8100a10:	605a      	str	r2, [r3, #4]
      }

      if ((GPIO_Init->Mode & GPIO_MODE) != MODE_ANALOG)
 8100a12:	683b      	ldr	r3, [r7, #0]
 8100a14:	685b      	ldr	r3, [r3, #4]
 8100a16:	f003 0303 	and.w	r3, r3, #3
 8100a1a:	2b03      	cmp	r3, #3
 8100a1c:	d017      	beq.n	8100a4e <HAL_GPIO_Init+0xe2>
      {
       /* Check the Pull parameter */
       assert_param(IS_GPIO_PULL(GPIO_Init->Pull));

      /* Activate the Pull-up or Pull down resistor for the current IO */
      temp = GPIOx->PUPDR;
 8100a1e:	687b      	ldr	r3, [r7, #4]
 8100a20:	68db      	ldr	r3, [r3, #12]
 8100a22:	61bb      	str	r3, [r7, #24]
      temp &= ~(GPIO_PUPDR_PUPD0 << (position * 2U));
 8100a24:	69fb      	ldr	r3, [r7, #28]
 8100a26:	005b      	lsls	r3, r3, #1
 8100a28:	2203      	movs	r2, #3
 8100a2a:	fa02 f303 	lsl.w	r3, r2, r3
 8100a2e:	43db      	mvns	r3, r3
 8100a30:	69ba      	ldr	r2, [r7, #24]
 8100a32:	4013      	ands	r3, r2
 8100a34:	61bb      	str	r3, [r7, #24]
      temp |= ((GPIO_Init->Pull) << (position * 2U));
 8100a36:	683b      	ldr	r3, [r7, #0]
 8100a38:	689a      	ldr	r2, [r3, #8]
 8100a3a:	69fb      	ldr	r3, [r7, #28]
 8100a3c:	005b      	lsls	r3, r3, #1
 8100a3e:	fa02 f303 	lsl.w	r3, r2, r3
 8100a42:	69ba      	ldr	r2, [r7, #24]
 8100a44:	4313      	orrs	r3, r2
 8100a46:	61bb      	str	r3, [r7, #24]
      GPIOx->PUPDR = temp;
 8100a48:	687b      	ldr	r3, [r7, #4]
 8100a4a:	69ba      	ldr	r2, [r7, #24]
 8100a4c:	60da      	str	r2, [r3, #12]
      }

      /* In case of Alternate function mode selection */
      if ((GPIO_Init->Mode & GPIO_MODE) == MODE_AF)
 8100a4e:	683b      	ldr	r3, [r7, #0]
 8100a50:	685b      	ldr	r3, [r3, #4]
 8100a52:	f003 0303 	and.w	r3, r3, #3
 8100a56:	2b02      	cmp	r3, #2
 8100a58:	d123      	bne.n	8100aa2 <HAL_GPIO_Init+0x136>
        /* Check the Alternate function parameters */
        assert_param(IS_GPIO_AF_INSTANCE(GPIOx));
        assert_param(IS_GPIO_AF(GPIO_Init->Alternate));

        /* Configure Alternate function mapped with the current IO */
        temp = GPIOx->AFR[position >> 3U];
 8100a5a:	69fb      	ldr	r3, [r7, #28]
 8100a5c:	08da      	lsrs	r2, r3, #3
 8100a5e:	687b      	ldr	r3, [r7, #4]
 8100a60:	3208      	adds	r2, #8
 8100a62:	f853 3022 	ldr.w	r3, [r3, r2, lsl #2]
 8100a66:	61bb      	str	r3, [r7, #24]
        temp &= ~(0xFU << ((position & 0x07U) * 4U));
 8100a68:	69fb      	ldr	r3, [r7, #28]
 8100a6a:	f003 0307 	and.w	r3, r3, #7
 8100a6e:	009b      	lsls	r3, r3, #2
 8100a70:	220f      	movs	r2, #15
 8100a72:	fa02 f303 	lsl.w	r3, r2, r3
 8100a76:	43db      	mvns	r3, r3
 8100a78:	69ba      	ldr	r2, [r7, #24]
 8100a7a:	4013      	ands	r3, r2
 8100a7c:	61bb      	str	r3, [r7, #24]
        temp |= ((GPIO_Init->Alternate) << ((position & 0x07U) * 4U));
 8100a7e:	683b      	ldr	r3, [r7, #0]
 8100a80:	691a      	ldr	r2, [r3, #16]
 8100a82:	69fb      	ldr	r3, [r7, #28]
 8100a84:	f003 0307 	and.w	r3, r3, #7
 8100a88:	009b      	lsls	r3, r3, #2
 8100a8a:	fa02 f303 	lsl.w	r3, r2, r3
 8100a8e:	69ba      	ldr	r2, [r7, #24]
 8100a90:	4313      	orrs	r3, r2
 8100a92:	61bb      	str	r3, [r7, #24]
        GPIOx->AFR[position >> 3U] = temp;
 8100a94:	69fb      	ldr	r3, [r7, #28]
 8100a96:	08da      	lsrs	r2, r3, #3
 8100a98:	687b      	ldr	r3, [r7, #4]
 8100a9a:	3208      	adds	r2, #8
 8100a9c:	69b9      	ldr	r1, [r7, #24]
 8100a9e:	f843 1022 	str.w	r1, [r3, r2, lsl #2]
      }

      /* Configure IO Direction mode (Input, Output, Alternate or Analog) */
      temp = GPIOx->MODER;
 8100aa2:	687b      	ldr	r3, [r7, #4]
 8100aa4:	681b      	ldr	r3, [r3, #0]
 8100aa6:	61bb      	str	r3, [r7, #24]
      temp &= ~(GPIO_MODER_MODE0 << (position * 2U));
 8100aa8:	69fb      	ldr	r3, [r7, #28]
 8100aaa:	005b      	lsls	r3, r3, #1
 8100aac:	2203      	movs	r2, #3
 8100aae:	fa02 f303 	lsl.w	r3, r2, r3
 8100ab2:	43db      	mvns	r3, r3
 8100ab4:	69ba      	ldr	r2, [r7, #24]
 8100ab6:	4013      	ands	r3, r2
 8100ab8:	61bb      	str	r3, [r7, #24]
      temp |= ((GPIO_Init->Mode & GPIO_MODE) << (position * 2U));
 8100aba:	683b      	ldr	r3, [r7, #0]
 8100abc:	685b      	ldr	r3, [r3, #4]
 8100abe:	f003 0203 	and.w	r2, r3, #3
 8100ac2:	69fb      	ldr	r3, [r7, #28]
 8100ac4:	005b      	lsls	r3, r3, #1
 8100ac6:	fa02 f303 	lsl.w	r3, r2, r3
 8100aca:	69ba      	ldr	r2, [r7, #24]
 8100acc:	4313      	orrs	r3, r2
 8100ace:	61bb      	str	r3, [r7, #24]
      GPIOx->MODER = temp;
 8100ad0:	687b      	ldr	r3, [r7, #4]
 8100ad2:	69ba      	ldr	r2, [r7, #24]
 8100ad4:	601a      	str	r2, [r3, #0]

      /*--------------------- EXTI Mode Configuration ------------------------*/
      /* Configure the External Interrupt or event for the current IO */
      if ((GPIO_Init->Mode & EXTI_MODE) != 0x00U)
 8100ad6:	683b      	ldr	r3, [r7, #0]
 8100ad8:	685b      	ldr	r3, [r3, #4]
 8100ada:	f403 3340 	and.w	r3, r3, #196608	; 0x30000
 8100ade:	2b00      	cmp	r3, #0
 8100ae0:	f000 80e0 	beq.w	8100ca4 <HAL_GPIO_Init+0x338>
      {
        /* Enable SYSCFG Clock */
        __HAL_RCC_SYSCFG_CLK_ENABLE();
 8100ae4:	4b2f      	ldr	r3, [pc, #188]	; (8100ba4 <HAL_GPIO_Init+0x238>)
 8100ae6:	f8d3 30f4 	ldr.w	r3, [r3, #244]	; 0xf4
 8100aea:	4a2e      	ldr	r2, [pc, #184]	; (8100ba4 <HAL_GPIO_Init+0x238>)
 8100aec:	f043 0302 	orr.w	r3, r3, #2
 8100af0:	f8c2 30f4 	str.w	r3, [r2, #244]	; 0xf4
 8100af4:	4b2b      	ldr	r3, [pc, #172]	; (8100ba4 <HAL_GPIO_Init+0x238>)
 8100af6:	f8d3 30f4 	ldr.w	r3, [r3, #244]	; 0xf4
 8100afa:	f003 0302 	and.w	r3, r3, #2
 8100afe:	60fb      	str	r3, [r7, #12]
 8100b00:	68fb      	ldr	r3, [r7, #12]

        temp = SYSCFG->EXTICR[position >> 2U];
 8100b02:	4a29      	ldr	r2, [pc, #164]	; (8100ba8 <HAL_GPIO_Init+0x23c>)
 8100b04:	69fb      	ldr	r3, [r7, #28]
 8100b06:	089b      	lsrs	r3, r3, #2
 8100b08:	3302      	adds	r3, #2
 8100b0a:	f852 3023 	ldr.w	r3, [r2, r3, lsl #2]
 8100b0e:	61bb      	str	r3, [r7, #24]
        temp &= ~(0x0FUL << (4U * (position & 0x03U)));
 8100b10:	69fb      	ldr	r3, [r7, #28]
 8100b12:	f003 0303 	and.w	r3, r3, #3
 8100b16:	009b      	lsls	r3, r3, #2
 8100b18:	220f      	movs	r2, #15
 8100b1a:	fa02 f303 	lsl.w	r3, r2, r3
 8100b1e:	43db      	mvns	r3, r3
 8100b20:	69ba      	ldr	r2, [r7, #24]
 8100b22:	4013      	ands	r3, r2
 8100b24:	61bb      	str	r3, [r7, #24]
        temp |= (GPIO_GET_INDEX(GPIOx) << (4U * (position & 0x03U)));
 8100b26:	687b      	ldr	r3, [r7, #4]
 8100b28:	4a20      	ldr	r2, [pc, #128]	; (8100bac <HAL_GPIO_Init+0x240>)
 8100b2a:	4293      	cmp	r3, r2
 8100b2c:	d052      	beq.n	8100bd4 <HAL_GPIO_Init+0x268>
 8100b2e:	687b      	ldr	r3, [r7, #4]
 8100b30:	4a1f      	ldr	r2, [pc, #124]	; (8100bb0 <HAL_GPIO_Init+0x244>)
 8100b32:	4293      	cmp	r3, r2
 8100b34:	d031      	beq.n	8100b9a <HAL_GPIO_Init+0x22e>
 8100b36:	687b      	ldr	r3, [r7, #4]
 8100b38:	4a1e      	ldr	r2, [pc, #120]	; (8100bb4 <HAL_GPIO_Init+0x248>)
 8100b3a:	4293      	cmp	r3, r2
 8100b3c:	d02b      	beq.n	8100b96 <HAL_GPIO_Init+0x22a>
 8100b3e:	687b      	ldr	r3, [r7, #4]
 8100b40:	4a1d      	ldr	r2, [pc, #116]	; (8100bb8 <HAL_GPIO_Init+0x24c>)
 8100b42:	4293      	cmp	r3, r2
 8100b44:	d025      	beq.n	8100b92 <HAL_GPIO_Init+0x226>
 8100b46:	687b      	ldr	r3, [r7, #4]
 8100b48:	4a1c      	ldr	r2, [pc, #112]	; (8100bbc <HAL_GPIO_Init+0x250>)
 8100b4a:	4293      	cmp	r3, r2
 8100b4c:	d01f      	beq.n	8100b8e <HAL_GPIO_Init+0x222>
 8100b4e:	687b      	ldr	r3, [r7, #4]
 8100b50:	4a1b      	ldr	r2, [pc, #108]	; (8100bc0 <HAL_GPIO_Init+0x254>)
 8100b52:	4293      	cmp	r3, r2
 8100b54:	d019      	beq.n	8100b8a <HAL_GPIO_Init+0x21e>
 8100b56:	687b      	ldr	r3, [r7, #4]
 8100b58:	4a1a      	ldr	r2, [pc, #104]	; (8100bc4 <HAL_GPIO_Init+0x258>)
 8100b5a:	4293      	cmp	r3, r2
 8100b5c:	d013      	beq.n	8100b86 <HAL_GPIO_Init+0x21a>
 8100b5e:	687b      	ldr	r3, [r7, #4]
 8100b60:	4a19      	ldr	r2, [pc, #100]	; (8100bc8 <HAL_GPIO_Init+0x25c>)
 8100b62:	4293      	cmp	r3, r2
 8100b64:	d00d      	beq.n	8100b82 <HAL_GPIO_Init+0x216>
 8100b66:	687b      	ldr	r3, [r7, #4]
 8100b68:	4a18      	ldr	r2, [pc, #96]	; (8100bcc <HAL_GPIO_Init+0x260>)
 8100b6a:	4293      	cmp	r3, r2
 8100b6c:	d007      	beq.n	8100b7e <HAL_GPIO_Init+0x212>
 8100b6e:	687b      	ldr	r3, [r7, #4]
 8100b70:	4a17      	ldr	r2, [pc, #92]	; (8100bd0 <HAL_GPIO_Init+0x264>)
 8100b72:	4293      	cmp	r3, r2
 8100b74:	d101      	bne.n	8100b7a <HAL_GPIO_Init+0x20e>
 8100b76:	2309      	movs	r3, #9
 8100b78:	e02d      	b.n	8100bd6 <HAL_GPIO_Init+0x26a>
 8100b7a:	230a      	movs	r3, #10
 8100b7c:	e02b      	b.n	8100bd6 <HAL_GPIO_Init+0x26a>
 8100b7e:	2308      	movs	r3, #8
 8100b80:	e029      	b.n	8100bd6 <HAL_GPIO_Init+0x26a>
 8100b82:	2307      	movs	r3, #7
 8100b84:	e027      	b.n	8100bd6 <HAL_GPIO_Init+0x26a>
 8100b86:	2306      	movs	r3, #6
 8100b88:	e025      	b.n	8100bd6 <HAL_GPIO_Init+0x26a>
 8100b8a:	2305      	movs	r3, #5
 8100b8c:	e023      	b.n	8100bd6 <HAL_GPIO_Init+0x26a>
 8100b8e:	2304      	movs	r3, #4
 8100b90:	e021      	b.n	8100bd6 <HAL_GPIO_Init+0x26a>
 8100b92:	2303      	movs	r3, #3
 8100b94:	e01f      	b.n	8100bd6 <HAL_GPIO_Init+0x26a>
 8100b96:	2302      	movs	r3, #2
 8100b98:	e01d      	b.n	8100bd6 <HAL_GPIO_Init+0x26a>
 8100b9a:	2301      	movs	r3, #1
 8100b9c:	e01b      	b.n	8100bd6 <HAL_GPIO_Init+0x26a>
 8100b9e:	bf00      	nop
 8100ba0:	580000c0 	.word	0x580000c0
 8100ba4:	58024400 	.word	0x58024400
 8100ba8:	58000400 	.word	0x58000400
 8100bac:	58020000 	.word	0x58020000
 8100bb0:	58020400 	.word	0x58020400
 8100bb4:	58020800 	.word	0x58020800
 8100bb8:	58020c00 	.word	0x58020c00
 8100bbc:	58021000 	.word	0x58021000
 8100bc0:	58021400 	.word	0x58021400
 8100bc4:	58021800 	.word	0x58021800
 8100bc8:	58021c00 	.word	0x58021c00
 8100bcc:	58022000 	.word	0x58022000
 8100bd0:	58022400 	.word	0x58022400
 8100bd4:	2300      	movs	r3, #0
 8100bd6:	69fa      	ldr	r2, [r7, #28]
 8100bd8:	f002 0203 	and.w	r2, r2, #3
 8100bdc:	0092      	lsls	r2, r2, #2
 8100bde:	4093      	lsls	r3, r2
 8100be0:	69ba      	ldr	r2, [r7, #24]
 8100be2:	4313      	orrs	r3, r2
 8100be4:	61bb      	str	r3, [r7, #24]
        SYSCFG->EXTICR[position >> 2U] = temp;
 8100be6:	4938      	ldr	r1, [pc, #224]	; (8100cc8 <HAL_GPIO_Init+0x35c>)
 8100be8:	69fb      	ldr	r3, [r7, #28]
 8100bea:	089b      	lsrs	r3, r3, #2
 8100bec:	3302      	adds	r3, #2
 8100bee:	69ba      	ldr	r2, [r7, #24]
 8100bf0:	f841 2023 	str.w	r2, [r1, r3, lsl #2]

        /* Clear Rising Falling edge configuration */
        temp = EXTI->RTSR1;
 8100bf4:	f04f 43b0 	mov.w	r3, #1476395008	; 0x58000000
 8100bf8:	681b      	ldr	r3, [r3, #0]
 8100bfa:	61bb      	str	r3, [r7, #24]
        temp &= ~(iocurrent);
 8100bfc:	693b      	ldr	r3, [r7, #16]
 8100bfe:	43db      	mvns	r3, r3
 8100c00:	69ba      	ldr	r2, [r7, #24]
 8100c02:	4013      	ands	r3, r2
 8100c04:	61bb      	str	r3, [r7, #24]
        if ((GPIO_Init->Mode & TRIGGER_RISING) != 0x00U)
 8100c06:	683b      	ldr	r3, [r7, #0]
 8100c08:	685b      	ldr	r3, [r3, #4]
 8100c0a:	f403 1380 	and.w	r3, r3, #1048576	; 0x100000
 8100c0e:	2b00      	cmp	r3, #0
 8100c10:	d003      	beq.n	8100c1a <HAL_GPIO_Init+0x2ae>
        {
          temp |= iocurrent;
 8100c12:	69ba      	ldr	r2, [r7, #24]
 8100c14:	693b      	ldr	r3, [r7, #16]
 8100c16:	4313      	orrs	r3, r2
 8100c18:	61bb      	str	r3, [r7, #24]
        }
        EXTI->RTSR1 = temp;
 8100c1a:	f04f 42b0 	mov.w	r2, #1476395008	; 0x58000000
 8100c1e:	69bb      	ldr	r3, [r7, #24]
 8100c20:	6013      	str	r3, [r2, #0]

        temp = EXTI->FTSR1;
 8100c22:	f04f 43b0 	mov.w	r3, #1476395008	; 0x58000000
 8100c26:	685b      	ldr	r3, [r3, #4]
 8100c28:	61bb      	str	r3, [r7, #24]
        temp &= ~(iocurrent);
 8100c2a:	693b      	ldr	r3, [r7, #16]
 8100c2c:	43db      	mvns	r3, r3
 8100c2e:	69ba      	ldr	r2, [r7, #24]
 8100c30:	4013      	ands	r3, r2
 8100c32:	61bb      	str	r3, [r7, #24]
        if ((GPIO_Init->Mode & TRIGGER_FALLING) != 0x00U)
 8100c34:	683b      	ldr	r3, [r7, #0]
 8100c36:	685b      	ldr	r3, [r3, #4]
 8100c38:	f403 1300 	and.w	r3, r3, #2097152	; 0x200000
 8100c3c:	2b00      	cmp	r3, #0
 8100c3e:	d003      	beq.n	8100c48 <HAL_GPIO_Init+0x2dc>
        {
          temp |= iocurrent;
 8100c40:	69ba      	ldr	r2, [r7, #24]
 8100c42:	693b      	ldr	r3, [r7, #16]
 8100c44:	4313      	orrs	r3, r2
 8100c46:	61bb      	str	r3, [r7, #24]
        }
        EXTI->FTSR1 = temp;
 8100c48:	f04f 42b0 	mov.w	r2, #1476395008	; 0x58000000
 8100c4c:	69bb      	ldr	r3, [r7, #24]
 8100c4e:	6053      	str	r3, [r2, #4]

        temp = EXTI_CurrentCPU->EMR1;
 8100c50:	697b      	ldr	r3, [r7, #20]
 8100c52:	685b      	ldr	r3, [r3, #4]
 8100c54:	61bb      	str	r3, [r7, #24]
        temp &= ~(iocurrent);
 8100c56:	693b      	ldr	r3, [r7, #16]
 8100c58:	43db      	mvns	r3, r3
 8100c5a:	69ba      	ldr	r2, [r7, #24]
 8100c5c:	4013      	ands	r3, r2
 8100c5e:	61bb      	str	r3, [r7, #24]
        if ((GPIO_Init->Mode & EXTI_EVT) != 0x00U)
 8100c60:	683b      	ldr	r3, [r7, #0]
 8100c62:	685b      	ldr	r3, [r3, #4]
 8100c64:	f403 3300 	and.w	r3, r3, #131072	; 0x20000
 8100c68:	2b00      	cmp	r3, #0
 8100c6a:	d003      	beq.n	8100c74 <HAL_GPIO_Init+0x308>
        {
          temp |= iocurrent;
 8100c6c:	69ba      	ldr	r2, [r7, #24]
 8100c6e:	693b      	ldr	r3, [r7, #16]
 8100c70:	4313      	orrs	r3, r2
 8100c72:	61bb      	str	r3, [r7, #24]
        }
        EXTI_CurrentCPU->EMR1 = temp;
 8100c74:	697b      	ldr	r3, [r7, #20]
 8100c76:	69ba      	ldr	r2, [r7, #24]
 8100c78:	605a      	str	r2, [r3, #4]

        /* Clear EXTI line configuration */
        temp = EXTI_CurrentCPU->IMR1;
 8100c7a:	697b      	ldr	r3, [r7, #20]
 8100c7c:	681b      	ldr	r3, [r3, #0]
 8100c7e:	61bb      	str	r3, [r7, #24]
        temp &= ~(iocurrent);
 8100c80:	693b      	ldr	r3, [r7, #16]
 8100c82:	43db      	mvns	r3, r3
 8100c84:	69ba      	ldr	r2, [r7, #24]
 8100c86:	4013      	ands	r3, r2
 8100c88:	61bb      	str	r3, [r7, #24]
        if ((GPIO_Init->Mode & EXTI_IT) != 0x00U)
 8100c8a:	683b      	ldr	r3, [r7, #0]
 8100c8c:	685b      	ldr	r3, [r3, #4]
 8100c8e:	f403 3380 	and.w	r3, r3, #65536	; 0x10000
 8100c92:	2b00      	cmp	r3, #0
 8100c94:	d003      	beq.n	8100c9e <HAL_GPIO_Init+0x332>
        {
          temp |= iocurrent;
 8100c96:	69ba      	ldr	r2, [r7, #24]
 8100c98:	693b      	ldr	r3, [r7, #16]
 8100c9a:	4313      	orrs	r3, r2
 8100c9c:	61bb      	str	r3, [r7, #24]
        }
        EXTI_CurrentCPU->IMR1 = temp;
 8100c9e:	697b      	ldr	r3, [r7, #20]
 8100ca0:	69ba      	ldr	r2, [r7, #24]
 8100ca2:	601a      	str	r2, [r3, #0]
      }
    }

    position++;
 8100ca4:	69fb      	ldr	r3, [r7, #28]
 8100ca6:	3301      	adds	r3, #1
 8100ca8:	61fb      	str	r3, [r7, #28]
  while (((GPIO_Init->Pin) >> position) != 0x00U)
 8100caa:	683b      	ldr	r3, [r7, #0]
 8100cac:	681a      	ldr	r2, [r3, #0]
 8100cae:	69fb      	ldr	r3, [r7, #28]
 8100cb0:	fa22 f303 	lsr.w	r3, r2, r3
 8100cb4:	2b00      	cmp	r3, #0
 8100cb6:	f47f ae63 	bne.w	8100980 <HAL_GPIO_Init+0x14>
  }
}
 8100cba:	bf00      	nop
 8100cbc:	bf00      	nop
 8100cbe:	3724      	adds	r7, #36	; 0x24
 8100cc0:	46bd      	mov	sp, r7
 8100cc2:	f85d 7b04 	ldr.w	r7, [sp], #4
 8100cc6:	4770      	bx	lr
 8100cc8:	58000400 	.word	0x58000400

08100ccc <HAL_GPIO_WritePin>:
  *            @arg GPIO_PIN_RESET: to clear the port pin
  *            @arg GPIO_PIN_SET: to set the port pin
  * @retval None
  */
void HAL_GPIO_WritePin(GPIO_TypeDef *GPIOx, uint16_t GPIO_Pin, GPIO_PinState PinState)
{
 8100ccc:	b480      	push	{r7}
 8100cce:	b083      	sub	sp, #12
 8100cd0:	af00      	add	r7, sp, #0
 8100cd2:	6078      	str	r0, [r7, #4]
 8100cd4:	460b      	mov	r3, r1
 8100cd6:	807b      	strh	r3, [r7, #2]
 8100cd8:	4613      	mov	r3, r2
 8100cda:	707b      	strb	r3, [r7, #1]
  /* Check the parameters */
  assert_param(IS_GPIO_PIN(GPIO_Pin));
  assert_param(IS_GPIO_PIN_ACTION(PinState));

  if (PinState != GPIO_PIN_RESET)
 8100cdc:	787b      	ldrb	r3, [r7, #1]
 8100cde:	2b00      	cmp	r3, #0
 8100ce0:	d003      	beq.n	8100cea <HAL_GPIO_WritePin+0x1e>
  {
    GPIOx->BSRR = GPIO_Pin;
 8100ce2:	887a      	ldrh	r2, [r7, #2]
 8100ce4:	687b      	ldr	r3, [r7, #4]
 8100ce6:	619a      	str	r2, [r3, #24]
  }
  else
  {
    GPIOx->BSRR = (uint32_t)GPIO_Pin << GPIO_NUMBER;
  }
}
 8100ce8:	e003      	b.n	8100cf2 <HAL_GPIO_WritePin+0x26>
    GPIOx->BSRR = (uint32_t)GPIO_Pin << GPIO_NUMBER;
 8100cea:	887b      	ldrh	r3, [r7, #2]
 8100cec:	041a      	lsls	r2, r3, #16
 8100cee:	687b      	ldr	r3, [r7, #4]
 8100cf0:	619a      	str	r2, [r3, #24]
}
 8100cf2:	bf00      	nop
 8100cf4:	370c      	adds	r7, #12
 8100cf6:	46bd      	mov	sp, r7
 8100cf8:	f85d 7b04 	ldr.w	r7, [sp], #4
 8100cfc:	4770      	bx	lr

08100cfe <HAL_GPIO_EXTI_IRQHandler>:
  * @brief  Handle EXTI interrupt request.
  * @param  GPIO_Pin: Specifies the port pin connected to corresponding EXTI line.
  * @retval None
  */
void HAL_GPIO_EXTI_IRQHandler(uint16_t GPIO_Pin)
{
 8100cfe:	b580      	push	{r7, lr}
 8100d00:	b082      	sub	sp, #8
 8100d02:	af00      	add	r7, sp, #0
 8100d04:	4603      	mov	r3, r0
 8100d06:	80fb      	strh	r3, [r7, #6]
#if defined(DUAL_CORE) && defined(CORE_CM4)
  if (__HAL_GPIO_EXTID2_GET_IT(GPIO_Pin) != 0x00U)
 8100d08:	f04f 43b0 	mov.w	r3, #1476395008	; 0x58000000
 8100d0c:	f8d3 20c8 	ldr.w	r2, [r3, #200]	; 0xc8
 8100d10:	88fb      	ldrh	r3, [r7, #6]
 8100d12:	4013      	ands	r3, r2
 8100d14:	2b00      	cmp	r3, #0
 8100d16:	d008      	beq.n	8100d2a <HAL_GPIO_EXTI_IRQHandler+0x2c>
  {
    __HAL_GPIO_EXTID2_CLEAR_IT(GPIO_Pin);
 8100d18:	f04f 42b0 	mov.w	r2, #1476395008	; 0x58000000
 8100d1c:	88fb      	ldrh	r3, [r7, #6]
 8100d1e:	f8c2 30c8 	str.w	r3, [r2, #200]	; 0xc8
    HAL_GPIO_EXTI_Callback(GPIO_Pin);
 8100d22:	88fb      	ldrh	r3, [r7, #6]
 8100d24:	4618      	mov	r0, r3
 8100d26:	f000 f804 	bl	8100d32 <HAL_GPIO_EXTI_Callback>
  {
    __HAL_GPIO_EXTI_CLEAR_IT(GPIO_Pin);
    HAL_GPIO_EXTI_Callback(GPIO_Pin);
  }
#endif
}
 8100d2a:	bf00      	nop
 8100d2c:	3708      	adds	r7, #8
 8100d2e:	46bd      	mov	sp, r7
 8100d30:	bd80      	pop	{r7, pc}

08100d32 <HAL_GPIO_EXTI_Callback>:
  * @brief  EXTI line detection callback.
  * @param  GPIO_Pin: Specifies the port pin connected to corresponding EXTI line.
  * @retval None
  */
__weak void HAL_GPIO_EXTI_Callback(uint16_t GPIO_Pin)
{
 8100d32:	b480      	push	{r7}
 8100d34:	b083      	sub	sp, #12
 8100d36:	af00      	add	r7, sp, #0
 8100d38:	4603      	mov	r3, r0
 8100d3a:	80fb      	strh	r3, [r7, #6]
  UNUSED(GPIO_Pin);

  /* NOTE: This function Should not be modified, when the callback is needed,
           the HAL_GPIO_EXTI_Callback could be implemented in the user file
   */
}
 8100d3c:	bf00      	nop
 8100d3e:	370c      	adds	r7, #12
 8100d40:	46bd      	mov	sp, r7
 8100d42:	f85d 7b04 	ldr.w	r7, [sp], #4
 8100d46:	4770      	bx	lr

08100d48 <HAL_HSEM_ActivateNotification>:
  * @brief  Activate Semaphore release Notification for a given Semaphores Mask .
  * @param  SemMask: Mask of Released semaphores
  * @retval Semaphore Key
  */
void HAL_HSEM_ActivateNotification(uint32_t SemMask)
{
 8100d48:	b480      	push	{r7}
 8100d4a:	b083      	sub	sp, #12
 8100d4c:	af00      	add	r7, sp, #0
 8100d4e:	6078      	str	r0, [r7, #4]
  {
    /*Use interrupt line 1 for CPU2 Master*/
    HSEM->C2IER |= SemMask;
  }
#else
  HSEM_COMMON->IER |= SemMask;
 8100d50:	4b05      	ldr	r3, [pc, #20]	; (8100d68 <HAL_HSEM_ActivateNotification+0x20>)
 8100d52:	681a      	ldr	r2, [r3, #0]
 8100d54:	4904      	ldr	r1, [pc, #16]	; (8100d68 <HAL_HSEM_ActivateNotification+0x20>)
 8100d56:	687b      	ldr	r3, [r7, #4]
 8100d58:	4313      	orrs	r3, r2
 8100d5a:	600b      	str	r3, [r1, #0]
#endif
}
 8100d5c:	bf00      	nop
 8100d5e:	370c      	adds	r7, #12
 8100d60:	46bd      	mov	sp, r7
 8100d62:	f85d 7b04 	ldr.w	r7, [sp], #4
 8100d66:	4770      	bx	lr
 8100d68:	58026510 	.word	0x58026510

08100d6c <HAL_HSEM_IRQHandler>:
/**
  * @brief  This function handles HSEM interrupt request
  * @retval None
  */
void HAL_HSEM_IRQHandler(void)
{
 8100d6c:	b580      	push	{r7, lr}
 8100d6e:	b082      	sub	sp, #8
 8100d70:	af00      	add	r7, sp, #0
    /*Clear Flags*/
    HSEM->C2ICR = ((uint32_t)statusreg);
  }
#else
  /* Get the list of masked freed semaphores*/
  statusreg = HSEM_COMMON->MISR;
 8100d72:	4b0a      	ldr	r3, [pc, #40]	; (8100d9c <HAL_HSEM_IRQHandler+0x30>)
 8100d74:	68db      	ldr	r3, [r3, #12]
 8100d76:	607b      	str	r3, [r7, #4]

  /*Disable Interrupts*/
  HSEM_COMMON->IER &= ~((uint32_t)statusreg);
 8100d78:	4b08      	ldr	r3, [pc, #32]	; (8100d9c <HAL_HSEM_IRQHandler+0x30>)
 8100d7a:	681a      	ldr	r2, [r3, #0]
 8100d7c:	687b      	ldr	r3, [r7, #4]
 8100d7e:	43db      	mvns	r3, r3
 8100d80:	4906      	ldr	r1, [pc, #24]	; (8100d9c <HAL_HSEM_IRQHandler+0x30>)
 8100d82:	4013      	ands	r3, r2
 8100d84:	600b      	str	r3, [r1, #0]

  /*Clear Flags*/
  HSEM_COMMON->ICR = ((uint32_t)statusreg);
 8100d86:	4a05      	ldr	r2, [pc, #20]	; (8100d9c <HAL_HSEM_IRQHandler+0x30>)
 8100d88:	687b      	ldr	r3, [r7, #4]
 8100d8a:	6053      	str	r3, [r2, #4]

#endif
  /* Call FreeCallback */
  HAL_HSEM_FreeCallback(statusreg);
 8100d8c:	6878      	ldr	r0, [r7, #4]
 8100d8e:	f000 f807 	bl	8100da0 <HAL_HSEM_FreeCallback>
}
 8100d92:	bf00      	nop
 8100d94:	3708      	adds	r7, #8
 8100d96:	46bd      	mov	sp, r7
 8100d98:	bd80      	pop	{r7, pc}
 8100d9a:	bf00      	nop
 8100d9c:	58026510 	.word	0x58026510

08100da0 <HAL_HSEM_FreeCallback>:
  * @brief Semaphore Released Callback.
  * @param SemMask: Mask of Released semaphores
  * @retval None
  */
__weak void HAL_HSEM_FreeCallback(uint32_t SemMask)
{
 8100da0:	b480      	push	{r7}
 8100da2:	b083      	sub	sp, #12
 8100da4:	af00      	add	r7, sp, #0
 8100da6:	6078      	str	r0, [r7, #4]
  UNUSED(SemMask);

  /* NOTE : This function should not be modified, when the callback is needed,
  the HAL_HSEM_FreeCallback can be implemented in the user file
    */
}
 8100da8:	bf00      	nop
 8100daa:	370c      	adds	r7, #12
 8100dac:	46bd      	mov	sp, r7
 8100dae:	f85d 7b04 	ldr.w	r7, [sp], #4
 8100db2:	4770      	bx	lr

08100db4 <HAL_PWREx_EnterSTOPMode>:
  *            @arg PWR_D2_DOMAIN : Enter D2 Domain to DSTOP mode.
  *            @arg PWR_D3_DOMAIN : Enter D3/SRD Domain to DSTOP mode.
  * @retval None.
  */
void HAL_PWREx_EnterSTOPMode (uint32_t Regulator, uint8_t STOPEntry, uint32_t Domain)
{
 8100db4:	b580      	push	{r7, lr}
 8100db6:	b084      	sub	sp, #16
 8100db8:	af00      	add	r7, sp, #0
 8100dba:	60f8      	str	r0, [r7, #12]
 8100dbc:	460b      	mov	r3, r1
 8100dbe:	607a      	str	r2, [r7, #4]
 8100dc0:	72fb      	strb	r3, [r7, #11]
  assert_param (IS_PWR_REGULATOR (Regulator));
  assert_param (IS_PWR_STOP_ENTRY (STOPEntry));
  assert_param (IS_PWR_DOMAIN (Domain));

  /* Select the regulator state in Stop mode */
  MODIFY_REG (PWR->CR1, PWR_CR1_LPDS, Regulator);
 8100dc2:	4b37      	ldr	r3, [pc, #220]	; (8100ea0 <HAL_PWREx_EnterSTOPMode+0xec>)
 8100dc4:	681b      	ldr	r3, [r3, #0]
 8100dc6:	f023 0201 	bic.w	r2, r3, #1
 8100dca:	4935      	ldr	r1, [pc, #212]	; (8100ea0 <HAL_PWREx_EnterSTOPMode+0xec>)
 8100dcc:	68fb      	ldr	r3, [r7, #12]
 8100dce:	4313      	orrs	r3, r2
 8100dd0:	600b      	str	r3, [r1, #0]

  /* Select the domain Power Down DeepSleep */
  if (Domain == PWR_D1_DOMAIN)
 8100dd2:	687b      	ldr	r3, [r7, #4]
 8100dd4:	2b00      	cmp	r3, #0
 8100dd6:	d123      	bne.n	8100e20 <HAL_PWREx_EnterSTOPMode+0x6c>
  {
#if defined (DUAL_CORE)
    /* Check current core */
    if (HAL_GetCurrentCPUID () != CM7_CPUID)
 8100dd8:	f7ff fdb4 	bl	8100944 <HAL_GetCurrentCPUID>
 8100ddc:	4603      	mov	r3, r0
 8100dde:	2b03      	cmp	r3, #3
 8100de0:	d158      	bne.n	8100e94 <HAL_PWREx_EnterSTOPMode+0xe0>
      return;
    }
#endif /* defined (DUAL_CORE) */

    /* Keep DSTOP mode when D1/CD domain enters Deepsleep */
    CLEAR_BIT (PWR->CPUCR, PWR_CPUCR_PDDS_D1);
 8100de2:	4b2f      	ldr	r3, [pc, #188]	; (8100ea0 <HAL_PWREx_EnterSTOPMode+0xec>)
 8100de4:	691b      	ldr	r3, [r3, #16]
 8100de6:	4a2e      	ldr	r2, [pc, #184]	; (8100ea0 <HAL_PWREx_EnterSTOPMode+0xec>)
 8100de8:	f023 0301 	bic.w	r3, r3, #1
 8100dec:	6113      	str	r3, [r2, #16]

    /* Set SLEEPDEEP bit of Cortex System Control Register */
    SET_BIT (SCB->SCR, SCB_SCR_SLEEPDEEP_Msk);
 8100dee:	4b2d      	ldr	r3, [pc, #180]	; (8100ea4 <HAL_PWREx_EnterSTOPMode+0xf0>)
 8100df0:	691b      	ldr	r3, [r3, #16]
 8100df2:	4a2c      	ldr	r2, [pc, #176]	; (8100ea4 <HAL_PWREx_EnterSTOPMode+0xf0>)
 8100df4:	f043 0304 	orr.w	r3, r3, #4
 8100df8:	6113      	str	r3, [r2, #16]
  \details Acts as a special kind of Data Memory Barrier.
           It completes when all explicit memory accesses before this instruction complete.
 */
__STATIC_FORCEINLINE void __DSB(void)
{
  __ASM volatile ("dsb 0xF":::"memory");
 8100dfa:	f3bf 8f4f 	dsb	sy
}
 8100dfe:	bf00      	nop
  __ASM volatile ("isb 0xF":::"memory");
 8100e00:	f3bf 8f6f 	isb	sy
}
 8100e04:	bf00      	nop
    /* Ensure that all instructions are done before entering STOP mode */
    __DSB ();
    __ISB ();

    /* Select Stop mode entry */
    if (STOPEntry == PWR_STOPENTRY_WFI)
 8100e06:	7afb      	ldrb	r3, [r7, #11]
 8100e08:	2b01      	cmp	r3, #1
 8100e0a:	d101      	bne.n	8100e10 <HAL_PWREx_EnterSTOPMode+0x5c>
    {
      /* Request Wait For Interrupt */
      __WFI ();
 8100e0c:	bf30      	wfi
 8100e0e:	e000      	b.n	8100e12 <HAL_PWREx_EnterSTOPMode+0x5e>
    }
    else
    {
      /* Request Wait For Event */
      __WFE ();
 8100e10:	bf20      	wfe
    }

    /* Clear SLEEPDEEP bit of Cortex-Mx in the System Control Register */
    CLEAR_BIT (SCB->SCR, SCB_SCR_SLEEPDEEP_Msk);
 8100e12:	4b24      	ldr	r3, [pc, #144]	; (8100ea4 <HAL_PWREx_EnterSTOPMode+0xf0>)
 8100e14:	691b      	ldr	r3, [r3, #16]
 8100e16:	4a23      	ldr	r2, [pc, #140]	; (8100ea4 <HAL_PWREx_EnterSTOPMode+0xf0>)
 8100e18:	f023 0304 	bic.w	r3, r3, #4
 8100e1c:	6113      	str	r3, [r2, #16]
 8100e1e:	e03c      	b.n	8100e9a <HAL_PWREx_EnterSTOPMode+0xe6>
  }
#if defined (PWR_CPUCR_PDDS_D2)
  else if (Domain == PWR_D2_DOMAIN)
 8100e20:	687b      	ldr	r3, [r7, #4]
 8100e22:	2b01      	cmp	r3, #1
 8100e24:	d123      	bne.n	8100e6e <HAL_PWREx_EnterSTOPMode+0xba>
  {
#if defined (DUAL_CORE)
    /* Check current core */
    if (HAL_GetCurrentCPUID () != CM4_CPUID)
 8100e26:	f7ff fd8d 	bl	8100944 <HAL_GetCurrentCPUID>
 8100e2a:	4603      	mov	r3, r0
 8100e2c:	2b01      	cmp	r3, #1
 8100e2e:	d133      	bne.n	8100e98 <HAL_PWREx_EnterSTOPMode+0xe4>
      */
      return;
    }

    /* Keep DSTOP mode when D2 domain enters Deepsleep */
    CLEAR_BIT (PWR->CPU2CR, PWR_CPU2CR_PDDS_D2);
 8100e30:	4b1b      	ldr	r3, [pc, #108]	; (8100ea0 <HAL_PWREx_EnterSTOPMode+0xec>)
 8100e32:	695b      	ldr	r3, [r3, #20]
 8100e34:	4a1a      	ldr	r2, [pc, #104]	; (8100ea0 <HAL_PWREx_EnterSTOPMode+0xec>)
 8100e36:	f023 0302 	bic.w	r3, r3, #2
 8100e3a:	6153      	str	r3, [r2, #20]

    /* Set SLEEPDEEP bit of Cortex System Control Register */
    SET_BIT (SCB->SCR, SCB_SCR_SLEEPDEEP_Msk);
 8100e3c:	4b19      	ldr	r3, [pc, #100]	; (8100ea4 <HAL_PWREx_EnterSTOPMode+0xf0>)
 8100e3e:	691b      	ldr	r3, [r3, #16]
 8100e40:	4a18      	ldr	r2, [pc, #96]	; (8100ea4 <HAL_PWREx_EnterSTOPMode+0xf0>)
 8100e42:	f043 0304 	orr.w	r3, r3, #4
 8100e46:	6113      	str	r3, [r2, #16]
  __ASM volatile ("dsb 0xF":::"memory");
 8100e48:	f3bf 8f4f 	dsb	sy
}
 8100e4c:	bf00      	nop
  __ASM volatile ("isb 0xF":::"memory");
 8100e4e:	f3bf 8f6f 	isb	sy
}
 8100e52:	bf00      	nop
    /* Ensure that all instructions are done before entering STOP mode */
    __DSB ();
    __ISB ();

    /* Select Stop mode entry */
    if (STOPEntry == PWR_STOPENTRY_WFI)
 8100e54:	7afb      	ldrb	r3, [r7, #11]
 8100e56:	2b01      	cmp	r3, #1
 8100e58:	d101      	bne.n	8100e5e <HAL_PWREx_EnterSTOPMode+0xaa>
    {
      /* Request Wait For Interrupt */
      __WFI ();
 8100e5a:	bf30      	wfi
 8100e5c:	e000      	b.n	8100e60 <HAL_PWREx_EnterSTOPMode+0xac>
    }
    else
    {
      /* Request Wait For Event */
      __WFE ();
 8100e5e:	bf20      	wfe
    }

    /* Clear SLEEPDEEP bit of Cortex-Mx in the System Control Register */
    CLEAR_BIT (SCB->SCR, SCB_SCR_SLEEPDEEP_Msk);
 8100e60:	4b10      	ldr	r3, [pc, #64]	; (8100ea4 <HAL_PWREx_EnterSTOPMode+0xf0>)
 8100e62:	691b      	ldr	r3, [r3, #16]
 8100e64:	4a0f      	ldr	r2, [pc, #60]	; (8100ea4 <HAL_PWREx_EnterSTOPMode+0xf0>)
 8100e66:	f023 0304 	bic.w	r3, r3, #4
 8100e6a:	6113      	str	r3, [r2, #16]
 8100e6c:	e015      	b.n	8100e9a <HAL_PWREx_EnterSTOPMode+0xe6>
#endif /* defined (PWR_CPUCR_PDDS_D2) */
  else
  {
#if defined (DUAL_CORE)
    /* Check current core */
    if (HAL_GetCurrentCPUID () == CM7_CPUID)
 8100e6e:	f7ff fd69 	bl	8100944 <HAL_GetCurrentCPUID>
 8100e72:	4603      	mov	r3, r0
 8100e74:	2b03      	cmp	r3, #3
 8100e76:	d106      	bne.n	8100e86 <HAL_PWREx_EnterSTOPMode+0xd2>
    {
      /* Keep DSTOP mode when D3 domain enters Deepsleep */
      CLEAR_BIT (PWR->CPUCR, PWR_CPUCR_PDDS_D3);
 8100e78:	4b09      	ldr	r3, [pc, #36]	; (8100ea0 <HAL_PWREx_EnterSTOPMode+0xec>)
 8100e7a:	691b      	ldr	r3, [r3, #16]
 8100e7c:	4a08      	ldr	r2, [pc, #32]	; (8100ea0 <HAL_PWREx_EnterSTOPMode+0xec>)
 8100e7e:	f023 0304 	bic.w	r3, r3, #4
 8100e82:	6113      	str	r3, [r2, #16]
 8100e84:	e009      	b.n	8100e9a <HAL_PWREx_EnterSTOPMode+0xe6>
    }
    else
    {
      /* Keep DSTOP mode when D3 domain enters Deepsleep */
      CLEAR_BIT (PWR->CPU2CR, PWR_CPU2CR_PDDS_D3);
 8100e86:	4b06      	ldr	r3, [pc, #24]	; (8100ea0 <HAL_PWREx_EnterSTOPMode+0xec>)
 8100e88:	695b      	ldr	r3, [r3, #20]
 8100e8a:	4a05      	ldr	r2, [pc, #20]	; (8100ea0 <HAL_PWREx_EnterSTOPMode+0xec>)
 8100e8c:	f023 0304 	bic.w	r3, r3, #4
 8100e90:	6153      	str	r3, [r2, #20]
 8100e92:	e002      	b.n	8100e9a <HAL_PWREx_EnterSTOPMode+0xe6>
      return;
 8100e94:	bf00      	nop
 8100e96:	e000      	b.n	8100e9a <HAL_PWREx_EnterSTOPMode+0xe6>
      return;
 8100e98:	bf00      	nop
#else
    /* Keep DSTOP mode when D3/SRD domain enters Deepsleep */
    CLEAR_BIT (PWR->CPUCR, PWR_CPUCR_PDDS_D3);
#endif  /* defined (DUAL_CORE) */
  }
}
 8100e9a:	3710      	adds	r7, #16
 8100e9c:	46bd      	mov	sp, r7
 8100e9e:	bd80      	pop	{r7, pc}
 8100ea0:	58024800 	.word	0x58024800
 8100ea4:	e000ed00 	.word	0xe000ed00

08100ea8 <HAL_PWREx_ClearPendingEvent>:
  *         enter low power mode using Wait For Event request.
  * @note   Cortex-M7 must be in CRUN mode when calling this API by Cortex-M4.
  * @retval None.
  */
void HAL_PWREx_ClearPendingEvent (void)
{
 8100ea8:	b580      	push	{r7, lr}
 8100eaa:	af00      	add	r7, sp, #0
#if defined (DUAL_CORE)
  /* Check the current Core */
  if (HAL_GetCurrentCPUID () == CM7_CPUID)
 8100eac:	f7ff fd4a 	bl	8100944 <HAL_GetCurrentCPUID>
 8100eb0:	4603      	mov	r3, r0
 8100eb2:	2b03      	cmp	r3, #3
 8100eb4:	d101      	bne.n	8100eba <HAL_PWREx_ClearPendingEvent+0x12>
  {
    __WFE ();
 8100eb6:	bf20      	wfe
    __WFE ();
  }
#else
  __WFE ();
#endif /* defined (DUAL_CORE) */
}
 8100eb8:	e001      	b.n	8100ebe <HAL_PWREx_ClearPendingEvent+0x16>
    __SEV ();
 8100eba:	bf40      	sev
    __WFE ();
 8100ebc:	bf20      	wfe
}
 8100ebe:	bf00      	nop
 8100ec0:	bd80      	pop	{r7, pc}
	...

08100ec4 <HAL_RCC_GetSysClockFreq>:
  *
  *
  * @retval SYSCLK frequency
  */
uint32_t HAL_RCC_GetSysClockFreq(void)
{
 8100ec4:	b480      	push	{r7}
 8100ec6:	b089      	sub	sp, #36	; 0x24
 8100ec8:	af00      	add	r7, sp, #0
  float_t fracn1, pllvco;
  uint32_t sysclockfreq;

  /* Get SYSCLK source -------------------------------------------------------*/

  switch (RCC->CFGR & RCC_CFGR_SWS)
 8100eca:	4bb3      	ldr	r3, [pc, #716]	; (8101198 <HAL_RCC_GetSysClockFreq+0x2d4>)
 8100ecc:	691b      	ldr	r3, [r3, #16]
 8100ece:	f003 0338 	and.w	r3, r3, #56	; 0x38
 8100ed2:	2b18      	cmp	r3, #24
 8100ed4:	f200 8155 	bhi.w	8101182 <HAL_RCC_GetSysClockFreq+0x2be>
 8100ed8:	a201      	add	r2, pc, #4	; (adr r2, 8100ee0 <HAL_RCC_GetSysClockFreq+0x1c>)
 8100eda:	f852 f023 	ldr.w	pc, [r2, r3, lsl #2]
 8100ede:	bf00      	nop
 8100ee0:	08100f45 	.word	0x08100f45
 8100ee4:	08101183 	.word	0x08101183
 8100ee8:	08101183 	.word	0x08101183
 8100eec:	08101183 	.word	0x08101183
 8100ef0:	08101183 	.word	0x08101183
 8100ef4:	08101183 	.word	0x08101183
 8100ef8:	08101183 	.word	0x08101183
 8100efc:	08101183 	.word	0x08101183
 8100f00:	08100f6b 	.word	0x08100f6b
 8100f04:	08101183 	.word	0x08101183
 8100f08:	08101183 	.word	0x08101183
 8100f0c:	08101183 	.word	0x08101183
 8100f10:	08101183 	.word	0x08101183
 8100f14:	08101183 	.word	0x08101183
 8100f18:	08101183 	.word	0x08101183
 8100f1c:	08101183 	.word	0x08101183
 8100f20:	08100f71 	.word	0x08100f71
 8100f24:	08101183 	.word	0x08101183
 8100f28:	08101183 	.word	0x08101183
 8100f2c:	08101183 	.word	0x08101183
 8100f30:	08101183 	.word	0x08101183
 8100f34:	08101183 	.word	0x08101183
 8100f38:	08101183 	.word	0x08101183
 8100f3c:	08101183 	.word	0x08101183
 8100f40:	08100f77 	.word	0x08100f77
  {
  case RCC_CFGR_SWS_HSI:  /* HSI used as system clock source */

   if (__HAL_RCC_GET_FLAG(RCC_FLAG_HSIDIV) != 0U)
 8100f44:	4b94      	ldr	r3, [pc, #592]	; (8101198 <HAL_RCC_GetSysClockFreq+0x2d4>)
 8100f46:	681b      	ldr	r3, [r3, #0]
 8100f48:	f003 0320 	and.w	r3, r3, #32
 8100f4c:	2b00      	cmp	r3, #0
 8100f4e:	d009      	beq.n	8100f64 <HAL_RCC_GetSysClockFreq+0xa0>
      {
        sysclockfreq = (uint32_t) (HSI_VALUE >> (__HAL_RCC_GET_HSI_DIVIDER()>> 3));
 8100f50:	4b91      	ldr	r3, [pc, #580]	; (8101198 <HAL_RCC_GetSysClockFreq+0x2d4>)
 8100f52:	681b      	ldr	r3, [r3, #0]
 8100f54:	08db      	lsrs	r3, r3, #3
 8100f56:	f003 0303 	and.w	r3, r3, #3
 8100f5a:	4a90      	ldr	r2, [pc, #576]	; (810119c <HAL_RCC_GetSysClockFreq+0x2d8>)
 8100f5c:	fa22 f303 	lsr.w	r3, r2, r3
 8100f60:	61bb      	str	r3, [r7, #24]
      else
      {
        sysclockfreq = (uint32_t) HSI_VALUE;
      }

    break;
 8100f62:	e111      	b.n	8101188 <HAL_RCC_GetSysClockFreq+0x2c4>
        sysclockfreq = (uint32_t) HSI_VALUE;
 8100f64:	4b8d      	ldr	r3, [pc, #564]	; (810119c <HAL_RCC_GetSysClockFreq+0x2d8>)
 8100f66:	61bb      	str	r3, [r7, #24]
    break;
 8100f68:	e10e      	b.n	8101188 <HAL_RCC_GetSysClockFreq+0x2c4>

  case RCC_CFGR_SWS_CSI:  /* CSI used as system clock  source */
    sysclockfreq = CSI_VALUE;
 8100f6a:	4b8d      	ldr	r3, [pc, #564]	; (81011a0 <HAL_RCC_GetSysClockFreq+0x2dc>)
 8100f6c:	61bb      	str	r3, [r7, #24]
    break;
 8100f6e:	e10b      	b.n	8101188 <HAL_RCC_GetSysClockFreq+0x2c4>

  case RCC_CFGR_SWS_HSE:  /* HSE used as system clock  source */
    sysclockfreq = HSE_VALUE;
 8100f70:	4b8c      	ldr	r3, [pc, #560]	; (81011a4 <HAL_RCC_GetSysClockFreq+0x2e0>)
 8100f72:	61bb      	str	r3, [r7, #24]
    break;
 8100f74:	e108      	b.n	8101188 <HAL_RCC_GetSysClockFreq+0x2c4>
  case RCC_CFGR_SWS_PLL1:  /* PLL1 used as system clock  source */

    /* PLL_VCO = (HSE_VALUE or HSI_VALUE or CSI_VALUE/ PLLM) * PLLN
    SYSCLK = PLL_VCO / PLLR
    */
    pllsource = (RCC->PLLCKSELR & RCC_PLLCKSELR_PLLSRC);
 8100f76:	4b88      	ldr	r3, [pc, #544]	; (8101198 <HAL_RCC_GetSysClockFreq+0x2d4>)
 8100f78:	6a9b      	ldr	r3, [r3, #40]	; 0x28
 8100f7a:	f003 0303 	and.w	r3, r3, #3
 8100f7e:	617b      	str	r3, [r7, #20]
    pllm = ((RCC->PLLCKSELR & RCC_PLLCKSELR_DIVM1)>> 4)  ;
 8100f80:	4b85      	ldr	r3, [pc, #532]	; (8101198 <HAL_RCC_GetSysClockFreq+0x2d4>)
 8100f82:	6a9b      	ldr	r3, [r3, #40]	; 0x28
 8100f84:	091b      	lsrs	r3, r3, #4
 8100f86:	f003 033f 	and.w	r3, r3, #63	; 0x3f
 8100f8a:	613b      	str	r3, [r7, #16]
    pllfracen = ((RCC-> PLLCFGR & RCC_PLLCFGR_PLL1FRACEN)>>RCC_PLLCFGR_PLL1FRACEN_Pos);
 8100f8c:	4b82      	ldr	r3, [pc, #520]	; (8101198 <HAL_RCC_GetSysClockFreq+0x2d4>)
 8100f8e:	6adb      	ldr	r3, [r3, #44]	; 0x2c
 8100f90:	f003 0301 	and.w	r3, r3, #1
 8100f94:	60fb      	str	r3, [r7, #12]
    fracn1 = (float_t)(uint32_t)(pllfracen* ((RCC->PLL1FRACR & RCC_PLL1FRACR_FRACN1)>> 3));
 8100f96:	4b80      	ldr	r3, [pc, #512]	; (8101198 <HAL_RCC_GetSysClockFreq+0x2d4>)
 8100f98:	6b5b      	ldr	r3, [r3, #52]	; 0x34
 8100f9a:	08db      	lsrs	r3, r3, #3
 8100f9c:	f3c3 030c 	ubfx	r3, r3, #0, #13
 8100fa0:	68fa      	ldr	r2, [r7, #12]
 8100fa2:	fb02 f303 	mul.w	r3, r2, r3
 8100fa6:	ee07 3a90 	vmov	s15, r3
 8100faa:	eef8 7a67 	vcvt.f32.u32	s15, s15
 8100fae:	edc7 7a02 	vstr	s15, [r7, #8]

    if (pllm != 0U)
 8100fb2:	693b      	ldr	r3, [r7, #16]
 8100fb4:	2b00      	cmp	r3, #0
 8100fb6:	f000 80e1 	beq.w	810117c <HAL_RCC_GetSysClockFreq+0x2b8>
 8100fba:	697b      	ldr	r3, [r7, #20]
 8100fbc:	2b02      	cmp	r3, #2
 8100fbe:	f000 8083 	beq.w	81010c8 <HAL_RCC_GetSysClockFreq+0x204>
 8100fc2:	697b      	ldr	r3, [r7, #20]
 8100fc4:	2b02      	cmp	r3, #2
 8100fc6:	f200 80a1 	bhi.w	810110c <HAL_RCC_GetSysClockFreq+0x248>
 8100fca:	697b      	ldr	r3, [r7, #20]
 8100fcc:	2b00      	cmp	r3, #0
 8100fce:	d003      	beq.n	8100fd8 <HAL_RCC_GetSysClockFreq+0x114>
 8100fd0:	697b      	ldr	r3, [r7, #20]
 8100fd2:	2b01      	cmp	r3, #1
 8100fd4:	d056      	beq.n	8101084 <HAL_RCC_GetSysClockFreq+0x1c0>
 8100fd6:	e099      	b.n	810110c <HAL_RCC_GetSysClockFreq+0x248>
    {
      switch (pllsource)
      {
      case RCC_PLLSOURCE_HSI:  /* HSI used as PLL clock source */

       if (__HAL_RCC_GET_FLAG(RCC_FLAG_HSIDIV) != 0U)
 8100fd8:	4b6f      	ldr	r3, [pc, #444]	; (8101198 <HAL_RCC_GetSysClockFreq+0x2d4>)
 8100fda:	681b      	ldr	r3, [r3, #0]
 8100fdc:	f003 0320 	and.w	r3, r3, #32
 8100fe0:	2b00      	cmp	r3, #0
 8100fe2:	d02d      	beq.n	8101040 <HAL_RCC_GetSysClockFreq+0x17c>
        {
          hsivalue= (HSI_VALUE >> (__HAL_RCC_GET_HSI_DIVIDER()>> 3));
 8100fe4:	4b6c      	ldr	r3, [pc, #432]	; (8101198 <HAL_RCC_GetSysClockFreq+0x2d4>)
 8100fe6:	681b      	ldr	r3, [r3, #0]
 8100fe8:	08db      	lsrs	r3, r3, #3
 8100fea:	f003 0303 	and.w	r3, r3, #3
 8100fee:	4a6b      	ldr	r2, [pc, #428]	; (810119c <HAL_RCC_GetSysClockFreq+0x2d8>)
 8100ff0:	fa22 f303 	lsr.w	r3, r2, r3
 8100ff4:	607b      	str	r3, [r7, #4]
          pllvco = ( (float_t)hsivalue / (float_t)pllm) * ((float_t)(uint32_t)(RCC->PLL1DIVR & RCC_PLL1DIVR_N1) + (fracn1/(float_t)0x2000) +(float_t)1 );
 8100ff6:	687b      	ldr	r3, [r7, #4]
 8100ff8:	ee07 3a90 	vmov	s15, r3
 8100ffc:	eef8 6a67 	vcvt.f32.u32	s13, s15
 8101000:	693b      	ldr	r3, [r7, #16]
 8101002:	ee07 3a90 	vmov	s15, r3
 8101006:	eef8 7a67 	vcvt.f32.u32	s15, s15
 810100a:	ee86 7aa7 	vdiv.f32	s14, s13, s15
 810100e:	4b62      	ldr	r3, [pc, #392]	; (8101198 <HAL_RCC_GetSysClockFreq+0x2d4>)
 8101010:	6b1b      	ldr	r3, [r3, #48]	; 0x30
 8101012:	f3c3 0308 	ubfx	r3, r3, #0, #9
 8101016:	ee07 3a90 	vmov	s15, r3
 810101a:	eef8 6a67 	vcvt.f32.u32	s13, s15
 810101e:	ed97 6a02 	vldr	s12, [r7, #8]
 8101022:	eddf 5a61 	vldr	s11, [pc, #388]	; 81011a8 <HAL_RCC_GetSysClockFreq+0x2e4>
 8101026:	eec6 7a25 	vdiv.f32	s15, s12, s11
 810102a:	ee76 7aa7 	vadd.f32	s15, s13, s15
 810102e:	eef7 6a00 	vmov.f32	s13, #112	; 0x3f800000  1.0
 8101032:	ee77 7aa6 	vadd.f32	s15, s15, s13
 8101036:	ee67 7a27 	vmul.f32	s15, s14, s15
 810103a:	edc7 7a07 	vstr	s15, [r7, #28]
        }
        else
        {
          pllvco = ((float_t)HSI_VALUE / (float_t)pllm) * ((float_t)(uint32_t)(RCC->PLL1DIVR & RCC_PLL1DIVR_N1) + (fracn1/(float_t)0x2000) +(float_t)1 );
        }
        break;
 810103e:	e087      	b.n	8101150 <HAL_RCC_GetSysClockFreq+0x28c>
          pllvco = ((float_t)HSI_VALUE / (float_t)pllm) * ((float_t)(uint32_t)(RCC->PLL1DIVR & RCC_PLL1DIVR_N1) + (fracn1/(float_t)0x2000) +(float_t)1 );
 8101040:	693b      	ldr	r3, [r7, #16]
 8101042:	ee07 3a90 	vmov	s15, r3
 8101046:	eef8 7a67 	vcvt.f32.u32	s15, s15
 810104a:	eddf 6a58 	vldr	s13, [pc, #352]	; 81011ac <HAL_RCC_GetSysClockFreq+0x2e8>
 810104e:	ee86 7aa7 	vdiv.f32	s14, s13, s15
 8101052:	4b51      	ldr	r3, [pc, #324]	; (8101198 <HAL_RCC_GetSysClockFreq+0x2d4>)
 8101054:	6b1b      	ldr	r3, [r3, #48]	; 0x30
 8101056:	f3c3 0308 	ubfx	r3, r3, #0, #9
 810105a:	ee07 3a90 	vmov	s15, r3
 810105e:	eef8 6a67 	vcvt.f32.u32	s13, s15
 8101062:	ed97 6a02 	vldr	s12, [r7, #8]
 8101066:	eddf 5a50 	vldr	s11, [pc, #320]	; 81011a8 <HAL_RCC_GetSysClockFreq+0x2e4>
 810106a:	eec6 7a25 	vdiv.f32	s15, s12, s11
 810106e:	ee76 7aa7 	vadd.f32	s15, s13, s15
 8101072:	eef7 6a00 	vmov.f32	s13, #112	; 0x3f800000  1.0
 8101076:	ee77 7aa6 	vadd.f32	s15, s15, s13
 810107a:	ee67 7a27 	vmul.f32	s15, s14, s15
 810107e:	edc7 7a07 	vstr	s15, [r7, #28]
        break;
 8101082:	e065      	b.n	8101150 <HAL_RCC_GetSysClockFreq+0x28c>

      case RCC_PLLSOURCE_CSI:  /* CSI used as PLL clock source */
        pllvco = ((float_t)CSI_VALUE / (float_t)pllm) * ((float_t)(uint32_t)(RCC->PLL1DIVR & RCC_PLL1DIVR_N1) + (fracn1/(float_t)0x2000) +(float_t)1 );
 8101084:	693b      	ldr	r3, [r7, #16]
 8101086:	ee07 3a90 	vmov	s15, r3
 810108a:	eef8 7a67 	vcvt.f32.u32	s15, s15
 810108e:	eddf 6a48 	vldr	s13, [pc, #288]	; 81011b0 <HAL_RCC_GetSysClockFreq+0x2ec>
 8101092:	ee86 7aa7 	vdiv.f32	s14, s13, s15
 8101096:	4b40      	ldr	r3, [pc, #256]	; (8101198 <HAL_RCC_GetSysClockFreq+0x2d4>)
 8101098:	6b1b      	ldr	r3, [r3, #48]	; 0x30
 810109a:	f3c3 0308 	ubfx	r3, r3, #0, #9
 810109e:	ee07 3a90 	vmov	s15, r3
 81010a2:	eef8 6a67 	vcvt.f32.u32	s13, s15
 81010a6:	ed97 6a02 	vldr	s12, [r7, #8]
 81010aa:	eddf 5a3f 	vldr	s11, [pc, #252]	; 81011a8 <HAL_RCC_GetSysClockFreq+0x2e4>
 81010ae:	eec6 7a25 	vdiv.f32	s15, s12, s11
 81010b2:	ee76 7aa7 	vadd.f32	s15, s13, s15
 81010b6:	eef7 6a00 	vmov.f32	s13, #112	; 0x3f800000  1.0
 81010ba:	ee77 7aa6 	vadd.f32	s15, s15, s13
 81010be:	ee67 7a27 	vmul.f32	s15, s14, s15
 81010c2:	edc7 7a07 	vstr	s15, [r7, #28]
        break;
 81010c6:	e043      	b.n	8101150 <HAL_RCC_GetSysClockFreq+0x28c>

      case RCC_PLLSOURCE_HSE:  /* HSE used as PLL clock source */
        pllvco = ((float_t)HSE_VALUE / (float_t)pllm) * ((float_t)(uint32_t)(RCC->PLL1DIVR & RCC_PLL1DIVR_N1) + (fracn1/(float_t)0x2000) +(float_t)1 );
 81010c8:	693b      	ldr	r3, [r7, #16]
 81010ca:	ee07 3a90 	vmov	s15, r3
 81010ce:	eef8 7a67 	vcvt.f32.u32	s15, s15
 81010d2:	eddf 6a38 	vldr	s13, [pc, #224]	; 81011b4 <HAL_RCC_GetSysClockFreq+0x2f0>
 81010d6:	ee86 7aa7 	vdiv.f32	s14, s13, s15
 81010da:	4b2f      	ldr	r3, [pc, #188]	; (8101198 <HAL_RCC_GetSysClockFreq+0x2d4>)
 81010dc:	6b1b      	ldr	r3, [r3, #48]	; 0x30
 81010de:	f3c3 0308 	ubfx	r3, r3, #0, #9
 81010e2:	ee07 3a90 	vmov	s15, r3
 81010e6:	eef8 6a67 	vcvt.f32.u32	s13, s15
 81010ea:	ed97 6a02 	vldr	s12, [r7, #8]
 81010ee:	eddf 5a2e 	vldr	s11, [pc, #184]	; 81011a8 <HAL_RCC_GetSysClockFreq+0x2e4>
 81010f2:	eec6 7a25 	vdiv.f32	s15, s12, s11
 81010f6:	ee76 7aa7 	vadd.f32	s15, s13, s15
 81010fa:	eef7 6a00 	vmov.f32	s13, #112	; 0x3f800000  1.0
 81010fe:	ee77 7aa6 	vadd.f32	s15, s15, s13
 8101102:	ee67 7a27 	vmul.f32	s15, s14, s15
 8101106:	edc7 7a07 	vstr	s15, [r7, #28]
        break;
 810110a:	e021      	b.n	8101150 <HAL_RCC_GetSysClockFreq+0x28c>

      default:
        pllvco = ((float_t)CSI_VALUE / (float_t)pllm) * ((float_t)(uint32_t)(RCC->PLL1DIVR & RCC_PLL1DIVR_N1) + (fracn1/(float_t)0x2000) +(float_t)1 );
 810110c:	693b      	ldr	r3, [r7, #16]
 810110e:	ee07 3a90 	vmov	s15, r3
 8101112:	eef8 7a67 	vcvt.f32.u32	s15, s15
 8101116:	eddf 6a26 	vldr	s13, [pc, #152]	; 81011b0 <HAL_RCC_GetSysClockFreq+0x2ec>
 810111a:	ee86 7aa7 	vdiv.f32	s14, s13, s15
 810111e:	4b1e      	ldr	r3, [pc, #120]	; (8101198 <HAL_RCC_GetSysClockFreq+0x2d4>)
 8101120:	6b1b      	ldr	r3, [r3, #48]	; 0x30
 8101122:	f3c3 0308 	ubfx	r3, r3, #0, #9
 8101126:	ee07 3a90 	vmov	s15, r3
 810112a:	eef8 6a67 	vcvt.f32.u32	s13, s15
 810112e:	ed97 6a02 	vldr	s12, [r7, #8]
 8101132:	eddf 5a1d 	vldr	s11, [pc, #116]	; 81011a8 <HAL_RCC_GetSysClockFreq+0x2e4>
 8101136:	eec6 7a25 	vdiv.f32	s15, s12, s11
 810113a:	ee76 7aa7 	vadd.f32	s15, s13, s15
 810113e:	eef7 6a00 	vmov.f32	s13, #112	; 0x3f800000  1.0
 8101142:	ee77 7aa6 	vadd.f32	s15, s15, s13
 8101146:	ee67 7a27 	vmul.f32	s15, s14, s15
 810114a:	edc7 7a07 	vstr	s15, [r7, #28]
        break;
 810114e:	bf00      	nop
      }
      pllp = (((RCC->PLL1DIVR & RCC_PLL1DIVR_P1) >>9) + 1U ) ;
 8101150:	4b11      	ldr	r3, [pc, #68]	; (8101198 <HAL_RCC_GetSysClockFreq+0x2d4>)
 8101152:	6b1b      	ldr	r3, [r3, #48]	; 0x30
 8101154:	0a5b      	lsrs	r3, r3, #9
 8101156:	f003 037f 	and.w	r3, r3, #127	; 0x7f
 810115a:	3301      	adds	r3, #1
 810115c:	603b      	str	r3, [r7, #0]
      sysclockfreq =  (uint32_t)(float_t)(pllvco/(float_t)pllp);
 810115e:	683b      	ldr	r3, [r7, #0]
 8101160:	ee07 3a90 	vmov	s15, r3
 8101164:	eeb8 7a67 	vcvt.f32.u32	s14, s15
 8101168:	edd7 6a07 	vldr	s13, [r7, #28]
 810116c:	eec6 7a87 	vdiv.f32	s15, s13, s14
 8101170:	eefc 7ae7 	vcvt.u32.f32	s15, s15
 8101174:	ee17 3a90 	vmov	r3, s15
 8101178:	61bb      	str	r3, [r7, #24]
    }
    else
    {
      sysclockfreq = 0U;
    }
    break;
 810117a:	e005      	b.n	8101188 <HAL_RCC_GetSysClockFreq+0x2c4>
      sysclockfreq = 0U;
 810117c:	2300      	movs	r3, #0
 810117e:	61bb      	str	r3, [r7, #24]
    break;
 8101180:	e002      	b.n	8101188 <HAL_RCC_GetSysClockFreq+0x2c4>

  default:
    sysclockfreq = CSI_VALUE;
 8101182:	4b07      	ldr	r3, [pc, #28]	; (81011a0 <HAL_RCC_GetSysClockFreq+0x2dc>)
 8101184:	61bb      	str	r3, [r7, #24]
    break;
 8101186:	bf00      	nop
  }

  return sysclockfreq;
 8101188:	69bb      	ldr	r3, [r7, #24]
}
 810118a:	4618      	mov	r0, r3
 810118c:	3724      	adds	r7, #36	; 0x24
 810118e:	46bd      	mov	sp, r7
 8101190:	f85d 7b04 	ldr.w	r7, [sp], #4
 8101194:	4770      	bx	lr
 8101196:	bf00      	nop
 8101198:	58024400 	.word	0x58024400
 810119c:	03d09000 	.word	0x03d09000
 81011a0:	003d0900 	.word	0x003d0900
 81011a4:	007a1200 	.word	0x007a1200
 81011a8:	46000000 	.word	0x46000000
 81011ac:	4c742400 	.word	0x4c742400
 81011b0:	4a742400 	.word	0x4a742400
 81011b4:	4af42400 	.word	0x4af42400

081011b8 <HAL_RCC_GetHCLKFreq>:
  * @note   The SystemD2Clock CMSIS variable is used to store System domain2 Clock Frequency
  *         and updated within this function
  * @retval HCLK frequency
  */
uint32_t HAL_RCC_GetHCLKFreq(void)
{
 81011b8:	b580      	push	{r7, lr}
 81011ba:	b082      	sub	sp, #8
 81011bc:	af00      	add	r7, sp, #0
uint32_t common_system_clock;

#if defined(RCC_D1CFGR_D1CPRE)
  common_system_clock = HAL_RCC_GetSysClockFreq() >> (D1CorePrescTable[(RCC->D1CFGR & RCC_D1CFGR_D1CPRE)>> RCC_D1CFGR_D1CPRE_Pos] & 0x1FU);
 81011be:	f7ff fe81 	bl	8100ec4 <HAL_RCC_GetSysClockFreq>
 81011c2:	4602      	mov	r2, r0
 81011c4:	4b11      	ldr	r3, [pc, #68]	; (810120c <HAL_RCC_GetHCLKFreq+0x54>)
 81011c6:	699b      	ldr	r3, [r3, #24]
 81011c8:	0a1b      	lsrs	r3, r3, #8
 81011ca:	f003 030f 	and.w	r3, r3, #15
 81011ce:	4910      	ldr	r1, [pc, #64]	; (8101210 <HAL_RCC_GetHCLKFreq+0x58>)
 81011d0:	5ccb      	ldrb	r3, [r1, r3]
 81011d2:	f003 031f 	and.w	r3, r3, #31
 81011d6:	fa22 f303 	lsr.w	r3, r2, r3
 81011da:	607b      	str	r3, [r7, #4]
#else
  common_system_clock = HAL_RCC_GetSysClockFreq() >> (D1CorePrescTable[(RCC->CDCFGR1 & RCC_CDCFGR1_CDCPRE)>> RCC_CDCFGR1_CDCPRE_Pos] & 0x1FU);
#endif

#if defined(RCC_D1CFGR_HPRE)
  SystemD2Clock = (common_system_clock >> ((D1CorePrescTable[(RCC->D1CFGR & RCC_D1CFGR_HPRE)>> RCC_D1CFGR_HPRE_Pos]) & 0x1FU));
 81011dc:	4b0b      	ldr	r3, [pc, #44]	; (810120c <HAL_RCC_GetHCLKFreq+0x54>)
 81011de:	699b      	ldr	r3, [r3, #24]
 81011e0:	f003 030f 	and.w	r3, r3, #15
 81011e4:	4a0a      	ldr	r2, [pc, #40]	; (8101210 <HAL_RCC_GetHCLKFreq+0x58>)
 81011e6:	5cd3      	ldrb	r3, [r2, r3]
 81011e8:	f003 031f 	and.w	r3, r3, #31
 81011ec:	687a      	ldr	r2, [r7, #4]
 81011ee:	fa22 f303 	lsr.w	r3, r2, r3
 81011f2:	4a08      	ldr	r2, [pc, #32]	; (8101214 <HAL_RCC_GetHCLKFreq+0x5c>)
 81011f4:	6013      	str	r3, [r2, #0]
#else
  SystemD2Clock = (common_system_clock >> ((D1CorePrescTable[(RCC->CDCFGR1 & RCC_CDCFGR1_HPRE)>> RCC_CDCFGR1_HPRE_Pos]) & 0x1FU));
#endif

#if defined(DUAL_CORE) && defined(CORE_CM4)
  SystemCoreClock = SystemD2Clock;
 81011f6:	4b07      	ldr	r3, [pc, #28]	; (8101214 <HAL_RCC_GetHCLKFreq+0x5c>)
 81011f8:	681b      	ldr	r3, [r3, #0]
 81011fa:	4a07      	ldr	r2, [pc, #28]	; (8101218 <HAL_RCC_GetHCLKFreq+0x60>)
 81011fc:	6013      	str	r3, [r2, #0]
#else
  SystemCoreClock = common_system_clock;
#endif /* DUAL_CORE && CORE_CM4 */

  return SystemD2Clock;
 81011fe:	4b05      	ldr	r3, [pc, #20]	; (8101214 <HAL_RCC_GetHCLKFreq+0x5c>)
 8101200:	681b      	ldr	r3, [r3, #0]
}
 8101202:	4618      	mov	r0, r3
 8101204:	3708      	adds	r7, #8
 8101206:	46bd      	mov	sp, r7
 8101208:	bd80      	pop	{r7, pc}
 810120a:	bf00      	nop
 810120c:	58024400 	.word	0x58024400
 8101210:	081018e0 	.word	0x081018e0
 8101214:	10000004 	.word	0x10000004
 8101218:	10000000 	.word	0x10000000

0810121c <HAL_RCC_GetPCLK1Freq>:
  * @note   Each time PCLK1 changes, this function must be called to update the
  *         right PCLK1 value. Otherwise, any configuration based on this function will be incorrect.
  * @retval PCLK1 frequency
  */
uint32_t HAL_RCC_GetPCLK1Freq(void)
{
 810121c:	b580      	push	{r7, lr}
 810121e:	af00      	add	r7, sp, #0
#if defined (RCC_D2CFGR_D2PPRE1)
  /* Get HCLK source and Compute PCLK1 frequency ---------------------------*/
  return (HAL_RCC_GetHCLKFreq() >> ((D1CorePrescTable[(RCC->D2CFGR & RCC_D2CFGR_D2PPRE1)>> RCC_D2CFGR_D2PPRE1_Pos]) & 0x1FU));
 8101220:	f7ff ffca 	bl	81011b8 <HAL_RCC_GetHCLKFreq>
 8101224:	4602      	mov	r2, r0
 8101226:	4b06      	ldr	r3, [pc, #24]	; (8101240 <HAL_RCC_GetPCLK1Freq+0x24>)
 8101228:	69db      	ldr	r3, [r3, #28]
 810122a:	091b      	lsrs	r3, r3, #4
 810122c:	f003 0307 	and.w	r3, r3, #7
 8101230:	4904      	ldr	r1, [pc, #16]	; (8101244 <HAL_RCC_GetPCLK1Freq+0x28>)
 8101232:	5ccb      	ldrb	r3, [r1, r3]
 8101234:	f003 031f 	and.w	r3, r3, #31
 8101238:	fa22 f303 	lsr.w	r3, r2, r3
#else
 /* Get HCLK source and Compute PCLK1 frequency ---------------------------*/
  return (HAL_RCC_GetHCLKFreq() >> ((D1CorePrescTable[(RCC->CDCFGR2 & RCC_CDCFGR2_CDPPRE1)>> RCC_CDCFGR2_CDPPRE1_Pos]) & 0x1FU));
#endif
}
 810123c:	4618      	mov	r0, r3
 810123e:	bd80      	pop	{r7, pc}
 8101240:	58024400 	.word	0x58024400
 8101244:	081018e0 	.word	0x081018e0

08101248 <HAL_RCC_GetClockConfig>:
  * will be configured.
  * @param  pFLatency: Pointer on the Flash Latency.
  * @retval None
  */
void HAL_RCC_GetClockConfig(RCC_ClkInitTypeDef  *RCC_ClkInitStruct, uint32_t *pFLatency)
{
 8101248:	b480      	push	{r7}
 810124a:	b083      	sub	sp, #12
 810124c:	af00      	add	r7, sp, #0
 810124e:	6078      	str	r0, [r7, #4]
 8101250:	6039      	str	r1, [r7, #0]
  /* Set all possible values for the Clock type parameter --------------------*/
  RCC_ClkInitStruct->ClockType = RCC_CLOCKTYPE_SYSCLK | RCC_CLOCKTYPE_HCLK | RCC_CLOCKTYPE_D1PCLK1 | RCC_CLOCKTYPE_PCLK1 |
 8101252:	687b      	ldr	r3, [r7, #4]
 8101254:	223f      	movs	r2, #63	; 0x3f
 8101256:	601a      	str	r2, [r3, #0]
                                 RCC_CLOCKTYPE_PCLK2 |  RCC_CLOCKTYPE_D3PCLK1  ;

  /* Get the SYSCLK configuration --------------------------------------------*/
  RCC_ClkInitStruct->SYSCLKSource = (uint32_t)(RCC->CFGR & RCC_CFGR_SW);
 8101258:	4b1a      	ldr	r3, [pc, #104]	; (81012c4 <HAL_RCC_GetClockConfig+0x7c>)
 810125a:	691b      	ldr	r3, [r3, #16]
 810125c:	f003 0207 	and.w	r2, r3, #7
 8101260:	687b      	ldr	r3, [r7, #4]
 8101262:	605a      	str	r2, [r3, #4]

#if defined(RCC_D1CFGR_D1CPRE)
  /* Get the SYSCLK configuration ----------------------------------------------*/
  RCC_ClkInitStruct->SYSCLKDivider = (uint32_t)(RCC->D1CFGR & RCC_D1CFGR_D1CPRE);
 8101264:	4b17      	ldr	r3, [pc, #92]	; (81012c4 <HAL_RCC_GetClockConfig+0x7c>)
 8101266:	699b      	ldr	r3, [r3, #24]
 8101268:	f403 6270 	and.w	r2, r3, #3840	; 0xf00
 810126c:	687b      	ldr	r3, [r7, #4]
 810126e:	609a      	str	r2, [r3, #8]

  /* Get the D1HCLK configuration ----------------------------------------------*/
  RCC_ClkInitStruct->AHBCLKDivider = (uint32_t)(RCC->D1CFGR & RCC_D1CFGR_HPRE);
 8101270:	4b14      	ldr	r3, [pc, #80]	; (81012c4 <HAL_RCC_GetClockConfig+0x7c>)
 8101272:	699b      	ldr	r3, [r3, #24]
 8101274:	f003 020f 	and.w	r2, r3, #15
 8101278:	687b      	ldr	r3, [r7, #4]
 810127a:	60da      	str	r2, [r3, #12]

  /* Get the APB3 configuration ----------------------------------------------*/
  RCC_ClkInitStruct->APB3CLKDivider = (uint32_t)(RCC->D1CFGR & RCC_D1CFGR_D1PPRE);
 810127c:	4b11      	ldr	r3, [pc, #68]	; (81012c4 <HAL_RCC_GetClockConfig+0x7c>)
 810127e:	699b      	ldr	r3, [r3, #24]
 8101280:	f003 0270 	and.w	r2, r3, #112	; 0x70
 8101284:	687b      	ldr	r3, [r7, #4]
 8101286:	611a      	str	r2, [r3, #16]

  /* Get the APB1 configuration ----------------------------------------------*/
  RCC_ClkInitStruct->APB1CLKDivider = (uint32_t)(RCC->D2CFGR & RCC_D2CFGR_D2PPRE1);
 8101288:	4b0e      	ldr	r3, [pc, #56]	; (81012c4 <HAL_RCC_GetClockConfig+0x7c>)
 810128a:	69db      	ldr	r3, [r3, #28]
 810128c:	f003 0270 	and.w	r2, r3, #112	; 0x70
 8101290:	687b      	ldr	r3, [r7, #4]
 8101292:	615a      	str	r2, [r3, #20]

  /* Get the APB2 configuration ----------------------------------------------*/
  RCC_ClkInitStruct->APB2CLKDivider = (uint32_t)(RCC->D2CFGR & RCC_D2CFGR_D2PPRE2);
 8101294:	4b0b      	ldr	r3, [pc, #44]	; (81012c4 <HAL_RCC_GetClockConfig+0x7c>)
 8101296:	69db      	ldr	r3, [r3, #28]
 8101298:	f403 62e0 	and.w	r2, r3, #1792	; 0x700
 810129c:	687b      	ldr	r3, [r7, #4]
 810129e:	619a      	str	r2, [r3, #24]

  /* Get the APB4 configuration ----------------------------------------------*/
  RCC_ClkInitStruct->APB4CLKDivider = (uint32_t)(RCC->D3CFGR & RCC_D3CFGR_D3PPRE);
 81012a0:	4b08      	ldr	r3, [pc, #32]	; (81012c4 <HAL_RCC_GetClockConfig+0x7c>)
 81012a2:	6a1b      	ldr	r3, [r3, #32]
 81012a4:	f003 0270 	and.w	r2, r3, #112	; 0x70
 81012a8:	687b      	ldr	r3, [r7, #4]
 81012aa:	61da      	str	r2, [r3, #28]
  /* Get the APB4 configuration ----------------------------------------------*/
  RCC_ClkInitStruct->APB4CLKDivider = (uint32_t)(RCC->SRDCFGR & RCC_SRDCFGR_SRDPPRE);
#endif

  /* Get the Flash Wait State (Latency) configuration ------------------------*/
  *pFLatency = (uint32_t)(FLASH->ACR & FLASH_ACR_LATENCY);
 81012ac:	4b06      	ldr	r3, [pc, #24]	; (81012c8 <HAL_RCC_GetClockConfig+0x80>)
 81012ae:	681b      	ldr	r3, [r3, #0]
 81012b0:	f003 020f 	and.w	r2, r3, #15
 81012b4:	683b      	ldr	r3, [r7, #0]
 81012b6:	601a      	str	r2, [r3, #0]
}
 81012b8:	bf00      	nop
 81012ba:	370c      	adds	r7, #12
 81012bc:	46bd      	mov	sp, r7
 81012be:	f85d 7b04 	ldr.w	r7, [sp], #4
 81012c2:	4770      	bx	lr
 81012c4:	58024400 	.word	0x58024400
 81012c8:	52002000 	.word	0x52002000

081012cc <HAL_TIM_Base_Init>:
  *         Ex: call @ref HAL_TIM_Base_DeInit() before HAL_TIM_Base_Init()
  * @param  htim TIM Base handle
  * @retval HAL status
  */
HAL_StatusTypeDef HAL_TIM_Base_Init(TIM_HandleTypeDef *htim)
{
 81012cc:	b580      	push	{r7, lr}
 81012ce:	b082      	sub	sp, #8
 81012d0:	af00      	add	r7, sp, #0
 81012d2:	6078      	str	r0, [r7, #4]
  /* Check the TIM handle allocation */
  if (htim == NULL)
 81012d4:	687b      	ldr	r3, [r7, #4]
 81012d6:	2b00      	cmp	r3, #0
 81012d8:	d101      	bne.n	81012de <HAL_TIM_Base_Init+0x12>
  {
    return HAL_ERROR;
 81012da:	2301      	movs	r3, #1
 81012dc:	e049      	b.n	8101372 <HAL_TIM_Base_Init+0xa6>
  assert_param(IS_TIM_INSTANCE(htim->Instance));
  assert_param(IS_TIM_COUNTER_MODE(htim->Init.CounterMode));
  assert_param(IS_TIM_CLOCKDIVISION_DIV(htim->Init.ClockDivision));
  assert_param(IS_TIM_AUTORELOAD_PRELOAD(htim->Init.AutoReloadPreload));

  if (htim->State == HAL_TIM_STATE_RESET)
 81012de:	687b      	ldr	r3, [r7, #4]
 81012e0:	f893 303d 	ldrb.w	r3, [r3, #61]	; 0x3d
 81012e4:	b2db      	uxtb	r3, r3
 81012e6:	2b00      	cmp	r3, #0
 81012e8:	d106      	bne.n	81012f8 <HAL_TIM_Base_Init+0x2c>
  {
    /* Allocate lock resource and initialize it */
    htim->Lock = HAL_UNLOCKED;
 81012ea:	687b      	ldr	r3, [r7, #4]
 81012ec:	2200      	movs	r2, #0
 81012ee:	f883 203c 	strb.w	r2, [r3, #60]	; 0x3c
    }
    /* Init the low level hardware : GPIO, CLOCK, NVIC */
    htim->Base_MspInitCallback(htim);
#else
    /* Init the low level hardware : GPIO, CLOCK, NVIC */
    HAL_TIM_Base_MspInit(htim);
 81012f2:	6878      	ldr	r0, [r7, #4]
 81012f4:	f000 f841 	bl	810137a <HAL_TIM_Base_MspInit>
#endif /* USE_HAL_TIM_REGISTER_CALLBACKS */
  }

  /* Set the TIM state */
  htim->State = HAL_TIM_STATE_BUSY;
 81012f8:	687b      	ldr	r3, [r7, #4]
 81012fa:	2202      	movs	r2, #2
 81012fc:	f883 203d 	strb.w	r2, [r3, #61]	; 0x3d

  /* Set the Time Base configuration */
  TIM_Base_SetConfig(htim->Instance, &htim->Init);
 8101300:	687b      	ldr	r3, [r7, #4]
 8101302:	681a      	ldr	r2, [r3, #0]
 8101304:	687b      	ldr	r3, [r7, #4]
 8101306:	3304      	adds	r3, #4
 8101308:	4619      	mov	r1, r3
 810130a:	4610      	mov	r0, r2
 810130c:	f000 fa00 	bl	8101710 <TIM_Base_SetConfig>

  /* Initialize the DMA burst operation state */
  htim->DMABurstState = HAL_DMA_BURST_STATE_READY;
 8101310:	687b      	ldr	r3, [r7, #4]
 8101312:	2201      	movs	r2, #1
 8101314:	f883 2048 	strb.w	r2, [r3, #72]	; 0x48

  /* Initialize the TIM channels state */
  TIM_CHANNEL_STATE_SET_ALL(htim, HAL_TIM_CHANNEL_STATE_READY);
 8101318:	687b      	ldr	r3, [r7, #4]
 810131a:	2201      	movs	r2, #1
 810131c:	f883 203e 	strb.w	r2, [r3, #62]	; 0x3e
 8101320:	687b      	ldr	r3, [r7, #4]
 8101322:	2201      	movs	r2, #1
 8101324:	f883 203f 	strb.w	r2, [r3, #63]	; 0x3f
 8101328:	687b      	ldr	r3, [r7, #4]
 810132a:	2201      	movs	r2, #1
 810132c:	f883 2040 	strb.w	r2, [r3, #64]	; 0x40
 8101330:	687b      	ldr	r3, [r7, #4]
 8101332:	2201      	movs	r2, #1
 8101334:	f883 2041 	strb.w	r2, [r3, #65]	; 0x41
 8101338:	687b      	ldr	r3, [r7, #4]
 810133a:	2201      	movs	r2, #1
 810133c:	f883 2042 	strb.w	r2, [r3, #66]	; 0x42
 8101340:	687b      	ldr	r3, [r7, #4]
 8101342:	2201      	movs	r2, #1
 8101344:	f883 2043 	strb.w	r2, [r3, #67]	; 0x43
  TIM_CHANNEL_N_STATE_SET_ALL(htim, HAL_TIM_CHANNEL_STATE_READY);
 8101348:	687b      	ldr	r3, [r7, #4]
 810134a:	2201      	movs	r2, #1
 810134c:	f883 2044 	strb.w	r2, [r3, #68]	; 0x44
 8101350:	687b      	ldr	r3, [r7, #4]
 8101352:	2201      	movs	r2, #1
 8101354:	f883 2045 	strb.w	r2, [r3, #69]	; 0x45
 8101358:	687b      	ldr	r3, [r7, #4]
 810135a:	2201      	movs	r2, #1
 810135c:	f883 2046 	strb.w	r2, [r3, #70]	; 0x46
 8101360:	687b      	ldr	r3, [r7, #4]
 8101362:	2201      	movs	r2, #1
 8101364:	f883 2047 	strb.w	r2, [r3, #71]	; 0x47

  /* Initialize the TIM state*/
  htim->State = HAL_TIM_STATE_READY;
 8101368:	687b      	ldr	r3, [r7, #4]
 810136a:	2201      	movs	r2, #1
 810136c:	f883 203d 	strb.w	r2, [r3, #61]	; 0x3d

  return HAL_OK;
 8101370:	2300      	movs	r3, #0
}
 8101372:	4618      	mov	r0, r3
 8101374:	3708      	adds	r7, #8
 8101376:	46bd      	mov	sp, r7
 8101378:	bd80      	pop	{r7, pc}

0810137a <HAL_TIM_Base_MspInit>:
  * @brief  Initializes the TIM Base MSP.
  * @param  htim TIM Base handle
  * @retval None
  */
__weak void HAL_TIM_Base_MspInit(TIM_HandleTypeDef *htim)
{
 810137a:	b480      	push	{r7}
 810137c:	b083      	sub	sp, #12
 810137e:	af00      	add	r7, sp, #0
 8101380:	6078      	str	r0, [r7, #4]
  UNUSED(htim);

  /* NOTE : This function should not be modified, when the callback is needed,
            the HAL_TIM_Base_MspInit could be implemented in the user file
   */
}
 8101382:	bf00      	nop
 8101384:	370c      	adds	r7, #12
 8101386:	46bd      	mov	sp, r7
 8101388:	f85d 7b04 	ldr.w	r7, [sp], #4
 810138c:	4770      	bx	lr
	...

08101390 <HAL_TIM_Base_Start_IT>:
  * @brief  Starts the TIM Base generation in interrupt mode.
  * @param  htim TIM Base handle
  * @retval HAL status
  */
HAL_StatusTypeDef HAL_TIM_Base_Start_IT(TIM_HandleTypeDef *htim)
{
 8101390:	b480      	push	{r7}
 8101392:	b085      	sub	sp, #20
 8101394:	af00      	add	r7, sp, #0
 8101396:	6078      	str	r0, [r7, #4]

  /* Check the parameters */
  assert_param(IS_TIM_INSTANCE(htim->Instance));

  /* Check the TIM state */
  if (htim->State != HAL_TIM_STATE_READY)
 8101398:	687b      	ldr	r3, [r7, #4]
 810139a:	f893 303d 	ldrb.w	r3, [r3, #61]	; 0x3d
 810139e:	b2db      	uxtb	r3, r3
 81013a0:	2b01      	cmp	r3, #1
 81013a2:	d001      	beq.n	81013a8 <HAL_TIM_Base_Start_IT+0x18>
  {
    return HAL_ERROR;
 81013a4:	2301      	movs	r3, #1
 81013a6:	e054      	b.n	8101452 <HAL_TIM_Base_Start_IT+0xc2>
  }

  /* Set the TIM state */
  htim->State = HAL_TIM_STATE_BUSY;
 81013a8:	687b      	ldr	r3, [r7, #4]
 81013aa:	2202      	movs	r2, #2
 81013ac:	f883 203d 	strb.w	r2, [r3, #61]	; 0x3d

  /* Enable the TIM Update interrupt */
  __HAL_TIM_ENABLE_IT(htim, TIM_IT_UPDATE);
 81013b0:	687b      	ldr	r3, [r7, #4]
 81013b2:	681b      	ldr	r3, [r3, #0]
 81013b4:	68da      	ldr	r2, [r3, #12]
 81013b6:	687b      	ldr	r3, [r7, #4]
 81013b8:	681b      	ldr	r3, [r3, #0]
 81013ba:	f042 0201 	orr.w	r2, r2, #1
 81013be:	60da      	str	r2, [r3, #12]

  /* Enable the Peripheral, except in trigger mode where enable is automatically done with trigger */
  if (IS_TIM_SLAVE_INSTANCE(htim->Instance))
 81013c0:	687b      	ldr	r3, [r7, #4]
 81013c2:	681b      	ldr	r3, [r3, #0]
 81013c4:	4a26      	ldr	r2, [pc, #152]	; (8101460 <HAL_TIM_Base_Start_IT+0xd0>)
 81013c6:	4293      	cmp	r3, r2
 81013c8:	d022      	beq.n	8101410 <HAL_TIM_Base_Start_IT+0x80>
 81013ca:	687b      	ldr	r3, [r7, #4]
 81013cc:	681b      	ldr	r3, [r3, #0]
 81013ce:	f1b3 4f80 	cmp.w	r3, #1073741824	; 0x40000000
 81013d2:	d01d      	beq.n	8101410 <HAL_TIM_Base_Start_IT+0x80>
 81013d4:	687b      	ldr	r3, [r7, #4]
 81013d6:	681b      	ldr	r3, [r3, #0]
 81013d8:	4a22      	ldr	r2, [pc, #136]	; (8101464 <HAL_TIM_Base_Start_IT+0xd4>)
 81013da:	4293      	cmp	r3, r2
 81013dc:	d018      	beq.n	8101410 <HAL_TIM_Base_Start_IT+0x80>
 81013de:	687b      	ldr	r3, [r7, #4]
 81013e0:	681b      	ldr	r3, [r3, #0]
 81013e2:	4a21      	ldr	r2, [pc, #132]	; (8101468 <HAL_TIM_Base_Start_IT+0xd8>)
 81013e4:	4293      	cmp	r3, r2
 81013e6:	d013      	beq.n	8101410 <HAL_TIM_Base_Start_IT+0x80>
 81013e8:	687b      	ldr	r3, [r7, #4]
 81013ea:	681b      	ldr	r3, [r3, #0]
 81013ec:	4a1f      	ldr	r2, [pc, #124]	; (810146c <HAL_TIM_Base_Start_IT+0xdc>)
 81013ee:	4293      	cmp	r3, r2
 81013f0:	d00e      	beq.n	8101410 <HAL_TIM_Base_Start_IT+0x80>
 81013f2:	687b      	ldr	r3, [r7, #4]
 81013f4:	681b      	ldr	r3, [r3, #0]
 81013f6:	4a1e      	ldr	r2, [pc, #120]	; (8101470 <HAL_TIM_Base_Start_IT+0xe0>)
 81013f8:	4293      	cmp	r3, r2
 81013fa:	d009      	beq.n	8101410 <HAL_TIM_Base_Start_IT+0x80>
 81013fc:	687b      	ldr	r3, [r7, #4]
 81013fe:	681b      	ldr	r3, [r3, #0]
 8101400:	4a1c      	ldr	r2, [pc, #112]	; (8101474 <HAL_TIM_Base_Start_IT+0xe4>)
 8101402:	4293      	cmp	r3, r2
 8101404:	d004      	beq.n	8101410 <HAL_TIM_Base_Start_IT+0x80>
 8101406:	687b      	ldr	r3, [r7, #4]
 8101408:	681b      	ldr	r3, [r3, #0]
 810140a:	4a1b      	ldr	r2, [pc, #108]	; (8101478 <HAL_TIM_Base_Start_IT+0xe8>)
 810140c:	4293      	cmp	r3, r2
 810140e:	d115      	bne.n	810143c <HAL_TIM_Base_Start_IT+0xac>
  {
    tmpsmcr = htim->Instance->SMCR & TIM_SMCR_SMS;
 8101410:	687b      	ldr	r3, [r7, #4]
 8101412:	681b      	ldr	r3, [r3, #0]
 8101414:	689a      	ldr	r2, [r3, #8]
 8101416:	4b19      	ldr	r3, [pc, #100]	; (810147c <HAL_TIM_Base_Start_IT+0xec>)
 8101418:	4013      	ands	r3, r2
 810141a:	60fb      	str	r3, [r7, #12]
    if (!IS_TIM_SLAVEMODE_TRIGGER_ENABLED(tmpsmcr))
 810141c:	68fb      	ldr	r3, [r7, #12]
 810141e:	2b06      	cmp	r3, #6
 8101420:	d015      	beq.n	810144e <HAL_TIM_Base_Start_IT+0xbe>
 8101422:	68fb      	ldr	r3, [r7, #12]
 8101424:	f5b3 3f80 	cmp.w	r3, #65536	; 0x10000
 8101428:	d011      	beq.n	810144e <HAL_TIM_Base_Start_IT+0xbe>
    {
      __HAL_TIM_ENABLE(htim);
 810142a:	687b      	ldr	r3, [r7, #4]
 810142c:	681b      	ldr	r3, [r3, #0]
 810142e:	681a      	ldr	r2, [r3, #0]
 8101430:	687b      	ldr	r3, [r7, #4]
 8101432:	681b      	ldr	r3, [r3, #0]
 8101434:	f042 0201 	orr.w	r2, r2, #1
 8101438:	601a      	str	r2, [r3, #0]
    if (!IS_TIM_SLAVEMODE_TRIGGER_ENABLED(tmpsmcr))
 810143a:	e008      	b.n	810144e <HAL_TIM_Base_Start_IT+0xbe>
    }
  }
  else
  {
    __HAL_TIM_ENABLE(htim);
 810143c:	687b      	ldr	r3, [r7, #4]
 810143e:	681b      	ldr	r3, [r3, #0]
 8101440:	681a      	ldr	r2, [r3, #0]
 8101442:	687b      	ldr	r3, [r7, #4]
 8101444:	681b      	ldr	r3, [r3, #0]
 8101446:	f042 0201 	orr.w	r2, r2, #1
 810144a:	601a      	str	r2, [r3, #0]
 810144c:	e000      	b.n	8101450 <HAL_TIM_Base_Start_IT+0xc0>
    if (!IS_TIM_SLAVEMODE_TRIGGER_ENABLED(tmpsmcr))
 810144e:	bf00      	nop
  }

  /* Return function status */
  return HAL_OK;
 8101450:	2300      	movs	r3, #0
}
 8101452:	4618      	mov	r0, r3
 8101454:	3714      	adds	r7, #20
 8101456:	46bd      	mov	sp, r7
 8101458:	f85d 7b04 	ldr.w	r7, [sp], #4
 810145c:	4770      	bx	lr
 810145e:	bf00      	nop
 8101460:	40010000 	.word	0x40010000
 8101464:	40000400 	.word	0x40000400
 8101468:	40000800 	.word	0x40000800
 810146c:	40000c00 	.word	0x40000c00
 8101470:	40010400 	.word	0x40010400
 8101474:	40001800 	.word	0x40001800
 8101478:	40014000 	.word	0x40014000
 810147c:	00010007 	.word	0x00010007

08101480 <HAL_TIM_IRQHandler>:
  * @brief  This function handles TIM interrupts requests.
  * @param  htim TIM  handle
  * @retval None
  */
void HAL_TIM_IRQHandler(TIM_HandleTypeDef *htim)
{
 8101480:	b580      	push	{r7, lr}
 8101482:	b082      	sub	sp, #8
 8101484:	af00      	add	r7, sp, #0
 8101486:	6078      	str	r0, [r7, #4]
  /* Capture compare 1 event */
  if (__HAL_TIM_GET_FLAG(htim, TIM_FLAG_CC1) != RESET)
 8101488:	687b      	ldr	r3, [r7, #4]
 810148a:	681b      	ldr	r3, [r3, #0]
 810148c:	691b      	ldr	r3, [r3, #16]
 810148e:	f003 0302 	and.w	r3, r3, #2
 8101492:	2b02      	cmp	r3, #2
 8101494:	d122      	bne.n	81014dc <HAL_TIM_IRQHandler+0x5c>
  {
    if (__HAL_TIM_GET_IT_SOURCE(htim, TIM_IT_CC1) != RESET)
 8101496:	687b      	ldr	r3, [r7, #4]
 8101498:	681b      	ldr	r3, [r3, #0]
 810149a:	68db      	ldr	r3, [r3, #12]
 810149c:	f003 0302 	and.w	r3, r3, #2
 81014a0:	2b02      	cmp	r3, #2
 81014a2:	d11b      	bne.n	81014dc <HAL_TIM_IRQHandler+0x5c>
    {
      {
        __HAL_TIM_CLEAR_IT(htim, TIM_IT_CC1);
 81014a4:	687b      	ldr	r3, [r7, #4]
 81014a6:	681b      	ldr	r3, [r3, #0]
 81014a8:	f06f 0202 	mvn.w	r2, #2
 81014ac:	611a      	str	r2, [r3, #16]
        htim->Channel = HAL_TIM_ACTIVE_CHANNEL_1;
 81014ae:	687b      	ldr	r3, [r7, #4]
 81014b0:	2201      	movs	r2, #1
 81014b2:	771a      	strb	r2, [r3, #28]

        /* Input capture event */
        if ((htim->Instance->CCMR1 & TIM_CCMR1_CC1S) != 0x00U)
 81014b4:	687b      	ldr	r3, [r7, #4]
 81014b6:	681b      	ldr	r3, [r3, #0]
 81014b8:	699b      	ldr	r3, [r3, #24]
 81014ba:	f003 0303 	and.w	r3, r3, #3
 81014be:	2b00      	cmp	r3, #0
 81014c0:	d003      	beq.n	81014ca <HAL_TIM_IRQHandler+0x4a>
        {
#if (USE_HAL_TIM_REGISTER_CALLBACKS == 1)
          htim->IC_CaptureCallback(htim);
#else
          HAL_TIM_IC_CaptureCallback(htim);
 81014c2:	6878      	ldr	r0, [r7, #4]
 81014c4:	f000 f905 	bl	81016d2 <HAL_TIM_IC_CaptureCallback>
 81014c8:	e005      	b.n	81014d6 <HAL_TIM_IRQHandler+0x56>
        {
#if (USE_HAL_TIM_REGISTER_CALLBACKS == 1)
          htim->OC_DelayElapsedCallback(htim);
          htim->PWM_PulseFinishedCallback(htim);
#else
          HAL_TIM_OC_DelayElapsedCallback(htim);
 81014ca:	6878      	ldr	r0, [r7, #4]
 81014cc:	f000 f8f7 	bl	81016be <HAL_TIM_OC_DelayElapsedCallback>
          HAL_TIM_PWM_PulseFinishedCallback(htim);
 81014d0:	6878      	ldr	r0, [r7, #4]
 81014d2:	f000 f908 	bl	81016e6 <HAL_TIM_PWM_PulseFinishedCallback>
#endif /* USE_HAL_TIM_REGISTER_CALLBACKS */
        }
        htim->Channel = HAL_TIM_ACTIVE_CHANNEL_CLEARED;
 81014d6:	687b      	ldr	r3, [r7, #4]
 81014d8:	2200      	movs	r2, #0
 81014da:	771a      	strb	r2, [r3, #28]
      }
    }
  }
  /* Capture compare 2 event */
  if (__HAL_TIM_GET_FLAG(htim, TIM_FLAG_CC2) != RESET)
 81014dc:	687b      	ldr	r3, [r7, #4]
 81014de:	681b      	ldr	r3, [r3, #0]
 81014e0:	691b      	ldr	r3, [r3, #16]
 81014e2:	f003 0304 	and.w	r3, r3, #4
 81014e6:	2b04      	cmp	r3, #4
 81014e8:	d122      	bne.n	8101530 <HAL_TIM_IRQHandler+0xb0>
  {
    if (__HAL_TIM_GET_IT_SOURCE(htim, TIM_IT_CC2) != RESET)
 81014ea:	687b      	ldr	r3, [r7, #4]
 81014ec:	681b      	ldr	r3, [r3, #0]
 81014ee:	68db      	ldr	r3, [r3, #12]
 81014f0:	f003 0304 	and.w	r3, r3, #4
 81014f4:	2b04      	cmp	r3, #4
 81014f6:	d11b      	bne.n	8101530 <HAL_TIM_IRQHandler+0xb0>
    {
      __HAL_TIM_CLEAR_IT(htim, TIM_IT_CC2);
 81014f8:	687b      	ldr	r3, [r7, #4]
 81014fa:	681b      	ldr	r3, [r3, #0]
 81014fc:	f06f 0204 	mvn.w	r2, #4
 8101500:	611a      	str	r2, [r3, #16]
      htim->Channel = HAL_TIM_ACTIVE_CHANNEL_2;
 8101502:	687b      	ldr	r3, [r7, #4]
 8101504:	2202      	movs	r2, #2
 8101506:	771a      	strb	r2, [r3, #28]
      /* Input capture event */
      if ((htim->Instance->CCMR1 & TIM_CCMR1_CC2S) != 0x00U)
 8101508:	687b      	ldr	r3, [r7, #4]
 810150a:	681b      	ldr	r3, [r3, #0]
 810150c:	699b      	ldr	r3, [r3, #24]
 810150e:	f403 7340 	and.w	r3, r3, #768	; 0x300
 8101512:	2b00      	cmp	r3, #0
 8101514:	d003      	beq.n	810151e <HAL_TIM_IRQHandler+0x9e>
      {
#if (USE_HAL_TIM_REGISTER_CALLBACKS == 1)
        htim->IC_CaptureCallback(htim);
#else
        HAL_TIM_IC_CaptureCallback(htim);
 8101516:	6878      	ldr	r0, [r7, #4]
 8101518:	f000 f8db 	bl	81016d2 <HAL_TIM_IC_CaptureCallback>
 810151c:	e005      	b.n	810152a <HAL_TIM_IRQHandler+0xaa>
      {
#if (USE_HAL_TIM_REGISTER_CALLBACKS == 1)
        htim->OC_DelayElapsedCallback(htim);
        htim->PWM_PulseFinishedCallback(htim);
#else
        HAL_TIM_OC_DelayElapsedCallback(htim);
 810151e:	6878      	ldr	r0, [r7, #4]
 8101520:	f000 f8cd 	bl	81016be <HAL_TIM_OC_DelayElapsedCallback>
        HAL_TIM_PWM_PulseFinishedCallback(htim);
 8101524:	6878      	ldr	r0, [r7, #4]
 8101526:	f000 f8de 	bl	81016e6 <HAL_TIM_PWM_PulseFinishedCallback>
#endif /* USE_HAL_TIM_REGISTER_CALLBACKS */
      }
      htim->Channel = HAL_TIM_ACTIVE_CHANNEL_CLEARED;
 810152a:	687b      	ldr	r3, [r7, #4]
 810152c:	2200      	movs	r2, #0
 810152e:	771a      	strb	r2, [r3, #28]
    }
  }
  /* Capture compare 3 event */
  if (__HAL_TIM_GET_FLAG(htim, TIM_FLAG_CC3) != RESET)
 8101530:	687b      	ldr	r3, [r7, #4]
 8101532:	681b      	ldr	r3, [r3, #0]
 8101534:	691b      	ldr	r3, [r3, #16]
 8101536:	f003 0308 	and.w	r3, r3, #8
 810153a:	2b08      	cmp	r3, #8
 810153c:	d122      	bne.n	8101584 <HAL_TIM_IRQHandler+0x104>
  {
    if (__HAL_TIM_GET_IT_SOURCE(htim, TIM_IT_CC3) != RESET)
 810153e:	687b      	ldr	r3, [r7, #4]
 8101540:	681b      	ldr	r3, [r3, #0]
 8101542:	68db      	ldr	r3, [r3, #12]
 8101544:	f003 0308 	and.w	r3, r3, #8
 8101548:	2b08      	cmp	r3, #8
 810154a:	d11b      	bne.n	8101584 <HAL_TIM_IRQHandler+0x104>
    {
      __HAL_TIM_CLEAR_IT(htim, TIM_IT_CC3);
 810154c:	687b      	ldr	r3, [r7, #4]
 810154e:	681b      	ldr	r3, [r3, #0]
 8101550:	f06f 0208 	mvn.w	r2, #8
 8101554:	611a      	str	r2, [r3, #16]
      htim->Channel = HAL_TIM_ACTIVE_CHANNEL_3;
 8101556:	687b      	ldr	r3, [r7, #4]
 8101558:	2204      	movs	r2, #4
 810155a:	771a      	strb	r2, [r3, #28]
      /* Input capture event */
      if ((htim->Instance->CCMR2 & TIM_CCMR2_CC3S) != 0x00U)
 810155c:	687b      	ldr	r3, [r7, #4]
 810155e:	681b      	ldr	r3, [r3, #0]
 8101560:	69db      	ldr	r3, [r3, #28]
 8101562:	f003 0303 	and.w	r3, r3, #3
 8101566:	2b00      	cmp	r3, #0
 8101568:	d003      	beq.n	8101572 <HAL_TIM_IRQHandler+0xf2>
      {
#if (USE_HAL_TIM_REGISTER_CALLBACKS == 1)
        htim->IC_CaptureCallback(htim);
#else
        HAL_TIM_IC_CaptureCallback(htim);
 810156a:	6878      	ldr	r0, [r7, #4]
 810156c:	f000 f8b1 	bl	81016d2 <HAL_TIM_IC_CaptureCallback>
 8101570:	e005      	b.n	810157e <HAL_TIM_IRQHandler+0xfe>
      {
#if (USE_HAL_TIM_REGISTER_CALLBACKS == 1)
        htim->OC_DelayElapsedCallback(htim);
        htim->PWM_PulseFinishedCallback(htim);
#else
        HAL_TIM_OC_DelayElapsedCallback(htim);
 8101572:	6878      	ldr	r0, [r7, #4]
 8101574:	f000 f8a3 	bl	81016be <HAL_TIM_OC_DelayElapsedCallback>
        HAL_TIM_PWM_PulseFinishedCallback(htim);
 8101578:	6878      	ldr	r0, [r7, #4]
 810157a:	f000 f8b4 	bl	81016e6 <HAL_TIM_PWM_PulseFinishedCallback>
#endif /* USE_HAL_TIM_REGISTER_CALLBACKS */
      }
      htim->Channel = HAL_TIM_ACTIVE_CHANNEL_CLEARED;
 810157e:	687b      	ldr	r3, [r7, #4]
 8101580:	2200      	movs	r2, #0
 8101582:	771a      	strb	r2, [r3, #28]
    }
  }
  /* Capture compare 4 event */
  if (__HAL_TIM_GET_FLAG(htim, TIM_FLAG_CC4) != RESET)
 8101584:	687b      	ldr	r3, [r7, #4]
 8101586:	681b      	ldr	r3, [r3, #0]
 8101588:	691b      	ldr	r3, [r3, #16]
 810158a:	f003 0310 	and.w	r3, r3, #16
 810158e:	2b10      	cmp	r3, #16
 8101590:	d122      	bne.n	81015d8 <HAL_TIM_IRQHandler+0x158>
  {
    if (__HAL_TIM_GET_IT_SOURCE(htim, TIM_IT_CC4) != RESET)
 8101592:	687b      	ldr	r3, [r7, #4]
 8101594:	681b      	ldr	r3, [r3, #0]
 8101596:	68db      	ldr	r3, [r3, #12]
 8101598:	f003 0310 	and.w	r3, r3, #16
 810159c:	2b10      	cmp	r3, #16
 810159e:	d11b      	bne.n	81015d8 <HAL_TIM_IRQHandler+0x158>
    {
      __HAL_TIM_CLEAR_IT(htim, TIM_IT_CC4);
 81015a0:	687b      	ldr	r3, [r7, #4]
 81015a2:	681b      	ldr	r3, [r3, #0]
 81015a4:	f06f 0210 	mvn.w	r2, #16
 81015a8:	611a      	str	r2, [r3, #16]
      htim->Channel = HAL_TIM_ACTIVE_CHANNEL_4;
 81015aa:	687b      	ldr	r3, [r7, #4]
 81015ac:	2208      	movs	r2, #8
 81015ae:	771a      	strb	r2, [r3, #28]
      /* Input capture event */
      if ((htim->Instance->CCMR2 & TIM_CCMR2_CC4S) != 0x00U)
 81015b0:	687b      	ldr	r3, [r7, #4]
 81015b2:	681b      	ldr	r3, [r3, #0]
 81015b4:	69db      	ldr	r3, [r3, #28]
 81015b6:	f403 7340 	and.w	r3, r3, #768	; 0x300
 81015ba:	2b00      	cmp	r3, #0
 81015bc:	d003      	beq.n	81015c6 <HAL_TIM_IRQHandler+0x146>
      {
#if (USE_HAL_TIM_REGISTER_CALLBACKS == 1)
        htim->IC_CaptureCallback(htim);
#else
        HAL_TIM_IC_CaptureCallback(htim);
 81015be:	6878      	ldr	r0, [r7, #4]
 81015c0:	f000 f887 	bl	81016d2 <HAL_TIM_IC_CaptureCallback>
 81015c4:	e005      	b.n	81015d2 <HAL_TIM_IRQHandler+0x152>
      {
#if (USE_HAL_TIM_REGISTER_CALLBACKS == 1)
        htim->OC_DelayElapsedCallback(htim);
        htim->PWM_PulseFinishedCallback(htim);
#else
        HAL_TIM_OC_DelayElapsedCallback(htim);
 81015c6:	6878      	ldr	r0, [r7, #4]
 81015c8:	f000 f879 	bl	81016be <HAL_TIM_OC_DelayElapsedCallback>
        HAL_TIM_PWM_PulseFinishedCallback(htim);
 81015cc:	6878      	ldr	r0, [r7, #4]
 81015ce:	f000 f88a 	bl	81016e6 <HAL_TIM_PWM_PulseFinishedCallback>
#endif /* USE_HAL_TIM_REGISTER_CALLBACKS */
      }
      htim->Channel = HAL_TIM_ACTIVE_CHANNEL_CLEARED;
 81015d2:	687b      	ldr	r3, [r7, #4]
 81015d4:	2200      	movs	r2, #0
 81015d6:	771a      	strb	r2, [r3, #28]
    }
  }
  /* TIM Update event */
  if (__HAL_TIM_GET_FLAG(htim, TIM_FLAG_UPDATE) != RESET)
 81015d8:	687b      	ldr	r3, [r7, #4]
 81015da:	681b      	ldr	r3, [r3, #0]
 81015dc:	691b      	ldr	r3, [r3, #16]
 81015de:	f003 0301 	and.w	r3, r3, #1
 81015e2:	2b01      	cmp	r3, #1
 81015e4:	d10e      	bne.n	8101604 <HAL_TIM_IRQHandler+0x184>
  {
    if (__HAL_TIM_GET_IT_SOURCE(htim, TIM_IT_UPDATE) != RESET)
 81015e6:	687b      	ldr	r3, [r7, #4]
 81015e8:	681b      	ldr	r3, [r3, #0]
 81015ea:	68db      	ldr	r3, [r3, #12]
 81015ec:	f003 0301 	and.w	r3, r3, #1
 81015f0:	2b01      	cmp	r3, #1
 81015f2:	d107      	bne.n	8101604 <HAL_TIM_IRQHandler+0x184>
    {
      __HAL_TIM_CLEAR_IT(htim, TIM_IT_UPDATE);
 81015f4:	687b      	ldr	r3, [r7, #4]
 81015f6:	681b      	ldr	r3, [r3, #0]
 81015f8:	f06f 0201 	mvn.w	r2, #1
 81015fc:	611a      	str	r2, [r3, #16]
#if (USE_HAL_TIM_REGISTER_CALLBACKS == 1)
      htim->PeriodElapsedCallback(htim);
#else
      HAL_TIM_PeriodElapsedCallback(htim);
 81015fe:	6878      	ldr	r0, [r7, #4]
 8101600:	f7fe ff44 	bl	810048c <HAL_TIM_PeriodElapsedCallback>
#endif /* USE_HAL_TIM_REGISTER_CALLBACKS */
    }
  }
  /* TIM Break input event */
  if (__HAL_TIM_GET_FLAG(htim, TIM_FLAG_BREAK) != RESET)
 8101604:	687b      	ldr	r3, [r7, #4]
 8101606:	681b      	ldr	r3, [r3, #0]
 8101608:	691b      	ldr	r3, [r3, #16]
 810160a:	f003 0380 	and.w	r3, r3, #128	; 0x80
 810160e:	2b80      	cmp	r3, #128	; 0x80
 8101610:	d10e      	bne.n	8101630 <HAL_TIM_IRQHandler+0x1b0>
  {
    if (__HAL_TIM_GET_IT_SOURCE(htim, TIM_IT_BREAK) != RESET)
 8101612:	687b      	ldr	r3, [r7, #4]
 8101614:	681b      	ldr	r3, [r3, #0]
 8101616:	68db      	ldr	r3, [r3, #12]
 8101618:	f003 0380 	and.w	r3, r3, #128	; 0x80
 810161c:	2b80      	cmp	r3, #128	; 0x80
 810161e:	d107      	bne.n	8101630 <HAL_TIM_IRQHandler+0x1b0>
    {
      __HAL_TIM_CLEAR_IT(htim, TIM_IT_BREAK);
 8101620:	687b      	ldr	r3, [r7, #4]
 8101622:	681b      	ldr	r3, [r3, #0]
 8101624:	f06f 0280 	mvn.w	r2, #128	; 0x80
 8101628:	611a      	str	r2, [r3, #16]
#if (USE_HAL_TIM_REGISTER_CALLBACKS == 1)
      htim->BreakCallback(htim);
#else
      HAL_TIMEx_BreakCallback(htim);
 810162a:	6878      	ldr	r0, [r7, #4]
 810162c:	f000 f914 	bl	8101858 <HAL_TIMEx_BreakCallback>
#endif /* USE_HAL_TIM_REGISTER_CALLBACKS */
    }
  }
  /* TIM Break2 input event */
  if (__HAL_TIM_GET_FLAG(htim, TIM_FLAG_BREAK2) != RESET)
 8101630:	687b      	ldr	r3, [r7, #4]
 8101632:	681b      	ldr	r3, [r3, #0]
 8101634:	691b      	ldr	r3, [r3, #16]
 8101636:	f403 7380 	and.w	r3, r3, #256	; 0x100
 810163a:	f5b3 7f80 	cmp.w	r3, #256	; 0x100
 810163e:	d10e      	bne.n	810165e <HAL_TIM_IRQHandler+0x1de>
  {
    if (__HAL_TIM_GET_IT_SOURCE(htim, TIM_IT_BREAK) != RESET)
 8101640:	687b      	ldr	r3, [r7, #4]
 8101642:	681b      	ldr	r3, [r3, #0]
 8101644:	68db      	ldr	r3, [r3, #12]
 8101646:	f003 0380 	and.w	r3, r3, #128	; 0x80
 810164a:	2b80      	cmp	r3, #128	; 0x80
 810164c:	d107      	bne.n	810165e <HAL_TIM_IRQHandler+0x1de>
    {
      __HAL_TIM_CLEAR_FLAG(htim, TIM_FLAG_BREAK2);
 810164e:	687b      	ldr	r3, [r7, #4]
 8101650:	681b      	ldr	r3, [r3, #0]
 8101652:	f46f 7280 	mvn.w	r2, #256	; 0x100
 8101656:	611a      	str	r2, [r3, #16]
#if (USE_HAL_TIM_REGISTER_CALLBACKS == 1)
      htim->Break2Callback(htim);
#else
      HAL_TIMEx_Break2Callback(htim);
 8101658:	6878      	ldr	r0, [r7, #4]
 810165a:	f000 f907 	bl	810186c <HAL_TIMEx_Break2Callback>
#endif /* USE_HAL_TIM_REGISTER_CALLBACKS */
    }
  }
  /* TIM Trigger detection event */
  if (__HAL_TIM_GET_FLAG(htim, TIM_FLAG_TRIGGER) != RESET)
 810165e:	687b      	ldr	r3, [r7, #4]
 8101660:	681b      	ldr	r3, [r3, #0]
 8101662:	691b      	ldr	r3, [r3, #16]
 8101664:	f003 0340 	and.w	r3, r3, #64	; 0x40
 8101668:	2b40      	cmp	r3, #64	; 0x40
 810166a:	d10e      	bne.n	810168a <HAL_TIM_IRQHandler+0x20a>
  {
    if (__HAL_TIM_GET_IT_SOURCE(htim, TIM_IT_TRIGGER) != RESET)
 810166c:	687b      	ldr	r3, [r7, #4]
 810166e:	681b      	ldr	r3, [r3, #0]
 8101670:	68db      	ldr	r3, [r3, #12]
 8101672:	f003 0340 	and.w	r3, r3, #64	; 0x40
 8101676:	2b40      	cmp	r3, #64	; 0x40
 8101678:	d107      	bne.n	810168a <HAL_TIM_IRQHandler+0x20a>
    {
      __HAL_TIM_CLEAR_IT(htim, TIM_IT_TRIGGER);
 810167a:	687b      	ldr	r3, [r7, #4]
 810167c:	681b      	ldr	r3, [r3, #0]
 810167e:	f06f 0240 	mvn.w	r2, #64	; 0x40
 8101682:	611a      	str	r2, [r3, #16]
#if (USE_HAL_TIM_REGISTER_CALLBACKS == 1)
      htim->TriggerCallback(htim);
#else
      HAL_TIM_TriggerCallback(htim);
 8101684:	6878      	ldr	r0, [r7, #4]
 8101686:	f000 f838 	bl	81016fa <HAL_TIM_TriggerCallback>
#endif /* USE_HAL_TIM_REGISTER_CALLBACKS */
    }
  }
  /* TIM commutation event */
  if (__HAL_TIM_GET_FLAG(htim, TIM_FLAG_COM) != RESET)
 810168a:	687b      	ldr	r3, [r7, #4]
 810168c:	681b      	ldr	r3, [r3, #0]
 810168e:	691b      	ldr	r3, [r3, #16]
 8101690:	f003 0320 	and.w	r3, r3, #32
 8101694:	2b20      	cmp	r3, #32
 8101696:	d10e      	bne.n	81016b6 <HAL_TIM_IRQHandler+0x236>
  {
    if (__HAL_TIM_GET_IT_SOURCE(htim, TIM_IT_COM) != RESET)
 8101698:	687b      	ldr	r3, [r7, #4]
 810169a:	681b      	ldr	r3, [r3, #0]
 810169c:	68db      	ldr	r3, [r3, #12]
 810169e:	f003 0320 	and.w	r3, r3, #32
 81016a2:	2b20      	cmp	r3, #32
 81016a4:	d107      	bne.n	81016b6 <HAL_TIM_IRQHandler+0x236>
    {
      __HAL_TIM_CLEAR_IT(htim, TIM_FLAG_COM);
 81016a6:	687b      	ldr	r3, [r7, #4]
 81016a8:	681b      	ldr	r3, [r3, #0]
 81016aa:	f06f 0220 	mvn.w	r2, #32
 81016ae:	611a      	str	r2, [r3, #16]
#if (USE_HAL_TIM_REGISTER_CALLBACKS == 1)
      htim->CommutationCallback(htim);
#else
      HAL_TIMEx_CommutCallback(htim);
 81016b0:	6878      	ldr	r0, [r7, #4]
 81016b2:	f000 f8c7 	bl	8101844 <HAL_TIMEx_CommutCallback>
#endif /* USE_HAL_TIM_REGISTER_CALLBACKS */
    }
  }
}
 81016b6:	bf00      	nop
 81016b8:	3708      	adds	r7, #8
 81016ba:	46bd      	mov	sp, r7
 81016bc:	bd80      	pop	{r7, pc}

081016be <HAL_TIM_OC_DelayElapsedCallback>:
  * @brief  Output Compare callback in non-blocking mode
  * @param  htim TIM OC handle
  * @retval None
  */
__weak void HAL_TIM_OC_DelayElapsedCallback(TIM_HandleTypeDef *htim)
{
 81016be:	b480      	push	{r7}
 81016c0:	b083      	sub	sp, #12
 81016c2:	af00      	add	r7, sp, #0
 81016c4:	6078      	str	r0, [r7, #4]
  UNUSED(htim);

  /* NOTE : This function should not be modified, when the callback is needed,
            the HAL_TIM_OC_DelayElapsedCallback could be implemented in the user file
   */
}
 81016c6:	bf00      	nop
 81016c8:	370c      	adds	r7, #12
 81016ca:	46bd      	mov	sp, r7
 81016cc:	f85d 7b04 	ldr.w	r7, [sp], #4
 81016d0:	4770      	bx	lr

081016d2 <HAL_TIM_IC_CaptureCallback>:
  * @brief  Input Capture callback in non-blocking mode
  * @param  htim TIM IC handle
  * @retval None
  */
__weak void HAL_TIM_IC_CaptureCallback(TIM_HandleTypeDef *htim)
{
 81016d2:	b480      	push	{r7}
 81016d4:	b083      	sub	sp, #12
 81016d6:	af00      	add	r7, sp, #0
 81016d8:	6078      	str	r0, [r7, #4]
  UNUSED(htim);

  /* NOTE : This function should not be modified, when the callback is needed,
            the HAL_TIM_IC_CaptureCallback could be implemented in the user file
   */
}
 81016da:	bf00      	nop
 81016dc:	370c      	adds	r7, #12
 81016de:	46bd      	mov	sp, r7
 81016e0:	f85d 7b04 	ldr.w	r7, [sp], #4
 81016e4:	4770      	bx	lr

081016e6 <HAL_TIM_PWM_PulseFinishedCallback>:
  * @brief  PWM Pulse finished callback in non-blocking mode
  * @param  htim TIM handle
  * @retval None
  */
__weak void HAL_TIM_PWM_PulseFinishedCallback(TIM_HandleTypeDef *htim)
{
 81016e6:	b480      	push	{r7}
 81016e8:	b083      	sub	sp, #12
 81016ea:	af00      	add	r7, sp, #0
 81016ec:	6078      	str	r0, [r7, #4]
  UNUSED(htim);

  /* NOTE : This function should not be modified, when the callback is needed,
            the HAL_TIM_PWM_PulseFinishedCallback could be implemented in the user file
   */
}
 81016ee:	bf00      	nop
 81016f0:	370c      	adds	r7, #12
 81016f2:	46bd      	mov	sp, r7
 81016f4:	f85d 7b04 	ldr.w	r7, [sp], #4
 81016f8:	4770      	bx	lr

081016fa <HAL_TIM_TriggerCallback>:
  * @brief  Hall Trigger detection callback in non-blocking mode
  * @param  htim TIM handle
  * @retval None
  */
__weak void HAL_TIM_TriggerCallback(TIM_HandleTypeDef *htim)
{
 81016fa:	b480      	push	{r7}
 81016fc:	b083      	sub	sp, #12
 81016fe:	af00      	add	r7, sp, #0
 8101700:	6078      	str	r0, [r7, #4]
  UNUSED(htim);

  /* NOTE : This function should not be modified, when the callback is needed,
            the HAL_TIM_TriggerCallback could be implemented in the user file
   */
}
 8101702:	bf00      	nop
 8101704:	370c      	adds	r7, #12
 8101706:	46bd      	mov	sp, r7
 8101708:	f85d 7b04 	ldr.w	r7, [sp], #4
 810170c:	4770      	bx	lr
	...

08101710 <TIM_Base_SetConfig>:
  * @param  TIMx TIM peripheral
  * @param  Structure TIM Base configuration structure
  * @retval None
  */
void TIM_Base_SetConfig(TIM_TypeDef *TIMx, TIM_Base_InitTypeDef *Structure)
{
 8101710:	b480      	push	{r7}
 8101712:	b085      	sub	sp, #20
 8101714:	af00      	add	r7, sp, #0
 8101716:	6078      	str	r0, [r7, #4]
 8101718:	6039      	str	r1, [r7, #0]
  uint32_t tmpcr1;
  tmpcr1 = TIMx->CR1;
 810171a:	687b      	ldr	r3, [r7, #4]
 810171c:	681b      	ldr	r3, [r3, #0]
 810171e:	60fb      	str	r3, [r7, #12]

  /* Set TIM Time Base Unit parameters ---------------------------------------*/
  if (IS_TIM_COUNTER_MODE_SELECT_INSTANCE(TIMx))
 8101720:	687b      	ldr	r3, [r7, #4]
 8101722:	4a40      	ldr	r2, [pc, #256]	; (8101824 <TIM_Base_SetConfig+0x114>)
 8101724:	4293      	cmp	r3, r2
 8101726:	d013      	beq.n	8101750 <TIM_Base_SetConfig+0x40>
 8101728:	687b      	ldr	r3, [r7, #4]
 810172a:	f1b3 4f80 	cmp.w	r3, #1073741824	; 0x40000000
 810172e:	d00f      	beq.n	8101750 <TIM_Base_SetConfig+0x40>
 8101730:	687b      	ldr	r3, [r7, #4]
 8101732:	4a3d      	ldr	r2, [pc, #244]	; (8101828 <TIM_Base_SetConfig+0x118>)
 8101734:	4293      	cmp	r3, r2
 8101736:	d00b      	beq.n	8101750 <TIM_Base_SetConfig+0x40>
 8101738:	687b      	ldr	r3, [r7, #4]
 810173a:	4a3c      	ldr	r2, [pc, #240]	; (810182c <TIM_Base_SetConfig+0x11c>)
 810173c:	4293      	cmp	r3, r2
 810173e:	d007      	beq.n	8101750 <TIM_Base_SetConfig+0x40>
 8101740:	687b      	ldr	r3, [r7, #4]
 8101742:	4a3b      	ldr	r2, [pc, #236]	; (8101830 <TIM_Base_SetConfig+0x120>)
 8101744:	4293      	cmp	r3, r2
 8101746:	d003      	beq.n	8101750 <TIM_Base_SetConfig+0x40>
 8101748:	687b      	ldr	r3, [r7, #4]
 810174a:	4a3a      	ldr	r2, [pc, #232]	; (8101834 <TIM_Base_SetConfig+0x124>)
 810174c:	4293      	cmp	r3, r2
 810174e:	d108      	bne.n	8101762 <TIM_Base_SetConfig+0x52>
  {
    /* Select the Counter Mode */
    tmpcr1 &= ~(TIM_CR1_DIR | TIM_CR1_CMS);
 8101750:	68fb      	ldr	r3, [r7, #12]
 8101752:	f023 0370 	bic.w	r3, r3, #112	; 0x70
 8101756:	60fb      	str	r3, [r7, #12]
    tmpcr1 |= Structure->CounterMode;
 8101758:	683b      	ldr	r3, [r7, #0]
 810175a:	685b      	ldr	r3, [r3, #4]
 810175c:	68fa      	ldr	r2, [r7, #12]
 810175e:	4313      	orrs	r3, r2
 8101760:	60fb      	str	r3, [r7, #12]
  }

  if (IS_TIM_CLOCK_DIVISION_INSTANCE(TIMx))
 8101762:	687b      	ldr	r3, [r7, #4]
 8101764:	4a2f      	ldr	r2, [pc, #188]	; (8101824 <TIM_Base_SetConfig+0x114>)
 8101766:	4293      	cmp	r3, r2
 8101768:	d01f      	beq.n	81017aa <TIM_Base_SetConfig+0x9a>
 810176a:	687b      	ldr	r3, [r7, #4]
 810176c:	f1b3 4f80 	cmp.w	r3, #1073741824	; 0x40000000
 8101770:	d01b      	beq.n	81017aa <TIM_Base_SetConfig+0x9a>
 8101772:	687b      	ldr	r3, [r7, #4]
 8101774:	4a2c      	ldr	r2, [pc, #176]	; (8101828 <TIM_Base_SetConfig+0x118>)
 8101776:	4293      	cmp	r3, r2
 8101778:	d017      	beq.n	81017aa <TIM_Base_SetConfig+0x9a>
 810177a:	687b      	ldr	r3, [r7, #4]
 810177c:	4a2b      	ldr	r2, [pc, #172]	; (810182c <TIM_Base_SetConfig+0x11c>)
 810177e:	4293      	cmp	r3, r2
 8101780:	d013      	beq.n	81017aa <TIM_Base_SetConfig+0x9a>
 8101782:	687b      	ldr	r3, [r7, #4]
 8101784:	4a2a      	ldr	r2, [pc, #168]	; (8101830 <TIM_Base_SetConfig+0x120>)
 8101786:	4293      	cmp	r3, r2
 8101788:	d00f      	beq.n	81017aa <TIM_Base_SetConfig+0x9a>
 810178a:	687b      	ldr	r3, [r7, #4]
 810178c:	4a29      	ldr	r2, [pc, #164]	; (8101834 <TIM_Base_SetConfig+0x124>)
 810178e:	4293      	cmp	r3, r2
 8101790:	d00b      	beq.n	81017aa <TIM_Base_SetConfig+0x9a>
 8101792:	687b      	ldr	r3, [r7, #4]
 8101794:	4a28      	ldr	r2, [pc, #160]	; (8101838 <TIM_Base_SetConfig+0x128>)
 8101796:	4293      	cmp	r3, r2
 8101798:	d007      	beq.n	81017aa <TIM_Base_SetConfig+0x9a>
 810179a:	687b      	ldr	r3, [r7, #4]
 810179c:	4a27      	ldr	r2, [pc, #156]	; (810183c <TIM_Base_SetConfig+0x12c>)
 810179e:	4293      	cmp	r3, r2
 81017a0:	d003      	beq.n	81017aa <TIM_Base_SetConfig+0x9a>
 81017a2:	687b      	ldr	r3, [r7, #4]
 81017a4:	4a26      	ldr	r2, [pc, #152]	; (8101840 <TIM_Base_SetConfig+0x130>)
 81017a6:	4293      	cmp	r3, r2
 81017a8:	d108      	bne.n	81017bc <TIM_Base_SetConfig+0xac>
  {
    /* Set the clock division */
    tmpcr1 &= ~TIM_CR1_CKD;
 81017aa:	68fb      	ldr	r3, [r7, #12]
 81017ac:	f423 7340 	bic.w	r3, r3, #768	; 0x300
 81017b0:	60fb      	str	r3, [r7, #12]
    tmpcr1 |= (uint32_t)Structure->ClockDivision;
 81017b2:	683b      	ldr	r3, [r7, #0]
 81017b4:	68db      	ldr	r3, [r3, #12]
 81017b6:	68fa      	ldr	r2, [r7, #12]
 81017b8:	4313      	orrs	r3, r2
 81017ba:	60fb      	str	r3, [r7, #12]
  }

  /* Set the auto-reload preload */
  MODIFY_REG(tmpcr1, TIM_CR1_ARPE, Structure->AutoReloadPreload);
 81017bc:	68fb      	ldr	r3, [r7, #12]
 81017be:	f023 0280 	bic.w	r2, r3, #128	; 0x80
 81017c2:	683b      	ldr	r3, [r7, #0]
 81017c4:	695b      	ldr	r3, [r3, #20]
 81017c6:	4313      	orrs	r3, r2
 81017c8:	60fb      	str	r3, [r7, #12]

  TIMx->CR1 = tmpcr1;
 81017ca:	687b      	ldr	r3, [r7, #4]
 81017cc:	68fa      	ldr	r2, [r7, #12]
 81017ce:	601a      	str	r2, [r3, #0]

  /* Set the Autoreload value */
  TIMx->ARR = (uint32_t)Structure->Period ;
 81017d0:	683b      	ldr	r3, [r7, #0]
 81017d2:	689a      	ldr	r2, [r3, #8]
 81017d4:	687b      	ldr	r3, [r7, #4]
 81017d6:	62da      	str	r2, [r3, #44]	; 0x2c

  /* Set the Prescaler value */
  TIMx->PSC = Structure->Prescaler;
 81017d8:	683b      	ldr	r3, [r7, #0]
 81017da:	681a      	ldr	r2, [r3, #0]
 81017dc:	687b      	ldr	r3, [r7, #4]
 81017de:	629a      	str	r2, [r3, #40]	; 0x28

  if (IS_TIM_REPETITION_COUNTER_INSTANCE(TIMx))
 81017e0:	687b      	ldr	r3, [r7, #4]
 81017e2:	4a10      	ldr	r2, [pc, #64]	; (8101824 <TIM_Base_SetConfig+0x114>)
 81017e4:	4293      	cmp	r3, r2
 81017e6:	d00f      	beq.n	8101808 <TIM_Base_SetConfig+0xf8>
 81017e8:	687b      	ldr	r3, [r7, #4]
 81017ea:	4a12      	ldr	r2, [pc, #72]	; (8101834 <TIM_Base_SetConfig+0x124>)
 81017ec:	4293      	cmp	r3, r2
 81017ee:	d00b      	beq.n	8101808 <TIM_Base_SetConfig+0xf8>
 81017f0:	687b      	ldr	r3, [r7, #4]
 81017f2:	4a11      	ldr	r2, [pc, #68]	; (8101838 <TIM_Base_SetConfig+0x128>)
 81017f4:	4293      	cmp	r3, r2
 81017f6:	d007      	beq.n	8101808 <TIM_Base_SetConfig+0xf8>
 81017f8:	687b      	ldr	r3, [r7, #4]
 81017fa:	4a10      	ldr	r2, [pc, #64]	; (810183c <TIM_Base_SetConfig+0x12c>)
 81017fc:	4293      	cmp	r3, r2
 81017fe:	d003      	beq.n	8101808 <TIM_Base_SetConfig+0xf8>
 8101800:	687b      	ldr	r3, [r7, #4]
 8101802:	4a0f      	ldr	r2, [pc, #60]	; (8101840 <TIM_Base_SetConfig+0x130>)
 8101804:	4293      	cmp	r3, r2
 8101806:	d103      	bne.n	8101810 <TIM_Base_SetConfig+0x100>
  {
    /* Set the Repetition Counter value */
    TIMx->RCR = Structure->RepetitionCounter;
 8101808:	683b      	ldr	r3, [r7, #0]
 810180a:	691a      	ldr	r2, [r3, #16]
 810180c:	687b      	ldr	r3, [r7, #4]
 810180e:	631a      	str	r2, [r3, #48]	; 0x30
  }

  /* Generate an update event to reload the Prescaler
     and the repetition counter (only for advanced timer) value immediately */
  TIMx->EGR = TIM_EGR_UG;
 8101810:	687b      	ldr	r3, [r7, #4]
 8101812:	2201      	movs	r2, #1
 8101814:	615a      	str	r2, [r3, #20]
}
 8101816:	bf00      	nop
 8101818:	3714      	adds	r7, #20
 810181a:	46bd      	mov	sp, r7
 810181c:	f85d 7b04 	ldr.w	r7, [sp], #4
 8101820:	4770      	bx	lr
 8101822:	bf00      	nop
 8101824:	40010000 	.word	0x40010000
 8101828:	40000400 	.word	0x40000400
 810182c:	40000800 	.word	0x40000800
 8101830:	40000c00 	.word	0x40000c00
 8101834:	40010400 	.word	0x40010400
 8101838:	40014000 	.word	0x40014000
 810183c:	40014400 	.word	0x40014400
 8101840:	40014800 	.word	0x40014800

08101844 <HAL_TIMEx_CommutCallback>:
  * @brief  Hall commutation changed callback in non-blocking mode
  * @param  htim TIM handle
  * @retval None
  */
__weak void HAL_TIMEx_CommutCallback(TIM_HandleTypeDef *htim)
{
 8101844:	b480      	push	{r7}
 8101846:	b083      	sub	sp, #12
 8101848:	af00      	add	r7, sp, #0
 810184a:	6078      	str	r0, [r7, #4]
  UNUSED(htim);

  /* NOTE : This function should not be modified, when the callback is needed,
            the HAL_TIMEx_CommutCallback could be implemented in the user file
   */
}
 810184c:	bf00      	nop
 810184e:	370c      	adds	r7, #12
 8101850:	46bd      	mov	sp, r7
 8101852:	f85d 7b04 	ldr.w	r7, [sp], #4
 8101856:	4770      	bx	lr

08101858 <HAL_TIMEx_BreakCallback>:
  * @brief  Hall Break detection callback in non-blocking mode
  * @param  htim TIM handle
  * @retval None
  */
__weak void HAL_TIMEx_BreakCallback(TIM_HandleTypeDef *htim)
{
 8101858:	b480      	push	{r7}
 810185a:	b083      	sub	sp, #12
 810185c:	af00      	add	r7, sp, #0
 810185e:	6078      	str	r0, [r7, #4]
  UNUSED(htim);

  /* NOTE : This function should not be modified, when the callback is needed,
            the HAL_TIMEx_BreakCallback could be implemented in the user file
   */
}
 8101860:	bf00      	nop
 8101862:	370c      	adds	r7, #12
 8101864:	46bd      	mov	sp, r7
 8101866:	f85d 7b04 	ldr.w	r7, [sp], #4
 810186a:	4770      	bx	lr

0810186c <HAL_TIMEx_Break2Callback>:
  * @brief  Hall Break2 detection callback in non blocking mode
  * @param  htim: TIM handle
  * @retval None
  */
__weak void HAL_TIMEx_Break2Callback(TIM_HandleTypeDef *htim)
{
 810186c:	b480      	push	{r7}
 810186e:	b083      	sub	sp, #12
 8101870:	af00      	add	r7, sp, #0
 8101872:	6078      	str	r0, [r7, #4]
  UNUSED(htim);

  /* NOTE : This function Should not be modified, when the callback is needed,
            the HAL_TIMEx_Break2Callback could be implemented in the user file
   */
}
 8101874:	bf00      	nop
 8101876:	370c      	adds	r7, #12
 8101878:	46bd      	mov	sp, r7
 810187a:	f85d 7b04 	ldr.w	r7, [sp], #4
 810187e:	4770      	bx	lr

08101880 <__libc_init_array>:
 8101880:	b570      	push	{r4, r5, r6, lr}
 8101882:	4d0d      	ldr	r5, [pc, #52]	; (81018b8 <__libc_init_array+0x38>)
 8101884:	4c0d      	ldr	r4, [pc, #52]	; (81018bc <__libc_init_array+0x3c>)
 8101886:	1b64      	subs	r4, r4, r5
 8101888:	10a4      	asrs	r4, r4, #2
 810188a:	2600      	movs	r6, #0
 810188c:	42a6      	cmp	r6, r4
 810188e:	d109      	bne.n	81018a4 <__libc_init_array+0x24>
 8101890:	4d0b      	ldr	r5, [pc, #44]	; (81018c0 <__libc_init_array+0x40>)
 8101892:	4c0c      	ldr	r4, [pc, #48]	; (81018c4 <__libc_init_array+0x44>)
 8101894:	f000 f818 	bl	81018c8 <_init>
 8101898:	1b64      	subs	r4, r4, r5
 810189a:	10a4      	asrs	r4, r4, #2
 810189c:	2600      	movs	r6, #0
 810189e:	42a6      	cmp	r6, r4
 81018a0:	d105      	bne.n	81018ae <__libc_init_array+0x2e>
 81018a2:	bd70      	pop	{r4, r5, r6, pc}
 81018a4:	f855 3b04 	ldr.w	r3, [r5], #4
 81018a8:	4798      	blx	r3
 81018aa:	3601      	adds	r6, #1
 81018ac:	e7ee      	b.n	810188c <__libc_init_array+0xc>
 81018ae:	f855 3b04 	ldr.w	r3, [r5], #4
 81018b2:	4798      	blx	r3
 81018b4:	3601      	adds	r6, #1
 81018b6:	e7f2      	b.n	810189e <__libc_init_array+0x1e>
 81018b8:	081018f0 	.word	0x081018f0
 81018bc:	081018f0 	.word	0x081018f0
 81018c0:	081018f0 	.word	0x081018f0
 81018c4:	081018f4 	.word	0x081018f4

081018c8 <_init>:
 81018c8:	b5f8      	push	{r3, r4, r5, r6, r7, lr}
 81018ca:	bf00      	nop
 81018cc:	bcf8      	pop	{r3, r4, r5, r6, r7}
 81018ce:	bc08      	pop	{r3}
 81018d0:	469e      	mov	lr, r3
 81018d2:	4770      	bx	lr

081018d4 <_fini>:
 81018d4:	b5f8      	push	{r3, r4, r5, r6, r7, lr}
 81018d6:	bf00      	nop
 81018d8:	bcf8      	pop	{r3, r4, r5, r6, r7}
 81018da:	bc08      	pop	{r3}
 81018dc:	469e      	mov	lr, r3
 81018de:	4770      	bx	lr
